{
  "contractName": "EternovaQuickBattles",
  "abi": [
    {
      "inputs": [],
      "stateMutability": "nonpayable",
      "type": "constructor"
    },
    {
      "anonymous": false,
      "inputs": [
        {
          "indexed": false,
          "internalType": "uint256",
          "name": "id",
          "type": "uint256"
        },
        {
          "indexed": true,
          "internalType": "address",
          "name": "winner",
          "type": "address"
        },
        {
          "indexed": false,
          "internalType": "uint256",
          "name": "winnerCityLife",
          "type": "uint256"
        },
        {
          "indexed": false,
          "internalType": "uint256",
          "name": "looserCityLife",
          "type": "uint256"
        }
      ],
      "name": "BattleFinished",
      "type": "event"
    },
    {
      "anonymous": false,
      "inputs": [
        {
          "indexed": true,
          "internalType": "uint256",
          "name": "id",
          "type": "uint256"
        },
        {
          "indexed": true,
          "internalType": "address",
          "name": "creator",
          "type": "address"
        },
        {
          "indexed": true,
          "internalType": "address",
          "name": "opponent",
          "type": "address"
        }
      ],
      "name": "BattleStarted",
      "type": "event"
    },
    {
      "anonymous": false,
      "inputs": [
        {
          "indexed": true,
          "internalType": "address",
          "name": "previousOwner",
          "type": "address"
        },
        {
          "indexed": true,
          "internalType": "address",
          "name": "newOwner",
          "type": "address"
        }
      ],
      "name": "OwnershipTransferred",
      "type": "event"
    },
    {
      "anonymous": false,
      "inputs": [
        {
          "indexed": true,
          "internalType": "uint256",
          "name": "id",
          "type": "uint256"
        },
        {
          "indexed": false,
          "internalType": "uint256",
          "name": "currentRound",
          "type": "uint256"
        }
      ],
      "name": "RoundFinished",
      "type": "event"
    },
    {
      "anonymous": false,
      "inputs": [
        {
          "indexed": true,
          "internalType": "uint256",
          "name": "id",
          "type": "uint256"
        },
        {
          "indexed": false,
          "internalType": "uint256",
          "name": "currentRound",
          "type": "uint256"
        }
      ],
      "name": "RoundStarted",
      "type": "event"
    },
    {
      "inputs": [],
      "name": "owner",
      "outputs": [
        {
          "internalType": "address",
          "name": "",
          "type": "address"
        }
      ],
      "stateMutability": "view",
      "type": "function",
      "constant": true
    },
    {
      "inputs": [],
      "name": "renounceOwnership",
      "outputs": [],
      "stateMutability": "nonpayable",
      "type": "function"
    },
    {
      "inputs": [
        {
          "internalType": "address",
          "name": "newOwner",
          "type": "address"
        }
      ],
      "name": "transferOwnership",
      "outputs": [],
      "stateMutability": "nonpayable",
      "type": "function"
    },
    {
      "inputs": [
        {
          "internalType": "address",
          "name": "opponent",
          "type": "address"
        },
        {
          "internalType": "uint256[3]",
          "name": "troopsAmount",
          "type": "uint256[3]"
        }
      ],
      "name": "startBattle",
      "outputs": [
        {
          "internalType": "uint256",
          "name": "",
          "type": "uint256"
        }
      ],
      "stateMutability": "nonpayable",
      "type": "function"
    },
    {
      "inputs": [
        {
          "internalType": "uint256",
          "name": "id",
          "type": "uint256"
        },
        {
          "internalType": "uint256[3]",
          "name": "troopsAmount",
          "type": "uint256[3]"
        }
      ],
      "name": "requestBattle",
      "outputs": [],
      "stateMutability": "nonpayable",
      "type": "function"
    },
    {
      "inputs": [
        {
          "internalType": "uint256",
          "name": "id",
          "type": "uint256"
        }
      ],
      "name": "getPublicBattleData",
      "outputs": [
        {
          "components": [
            {
              "internalType": "address",
              "name": "creator",
              "type": "address"
            },
            {
              "internalType": "address",
              "name": "opponent",
              "type": "address"
            },
            {
              "internalType": "uint256",
              "name": "currentRound",
              "type": "uint256"
            },
            {
              "internalType": "address",
              "name": "nextMove",
              "type": "address"
            },
            {
              "components": [
                {
                  "internalType": "uint256",
                  "name": "predatorAttackingUnits",
                  "type": "uint256"
                },
                {
                  "internalType": "uint256",
                  "name": "proximusAttackingUnits",
                  "type": "uint256"
                },
                {
                  "internalType": "uint256",
                  "name": "bountyAttackingUnits",
                  "type": "uint256"
                },
                {
                  "internalType": "uint256",
                  "name": "predatorDefendingUnits",
                  "type": "uint256"
                },
                {
                  "internalType": "uint256",
                  "name": "proximusDefendingUnits",
                  "type": "uint256"
                },
                {
                  "internalType": "uint256",
                  "name": "bountyDefendingUnits",
                  "type": "uint256"
                }
              ],
              "internalType": "struct EternovaQuickBattles.BattleAmount[3]",
              "name": "amounts",
              "type": "tuple[3]"
            },
            {
              "internalType": "uint256",
              "name": "creatorCityLife",
              "type": "uint256"
            },
            {
              "internalType": "uint256",
              "name": "opponentCityLife",
              "type": "uint256"
            },
            {
              "internalType": "address",
              "name": "winner",
              "type": "address"
            }
          ],
          "internalType": "struct EternovaQuickBattles.PublicBattleData",
          "name": "data",
          "type": "tuple"
        }
      ],
      "stateMutability": "view",
      "type": "function",
      "constant": true
    },
    {
      "inputs": [
        {
          "internalType": "uint256[]",
          "name": "_ids",
          "type": "uint256[]"
        }
      ],
      "name": "getPublicBattleDataArray",
      "outputs": [
        {
          "components": [
            {
              "internalType": "address",
              "name": "creator",
              "type": "address"
            },
            {
              "internalType": "address",
              "name": "opponent",
              "type": "address"
            },
            {
              "internalType": "uint256",
              "name": "currentRound",
              "type": "uint256"
            },
            {
              "internalType": "address",
              "name": "nextMove",
              "type": "address"
            },
            {
              "components": [
                {
                  "internalType": "uint256",
                  "name": "predatorAttackingUnits",
                  "type": "uint256"
                },
                {
                  "internalType": "uint256",
                  "name": "proximusAttackingUnits",
                  "type": "uint256"
                },
                {
                  "internalType": "uint256",
                  "name": "bountyAttackingUnits",
                  "type": "uint256"
                },
                {
                  "internalType": "uint256",
                  "name": "predatorDefendingUnits",
                  "type": "uint256"
                },
                {
                  "internalType": "uint256",
                  "name": "proximusDefendingUnits",
                  "type": "uint256"
                },
                {
                  "internalType": "uint256",
                  "name": "bountyDefendingUnits",
                  "type": "uint256"
                }
              ],
              "internalType": "struct EternovaQuickBattles.BattleAmount[3]",
              "name": "amounts",
              "type": "tuple[3]"
            },
            {
              "internalType": "uint256",
              "name": "creatorCityLife",
              "type": "uint256"
            },
            {
              "internalType": "uint256",
              "name": "opponentCityLife",
              "type": "uint256"
            },
            {
              "internalType": "address",
              "name": "winner",
              "type": "address"
            }
          ],
          "internalType": "struct EternovaQuickBattles.PublicBattleData[]",
          "name": "arrayData",
          "type": "tuple[]"
        }
      ],
      "stateMutability": "view",
      "type": "function",
      "constant": true
    },
    {
      "inputs": [
        {
          "internalType": "address",
          "name": "user",
          "type": "address"
        },
        {
          "internalType": "uint256",
          "name": "limit",
          "type": "uint256"
        },
        {
          "internalType": "uint256",
          "name": "offset",
          "type": "uint256"
        }
      ],
      "name": "getUserBattleData",
      "outputs": [
        {
          "components": [
            {
              "internalType": "uint256",
              "name": "battleId",
              "type": "uint256"
            },
            {
              "internalType": "address",
              "name": "creator",
              "type": "address"
            },
            {
              "internalType": "address",
              "name": "opponent",
              "type": "address"
            },
            {
              "internalType": "uint256",
              "name": "currentRound",
              "type": "uint256"
            },
            {
              "internalType": "address",
              "name": "nextMove",
              "type": "address"
            },
            {
              "internalType": "address",
              "name": "winner",
              "type": "address"
            }
          ],
          "internalType": "struct EternovaQuickBattles.BattleDataResponse[]",
          "name": "",
          "type": "tuple[]"
        }
      ],
      "stateMutability": "view",
      "type": "function",
      "constant": true
    },
    {
      "inputs": [
        {
          "internalType": "address",
          "name": "user",
          "type": "address"
        }
      ],
      "name": "getUserBattleCount",
      "outputs": [
        {
          "internalType": "uint256",
          "name": "",
          "type": "uint256"
        }
      ],
      "stateMutability": "view",
      "type": "function",
      "constant": true
    }
  ],
  "bytecode": "0x60806040526040518060400160405280602881526020016064815250600260008201518160000155602082015181600101555050604051806040016040528060c8815260200160c881525060046000820151816000015560208201518160010155505060405180604001604052806096815260200160328152506006600082015181600001556020820151816001015550503480156200009e57600080fd5b50620000bf620000b36200011260201b60201c565b6200011a60201b60201c565b600880600060018152602001908152602001600020819055506009600860006002815260200190815260200160002081905550600a600860006003815260200190815260200160002081905550620001de565b600033905090565b60008060009054906101000a900473ffffffffffffffffffffffffffffffffffffffff169050816000806101000a81548173ffffffffffffffffffffffffffffffffffffffff021916908373ffffffffffffffffffffffffffffffffffffffff1602179055508173ffffffffffffffffffffffffffffffffffffffff168173ffffffffffffffffffffffffffffffffffffffff167f8be0079c531659141344cd1fd0a4f28419497f9722a3daafe3b4186f6b6457e060405160405180910390a35050565b613da480620001ee6000396000f3fe608060405234801561001057600080fd5b50600436106100935760003560e01c80638da5cb5b116100665780638da5cb5b1461013257806394a8142d146101505780639c80043814610180578063a5e94e98146101b0578063f2fde38b146101cc57610093565b8063141dfa7914610098578063553bff08146100c8578063715018a6146100f8578063750bd46514610102575b600080fd5b6100b260048036038101906100ad9190612e36565b6101e8565b6040516100bf9190612fd1565b60405180910390f35b6100e260048036038101906100dd9190612ff3565b610646565b6040516100ef919061302f565b60405180910390f35b610100610696565b005b61011c600480360381019061011791906131a3565b6106aa565b6040516101299190613458565b60405180910390f35b61013a610769565b6040516101479190613489565b60405180910390f35b61016a600480360381019061016591906134a4565b610792565b6040516101779190613576565b60405180910390f35b61019a600480360381019061019591906135b4565b610dd7565b6040516101a7919061302f565b60405180910390f35b6101ca60048036038101906101c591906135f4565b611339565b005b6101e660048036038101906101e19190612ff3565b61181e565b005b6060606483111561022e576040517f08c379a000000000000000000000000000000000000000000000000000000000815260040161022590613691565b60405180910390fd5b6000600b60008673ffffffffffffffffffffffffffffffffffffffff1673ffffffffffffffffffffffffffffffffffffffff16815260200190815260200160002090506000606461027e836118a1565b111561028b576064610295565b610294826118a1565b5b9050600085821180156102a9575060008614155b6102b357816102b5565b855b90506000808267ffffffffffffffff8111156102d4576102d3613060565b5b60405190808252806020026020018201604052801561030d57816020015b6102fa612b57565b8152602001906001900390816102f25790505b50905060008790505b8381101561063657600061037182600b60008e73ffffffffffffffffffffffffffffffffffffffff1673ffffffffffffffffffffffffffffffffffffffff1681526020019081526020016000206118b690919063ffffffff16565b90506000600a6000838152602001908152602001600020604051806101000160405290816000820160009054906101000a900473ffffffffffffffffffffffffffffffffffffffff1673ffffffffffffffffffffffffffffffffffffffff1673ffffffffffffffffffffffffffffffffffffffff1681526020016001820160009054906101000a900473ffffffffffffffffffffffffffffffffffffffff1673ffffffffffffffffffffffffffffffffffffffff1673ffffffffffffffffffffffffffffffffffffffff168152602001600282015481526020016003820160009054906101000a900473ffffffffffffffffffffffffffffffffffffffff1673ffffffffffffffffffffffffffffffffffffffff1673ffffffffffffffffffffffffffffffffffffffff168152602001600482016040518060c001604052908160008201548152602001600182015481526020016002820154815260200160038201548152602001600482015481526020016005820154815250508152602001600a8201548152602001600b8201548152602001600c820160009054906101000a900473ffffffffffffffffffffffffffffffffffffffff1673ffffffffffffffffffffffffffffffffffffffff1673ffffffffffffffffffffffffffffffffffffffff168152505090506040518060c00160405280838152602001826000015173ffffffffffffffffffffffffffffffffffffffff168152602001826020015173ffffffffffffffffffffffffffffffffffffffff16815260200182604001518152602001826060015173ffffffffffffffffffffffffffffffffffffffff1681526020018260e0015173ffffffffffffffffffffffffffffffffffffffff16815250848681518110610608576106076136b1565b5b6020026020010181905250848061061e9061370f565b9550505050808061062e9061370f565b915050610316565b5080955050505050509392505050565b600061068f600b60008473ffffffffffffffffffffffffffffffffffffffff1673ffffffffffffffffffffffffffffffffffffffff1681526020019081526020016000206118a1565b9050919050565b61069e6118d0565b6106a8600061194e565b565b6060815167ffffffffffffffff8111156106c7576106c6613060565b5b60405190808252806020026020018201604052801561070057816020015b6106ed612be5565b8152602001906001900390816106e55790505b50905060005b825181101561076357610732838281518110610725576107246136b1565b5b6020026020010151610792565b828281518110610745576107446136b1565b5b6020026020010181905250808061075b9061370f565b915050610706565b50919050565b60008060009054906101000a900473ffffffffffffffffffffffffffffffffffffffff16905090565b61079a612be5565b6107a46001611a12565b8211156107e6576040517f08c379a00000000000000000000000000000000000000000000000000000000081526004016107dd906137a3565b60405180910390fd5b6000600a6000848152602001908152602001600020604051806101000160405290816000820160009054906101000a900473ffffffffffffffffffffffffffffffffffffffff1673ffffffffffffffffffffffffffffffffffffffff1673ffffffffffffffffffffffffffffffffffffffff1681526020016001820160009054906101000a900473ffffffffffffffffffffffffffffffffffffffff1673ffffffffffffffffffffffffffffffffffffffff1673ffffffffffffffffffffffffffffffffffffffff168152602001600282015481526020016003820160009054906101000a900473ffffffffffffffffffffffffffffffffffffffff1673ffffffffffffffffffffffffffffffffffffffff1673ffffffffffffffffffffffffffffffffffffffff168152602001600482016040518060c001604052908160008201548152602001600182015481526020016002820154815260200160038201548152602001600482015481526020016005820154815250508152602001600a8201548152602001600b8201548152602001600c820160009054906101000a900473ffffffffffffffffffffffffffffffffffffffff1673ffffffffffffffffffffffffffffffffffffffff1673ffffffffffffffffffffffffffffffffffffffff16815250509050806000015173ffffffffffffffffffffffffffffffffffffffff163373ffffffffffffffffffffffffffffffffffffffff161480610a3c5750806020015173ffffffffffffffffffffffffffffffffffffffff163373ffffffffffffffffffffffffffffffffffffffff16145b80610a7257503073ffffffffffffffffffffffffffffffffffffffff163373ffffffffffffffffffffffffffffffffffffffff16145b610ab1576040517f08c379a0000000000000000000000000000000000000000000000000000000008152600401610aa89061380f565b60405180910390fd5b610ab9612c88565b8160000151836000019073ffffffffffffffffffffffffffffffffffffffff16908173ffffffffffffffffffffffffffffffffffffffff16815250508160200151836020019073ffffffffffffffffffffffffffffffffffffffff16908173ffffffffffffffffffffffffffffffffffffffff168152505081604001518360400181815250508160600151836060019073ffffffffffffffffffffffffffffffffffffffff16908173ffffffffffffffffffffffffffffffffffffffff168152505060005b6003811015610d6e57600960008681526020019081526020016000206000600183610ba9919061382f565b81526020019081526020016000206040518060c00160405290816000820154815260200160018201548152602001600282015481526020016003820154815260200160048201548152602001600582015481525050828260038110610c1157610c106136b1565b5b6020020181905250600073ffffffffffffffffffffffffffffffffffffffff168360e0015173ffffffffffffffffffffffffffffffffffffffff1603610d5b57836000015173ffffffffffffffffffffffffffffffffffffffff163373ffffffffffffffffffffffffffffffffffffffff1603610cf3576000828260038110610c9d57610c9c6136b1565b5b602002015160600181815250506000828260038110610cbf57610cbe6136b1565b5b602002015160800181815250506000828260038110610ce157610ce06136b1565b5b602002015160a0018181525050610d5a565b6000828260038110610d0857610d076136b1565b5b602002015160000181815250506000828260038110610d2a57610d296136b1565b5b602002015160200181815250506000828260038110610d4c57610d4b6136b1565b5b602002015160400181815250505b5b8080610d669061370f565b915050610b7e565b508083608001819052508160a001518360a00181815250508160c001518360c00181815250508160e001518360e0019073ffffffffffffffffffffffffffffffffffffffff16908173ffffffffffffffffffffffffffffffffffffffff16815250505050919050565b6000610de33384611a20565b15610e23576040517f08c379a0000000000000000000000000000000000000000000000000000000008152600401610e1a906138af565b60405180910390fd5b600582600060038110610e3957610e386136b1565b5b60200201351115610e7f576040517f08c379a0000000000000000000000000000000000000000000000000000000008152600401610e769061391b565b60405180910390fd5b600282600160038110610e9557610e946136b1565b5b60200201351115610edb576040517f08c379a0000000000000000000000000000000000000000000000000000000008152600401610ed290613987565b60405180910390fd5b600382600260038110610ef157610ef06136b1565b5b60200201351115610f37576040517f08c379a0000000000000000000000000000000000000000000000000000000008152600401610f2e906139f3565b60405180910390fd5b600082600260038110610f4d57610f4c6136b1565b5b602002013583600160038110610f6657610f656136b1565b5b602002013584600060038110610f7f57610f7e6136b1565b5b6020020135610f8e919061382f565b610f98919061382f565b9050600860006001815260200190815260200160002054811115610ff1576040517f08c379a0000000000000000000000000000000000000000000000000000000008152600401610fe890613a5f565b60405180910390fd5b610ffb6001611ab4565b60006040518060c001604052808560006003811061101c5761101b6136b1565b5b602002013581526020018560016003811061103a576110396136b1565b5b6020020135815260200185600260038110611058576110576136b1565b5b6020020135815260200160008152602001600081526020016000815250905060006040518061010001604052803373ffffffffffffffffffffffffffffffffffffffff1681526020018773ffffffffffffffffffffffffffffffffffffffff168152602001600181526020018773ffffffffffffffffffffffffffffffffffffffff1681526020018381526020016101f481526020016101f48152602001600073ffffffffffffffffffffffffffffffffffffffff16815250905081600960006111226001611a12565b8152602001908152602001600020600060018152602001908152602001600020600082015181600001556020820151816001015560408201518160020155606082015181600301556080820151816004015560a0820151816005015590505061119461118e6001611a12565b82611aca565b6111ee6111a16001611a12565b600b60003373ffffffffffffffffffffffffffffffffffffffff1673ffffffffffffffffffffffffffffffffffffffff168152602001908152602001600020611c6690919063ffffffff16565b506112496111fc6001611a12565b600b60008973ffffffffffffffffffffffffffffffffffffffff1673ffffffffffffffffffffffffffffffffffffffff168152602001908152602001600020611c6690919063ffffffff16565b506001600c60003373ffffffffffffffffffffffffffffffffffffffff1673ffffffffffffffffffffffffffffffffffffffff16815260200190815260200160002060008873ffffffffffffffffffffffffffffffffffffffff1673ffffffffffffffffffffffffffffffffffffffff16815260200190815260200160002060006101000a81548160ff0219169083151502179055506112e96001611a12565b7f278844837bcf8364a705384bf3a2812901f54155bae86dea81dd52aa5b9ec0e3826040015160405161131c919061302f565b60405180910390a261132e6001611a12565b935050505092915050565b6113438282611c80565b600061134e8361224e565b905060006040518060c00160405280836000015173ffffffffffffffffffffffffffffffffffffffff163373ffffffffffffffffffffffffffffffffffffffff16146113a2578360800151600001516113bc565b846000600381106113b6576113b56136b1565b5b60200201355b8152602001836000015173ffffffffffffffffffffffffffffffffffffffff163373ffffffffffffffffffffffffffffffffffffffff161461140657836080015160200151611420565b8460016003811061141a576114196136b1565b5b60200201355b8152602001836000015173ffffffffffffffffffffffffffffffffffffffff163373ffffffffffffffffffffffffffffffffffffffff161461146a57836080015160400151611484565b8460026003811061147e5761147d6136b1565b5b60200201355b8152602001836020015173ffffffffffffffffffffffffffffffffffffffff163373ffffffffffffffffffffffffffffffffffffffff16146114ce578360800151606001516114e8565b846000600381106114e2576114e16136b1565b5b60200201355b8152602001836020015173ffffffffffffffffffffffffffffffffffffffff163373ffffffffffffffffffffffffffffffffffffffff16146115325783608001516080015161154c565b84600160038110611546576115456136b1565b5b60200201355b8152602001836020015173ffffffffffffffffffffffffffffffffffffffff163373ffffffffffffffffffffffffffffffffffffffff161461159657836080015160a001516115b0565b846002600381106115aa576115a96136b1565b5b60200201355b8152509050604051806101000160405280836000015173ffffffffffffffffffffffffffffffffffffffff168152602001836020015173ffffffffffffffffffffffffffffffffffffffff16815260200183604001518152602001836060015173ffffffffffffffffffffffffffffffffffffffff1681526020018281526020018360a0015181526020018360c001518152602001600073ffffffffffffffffffffffffffffffffffffffff16815250915061166b82612442565b156116e7578060096000868152602001908152602001600020600084604001518152602001908152602001600020600082015181600001556020820151816001015560408201518160020155606082015181600301556080820151816004015560a082015181600501559050506116e284836124b6565b611818565b816000015173ffffffffffffffffffffffffffffffffffffffff16826060015173ffffffffffffffffffffffffffffffffffffffff161461172c578160000151611732565b81602001515b826060019073ffffffffffffffffffffffffffffffffffffffff16908173ffffffffffffffffffffffffffffffffffffffff16815250508060096000868152602001908152602001600020600084604001518152602001908152602001600020600082015181600001556020820151816001015560408201518160020155606082015181600301556080820151816004015560a082015181600501559050506117db8483611aca565b837f278844837bcf8364a705384bf3a2812901f54155bae86dea81dd52aa5b9ec0e3836040015160405161180f919061302f565b60405180910390a25b50505050565b6118266118d0565b600073ffffffffffffffffffffffffffffffffffffffff168173ffffffffffffffffffffffffffffffffffffffff1603611895576040517f08c379a000000000000000000000000000000000000000000000000000000000815260040161188c90613af1565b60405180910390fd5b61189e8161194e565b50565b60006118af82600001612a36565b9050919050565b60006118c58360000183612a47565b60001c905092915050565b6118d8612a72565b73ffffffffffffffffffffffffffffffffffffffff166118f6610769565b73ffffffffffffffffffffffffffffffffffffffff161461194c576040517f08c379a000000000000000000000000000000000000000000000000000000000815260040161194390613b5d565b60405180910390fd5b565b60008060009054906101000a900473ffffffffffffffffffffffffffffffffffffffff169050816000806101000a81548173ffffffffffffffffffffffffffffffffffffffff021916908373ffffffffffffffffffffffffffffffffffffffff1602179055508173ffffffffffffffffffffffffffffffffffffffff168173ffffffffffffffffffffffffffffffffffffffff167f8be0079c531659141344cd1fd0a4f28419497f9722a3daafe3b4186f6b6457e060405160405180910390a35050565b600081600001549050919050565b6000600c60008473ffffffffffffffffffffffffffffffffffffffff1673ffffffffffffffffffffffffffffffffffffffff16815260200190815260200160002060008373ffffffffffffffffffffffffffffffffffffffff1673ffffffffffffffffffffffffffffffffffffffff16815260200190815260200160002060009054906101000a900460ff16905092915050565b6001816000016000828254019250508190555050565b80600a600084815260200190815260200160002060008201518160000160006101000a81548173ffffffffffffffffffffffffffffffffffffffff021916908373ffffffffffffffffffffffffffffffffffffffff16021790555060208201518160010160006101000a81548173ffffffffffffffffffffffffffffffffffffffff021916908373ffffffffffffffffffffffffffffffffffffffff1602179055506040820151816002015560608201518160030160006101000a81548173ffffffffffffffffffffffffffffffffffffffff021916908373ffffffffffffffffffffffffffffffffffffffff160217905550608082015181600401600082015181600001556020820151816001015560408201518160020155606082015181600301556080820151816004015560a08201518160050155505060a082015181600a015560c082015181600b015560e082015181600c0160006101000a81548173ffffffffffffffffffffffffffffffffffffffff021916908373ffffffffffffffffffffffffffffffffffffffff1602179055509050505050565b6000611c78836000018360001b612a7a565b905092915050565b611c8a6001611a12565b821115611ccc576040517f08c379a0000000000000000000000000000000000000000000000000000000008152600401611cc3906137a3565b60405180910390fd5b6000611cd78361224e565b9050806000015173ffffffffffffffffffffffffffffffffffffffff163373ffffffffffffffffffffffffffffffffffffffff161480611d465750806020015173ffffffffffffffffffffffffffffffffffffffff163373ffffffffffffffffffffffffffffffffffffffff16145b611d85576040517f08c379a0000000000000000000000000000000000000000000000000000000008152600401611d7c90613bc9565b60405180910390fd5b3373ffffffffffffffffffffffffffffffffffffffff16816060015173ffffffffffffffffffffffffffffffffffffffff1614611df7576040517f08c379a0000000000000000000000000000000000000000000000000000000008152600401611dee90613c35565b60405180910390fd5b60008060008060005b6003811015611fdf57856000015173ffffffffffffffffffffffffffffffffffffffff163373ffffffffffffffffffffffffffffffffffffffff1603611f0857600960008981526020019081526020016000206000600183611e62919061382f565b81526020019081526020016000206000015485611e7f919061382f565b9450600960008981526020019081526020016000206000600183611ea3919061382f565b81526020019081526020016000206001015484611ec0919061382f565b9350600960008981526020019081526020016000206000600183611ee4919061382f565b81526020019081526020016000206002015483611f01919061382f565b9250611fcc565b600960008981526020019081526020016000206000600183611f2a919061382f565b81526020019081526020016000206003015485611f47919061382f565b9450600960008981526020019081526020016000206000600183611f6b919061382f565b81526020019081526020016000206004015484611f88919061382f565b9350600960008981526020019081526020016000206000600183611fac919061382f565b81526020019081526020016000206005015483611fc9919061382f565b92505b8080611fd79061370f565b915050611e00565b50818385611fed919061382f565b611ff7919061382f565b81612002919061382f565b90506005848760006003811061201b5761201a6136b1565b5b602002013561202a919061382f565b111561206b576040517f08c379a00000000000000000000000000000000000000000000000000000000081526004016120629061391b565b60405180910390fd5b60028387600160038110612082576120816136b1565b5b6020020135612091919061382f565b11156120d2576040517f08c379a00000000000000000000000000000000000000000000000000000000081526004016120c990613987565b60405180910390fd5b600382876002600381106120e9576120e86136b1565b5b60200201356120f8919061382f565b1115612139576040517f08c379a0000000000000000000000000000000000000000000000000000000008152600401612130906139f3565b60405180910390fd5b60008660026003811061214f5761214e6136b1565b5b602002013587600160038110612168576121676136b1565b5b602002013588600060038110612181576121806136b1565b5b6020020135612190919061382f565b61219a919061382f565b9050600081116121df576040517f08c379a00000000000000000000000000000000000000000000000000000000081526004016121d690613ca1565b60405180910390fd5b6008600087604001518152602001908152602001600020548282612203919061382f565b1115612244576040517f08c379a000000000000000000000000000000000000000000000000000000000815260040161223b90613a5f565b60405180910390fd5b5050505050505050565b612256612cb5565b600a6000838152602001908152602001600020604051806101000160405290816000820160009054906101000a900473ffffffffffffffffffffffffffffffffffffffff1673ffffffffffffffffffffffffffffffffffffffff1673ffffffffffffffffffffffffffffffffffffffff1681526020016001820160009054906101000a900473ffffffffffffffffffffffffffffffffffffffff1673ffffffffffffffffffffffffffffffffffffffff1673ffffffffffffffffffffffffffffffffffffffff168152602001600282015481526020016003820160009054906101000a900473ffffffffffffffffffffffffffffffffffffffff1673ffffffffffffffffffffffffffffffffffffffff1673ffffffffffffffffffffffffffffffffffffffff168152602001600482016040518060c001604052908160008201548152602001600182015481526020016002820154815260200160038201548152602001600482015481526020016005820154815250508152602001600a8201548152602001600b8201548152602001600c820160009054906101000a900473ffffffffffffffffffffffffffffffffffffffff1673ffffffffffffffffffffffffffffffffffffffff1673ffffffffffffffffffffffffffffffffffffffff16815250509050919050565b60008082608001516040015183608001516020015184608001516000015161246a919061382f565b612474919061382f565b1180156124af57506000826080015160a001518360800151608001518460800151606001516124a3919061382f565b6124ad919061382f565b115b9050919050565b60008160a00151905060008260c00151905060006006600001548460800151604001516124e39190613cc1565b6004600001548560800151602001516124fc9190613cc1565b6002600001548660800151600001516125159190613cc1565b61251f919061382f565b612529919061382f565b905060006006600101548560800151604001516125469190613cc1565b60046001015486608001516020015161255f9190613cc1565b6002600101548760800151600001516125789190613cc1565b612582919061382f565b61258c919061382f565b90506000600660000154866080015160a001516125a99190613cc1565b6004600001548760800151608001516125c29190613cc1565b6002600001548860800151606001516125db9190613cc1565b6125e5919061382f565b6125ef919061382f565b90506000600660010154876080015160a0015161260c9190613cc1565b6004600101548860800151608001516126259190613cc1565b60026001015489608001516060015161263e9190613cc1565b612648919061382f565b612652919061382f565b905060006040518060c0016040528060008152602001600081526020016000815260200160008152602001600081526020016000815250905060006040518061010001604052808a6000015173ffffffffffffffffffffffffffffffffffffffff1681526020018a6020015173ffffffffffffffffffffffffffffffffffffffff1681526020018a6040015181526020018a6060015173ffffffffffffffffffffffffffffffffffffffff16815260200183815260200161271c8a612717888a612aea565b612b0f565b81526020016127348961272f8a88612aea565b612b0f565b8152602001600073ffffffffffffffffffffffffffffffffffffffff16815250905060038960400151036129c95760008160c001518260a00151101561277e578960200151612784565b89600001515b905060008260400181815250506000826060019073ffffffffffffffffffffffffffffffffffffffff16908173ffffffffffffffffffffffffffffffffffffffff1681525050808260e0019073ffffffffffffffffffffffffffffffffffffffff16908173ffffffffffffffffffffffffffffffffffffffff16815250506000600c60008c6000015173ffffffffffffffffffffffffffffffffffffffff1673ffffffffffffffffffffffffffffffffffffffff16815260200190815260200160002060008c6020015173ffffffffffffffffffffffffffffffffffffffff1673ffffffffffffffffffffffffffffffffffffffff16815260200190815260200160002060006101000a81548160ff0219169083151502179055506128a98b83611aca565b8a7f8aba4bf97c53cd5124a16826906cf29c99e37b45dcaccff77292ab676a81b5278b604001516040516128dd919061302f565b60405180910390a28073ffffffffffffffffffffffffffffffffffffffff167f659ab4616759704498ed851deaf5cf2eb0b2869d85580cd68a3371aea737e7008c8c6000015173ffffffffffffffffffffffffffffffffffffffff168473ffffffffffffffffffffffffffffffffffffffff161461295f578460c00151612965565b8460a001515b8d6020015173ffffffffffffffffffffffffffffffffffffffff168573ffffffffffffffffffffffffffffffffffffffff16146129a6578560c001516129ac565b8560a001515b6040516129bb93929190613d03565b60405180910390a250612a2a565b600189604001516129da919061382f565b8160400181815250506129ed8a82611aca565b897f8aba4bf97c53cd5124a16826906cf29c99e37b45dcaccff77292ab676a81b5278a60400151604051612a21919061302f565b60405180910390a25b50505050505050505050565b600081600001805490509050919050565b6000826000018281548110612a5f57612a5e6136b1565b5b9060005260206000200154905092915050565b600033905090565b6000612a868383612b34565b612adf578260000182908060018154018082558091505060019003906000526020600020016000909190919091505582600001805490508360010160008481526020019081526020016000208190555060019050612ae4565b600090505b92915050565b6000818311612afa576000612b07565b8183612b069190613d3a565b5b905092915050565b6000818311612b1f576000612b2c565b8183612b2b9190613d3a565b5b905092915050565b600080836001016000848152602001908152602001600020541415905092915050565b6040518060c0016040528060008152602001600073ffffffffffffffffffffffffffffffffffffffff168152602001600073ffffffffffffffffffffffffffffffffffffffff16815260200160008152602001600073ffffffffffffffffffffffffffffffffffffffff168152602001600073ffffffffffffffffffffffffffffffffffffffff1681525090565b604051806101000160405280600073ffffffffffffffffffffffffffffffffffffffff168152602001600073ffffffffffffffffffffffffffffffffffffffff16815260200160008152602001600073ffffffffffffffffffffffffffffffffffffffff168152602001612c57612c88565b81526020016000815260200160008152602001600073ffffffffffffffffffffffffffffffffffffffff1681525090565b60405180606001604052806003905b612c9f612d58565b815260200190600190039081612c975790505090565b604051806101000160405280600073ffffffffffffffffffffffffffffffffffffffff168152602001600073ffffffffffffffffffffffffffffffffffffffff16815260200160008152602001600073ffffffffffffffffffffffffffffffffffffffff168152602001612d27612d58565b81526020016000815260200160008152602001600073ffffffffffffffffffffffffffffffffffffffff1681525090565b6040518060c001604052806000815260200160008152602001600081526020016000815260200160008152602001600081525090565b6000604051905090565b600080fd5b600080fd5b600073ffffffffffffffffffffffffffffffffffffffff82169050919050565b6000612dcd82612da2565b9050919050565b612ddd81612dc2565b8114612de857600080fd5b50565b600081359050612dfa81612dd4565b92915050565b6000819050919050565b612e1381612e00565b8114612e1e57600080fd5b50565b600081359050612e3081612e0a565b92915050565b600080600060608486031215612e4f57612e4e612d98565b5b6000612e5d86828701612deb565b9350506020612e6e86828701612e21565b9250506040612e7f86828701612e21565b9150509250925092565b600081519050919050565b600082825260208201905092915050565b6000819050602082019050919050565b612ebe81612e00565b82525050565b612ecd81612dc2565b82525050565b60c082016000820151612ee96000850182612eb5565b506020820151612efc6020850182612ec4565b506040820151612f0f6040850182612ec4565b506060820151612f226060850182612eb5565b506080820151612f356080850182612ec4565b5060a0820151612f4860a0850182612ec4565b50505050565b6000612f5a8383612ed3565b60c08301905092915050565b6000602082019050919050565b6000612f7e82612e89565b612f888185612e94565b9350612f9383612ea5565b8060005b83811015612fc4578151612fab8882612f4e565b9750612fb683612f66565b925050600181019050612f97565b5085935050505092915050565b60006020820190508181036000830152612feb8184612f73565b905092915050565b60006020828403121561300957613008612d98565b5b600061301784828501612deb565b91505092915050565b61302981612e00565b82525050565b60006020820190506130446000830184613020565b92915050565b600080fd5b6000601f19601f8301169050919050565b7f4e487b7100000000000000000000000000000000000000000000000000000000600052604160045260246000fd5b6130988261304f565b810181811067ffffffffffffffff821117156130b7576130b6613060565b5b80604052505050565b60006130ca612d8e565b90506130d6828261308f565b919050565b600067ffffffffffffffff8211156130f6576130f5613060565b5b602082029050602081019050919050565b600080fd5b600061311f61311a846130db565b6130c0565b9050808382526020820190506020840283018581111561314257613141613107565b5b835b8181101561316b57806131578882612e21565b845260208401935050602081019050613144565b5050509392505050565b600082601f83011261318a5761318961304a565b5b813561319a84826020860161310c565b91505092915050565b6000602082840312156131b9576131b8612d98565b5b600082013567ffffffffffffffff8111156131d7576131d6612d9d565b5b6131e384828501613175565b91505092915050565b600081519050919050565b600082825260208201905092915050565b6000819050602082019050919050565b600060039050919050565b600081905092915050565b6000819050919050565b60c08201600082015161324e6000850182612eb5565b5060208201516132616020850182612eb5565b5060408201516132746040850182612eb5565b5060608201516132876060850182612eb5565b50608082015161329a6080850182612eb5565b5060a08201516132ad60a0850182612eb5565b50505050565b60006132bf8383613238565b60c08301905092915050565b6000602082019050919050565b6132e181613218565b6132eb8184613223565b92506132f68261322e565b8060005b8381101561332757815161330e87826132b3565b9650613319836132cb565b9250506001810190506132fa565b505050505050565b610320820160008201516133466000850182612ec4565b5060208201516133596020850182612ec4565b50604082015161336c6040850182612eb5565b50606082015161337f6060850182612ec4565b50608082015161339260808501826132d8565b5060a08201516133a66102c0850182612eb5565b5060c08201516133ba6102e0850182612eb5565b5060e08201516133ce610300850182612ec4565b50505050565b60006133e0838361332f565b6103208301905092915050565b6000602082019050919050565b6000613405826131ec565b61340f81856131f7565b935061341a83613208565b8060005b8381101561344b57815161343288826133d4565b975061343d836133ed565b92505060018101905061341e565b5085935050505092915050565b6000602082019050818103600083015261347281846133fa565b905092915050565b61348381612dc2565b82525050565b600060208201905061349e600083018461347a565b92915050565b6000602082840312156134ba576134b9612d98565b5b60006134c884828501612e21565b91505092915050565b610320820160008201516134e86000850182612ec4565b5060208201516134fb6020850182612ec4565b50604082015161350e6040850182612eb5565b5060608201516135216060850182612ec4565b50608082015161353460808501826132d8565b5060a08201516135486102c0850182612eb5565b5060c082015161355c6102e0850182612eb5565b5060e0820151613570610300850182612ec4565b50505050565b60006103208201905061358c60008301846134d1565b92915050565b6000819050826020600302820111156135ae576135ad613107565b5b92915050565b600080608083850312156135cb576135ca612d98565b5b60006135d985828601612deb565b92505060206135ea85828601613592565b9150509250929050565b6000806080838503121561360b5761360a612d98565b5b600061361985828601612e21565b925050602061362a85828601613592565b9150509250929050565b600082825260208201905092915050565b7f43616e2774207265717565737420746f6f206d616e79207265636f7264732100600082015250565b600061367b601f83613634565b915061368682613645565b602082019050919050565b600060208201905081810360008301526136aa8161366e565b9050919050565b7f4e487b7100000000000000000000000000000000000000000000000000000000600052603260045260246000fd5b7f4e487b7100000000000000000000000000000000000000000000000000000000600052601160045260246000fd5b600061371a82612e00565b91507fffffffffffffffffffffffffffffffffffffffffffffffffffffffffffffffff820361374c5761374b6136e0565b5b600182019050919050565b7f426174746c6520696420646f65736e2774206578697374000000000000000000600082015250565b600061378d601783613634565b915061379882613757565b602082019050919050565b600060208201905081810360008301526137bc81613780565b9050919050565b7f556e617574686f72697a65640000000000000000000000000000000000000000600082015250565b60006137f9600c83613634565b9150613804826137c3565b602082019050919050565b60006020820190508181036000830152613828816137ec565b9050919050565b600061383a82612e00565b915061384583612e00565b925082820190508082111561385d5761385c6136e0565b5b92915050565b7f5573652072657175657374426174746c65000000000000000000000000000000600082015250565b6000613899601183613634565b91506138a482613863565b602082019050919050565b600060208201905081810360008301526138c88161388c565b9050919050565b7f45786365656473205072656461746f7273206d61780000000000000000000000600082015250565b6000613905601583613634565b9150613910826138cf565b602082019050919050565b60006020820190508181036000830152613934816138f8565b9050919050565b7f457863656564732050726f78696d757320436f627261206d6178000000000000600082015250565b6000613971601a83613634565b915061397c8261393b565b602082019050919050565b600060208201905081810360008301526139a081613964565b9050919050565b7f4578636565647320426f756e74792048756e746572206d617800000000000000600082015250565b60006139dd601983613634565b91506139e8826139a7565b602082019050919050565b60006020820190508181036000830152613a0c816139d0565b9050919050565b7f546f6f206d616e792074726f6f70732100000000000000000000000000000000600082015250565b6000613a49601083613634565b9150613a5482613a13565b602082019050919050565b60006020820190508181036000830152613a7881613a3c565b9050919050565b7f4f776e61626c653a206e6577206f776e657220697320746865207a65726f206160008201527f6464726573730000000000000000000000000000000000000000000000000000602082015250565b6000613adb602683613634565b9150613ae682613a7f565b604082019050919050565b60006020820190508181036000830152613b0a81613ace565b9050919050565b7f4f776e61626c653a2063616c6c6572206973206e6f7420746865206f776e6572600082015250565b6000613b47602083613634565b9150613b5282613b11565b602082019050919050565b60006020820190508181036000830152613b7681613b3a565b9050919050565b7f43616e27742072657175657374207468697320626174746c6500000000000000600082015250565b6000613bb3601983613634565b9150613bbe82613b7d565b602082019050919050565b60006020820190508181036000830152613be281613ba6565b9050919050565b7f4e6f7420796f7572207475726e21000000000000000000000000000000000000600082015250565b6000613c1f600e83613634565b9150613c2a82613be9565b602082019050919050565b60006020820190508181036000830152613c4e81613c12565b9050919050565b7f4d7573742073656e642074726f6f707321000000000000000000000000000000600082015250565b6000613c8b601183613634565b9150613c9682613c55565b602082019050919050565b60006020820190508181036000830152613cba81613c7e565b9050919050565b6000613ccc82612e00565b9150613cd783612e00565b9250828202613ce581612e00565b91508282048414831517613cfc57613cfb6136e0565b5b5092915050565b6000606082019050613d186000830186613020565b613d256020830185613020565b613d326040830184613020565b949350505050565b6000613d4582612e00565b9150613d5083612e00565b9250828203905081811115613d6857613d676136e0565b5b9291505056fea2646970667358221220e4efe9f9a05b91257d3cfd7247ce9eb59983b0b9aa2669cf6f3eb9abbc1f173364736f6c63430008110033",
  "immutableReferences": {},
  "source": "// SPDX-License-Identifier: MIT\npragma solidity 0.8.17;\n\nimport \"@openzeppelin/contracts/access/Ownable.sol\";\nimport \"@openzeppelin/contracts/utils/Counters.sol\";\nimport \"@openzeppelin/contracts/utils/structs/EnumerableSet.sol\";\n\ncontract EternovaQuickBattles is Ownable{\n\t\n\tusing Counters for Counters.Counter;\n\tusing EnumerableSet for EnumerableSet.UintSet;\n\n    Counters.Counter private _battleIds;\n\n\tevent BattleStarted(uint indexed id, address indexed creator, address indexed opponent);\n\tevent BattleFinished(uint id, address indexed winner, uint winnerCityLife, uint looserCityLife);\n\n\tevent RoundStarted(uint indexed id, uint currentRound);\t\n\tevent RoundFinished(uint indexed id, uint currentRound);\n\t\n\tstruct Troop {\n\t\tuint attack;\n\t\tuint defense;\t\t\n\t}\n\n\tTroop private predator = Troop(40,100);\n\tTroop private proximusCobra = Troop(200,200);\n\tTroop private bounty_hunters = Troop(150,50);\n\n\tuint constant MAX_ROUNDS = 3;\n\n\tuint constant PREDATOR_UNITS = 5;\n\tuint constant PROXIMUS_COBRA_UNITS = 2;\n\tuint constant BOUNTY_HUNTERS_UNITS = 3;\n\t\n\tuint constant STARTING_LIFE = 500;\n\n\tuint constant MAX_UNITS_FIRST_ROUND = 8;\n\tuint constant MAX_UNITS_SECOND_ROUND = 9;\n\tuint constant MAX_UNITS_THIRD_ROUND = 10;\n\n\t//Round N => Max units\n\tmapping(uint => uint) roundMaxUnits;\n\t\n\tuint constant FIRST_ROUND = 1;\n\tuint constant SECOND_ROUND = 2;\n\tuint constant THIRD_ROUND = 3;\n\n\tstruct BattleData {\n\t\taddress creator;\n\t\taddress opponent;\n\t\tuint currentRound;\n\t\taddress nextMove;\n\t\tBattleAmount amounts;\n\t\tuint creatorCityLife;\n\t\tuint opponentCityLife;\n\t\taddress winner;\n\t}\n\n\tstruct BattleAmount {\n\t\tuint predatorAttackingUnits;\n\t\tuint proximusAttackingUnits;\n\t\tuint bountyAttackingUnits;\n\t\tuint predatorDefendingUnits;\n\t\tuint proximusDefendingUnits;\n\t\tuint bountyDefendingUnits;\n\t}\n\n\t//BattleId => Round => Amount\n\tmapping (uint => mapping(uint => BattleAmount)) private roundsAmounts;\n\n\t//BattleId => Data\n\tmapping (uint => BattleData) private battle;\n\n\t//User => [battleId]\n\tmapping(address => EnumerableSet.UintSet) private userBattle;\n\n\tmapping(address => mapping(address => bool)) currentlyFighting;\n\t\t\t\n\tconstructor() {\n\t\troundMaxUnits[1] = MAX_UNITS_FIRST_ROUND;\t\t\n\t\troundMaxUnits[2] = MAX_UNITS_SECOND_ROUND;\t\t\n\t\troundMaxUnits[3] = MAX_UNITS_THIRD_ROUND;\t\t\n\t}\n\n\tfunction startBattle(address opponent, uint[3] calldata troopsAmount) external returns(uint){\n\t\trequire(!areCurrentlyFighting(msg.sender, opponent), \"Use requestBattle\");\n\t\trequire(troopsAmount[0] <= PREDATOR_UNITS,\"Exceeds Predators max\");\n\t\trequire(troopsAmount[1] <= PROXIMUS_COBRA_UNITS,\"Exceeds Proximus Cobra max\");\n\t\trequire(troopsAmount[2] <= BOUNTY_HUNTERS_UNITS,\"Exceeds Bounty Hunter max\");\n\t\n\t\tuint totalTroops = troopsAmount[0] + troopsAmount[1] + troopsAmount[2];\n\t\trequire(totalTroops <= roundMaxUnits[FIRST_ROUND],\"Too many troops!\");\n\n\t\t_battleIds.increment();\n\n\t\tBattleAmount memory amounts = BattleAmount(\n\t\t\t\t\t\t\t\t\t\t\ttroopsAmount[0], //predatorAttackingUnits\n\t\t\t\t\t\t\t\t\t\t\ttroopsAmount[1], //proximusAttackingUnits\n\t\t\t\t\t\t\t\t\t\t\ttroopsAmount[2], //bountyAttackingUnits\n\t\t\t\t\t\t\t\t\t\t\t0, //predatorDefendingUnits\n\t\t\t\t\t\t\t\t\t\t\t0, //proximusDefendingUnits\n\t\t\t\t\t\t\t\t\t\t\t0 //bountyDefendingUnits\n\t\t\t\t\t\t\t\t\t\t);\n\t\t\n\t\tBattleData memory data = BattleData(\n\t\t\tmsg.sender, //Creator\n\t\t\topponent, //Opponnent\n\t\t\tFIRST_ROUND, //currentRound\n\t\t\topponent, //NextMove\n\t\t\tamounts,\n\t\t\tSTARTING_LIFE, //creatorCityLife\n\t\t\tSTARTING_LIFE, //opponentCityLife\n\t\t\taddress(0) //Winner\n\t\t\t);\n\n\t\troundsAmounts[_battleIds.current()][FIRST_ROUND] = amounts;\n\t\tsetBattle(_battleIds.current(), data);\n\t\tuserBattle[msg.sender].add(_battleIds.current());\n\t\tuserBattle[opponent].add(_battleIds.current());\n\t\tcurrentlyFighting[msg.sender][opponent] = true;\n\t\temit RoundStarted(_battleIds.current(), data.currentRound);\n\n\t\treturn _battleIds.current();\n\t}\n\n\t//Troops amount for each type [predator, proximusCobra,bounty_hunters]\t\n\tfunction requestBattle(uint id, uint[3] calldata troopsAmount) external {\n\t\tvalidateBattleData(id, troopsAmount);\n\t\tBattleData memory data = getBattleData(id);\n\n\t\tBattleAmount memory amounts = BattleAmount(\n\t\t\t\t\t\t\t\t\tmsg.sender == data.creator ? troopsAmount[0] : data.amounts.predatorAttackingUnits, //predatorAttackingUnits\n\t\t\t\t\t\t\t\t\tmsg.sender == data.creator ? troopsAmount[1] : data.amounts.proximusAttackingUnits, //proximusAttackingUnits\n\t\t\t\t\t\t\t\t\tmsg.sender == data.creator ? troopsAmount[2] : data.amounts.bountyAttackingUnits, //bountyAttackingUnits\n\t\t\t\t\t\t\t\t\tmsg.sender == data.opponent ? troopsAmount[0] : data.amounts.predatorDefendingUnits, //predatorDefendingUnits\n\t\t\t\t\t\t\t\t\tmsg.sender == data.opponent ? troopsAmount[1] : data.amounts.proximusDefendingUnits, //proximusDefendingUnits\n\t\t\t\t\t\t\t\t\tmsg.sender == data.opponent ? troopsAmount[2] : data.amounts.bountyDefendingUnits //bountyDefendingUnits\n\t\t\t\t\t\t\t\t\t);\n\t\t\n\t\tdata = BattleData(\n\t\t\tdata.creator,\n\t\t\tdata.opponent,\n\t\t\tdata.currentRound, //currentRound\n\t\t\tdata.nextMove, //NextMove\n\t\t\tamounts,\n\t\t\tdata.creatorCityLife, //creatorCityLife\n\t\t\tdata.opponentCityLife, //opponentCityLife\n\t\t\taddress(0) //winner\n\t\t\t);\n\n\t\tif (didBothPlayersMoved(data)){\n\t\t\troundsAmounts[id][data.currentRound] = amounts;\n\t\t\tresolveRound(id, data);\n\t\t}else{\n\t\t\tdata.nextMove = data.nextMove == data.creator ? data.opponent : data.creator;\n\t\t\troundsAmounts[id][data.currentRound] = amounts;\n\t\t\tsetBattle(id, data);\n\t\t\temit RoundStarted(id, data.currentRound);\n\t\t}\n\t}\n\n\tfunction didBothPlayersMoved(BattleData memory data) internal pure returns(bool){\n\t\treturn data.amounts.predatorAttackingUnits + data.amounts.proximusAttackingUnits + data.amounts.bountyAttackingUnits > 0 &&\n\tdata.amounts.predatorDefendingUnits + data.amounts.proximusDefendingUnits + data.amounts.bountyDefendingUnits > 0;\n\t}\n\n\tfunction validateBattleData(uint id,uint[3] calldata troopsAmount) internal view{\n\t\trequire(id <= _battleIds.current(),\"Battle id doesn't exist\");\n\t\tBattleData memory data = getBattleData(id);\n\t\trequire(msg.sender == data.creator || msg.sender == data.opponent,\"Can't request this battle\");\n\t\trequire(data.nextMove == msg.sender,\"Not your turn!\");\n\t\t\n\t\tuint predatorUsed;\n\t\tuint proximusUsed;\n\t\tuint bountyUsed;\n\t\tuint totalUsed;\n\n\t\tfor (uint i; i < 3; i++){\t\t\t\n\t\t\tif (msg.sender == data.creator){\n\t\t\t\tpredatorUsed += roundsAmounts[id][i+1].predatorAttackingUnits;\n\t\t\t\tproximusUsed += roundsAmounts[id][i+1].proximusAttackingUnits;\n\t\t\t\tbountyUsed += roundsAmounts[id][i+1].bountyAttackingUnits;\t\t\t\t\n\t\t\t}else{\n\t\t\t\tpredatorUsed += roundsAmounts[id][i+1].predatorDefendingUnits;\n\t\t\t\tproximusUsed += roundsAmounts[id][i+1].proximusDefendingUnits;\n\t\t\t\tbountyUsed += roundsAmounts[id][i+1].bountyDefendingUnits;\n\t\t\t}\n\t\t}\n\t\ttotalUsed += predatorUsed + proximusUsed + bountyUsed;\n\n\t\trequire(troopsAmount[0] + predatorUsed <= PREDATOR_UNITS,\"Exceeds Predators max\");\n\t\trequire(troopsAmount[1] + proximusUsed <= PROXIMUS_COBRA_UNITS,\"Exceeds Proximus Cobra max\");\n\t\trequire(troopsAmount[2] + bountyUsed <= BOUNTY_HUNTERS_UNITS,\"Exceeds Bounty Hunter max\");\n\t\t\t\t\n\t\tuint troopsSent = troopsAmount[0] + troopsAmount[1] + troopsAmount[2];\n\n\t\trequire(troopsSent > 0,\"Must send troops!\");\n\t\trequire((troopsSent + totalUsed) <= roundMaxUnits[data.currentRound],\"Too many troops!\");\n\t}\n\n\tfunction resolveRound (uint id, BattleData memory data) internal {\t\t\n\t\tuint creatorCurrentCityLife = data.creatorCityLife;\n\t\tuint opponentCurrentCityLife = data.opponentCityLife;\n\t\t//Creator\n\t\tuint creatorTotalAttack = data.amounts.predatorAttackingUnits * predator.attack + data.amounts.proximusAttackingUnits * proximusCobra.attack + data.amounts.bountyAttackingUnits * bounty_hunters.attack;\n\t\tuint creatorTotalDefense = data.amounts.predatorAttackingUnits * predator.defense + data.amounts.proximusAttackingUnits * proximusCobra.defense + data.amounts.bountyAttackingUnits * bounty_hunters.defense;\n\t\t//Opponent\n\t\tuint opponentTotalAttack = data.amounts.predatorDefendingUnits * predator.attack + data.amounts.proximusDefendingUnits * proximusCobra.attack + data.amounts.bountyDefendingUnits * bounty_hunters.attack;\n\t\tuint opponentTotalDefense = data.amounts.predatorDefendingUnits * predator.defense + data.amounts.proximusDefendingUnits * proximusCobra.defense + data.amounts.bountyDefendingUnits * bounty_hunters.defense;\n\n\t\tBattleAmount memory amounts = BattleAmount(\n\t\t\t\t\t\t\t\t0, //predatorAttackingUnits\n\t\t\t\t\t\t\t\t0, //proximusAttackingUnits\n\t\t\t\t\t\t\t\t0, //bountyAttackingUnits\n\t\t\t\t\t\t\t\t0, //predatorDefendingUnits\n\t\t\t\t\t\t\t\t0, //proximusDefendingUnits\n\t\t\t\t\t\t\t\t0 //bountyDefendingUnits\n\t\t\t\t\t\t\t);\n\t\tBattleData memory newData = BattleData(\n\t\t\tdata.creator,\n\t\t\tdata.opponent,\n\t\t\tdata.currentRound, //currentRound\n\t\t\tdata.nextMove,\n\t\t\tamounts,\n\t\t\tgetRemainingLife(creatorCurrentCityLife, getTotalDamage(opponentTotalAttack, creatorTotalDefense)), //creatorCityLife\n\t\t\tgetRemainingLife(opponentCurrentCityLife, getTotalDamage(creatorTotalAttack, opponentTotalDefense)), //opponentCityLife\n\t\t\taddress(0) //Winner\n\t\t);\n\t\t\n\t\tif (data.currentRound == THIRD_ROUND){\n\t\t\taddress winner = newData.creatorCityLife >= newData.opponentCityLife ? data.creator : data.opponent;\n\t\t\tnewData.currentRound = 0;\n\t\t\tnewData.nextMove = address(0);\n\t\t\tnewData.winner = winner;\n\t\t\tcurrentlyFighting[data.creator][data.opponent] = false;\n\t\t\tsetBattle(id, newData);\n\t\t\temit RoundFinished(id, data.currentRound);\n\t\t\temit BattleFinished(id, winner, winner == data.creator ? newData.creatorCityLife : newData.opponentCityLife, winner == data.opponent ? newData.creatorCityLife : newData.opponentCityLife);\n\t\t}else{\n\t\t\tnewData.currentRound = data.currentRound + 1;\n\t\t\t\n\t\t\tsetBattle(id, newData);\n\t\t\temit RoundFinished(id, data.currentRound);\t\t\t\t\n\t\t}\n\n\t}\n\t\n\tfunction getTotalDamage(uint attack, uint defense) internal pure returns(uint){\n\t\treturn attack > defense ? attack - defense : 0;\n\t}\n\t\n\tfunction getRemainingLife(uint currentLife, uint damage) internal pure returns(uint){\n\t\treturn currentLife > damage ? currentLife - damage : 0;\n\t}\n\n\tfunction getBattleData(uint id) internal view returns(BattleData memory){\n\t\treturn battle[id];\n\t}\n\n\tstruct PublicBattleData {\n\t\taddress creator;\n\t\taddress opponent;\n\t\tuint currentRound;\n\t\taddress nextMove;\n\t\tBattleAmount[3] amounts;\n\t\tuint creatorCityLife;\n\t\tuint opponentCityLife;\n\t\taddress winner;\n\t}\n\n\tfunction getPublicBattleData(uint id) public view returns(PublicBattleData memory data){\n\t\trequire(id <= _battleIds.current(),\"Battle id doesn't exist\");\n\t\tBattleData memory battleData = battle[id];\n\t\trequire(msg.sender == battleData.creator  || msg.sender == battleData.opponent || msg.sender == address(this)  ,\"Unauthorized\");\n\n\t\tBattleAmount[3] memory amount;\n\n\t\tdata.creator = battleData.creator;\n\t\tdata.opponent = battleData.opponent;\n\t\tdata.currentRound = battleData.currentRound;\n\t\tdata.nextMove = battleData.nextMove;\n\t\t\n\t\tfor (uint i; i < 3; i++){\n\t\t\tamount[i] = roundsAmounts[id][i+1];\n\t\t\tif (battleData.winner == address(0)){\n\t\t\t\tif (msg.sender == data.creator){\n\t\t\t\t\tamount[i].predatorDefendingUnits = 0;\n\t\t\t\t\tamount[i].proximusDefendingUnits = 0;\n\t\t\t\t\tamount[i].bountyDefendingUnits = 0;\n\t\t\t\t}else{\n\t\t\t\t\tamount[i].predatorAttackingUnits = 0;\n\t\t\t\t\tamount[i].proximusAttackingUnits = 0;\n\t\t\t\t\tamount[i].bountyAttackingUnits = 0;\n\t\t\t\t}\n\t\t\t}\n\t\t}\n\t\t\t\t\t\n\t\tdata.amounts = amount;\n\t\tdata.creatorCityLife = battleData.creatorCityLife;\n\t\tdata.opponentCityLife = battleData.opponentCityLife;\n\t\tdata.winner = battleData.winner;\n\n\t\treturn data;\n\t}\n\n\tfunction getPublicBattleDataArray(uint[] memory _ids) external view returns(PublicBattleData[] memory arrayData){\n\t\tarrayData = new PublicBattleData[](_ids.length);\n\t\tfor(uint i; i < _ids.length; i++){\n\t\t\tarrayData[i] = getPublicBattleData(_ids[i]);\n\t\t}\n\t\t\n\t\treturn arrayData;\n\t}\n\n\tfunction setBattle(uint id,BattleData memory data) internal{\n\t\tbattle[id] = data;\n\t}\n\n\tstruct BattleDataResponse {\n\t\tuint battleId;\n\t\taddress creator;\n\t\taddress opponent;\n\t\tuint currentRound;\n\t\taddress nextMove;\n\t\taddress winner;\n\t}\n\n\tfunction getUserBattleData(address user, uint limit, uint offset) external view returns(BattleDataResponse[] memory){\n\t\trequire(limit <= 100, \"Can't request too many records!\");\n\t\tEnumerableSet.UintSet storage _ids = userBattle[user];\n\t\tuint battleCount = _ids.length() <= 100 ? _ids.length() : 100;\n\t\tuint queryLimit = (battleCount > limit && limit != 0 ? limit : battleCount);\n\t\tuint responseIndex;\n\t\tBattleDataResponse[]memory response = new BattleDataResponse[](queryLimit);\n\t\tfor (uint i = offset; i < queryLimit; i++){\n\t\t\tuint id = userBattle[user].at(i);\n\t\t\tBattleData memory data = battle[id];\n\t\t\tresponse[responseIndex] = (\n\t\t\t\tBattleDataResponse(\n\t\t\t\t\tid,\n\t\t\t\t\tdata.creator,\n\t\t\t\t\tdata.opponent,\n\t\t\t\t\tdata.currentRound,\n\t\t\t\t\tdata.nextMove,\n\t\t\t\t\tdata.winner\n\t\t\t\t)\n\t\t\t);\n\t\t\tresponseIndex++;\n\t\t}\n\n\t\treturn response;\n\t}\n\t\n\tfunction areCurrentlyFighting(address creator, address opponent) internal view returns(bool){\n\t\treturn currentlyFighting[creator][opponent];\n\t}\n\n\tfunction getUserBattleCount(address user) external view returns(uint){\n\t\treturn userBattle[user].length();\n\t}\n\n}",
  "sourcePath": "/Users/glenci/EternovaQuickBattles/contracts/EternovaQuickBattles.sol",
  "compiler": {
    "name": "solc",
    "version": "0.8.17+commit.8df45f5f.Emscripten.clang"
  },
  "schemaVersion": "3.4.10",
  "updatedAt": "2023-10-04T15:56:47.093Z",
  "networkType": "ethereum",
  "devdoc": {
    "kind": "dev",
    "methods": {
      "owner()": {
        "details": "Returns the address of the current owner."
      },
      "renounceOwnership()": {
        "details": "Leaves the contract without owner. It will not be possible to call `onlyOwner` functions. Can only be called by the current owner. NOTE: Renouncing ownership will leave the contract without an owner, thereby disabling any functionality that is only available to the owner."
      },
      "transferOwnership(address)": {
        "details": "Transfers ownership of the contract to a new account (`newOwner`). Can only be called by the current owner."
      }
    },
    "version": 1
  },
  "userdoc": {
    "kind": "user",
    "methods": {},
    "version": 1
  }
}