{
  "contractName": "EternovaQuickBattles",
  "abi": [
    {
      "inputs": [],
      "stateMutability": "nonpayable",
      "type": "constructor"
    },
    {
      "anonymous": false,
      "inputs": [
        {
          "indexed": false,
          "internalType": "uint256",
          "name": "id",
          "type": "uint256"
        },
        {
          "indexed": true,
          "internalType": "address",
          "name": "winner",
          "type": "address"
        },
        {
          "indexed": false,
          "internalType": "uint256",
          "name": "winnerCityLife",
          "type": "uint256"
        },
        {
          "indexed": false,
          "internalType": "uint256",
          "name": "looserCityLife",
          "type": "uint256"
        }
      ],
      "name": "BattleFinished",
      "type": "event"
    },
    {
      "anonymous": false,
      "inputs": [
        {
          "indexed": true,
          "internalType": "uint256",
          "name": "id",
          "type": "uint256"
        },
        {
          "indexed": true,
          "internalType": "address",
          "name": "creator",
          "type": "address"
        },
        {
          "indexed": true,
          "internalType": "address",
          "name": "opponent",
          "type": "address"
        }
      ],
      "name": "BattleStarted",
      "type": "event"
    },
    {
      "anonymous": false,
      "inputs": [
        {
          "indexed": true,
          "internalType": "address",
          "name": "previousOwner",
          "type": "address"
        },
        {
          "indexed": true,
          "internalType": "address",
          "name": "newOwner",
          "type": "address"
        }
      ],
      "name": "OwnershipTransferred",
      "type": "event"
    },
    {
      "anonymous": false,
      "inputs": [
        {
          "indexed": true,
          "internalType": "uint256",
          "name": "id",
          "type": "uint256"
        },
        {
          "indexed": false,
          "internalType": "uint256",
          "name": "currentRound",
          "type": "uint256"
        }
      ],
      "name": "RoundFinished",
      "type": "event"
    },
    {
      "anonymous": false,
      "inputs": [
        {
          "indexed": true,
          "internalType": "uint256",
          "name": "id",
          "type": "uint256"
        },
        {
          "indexed": false,
          "internalType": "uint256",
          "name": "currentRound",
          "type": "uint256"
        }
      ],
      "name": "RoundStarted",
      "type": "event"
    },
    {
      "inputs": [],
      "name": "owner",
      "outputs": [
        {
          "internalType": "address",
          "name": "",
          "type": "address"
        }
      ],
      "stateMutability": "view",
      "type": "function",
      "constant": true
    },
    {
      "inputs": [],
      "name": "renounceOwnership",
      "outputs": [],
      "stateMutability": "nonpayable",
      "type": "function"
    },
    {
      "inputs": [
        {
          "internalType": "address",
          "name": "newOwner",
          "type": "address"
        }
      ],
      "name": "transferOwnership",
      "outputs": [],
      "stateMutability": "nonpayable",
      "type": "function"
    },
    {
      "inputs": [
        {
          "internalType": "address",
          "name": "opponent",
          "type": "address"
        },
        {
          "internalType": "uint256[3]",
          "name": "troopsAmount",
          "type": "uint256[3]"
        }
      ],
      "name": "startBattle",
      "outputs": [
        {
          "internalType": "uint256",
          "name": "",
          "type": "uint256"
        }
      ],
      "stateMutability": "nonpayable",
      "type": "function"
    },
    {
      "inputs": [
        {
          "internalType": "uint256",
          "name": "id",
          "type": "uint256"
        },
        {
          "internalType": "uint256[3]",
          "name": "troopsAmount",
          "type": "uint256[3]"
        }
      ],
      "name": "requestBattle",
      "outputs": [],
      "stateMutability": "nonpayable",
      "type": "function"
    },
    {
      "inputs": [
        {
          "internalType": "uint256",
          "name": "id",
          "type": "uint256"
        }
      ],
      "name": "getPublicBattleData",
      "outputs": [
        {
          "components": [
            {
              "internalType": "address",
              "name": "creator",
              "type": "address"
            },
            {
              "internalType": "address",
              "name": "opponent",
              "type": "address"
            },
            {
              "internalType": "uint256",
              "name": "currentRound",
              "type": "uint256"
            },
            {
              "internalType": "address",
              "name": "nextMove",
              "type": "address"
            },
            {
              "components": [
                {
                  "internalType": "uint256",
                  "name": "predatorAttackingUnits",
                  "type": "uint256"
                },
                {
                  "internalType": "uint256",
                  "name": "proximusAttackingUnits",
                  "type": "uint256"
                },
                {
                  "internalType": "uint256",
                  "name": "bountyAttackingUnits",
                  "type": "uint256"
                },
                {
                  "internalType": "uint256",
                  "name": "predatorDefendingUnits",
                  "type": "uint256"
                },
                {
                  "internalType": "uint256",
                  "name": "proximusDefendingUnits",
                  "type": "uint256"
                },
                {
                  "internalType": "uint256",
                  "name": "bountyDefendingUnits",
                  "type": "uint256"
                }
              ],
              "internalType": "struct EternovaQuickBattles.BattleAmount[3]",
              "name": "amounts",
              "type": "tuple[3]"
            },
            {
              "internalType": "uint256",
              "name": "cityLife",
              "type": "uint256"
            },
            {
              "internalType": "address",
              "name": "winner",
              "type": "address"
            }
          ],
          "internalType": "struct EternovaQuickBattles.PublicBattleData",
          "name": "data",
          "type": "tuple"
        }
      ],
      "stateMutability": "view",
      "type": "function",
      "constant": true
    },
    {
      "inputs": [
        {
          "internalType": "uint256[]",
          "name": "_ids",
          "type": "uint256[]"
        }
      ],
      "name": "getPublicBattleDataArray",
      "outputs": [
        {
          "components": [
            {
              "internalType": "address",
              "name": "creator",
              "type": "address"
            },
            {
              "internalType": "address",
              "name": "opponent",
              "type": "address"
            },
            {
              "internalType": "uint256",
              "name": "currentRound",
              "type": "uint256"
            },
            {
              "internalType": "address",
              "name": "nextMove",
              "type": "address"
            },
            {
              "components": [
                {
                  "internalType": "uint256",
                  "name": "predatorAttackingUnits",
                  "type": "uint256"
                },
                {
                  "internalType": "uint256",
                  "name": "proximusAttackingUnits",
                  "type": "uint256"
                },
                {
                  "internalType": "uint256",
                  "name": "bountyAttackingUnits",
                  "type": "uint256"
                },
                {
                  "internalType": "uint256",
                  "name": "predatorDefendingUnits",
                  "type": "uint256"
                },
                {
                  "internalType": "uint256",
                  "name": "proximusDefendingUnits",
                  "type": "uint256"
                },
                {
                  "internalType": "uint256",
                  "name": "bountyDefendingUnits",
                  "type": "uint256"
                }
              ],
              "internalType": "struct EternovaQuickBattles.BattleAmount[3]",
              "name": "amounts",
              "type": "tuple[3]"
            },
            {
              "internalType": "uint256",
              "name": "cityLife",
              "type": "uint256"
            },
            {
              "internalType": "address",
              "name": "winner",
              "type": "address"
            }
          ],
          "internalType": "struct EternovaQuickBattles.PublicBattleData[]",
          "name": "arrayData",
          "type": "tuple[]"
        }
      ],
      "stateMutability": "view",
      "type": "function",
      "constant": true
    },
    {
      "inputs": [
        {
          "internalType": "address",
          "name": "user",
          "type": "address"
        },
        {
          "internalType": "uint256",
          "name": "limit",
          "type": "uint256"
        },
        {
          "internalType": "uint256",
          "name": "offset",
          "type": "uint256"
        }
      ],
      "name": "getUserBattleData",
      "outputs": [
        {
          "components": [
            {
              "internalType": "uint256",
              "name": "battleId",
              "type": "uint256"
            },
            {
              "internalType": "address",
              "name": "creator",
              "type": "address"
            },
            {
              "internalType": "address",
              "name": "opponent",
              "type": "address"
            },
            {
              "internalType": "uint256",
              "name": "currentRound",
              "type": "uint256"
            },
            {
              "internalType": "address",
              "name": "nextMove",
              "type": "address"
            },
            {
              "internalType": "address",
              "name": "winner",
              "type": "address"
            }
          ],
          "internalType": "struct EternovaQuickBattles.BattleDataResponse[]",
          "name": "",
          "type": "tuple[]"
        }
      ],
      "stateMutability": "view",
      "type": "function",
      "constant": true
    },
    {
      "inputs": [
        {
          "internalType": "address",
          "name": "user",
          "type": "address"
        }
      ],
      "name": "getUserBattleCount",
      "outputs": [
        {
          "internalType": "uint256",
          "name": "",
          "type": "uint256"
        }
      ],
      "stateMutability": "view",
      "type": "function",
      "constant": true
    }
  ],
  "bytecode": "0x60806040526040518060400160405280602881526020016064815250600260008201518160000155602082015181600101555050604051806040016040528060c8815260200160c881525060046000820151816000015560208201518160010155505060405180604001604052806096815260200160328152506006600082015181600001556020820151816001015550503480156200009e57600080fd5b50620000bf620000b36200011260201b60201c565b6200011a60201b60201c565b600880600060018152602001908152602001600020819055506009600860006002815260200190815260200160002081905550600a600860006003815260200190815260200160002081905550620001de565b600033905090565b60008060009054906101000a900473ffffffffffffffffffffffffffffffffffffffff169050816000806101000a81548173ffffffffffffffffffffffffffffffffffffffff021916908373ffffffffffffffffffffffffffffffffffffffff1602179055508173ffffffffffffffffffffffffffffffffffffffff168173ffffffffffffffffffffffffffffffffffffffff167f8be0079c531659141344cd1fd0a4f28419497f9722a3daafe3b4186f6b6457e060405160405180910390a35050565b613da880620001ee6000396000f3fe608060405234801561001057600080fd5b50600436106100935760003560e01c80638da5cb5b116100665780638da5cb5b1461013257806394a8142d146101505780639c80043814610180578063a5e94e98146101b0578063f2fde38b146101cc57610093565b8063141dfa7914610098578063553bff08146100c8578063715018a6146100f8578063750bd46514610102575b600080fd5b6100b260048036038101906100ad9190612e62565b6101e8565b6040516100bf9190612ffd565b60405180910390f35b6100e260048036038101906100dd919061301f565b610646565b6040516100ef919061305b565b60405180910390f35b610100610696565b005b61011c600480360381019061011791906131cf565b6106aa565b6040516101299190613470565b60405180910390f35b61013a610769565b60405161014791906134a1565b60405180910390f35b61016a600480360381019061016591906134bc565b610792565b604051610177919061357a565b60405180910390f35b61019a600480360381019061019591906135b8565b610e0b565b6040516101a7919061305b565b60405180910390f35b6101ca60048036038101906101c591906135f8565b61136d565b005b6101e660048036038101906101e1919061301f565b611852565b005b6060606483111561022e576040517f08c379a000000000000000000000000000000000000000000000000000000000815260040161022590613695565b60405180910390fd5b6000600b60008673ffffffffffffffffffffffffffffffffffffffff1673ffffffffffffffffffffffffffffffffffffffff16815260200190815260200160002090506000606461027e836118d5565b111561028b576064610295565b610294826118d5565b5b9050600085821180156102a9575060008614155b6102b357816102b5565b855b90506000808267ffffffffffffffff8111156102d4576102d361308c565b5b60405190808252806020026020018201604052801561030d57816020015b6102fa612b8b565b8152602001906001900390816102f25790505b50905060008790505b8381101561063657600061037182600b60008e73ffffffffffffffffffffffffffffffffffffffff1673ffffffffffffffffffffffffffffffffffffffff1681526020019081526020016000206118ea90919063ffffffff16565b90506000600a6000838152602001908152602001600020604051806101000160405290816000820160009054906101000a900473ffffffffffffffffffffffffffffffffffffffff1673ffffffffffffffffffffffffffffffffffffffff1673ffffffffffffffffffffffffffffffffffffffff1681526020016001820160009054906101000a900473ffffffffffffffffffffffffffffffffffffffff1673ffffffffffffffffffffffffffffffffffffffff1673ffffffffffffffffffffffffffffffffffffffff168152602001600282015481526020016003820160009054906101000a900473ffffffffffffffffffffffffffffffffffffffff1673ffffffffffffffffffffffffffffffffffffffff1673ffffffffffffffffffffffffffffffffffffffff168152602001600482016040518060c001604052908160008201548152602001600182015481526020016002820154815260200160038201548152602001600482015481526020016005820154815250508152602001600a8201548152602001600b8201548152602001600c820160009054906101000a900473ffffffffffffffffffffffffffffffffffffffff1673ffffffffffffffffffffffffffffffffffffffff1673ffffffffffffffffffffffffffffffffffffffff168152505090506040518060c00160405280838152602001826000015173ffffffffffffffffffffffffffffffffffffffff168152602001826020015173ffffffffffffffffffffffffffffffffffffffff16815260200182604001518152602001826060015173ffffffffffffffffffffffffffffffffffffffff1681526020018260e0015173ffffffffffffffffffffffffffffffffffffffff16815250848681518110610608576106076136b5565b5b6020026020010181905250848061061e90613713565b9550505050808061062e90613713565b915050610316565b5080955050505050509392505050565b600061068f600b60008473ffffffffffffffffffffffffffffffffffffffff1673ffffffffffffffffffffffffffffffffffffffff1681526020019081526020016000206118d5565b9050919050565b61069e611904565b6106a86000611982565b565b6060815167ffffffffffffffff8111156106c7576106c661308c565b5b60405190808252806020026020018201604052801561070057816020015b6106ed612c19565b8152602001906001900390816106e55790505b50905060005b825181101561076357610732838281518110610725576107246136b5565b5b6020026020010151610792565b828281518110610745576107446136b5565b5b6020026020010181905250808061075b90613713565b915050610706565b50919050565b60008060009054906101000a900473ffffffffffffffffffffffffffffffffffffffff16905090565b61079a612c19565b6107a46001611a46565b8211156107e6576040517f08c379a00000000000000000000000000000000000000000000000000000000081526004016107dd906137a7565b60405180910390fd5b6000600a6000848152602001908152602001600020604051806101000160405290816000820160009054906101000a900473ffffffffffffffffffffffffffffffffffffffff1673ffffffffffffffffffffffffffffffffffffffff1673ffffffffffffffffffffffffffffffffffffffff1681526020016001820160009054906101000a900473ffffffffffffffffffffffffffffffffffffffff1673ffffffffffffffffffffffffffffffffffffffff1673ffffffffffffffffffffffffffffffffffffffff168152602001600282015481526020016003820160009054906101000a900473ffffffffffffffffffffffffffffffffffffffff1673ffffffffffffffffffffffffffffffffffffffff1673ffffffffffffffffffffffffffffffffffffffff168152602001600482016040518060c001604052908160008201548152602001600182015481526020016002820154815260200160038201548152602001600482015481526020016005820154815250508152602001600a8201548152602001600b8201548152602001600c820160009054906101000a900473ffffffffffffffffffffffffffffffffffffffff1673ffffffffffffffffffffffffffffffffffffffff1673ffffffffffffffffffffffffffffffffffffffff16815250509050806000015173ffffffffffffffffffffffffffffffffffffffff163373ffffffffffffffffffffffffffffffffffffffff161480610a3c5750806020015173ffffffffffffffffffffffffffffffffffffffff163373ffffffffffffffffffffffffffffffffffffffff16145b80610a7257503073ffffffffffffffffffffffffffffffffffffffff163373ffffffffffffffffffffffffffffffffffffffff16145b610ab1576040517f08c379a0000000000000000000000000000000000000000000000000000000008152600401610aa890613813565b60405180910390fd5b610ab9612cb4565b8160000151836000019073ffffffffffffffffffffffffffffffffffffffff16908173ffffffffffffffffffffffffffffffffffffffff16815250508160200151836020019073ffffffffffffffffffffffffffffffffffffffff16908173ffffffffffffffffffffffffffffffffffffffff168152505081604001518360400181815250508160600151836060019073ffffffffffffffffffffffffffffffffffffffff16908173ffffffffffffffffffffffffffffffffffffffff168152505060005b6003811015610d6e57600960008681526020019081526020016000206000600183610ba99190613833565b81526020019081526020016000206040518060c00160405290816000820154815260200160018201548152602001600282015481526020016003820154815260200160048201548152602001600582015481525050828260038110610c1157610c106136b5565b5b6020020181905250600073ffffffffffffffffffffffffffffffffffffffff168360e0015173ffffffffffffffffffffffffffffffffffffffff1603610d5b57836000015173ffffffffffffffffffffffffffffffffffffffff163373ffffffffffffffffffffffffffffffffffffffff1603610cf3576000828260038110610c9d57610c9c6136b5565b5b602002015160600181815250506000828260038110610cbf57610cbe6136b5565b5b602002015160800181815250506000828260038110610ce157610ce06136b5565b5b602002015160a0018181525050610d5a565b6000828260038110610d0857610d076136b5565b5b602002015160000181815250506000828260038110610d2a57610d296136b5565b5b602002015160200181815250506000828260038110610d4c57610d4b6136b5565b5b602002015160400181815250505b5b8080610d6690613713565b915050610b7e565b50808360800181905250826000015173ffffffffffffffffffffffffffffffffffffffff163373ffffffffffffffffffffffffffffffffffffffff1614610db9578160c00151610dbf565b8160a001515b8360a00181815250508160e001518360c0019073ffffffffffffffffffffffffffffffffffffffff16908173ffffffffffffffffffffffffffffffffffffffff16815250505050919050565b6000610e173384611a54565b15610e57576040517f08c379a0000000000000000000000000000000000000000000000000000000008152600401610e4e906138b3565b60405180910390fd5b600582600060038110610e6d57610e6c6136b5565b5b60200201351115610eb3576040517f08c379a0000000000000000000000000000000000000000000000000000000008152600401610eaa9061391f565b60405180910390fd5b600282600160038110610ec957610ec86136b5565b5b60200201351115610f0f576040517f08c379a0000000000000000000000000000000000000000000000000000000008152600401610f069061398b565b60405180910390fd5b600382600260038110610f2557610f246136b5565b5b60200201351115610f6b576040517f08c379a0000000000000000000000000000000000000000000000000000000008152600401610f62906139f7565b60405180910390fd5b600082600260038110610f8157610f806136b5565b5b602002013583600160038110610f9a57610f996136b5565b5b602002013584600060038110610fb357610fb26136b5565b5b6020020135610fc29190613833565b610fcc9190613833565b9050600860006001815260200190815260200160002054811115611025576040517f08c379a000000000000000000000000000000000000000000000000000000000815260040161101c90613a63565b60405180910390fd5b61102f6001611ae8565b60006040518060c00160405280856000600381106110505761104f6136b5565b5b602002013581526020018560016003811061106e5761106d6136b5565b5b602002013581526020018560026003811061108c5761108b6136b5565b5b6020020135815260200160008152602001600081526020016000815250905060006040518061010001604052803373ffffffffffffffffffffffffffffffffffffffff1681526020018773ffffffffffffffffffffffffffffffffffffffff168152602001600181526020018773ffffffffffffffffffffffffffffffffffffffff1681526020018381526020016101f481526020016101f48152602001600073ffffffffffffffffffffffffffffffffffffffff16815250905081600960006111566001611a46565b8152602001908152602001600020600060018152602001908152602001600020600082015181600001556020820151816001015560408201518160020155606082015181600301556080820151816004015560a082015181600501559050506111c86111c26001611a46565b82611afe565b6112226111d56001611a46565b600b60003373ffffffffffffffffffffffffffffffffffffffff1673ffffffffffffffffffffffffffffffffffffffff168152602001908152602001600020611c9a90919063ffffffff16565b5061127d6112306001611a46565b600b60008973ffffffffffffffffffffffffffffffffffffffff1673ffffffffffffffffffffffffffffffffffffffff168152602001908152602001600020611c9a90919063ffffffff16565b506001600c60003373ffffffffffffffffffffffffffffffffffffffff1673ffffffffffffffffffffffffffffffffffffffff16815260200190815260200160002060008873ffffffffffffffffffffffffffffffffffffffff1673ffffffffffffffffffffffffffffffffffffffff16815260200190815260200160002060006101000a81548160ff02191690831515021790555061131d6001611a46565b7f278844837bcf8364a705384bf3a2812901f54155bae86dea81dd52aa5b9ec0e38260400151604051611350919061305b565b60405180910390a26113626001611a46565b935050505092915050565b6113778282611cb4565b600061138283612282565b905060006040518060c00160405280836000015173ffffffffffffffffffffffffffffffffffffffff163373ffffffffffffffffffffffffffffffffffffffff16146113d6578360800151600001516113f0565b846000600381106113ea576113e96136b5565b5b60200201355b8152602001836000015173ffffffffffffffffffffffffffffffffffffffff163373ffffffffffffffffffffffffffffffffffffffff161461143a57836080015160200151611454565b8460016003811061144e5761144d6136b5565b5b60200201355b8152602001836000015173ffffffffffffffffffffffffffffffffffffffff163373ffffffffffffffffffffffffffffffffffffffff161461149e578360800151604001516114b8565b846002600381106114b2576114b16136b5565b5b60200201355b8152602001836020015173ffffffffffffffffffffffffffffffffffffffff163373ffffffffffffffffffffffffffffffffffffffff16146115025783608001516060015161151c565b84600060038110611516576115156136b5565b5b60200201355b8152602001836020015173ffffffffffffffffffffffffffffffffffffffff163373ffffffffffffffffffffffffffffffffffffffff161461156657836080015160800151611580565b8460016003811061157a576115796136b5565b5b60200201355b8152602001836020015173ffffffffffffffffffffffffffffffffffffffff163373ffffffffffffffffffffffffffffffffffffffff16146115ca57836080015160a001516115e4565b846002600381106115de576115dd6136b5565b5b60200201355b8152509050604051806101000160405280836000015173ffffffffffffffffffffffffffffffffffffffff168152602001836020015173ffffffffffffffffffffffffffffffffffffffff16815260200183604001518152602001836060015173ffffffffffffffffffffffffffffffffffffffff1681526020018281526020018360a0015181526020018360c001518152602001600073ffffffffffffffffffffffffffffffffffffffff16815250915061169f82612476565b1561171b578060096000868152602001908152602001600020600084604001518152602001908152602001600020600082015181600001556020820151816001015560408201518160020155606082015181600301556080820151816004015560a0820151816005015590505061171684836124ea565b61184c565b816000015173ffffffffffffffffffffffffffffffffffffffff16826060015173ffffffffffffffffffffffffffffffffffffffff1614611760578160000151611766565b81602001515b826060019073ffffffffffffffffffffffffffffffffffffffff16908173ffffffffffffffffffffffffffffffffffffffff16815250508060096000868152602001908152602001600020600084604001518152602001908152602001600020600082015181600001556020820151816001015560408201518160020155606082015181600301556080820151816004015560a0820151816005015590505061180f8483611afe565b837f278844837bcf8364a705384bf3a2812901f54155bae86dea81dd52aa5b9ec0e38360400151604051611843919061305b565b60405180910390a25b50505050565b61185a611904565b600073ffffffffffffffffffffffffffffffffffffffff168173ffffffffffffffffffffffffffffffffffffffff16036118c9576040517f08c379a00000000000000000000000000000000000000000000000000000000081526004016118c090613af5565b60405180910390fd5b6118d281611982565b50565b60006118e382600001612a6a565b9050919050565b60006118f98360000183612a7b565b60001c905092915050565b61190c612aa6565b73ffffffffffffffffffffffffffffffffffffffff1661192a610769565b73ffffffffffffffffffffffffffffffffffffffff1614611980576040517f08c379a000000000000000000000000000000000000000000000000000000000815260040161197790613b61565b60405180910390fd5b565b60008060009054906101000a900473ffffffffffffffffffffffffffffffffffffffff169050816000806101000a81548173ffffffffffffffffffffffffffffffffffffffff021916908373ffffffffffffffffffffffffffffffffffffffff1602179055508173ffffffffffffffffffffffffffffffffffffffff168173ffffffffffffffffffffffffffffffffffffffff167f8be0079c531659141344cd1fd0a4f28419497f9722a3daafe3b4186f6b6457e060405160405180910390a35050565b600081600001549050919050565b6000600c60008473ffffffffffffffffffffffffffffffffffffffff1673ffffffffffffffffffffffffffffffffffffffff16815260200190815260200160002060008373ffffffffffffffffffffffffffffffffffffffff1673ffffffffffffffffffffffffffffffffffffffff16815260200190815260200160002060009054906101000a900460ff16905092915050565b6001816000016000828254019250508190555050565b80600a600084815260200190815260200160002060008201518160000160006101000a81548173ffffffffffffffffffffffffffffffffffffffff021916908373ffffffffffffffffffffffffffffffffffffffff16021790555060208201518160010160006101000a81548173ffffffffffffffffffffffffffffffffffffffff021916908373ffffffffffffffffffffffffffffffffffffffff1602179055506040820151816002015560608201518160030160006101000a81548173ffffffffffffffffffffffffffffffffffffffff021916908373ffffffffffffffffffffffffffffffffffffffff160217905550608082015181600401600082015181600001556020820151816001015560408201518160020155606082015181600301556080820151816004015560a08201518160050155505060a082015181600a015560c082015181600b015560e082015181600c0160006101000a81548173ffffffffffffffffffffffffffffffffffffffff021916908373ffffffffffffffffffffffffffffffffffffffff1602179055509050505050565b6000611cac836000018360001b612aae565b905092915050565b611cbe6001611a46565b821115611d00576040517f08c379a0000000000000000000000000000000000000000000000000000000008152600401611cf7906137a7565b60405180910390fd5b6000611d0b83612282565b9050806000015173ffffffffffffffffffffffffffffffffffffffff163373ffffffffffffffffffffffffffffffffffffffff161480611d7a5750806020015173ffffffffffffffffffffffffffffffffffffffff163373ffffffffffffffffffffffffffffffffffffffff16145b611db9576040517f08c379a0000000000000000000000000000000000000000000000000000000008152600401611db090613bcd565b60405180910390fd5b3373ffffffffffffffffffffffffffffffffffffffff16816060015173ffffffffffffffffffffffffffffffffffffffff1614611e2b576040517f08c379a0000000000000000000000000000000000000000000000000000000008152600401611e2290613c39565b60405180910390fd5b60008060008060005b600381101561201357856000015173ffffffffffffffffffffffffffffffffffffffff163373ffffffffffffffffffffffffffffffffffffffff1603611f3c57600960008981526020019081526020016000206000600183611e969190613833565b81526020019081526020016000206000015485611eb39190613833565b9450600960008981526020019081526020016000206000600183611ed79190613833565b81526020019081526020016000206001015484611ef49190613833565b9350600960008981526020019081526020016000206000600183611f189190613833565b81526020019081526020016000206002015483611f359190613833565b9250612000565b600960008981526020019081526020016000206000600183611f5e9190613833565b81526020019081526020016000206003015485611f7b9190613833565b9450600960008981526020019081526020016000206000600183611f9f9190613833565b81526020019081526020016000206004015484611fbc9190613833565b9350600960008981526020019081526020016000206000600183611fe09190613833565b81526020019081526020016000206005015483611ffd9190613833565b92505b808061200b90613713565b915050611e34565b508183856120219190613833565b61202b9190613833565b816120369190613833565b90506005848760006003811061204f5761204e6136b5565b5b602002013561205e9190613833565b111561209f576040517f08c379a00000000000000000000000000000000000000000000000000000000081526004016120969061391f565b60405180910390fd5b600283876001600381106120b6576120b56136b5565b5b60200201356120c59190613833565b1115612106576040517f08c379a00000000000000000000000000000000000000000000000000000000081526004016120fd9061398b565b60405180910390fd5b6003828760026003811061211d5761211c6136b5565b5b602002013561212c9190613833565b111561216d576040517f08c379a0000000000000000000000000000000000000000000000000000000008152600401612164906139f7565b60405180910390fd5b600086600260038110612183576121826136b5565b5b60200201358760016003811061219c5761219b6136b5565b5b6020020135886000600381106121b5576121b46136b5565b5b60200201356121c49190613833565b6121ce9190613833565b905060008111612213576040517f08c379a000000000000000000000000000000000000000000000000000000000815260040161220a90613ca5565b60405180910390fd5b60086000876040015181526020019081526020016000205482826122379190613833565b1115612278576040517f08c379a000000000000000000000000000000000000000000000000000000000815260040161226f90613a63565b60405180910390fd5b5050505050505050565b61228a612ce1565b600a6000838152602001908152602001600020604051806101000160405290816000820160009054906101000a900473ffffffffffffffffffffffffffffffffffffffff1673ffffffffffffffffffffffffffffffffffffffff1673ffffffffffffffffffffffffffffffffffffffff1681526020016001820160009054906101000a900473ffffffffffffffffffffffffffffffffffffffff1673ffffffffffffffffffffffffffffffffffffffff1673ffffffffffffffffffffffffffffffffffffffff168152602001600282015481526020016003820160009054906101000a900473ffffffffffffffffffffffffffffffffffffffff1673ffffffffffffffffffffffffffffffffffffffff1673ffffffffffffffffffffffffffffffffffffffff168152602001600482016040518060c001604052908160008201548152602001600182015481526020016002820154815260200160038201548152602001600482015481526020016005820154815250508152602001600a8201548152602001600b8201548152602001600c820160009054906101000a900473ffffffffffffffffffffffffffffffffffffffff1673ffffffffffffffffffffffffffffffffffffffff1673ffffffffffffffffffffffffffffffffffffffff16815250509050919050565b60008082608001516040015183608001516020015184608001516000015161249e9190613833565b6124a89190613833565b1180156124e357506000826080015160a001518360800151608001518460800151606001516124d79190613833565b6124e19190613833565b115b9050919050565b60008160a00151905060008260c00151905060006006600001548460800151604001516125179190613cc5565b6004600001548560800151602001516125309190613cc5565b6002600001548660800151600001516125499190613cc5565b6125539190613833565b61255d9190613833565b9050600060066001015485608001516040015161257a9190613cc5565b6004600101548660800151602001516125939190613cc5565b6002600101548760800151600001516125ac9190613cc5565b6125b69190613833565b6125c09190613833565b90506000600660000154866080015160a001516125dd9190613cc5565b6004600001548760800151608001516125f69190613cc5565b60026000015488608001516060015161260f9190613cc5565b6126199190613833565b6126239190613833565b90506000600660010154876080015160a001516126409190613cc5565b6004600101548860800151608001516126599190613cc5565b6002600101548960800151606001516126729190613cc5565b61267c9190613833565b6126869190613833565b905060006040518060c0016040528060008152602001600081526020016000815260200160008152602001600081526020016000815250905060006040518061010001604052808a6000015173ffffffffffffffffffffffffffffffffffffffff1681526020018a6020015173ffffffffffffffffffffffffffffffffffffffff1681526020018a6040015181526020018a6060015173ffffffffffffffffffffffffffffffffffffffff1681526020018381526020016127508a61274b888a612b1e565b612b43565b8152602001612768896127638a88612b1e565b612b43565b8152602001600073ffffffffffffffffffffffffffffffffffffffff16815250905060038960400151036129fd5760008160c001518260a0015110156127b25789602001516127b8565b89600001515b905060008260400181815250506000826060019073ffffffffffffffffffffffffffffffffffffffff16908173ffffffffffffffffffffffffffffffffffffffff1681525050808260e0019073ffffffffffffffffffffffffffffffffffffffff16908173ffffffffffffffffffffffffffffffffffffffff16815250506000600c60008c6000015173ffffffffffffffffffffffffffffffffffffffff1673ffffffffffffffffffffffffffffffffffffffff16815260200190815260200160002060008c6020015173ffffffffffffffffffffffffffffffffffffffff1673ffffffffffffffffffffffffffffffffffffffff16815260200190815260200160002060006101000a81548160ff0219169083151502179055506128dd8b83611afe565b8a7f8aba4bf97c53cd5124a16826906cf29c99e37b45dcaccff77292ab676a81b5278b60400151604051612911919061305b565b60405180910390a28073ffffffffffffffffffffffffffffffffffffffff167f659ab4616759704498ed851deaf5cf2eb0b2869d85580cd68a3371aea737e7008c8c6000015173ffffffffffffffffffffffffffffffffffffffff168473ffffffffffffffffffffffffffffffffffffffff1614612993578460c00151612999565b8460a001515b8d6020015173ffffffffffffffffffffffffffffffffffffffff168573ffffffffffffffffffffffffffffffffffffffff16146129da578560c001516129e0565b8560a001515b6040516129ef93929190613d07565b60405180910390a250612a5e565b60018960400151612a0e9190613833565b816040018181525050612a218a82611afe565b897f8aba4bf97c53cd5124a16826906cf29c99e37b45dcaccff77292ab676a81b5278a60400151604051612a55919061305b565b60405180910390a25b50505050505050505050565b600081600001805490509050919050565b6000826000018281548110612a9357612a926136b5565b5b9060005260206000200154905092915050565b600033905090565b6000612aba8383612b68565b612b13578260000182908060018154018082558091505060019003906000526020600020016000909190919091505582600001805490508360010160008481526020019081526020016000208190555060019050612b18565b600090505b92915050565b6000818311612b2e576000612b3b565b8183612b3a9190613d3e565b5b905092915050565b6000818311612b53576000612b60565b8183612b5f9190613d3e565b5b905092915050565b600080836001016000848152602001908152602001600020541415905092915050565b6040518060c0016040528060008152602001600073ffffffffffffffffffffffffffffffffffffffff168152602001600073ffffffffffffffffffffffffffffffffffffffff16815260200160008152602001600073ffffffffffffffffffffffffffffffffffffffff168152602001600073ffffffffffffffffffffffffffffffffffffffff1681525090565b6040518060e00160405280600073ffffffffffffffffffffffffffffffffffffffff168152602001600073ffffffffffffffffffffffffffffffffffffffff16815260200160008152602001600073ffffffffffffffffffffffffffffffffffffffff168152602001612c8a612cb4565b815260200160008152602001600073ffffffffffffffffffffffffffffffffffffffff1681525090565b60405180606001604052806003905b612ccb612d84565b815260200190600190039081612cc35790505090565b604051806101000160405280600073ffffffffffffffffffffffffffffffffffffffff168152602001600073ffffffffffffffffffffffffffffffffffffffff16815260200160008152602001600073ffffffffffffffffffffffffffffffffffffffff168152602001612d53612d84565b81526020016000815260200160008152602001600073ffffffffffffffffffffffffffffffffffffffff1681525090565b6040518060c001604052806000815260200160008152602001600081526020016000815260200160008152602001600081525090565b6000604051905090565b600080fd5b600080fd5b600073ffffffffffffffffffffffffffffffffffffffff82169050919050565b6000612df982612dce565b9050919050565b612e0981612dee565b8114612e1457600080fd5b50565b600081359050612e2681612e00565b92915050565b6000819050919050565b612e3f81612e2c565b8114612e4a57600080fd5b50565b600081359050612e5c81612e36565b92915050565b600080600060608486031215612e7b57612e7a612dc4565b5b6000612e8986828701612e17565b9350506020612e9a86828701612e4d565b9250506040612eab86828701612e4d565b9150509250925092565b600081519050919050565b600082825260208201905092915050565b6000819050602082019050919050565b612eea81612e2c565b82525050565b612ef981612dee565b82525050565b60c082016000820151612f156000850182612ee1565b506020820151612f286020850182612ef0565b506040820151612f3b6040850182612ef0565b506060820151612f4e6060850182612ee1565b506080820151612f616080850182612ef0565b5060a0820151612f7460a0850182612ef0565b50505050565b6000612f868383612eff565b60c08301905092915050565b6000602082019050919050565b6000612faa82612eb5565b612fb48185612ec0565b9350612fbf83612ed1565b8060005b83811015612ff0578151612fd78882612f7a565b9750612fe283612f92565b925050600181019050612fc3565b5085935050505092915050565b600060208201905081810360008301526130178184612f9f565b905092915050565b60006020828403121561303557613034612dc4565b5b600061304384828501612e17565b91505092915050565b61305581612e2c565b82525050565b6000602082019050613070600083018461304c565b92915050565b600080fd5b6000601f19601f8301169050919050565b7f4e487b7100000000000000000000000000000000000000000000000000000000600052604160045260246000fd5b6130c48261307b565b810181811067ffffffffffffffff821117156130e3576130e261308c565b5b80604052505050565b60006130f6612dba565b905061310282826130bb565b919050565b600067ffffffffffffffff8211156131225761312161308c565b5b602082029050602081019050919050565b600080fd5b600061314b61314684613107565b6130ec565b9050808382526020820190506020840283018581111561316e5761316d613133565b5b835b8181101561319757806131838882612e4d565b845260208401935050602081019050613170565b5050509392505050565b600082601f8301126131b6576131b5613076565b5b81356131c6848260208601613138565b91505092915050565b6000602082840312156131e5576131e4612dc4565b5b600082013567ffffffffffffffff81111561320357613202612dc9565b5b61320f848285016131a1565b91505092915050565b600081519050919050565b600082825260208201905092915050565b6000819050602082019050919050565b600060039050919050565b600081905092915050565b6000819050919050565b60c08201600082015161327a6000850182612ee1565b50602082015161328d6020850182612ee1565b5060408201516132a06040850182612ee1565b5060608201516132b36060850182612ee1565b5060808201516132c66080850182612ee1565b5060a08201516132d960a0850182612ee1565b50505050565b60006132eb8383613264565b60c08301905092915050565b6000602082019050919050565b61330d81613244565b613317818461324f565b92506133228261325a565b8060005b8381101561335357815161333a87826132df565b9650613345836132f7565b925050600181019050613326565b505050505050565b610300820160008201516133726000850182612ef0565b5060208201516133856020850182612ef0565b5060408201516133986040850182612ee1565b5060608201516133ab6060850182612ef0565b5060808201516133be6080850182613304565b5060a08201516133d26102c0850182612ee1565b5060c08201516133e66102e0850182612ef0565b50505050565b60006133f8838361335b565b6103008301905092915050565b6000602082019050919050565b600061341d82613218565b6134278185613223565b935061343283613234565b8060005b8381101561346357815161344a88826133ec565b975061345583613405565b925050600181019050613436565b5085935050505092915050565b6000602082019050818103600083015261348a8184613412565b905092915050565b61349b81612dee565b82525050565b60006020820190506134b66000830184613492565b92915050565b6000602082840312156134d2576134d1612dc4565b5b60006134e084828501612e4d565b91505092915050565b610300820160008201516135006000850182612ef0565b5060208201516135136020850182612ef0565b5060408201516135266040850182612ee1565b5060608201516135396060850182612ef0565b50608082015161354c6080850182613304565b5060a08201516135606102c0850182612ee1565b5060c08201516135746102e0850182612ef0565b50505050565b60006103008201905061359060008301846134e9565b92915050565b6000819050826020600302820111156135b2576135b1613133565b5b92915050565b600080608083850312156135cf576135ce612dc4565b5b60006135dd85828601612e17565b92505060206135ee85828601613596565b9150509250929050565b6000806080838503121561360f5761360e612dc4565b5b600061361d85828601612e4d565b925050602061362e85828601613596565b9150509250929050565b600082825260208201905092915050565b7f43616e2774207265717565737420746f6f206d616e79207265636f7264732100600082015250565b600061367f601f83613638565b915061368a82613649565b602082019050919050565b600060208201905081810360008301526136ae81613672565b9050919050565b7f4e487b7100000000000000000000000000000000000000000000000000000000600052603260045260246000fd5b7f4e487b7100000000000000000000000000000000000000000000000000000000600052601160045260246000fd5b600061371e82612e2c565b91507fffffffffffffffffffffffffffffffffffffffffffffffffffffffffffffffff82036137505761374f6136e4565b5b600182019050919050565b7f426174746c6520696420646f65736e2774206578697374000000000000000000600082015250565b6000613791601783613638565b915061379c8261375b565b602082019050919050565b600060208201905081810360008301526137c081613784565b9050919050565b7f556e617574686f72697a65640000000000000000000000000000000000000000600082015250565b60006137fd600c83613638565b9150613808826137c7565b602082019050919050565b6000602082019050818103600083015261382c816137f0565b9050919050565b600061383e82612e2c565b915061384983612e2c565b9250828201905080821115613861576138606136e4565b5b92915050565b7f5573652072657175657374426174746c65000000000000000000000000000000600082015250565b600061389d601183613638565b91506138a882613867565b602082019050919050565b600060208201905081810360008301526138cc81613890565b9050919050565b7f45786365656473205072656461746f7273206d61780000000000000000000000600082015250565b6000613909601583613638565b9150613914826138d3565b602082019050919050565b60006020820190508181036000830152613938816138fc565b9050919050565b7f457863656564732050726f78696d757320436f627261206d6178000000000000600082015250565b6000613975601a83613638565b91506139808261393f565b602082019050919050565b600060208201905081810360008301526139a481613968565b9050919050565b7f4578636565647320426f756e74792048756e746572206d617800000000000000600082015250565b60006139e1601983613638565b91506139ec826139ab565b602082019050919050565b60006020820190508181036000830152613a10816139d4565b9050919050565b7f546f6f206d616e792074726f6f70732100000000000000000000000000000000600082015250565b6000613a4d601083613638565b9150613a5882613a17565b602082019050919050565b60006020820190508181036000830152613a7c81613a40565b9050919050565b7f4f776e61626c653a206e6577206f776e657220697320746865207a65726f206160008201527f6464726573730000000000000000000000000000000000000000000000000000602082015250565b6000613adf602683613638565b9150613aea82613a83565b604082019050919050565b60006020820190508181036000830152613b0e81613ad2565b9050919050565b7f4f776e61626c653a2063616c6c6572206973206e6f7420746865206f776e6572600082015250565b6000613b4b602083613638565b9150613b5682613b15565b602082019050919050565b60006020820190508181036000830152613b7a81613b3e565b9050919050565b7f43616e27742072657175657374207468697320626174746c6500000000000000600082015250565b6000613bb7601983613638565b9150613bc282613b81565b602082019050919050565b60006020820190508181036000830152613be681613baa565b9050919050565b7f4e6f7420796f7572207475726e21000000000000000000000000000000000000600082015250565b6000613c23600e83613638565b9150613c2e82613bed565b602082019050919050565b60006020820190508181036000830152613c5281613c16565b9050919050565b7f4d7573742073656e642074726f6f707321000000000000000000000000000000600082015250565b6000613c8f601183613638565b9150613c9a82613c59565b602082019050919050565b60006020820190508181036000830152613cbe81613c82565b9050919050565b6000613cd082612e2c565b9150613cdb83612e2c565b9250828202613ce981612e2c565b91508282048414831517613d0057613cff6136e4565b5b5092915050565b6000606082019050613d1c600083018661304c565b613d29602083018561304c565b613d36604083018461304c565b949350505050565b6000613d4982612e2c565b9150613d5483612e2c565b9250828203905081811115613d6c57613d6b6136e4565b5b9291505056fea2646970667358221220e689cc4af492affd1777eab71f962d668476d1ec26b988b9a5d691e4359a1c3164736f6c63430008110033",
  "immutableReferences": {},
  "source": "// SPDX-License-Identifier: MIT\npragma solidity 0.8.17;\n\nimport \"@openzeppelin/contracts/access/Ownable.sol\";\nimport \"@openzeppelin/contracts/utils/Counters.sol\";\nimport \"@openzeppelin/contracts/utils/structs/EnumerableSet.sol\";\n\ncontract EternovaQuickBattles is Ownable{\n\t\n\tusing Counters for Counters.Counter;\n\tusing EnumerableSet for EnumerableSet.UintSet;\n\n    Counters.Counter private _battleIds;\n\n\tevent BattleStarted(uint indexed id, address indexed creator, address indexed opponent);\n\tevent BattleFinished(uint id, address indexed winner, uint winnerCityLife, uint looserCityLife);\n\n\tevent RoundStarted(uint indexed id, uint currentRound);\t\n\tevent RoundFinished(uint indexed id, uint currentRound);\n\t\n\tstruct Troop {\n\t\tuint attack;\n\t\tuint defense;\t\t\n\t}\n\n\tTroop private predator = Troop(40,100);\n\tTroop private proximusCobra = Troop(200,200);\n\tTroop private bounty_hunters = Troop(150,50);\n\n\tuint constant MAX_ROUNDS = 3;\n\n\tuint constant PREDATOR_UNITS = 5;\n\tuint constant PROXIMUS_COBRA_UNITS = 2;\n\tuint constant BOUNTY_HUNTERS_UNITS = 3;\n\t\n\tuint constant STARTING_LIFE = 500;\n\n\tuint constant MAX_UNITS_FIRST_ROUND = 8;\n\tuint constant MAX_UNITS_SECOND_ROUND = 9;\n\tuint constant MAX_UNITS_THIRD_ROUND = 10;\n\n\t//Round N => Max units\n\tmapping(uint => uint) roundMaxUnits;\n\t\n\tuint constant FIRST_ROUND = 1;\n\tuint constant SECOND_ROUND = 2;\n\tuint constant THIRD_ROUND = 3;\n\n\tstruct BattleData {\n\t\taddress creator;\n\t\taddress opponent;\n\t\tuint currentRound;\n\t\taddress nextMove;\n\t\tBattleAmount amounts;\n\t\tuint creatorCityLife;\n\t\tuint opponentCityLife;\n\t\taddress winner;\n\t}\n\n\tstruct BattleAmount {\n\t\tuint predatorAttackingUnits;\n\t\tuint proximusAttackingUnits;\n\t\tuint bountyAttackingUnits;\n\t\tuint predatorDefendingUnits;\n\t\tuint proximusDefendingUnits;\n\t\tuint bountyDefendingUnits;\n\t}\n\n\t//BattleId => Round => Amount\n\tmapping (uint => mapping(uint => BattleAmount)) private roundsAmounts;\n\n\t//BattleId => Data\n\tmapping (uint => BattleData) private battle;\n\n\t//User => [battleId]\n\tmapping(address => EnumerableSet.UintSet) private userBattle;\n\n\tmapping(address => mapping(address => bool)) currentlyFighting;\n\t\t\t\n\tconstructor() {\n\t\troundMaxUnits[1] = MAX_UNITS_FIRST_ROUND;\t\t\n\t\troundMaxUnits[2] = MAX_UNITS_SECOND_ROUND;\t\t\n\t\troundMaxUnits[3] = MAX_UNITS_THIRD_ROUND;\t\t\n\t}\n\n\tfunction startBattle(address opponent, uint[3] calldata troopsAmount) external returns(uint){\n\t\trequire(!areCurrentlyFighting(msg.sender, opponent), \"Use requestBattle\");\n\t\trequire(troopsAmount[0] <= PREDATOR_UNITS,\"Exceeds Predators max\");\n\t\trequire(troopsAmount[1] <= PROXIMUS_COBRA_UNITS,\"Exceeds Proximus Cobra max\");\n\t\trequire(troopsAmount[2] <= BOUNTY_HUNTERS_UNITS,\"Exceeds Bounty Hunter max\");\n\t\n\t\tuint totalTroops = troopsAmount[0] + troopsAmount[1] + troopsAmount[2];\n\t\trequire(totalTroops <= roundMaxUnits[FIRST_ROUND],\"Too many troops!\");\n\n\t\t_battleIds.increment();\n\n\t\tBattleAmount memory amounts = BattleAmount(\n\t\t\t\t\t\t\t\t\t\t\ttroopsAmount[0], //predatorAttackingUnits\n\t\t\t\t\t\t\t\t\t\t\ttroopsAmount[1], //proximusAttackingUnits\n\t\t\t\t\t\t\t\t\t\t\ttroopsAmount[2], //bountyAttackingUnits\n\t\t\t\t\t\t\t\t\t\t\t0, //predatorDefendingUnits\n\t\t\t\t\t\t\t\t\t\t\t0, //proximusDefendingUnits\n\t\t\t\t\t\t\t\t\t\t\t0 //bountyDefendingUnits\n\t\t\t\t\t\t\t\t\t\t);\n\t\t\n\t\tBattleData memory data = BattleData(\n\t\t\tmsg.sender, //Creator\n\t\t\topponent, //Opponnent\n\t\t\tFIRST_ROUND, //currentRound\n\t\t\topponent, //NextMove\n\t\t\tamounts,\n\t\t\tSTARTING_LIFE, //creatorCityLife\n\t\t\tSTARTING_LIFE, //opponentCityLife\n\t\t\taddress(0) //Winner\n\t\t\t);\n\n\t\troundsAmounts[_battleIds.current()][FIRST_ROUND] = amounts;\n\t\tsetBattle(_battleIds.current(), data);\n\t\tuserBattle[msg.sender].add(_battleIds.current());\n\t\tuserBattle[opponent].add(_battleIds.current());\n\t\tcurrentlyFighting[msg.sender][opponent] = true;\n\t\temit RoundStarted(_battleIds.current(), data.currentRound);\n\n\t\treturn _battleIds.current();\n\t}\n\n\t//Troops amount for each type [predator, proximusCobra,bounty_hunters]\t\n\tfunction requestBattle(uint id, uint[3] calldata troopsAmount) external {\n\t\tvalidateBattleData(id, troopsAmount);\n\t\tBattleData memory data = getBattleData(id);\n\n\t\tBattleAmount memory amounts = BattleAmount(\n\t\t\t\t\t\t\t\t\tmsg.sender == data.creator ? troopsAmount[0] : data.amounts.predatorAttackingUnits, //predatorAttackingUnits\n\t\t\t\t\t\t\t\t\tmsg.sender == data.creator ? troopsAmount[1] : data.amounts.proximusAttackingUnits, //proximusAttackingUnits\n\t\t\t\t\t\t\t\t\tmsg.sender == data.creator ? troopsAmount[2] : data.amounts.bountyAttackingUnits, //bountyAttackingUnits\n\t\t\t\t\t\t\t\t\tmsg.sender == data.opponent ? troopsAmount[0] : data.amounts.predatorDefendingUnits, //predatorDefendingUnits\n\t\t\t\t\t\t\t\t\tmsg.sender == data.opponent ? troopsAmount[1] : data.amounts.proximusDefendingUnits, //proximusDefendingUnits\n\t\t\t\t\t\t\t\t\tmsg.sender == data.opponent ? troopsAmount[2] : data.amounts.bountyDefendingUnits //bountyDefendingUnits\n\t\t\t\t\t\t\t\t\t);\n\t\t\n\t\tdata = BattleData(\n\t\t\tdata.creator,\n\t\t\tdata.opponent,\n\t\t\tdata.currentRound, //currentRound\n\t\t\tdata.nextMove, //NextMove\n\t\t\tamounts,\n\t\t\tdata.creatorCityLife, //creatorCityLife\n\t\t\tdata.opponentCityLife, //opponentCityLife\n\t\t\taddress(0) //winner\n\t\t\t);\n\n\t\tif (didBothPlayersMoved(data)){\n\t\t\troundsAmounts[id][data.currentRound] = amounts;\n\t\t\tresolveRound(id, data);\n\t\t}else{\n\t\t\tdata.nextMove = data.nextMove == data.creator ? data.opponent : data.creator;\n\t\t\troundsAmounts[id][data.currentRound] = amounts;\n\t\t\tsetBattle(id, data);\n\t\t\temit RoundStarted(id, data.currentRound);\n\t\t}\n\t}\n\n\tfunction didBothPlayersMoved(BattleData memory data) internal pure returns(bool){\n\t\treturn data.amounts.predatorAttackingUnits + data.amounts.proximusAttackingUnits + data.amounts.bountyAttackingUnits > 0 &&\n\tdata.amounts.predatorDefendingUnits + data.amounts.proximusDefendingUnits + data.amounts.bountyDefendingUnits > 0;\n\t}\n\n\tfunction validateBattleData(uint id,uint[3] calldata troopsAmount) internal view{\n\t\trequire(id <= _battleIds.current(),\"Battle id doesn't exist\");\n\t\tBattleData memory data = getBattleData(id);\n\t\trequire(msg.sender == data.creator || msg.sender == data.opponent,\"Can't request this battle\");\n\t\trequire(data.nextMove == msg.sender,\"Not your turn!\");\n\t\t\n\t\tuint predatorUsed;\n\t\tuint proximusUsed;\n\t\tuint bountyUsed;\n\t\tuint totalUsed;\n\n\t\tfor (uint i; i < 3; i++){\t\t\t\n\t\t\tif (msg.sender == data.creator){\n\t\t\t\tpredatorUsed += roundsAmounts[id][i+1].predatorAttackingUnits;\n\t\t\t\tproximusUsed += roundsAmounts[id][i+1].proximusAttackingUnits;\n\t\t\t\tbountyUsed += roundsAmounts[id][i+1].bountyAttackingUnits;\t\t\t\t\n\t\t\t}else{\n\t\t\t\tpredatorUsed += roundsAmounts[id][i+1].predatorDefendingUnits;\n\t\t\t\tproximusUsed += roundsAmounts[id][i+1].proximusDefendingUnits;\n\t\t\t\tbountyUsed += roundsAmounts[id][i+1].bountyDefendingUnits;\n\t\t\t}\n\t\t}\n\t\ttotalUsed += predatorUsed + proximusUsed + bountyUsed;\n\n\t\trequire(troopsAmount[0] + predatorUsed <= PREDATOR_UNITS,\"Exceeds Predators max\");\n\t\trequire(troopsAmount[1] + proximusUsed <= PROXIMUS_COBRA_UNITS,\"Exceeds Proximus Cobra max\");\n\t\trequire(troopsAmount[2] + bountyUsed <= BOUNTY_HUNTERS_UNITS,\"Exceeds Bounty Hunter max\");\n\t\t\t\t\n\t\tuint troopsSent = troopsAmount[0] + troopsAmount[1] + troopsAmount[2];\n\n\t\trequire(troopsSent > 0,\"Must send troops!\");\n\t\trequire((troopsSent + totalUsed) <= roundMaxUnits[data.currentRound],\"Too many troops!\");\n\t}\n\n\tfunction resolveRound (uint id, BattleData memory data) internal {\t\t\n\t\tuint creatorCurrentCityLife = data.creatorCityLife;\n\t\tuint opponentCurrentCityLife = data.opponentCityLife;\n\t\t//Creator\n\t\tuint creatorTotalAttack = data.amounts.predatorAttackingUnits * predator.attack + data.amounts.proximusAttackingUnits * proximusCobra.attack + data.amounts.bountyAttackingUnits * bounty_hunters.attack;\n\t\tuint creatorTotalDefense = data.amounts.predatorAttackingUnits * predator.defense + data.amounts.proximusAttackingUnits * proximusCobra.defense + data.amounts.bountyAttackingUnits * bounty_hunters.defense;\n\t\t//Opponent\n\t\tuint opponentTotalAttack = data.amounts.predatorDefendingUnits * predator.attack + data.amounts.proximusDefendingUnits * proximusCobra.attack + data.amounts.bountyDefendingUnits * bounty_hunters.attack;\n\t\tuint opponentTotalDefense = data.amounts.predatorDefendingUnits * predator.defense + data.amounts.proximusDefendingUnits * proximusCobra.defense + data.amounts.bountyDefendingUnits * bounty_hunters.defense;\n\n\t\tBattleAmount memory amounts = BattleAmount(\n\t\t\t\t\t\t\t\t0, //predatorAttackingUnits\n\t\t\t\t\t\t\t\t0, //proximusAttackingUnits\n\t\t\t\t\t\t\t\t0, //bountyAttackingUnits\n\t\t\t\t\t\t\t\t0, //predatorDefendingUnits\n\t\t\t\t\t\t\t\t0, //proximusDefendingUnits\n\t\t\t\t\t\t\t\t0 //bountyDefendingUnits\n\t\t\t\t\t\t\t);\n\t\tBattleData memory newData = BattleData(\n\t\t\tdata.creator,\n\t\t\tdata.opponent,\n\t\t\tdata.currentRound, //currentRound\n\t\t\tdata.nextMove,\n\t\t\tamounts,\n\t\t\tgetRemainingLife(creatorCurrentCityLife, getTotalDamage(opponentTotalAttack, creatorTotalDefense)), //creatorCityLife\n\t\t\tgetRemainingLife(opponentCurrentCityLife, getTotalDamage(creatorTotalAttack, opponentTotalDefense)), //opponentCityLife\n\t\t\taddress(0) //Winner\n\t\t);\n\t\t\n\t\tif (data.currentRound == THIRD_ROUND){\n\t\t\taddress winner = newData.creatorCityLife >= newData.opponentCityLife ? data.creator : data.opponent;\n\t\t\tnewData.currentRound = 0;\n\t\t\tnewData.nextMove = address(0);\n\t\t\tnewData.winner = winner;\n\t\t\tcurrentlyFighting[data.creator][data.opponent] = false;\n\t\t\tsetBattle(id, newData);\n\t\t\temit RoundFinished(id, data.currentRound);\n\t\t\temit BattleFinished(id, winner, winner == data.creator ? newData.creatorCityLife : newData.opponentCityLife, winner == data.opponent ? newData.creatorCityLife : newData.opponentCityLife);\n\t\t}else{\n\t\t\tnewData.currentRound = data.currentRound + 1;\n\t\t\t\n\t\t\tsetBattle(id, newData);\n\t\t\temit RoundFinished(id, data.currentRound);\t\t\t\t\n\t\t}\n\n\t}\n\t\n\tfunction getTotalDamage(uint attack, uint defense) internal pure returns(uint){\n\t\treturn attack > defense ? attack - defense : 0;\n\t}\n\t\n\tfunction getRemainingLife(uint currentLife, uint damage) internal pure returns(uint){\n\t\treturn currentLife > damage ? currentLife - damage : 0;\n\t}\n\n\tfunction getBattleData(uint id) internal view returns(BattleData memory){\n\t\treturn battle[id];\n\t}\n\n\tstruct PublicBattleData {\n\t\taddress creator;\n\t\taddress opponent;\n\t\tuint currentRound;\n\t\taddress nextMove;\n\t\tBattleAmount[3] amounts;\n\t\tuint cityLife;\n\t\taddress winner;\n\t}\n\n\tfunction getPublicBattleData(uint id) public view returns(PublicBattleData memory data){\n\t\trequire(id <= _battleIds.current(),\"Battle id doesn't exist\");\n\t\tBattleData memory battleData = battle[id];\n\t\trequire(msg.sender == battleData.creator  || msg.sender == battleData.opponent || msg.sender == address(this)  ,\"Unauthorized\");\n\n\t\tBattleAmount[3] memory amount;\n\n\t\tdata.creator = battleData.creator;\n\t\tdata.opponent = battleData.opponent;\n\t\tdata.currentRound = battleData.currentRound;\n\t\tdata.nextMove = battleData.nextMove;\n\t\t\n\t\tfor (uint i; i < 3; i++){\n\t\t\tamount[i] = roundsAmounts[id][i+1];\n\t\t\tif (battleData.winner == address(0)){\n\t\t\t\tif (msg.sender == data.creator){\n\t\t\t\t\tamount[i].predatorDefendingUnits = 0;\n\t\t\t\t\tamount[i].proximusDefendingUnits = 0;\n\t\t\t\t\tamount[i].bountyDefendingUnits = 0;\n\t\t\t\t}else{\n\t\t\t\t\tamount[i].predatorAttackingUnits = 0;\n\t\t\t\t\tamount[i].proximusAttackingUnits = 0;\n\t\t\t\t\tamount[i].bountyAttackingUnits = 0;\n\t\t\t\t}\n\t\t\t}\n\t\t}\n\t\t\t\t\t\n\t\tdata.amounts = amount;\n\t\tdata.cityLife = msg.sender == data.creator ? battleData.creatorCityLife : battleData.opponentCityLife;\n\t\tdata.winner = battleData.winner;\n\n\t\treturn data;\n\t}\n\n\tfunction getPublicBattleDataArray(uint[] memory _ids) external view returns(PublicBattleData[] memory arrayData){\n\t\tarrayData = new PublicBattleData[](_ids.length);\n\t\tfor(uint i; i < _ids.length; i++){\n\t\t\tarrayData[i] = getPublicBattleData(_ids[i]);\n\t\t}\n\t\t\n\t\treturn arrayData;\n\t}\n\n\tfunction setBattle(uint id,BattleData memory data) internal{\n\t\tbattle[id] = data;\n\t}\n\n\tstruct BattleDataResponse {\n\t\tuint battleId;\n\t\taddress creator;\n\t\taddress opponent;\n\t\tuint currentRound;\n\t\taddress nextMove;\n\t\taddress winner;\n\t}\n\n\tfunction getUserBattleData(address user, uint limit, uint offset) external view returns(BattleDataResponse[] memory){\n\t\trequire(limit <= 100, \"Can't request too many records!\");\n\t\tEnumerableSet.UintSet storage _ids = userBattle[user];\n\t\tuint battleCount = _ids.length() <= 100 ? _ids.length() : 100;\n\t\tuint queryLimit = (battleCount > limit && limit != 0 ? limit : battleCount);\n\t\tuint responseIndex;\n\t\tBattleDataResponse[]memory response = new BattleDataResponse[](queryLimit);\n\t\tfor (uint i = offset; i < queryLimit; i++){\n\t\t\tuint id = userBattle[user].at(i);\n\t\t\tBattleData memory data = battle[id];\n\t\t\tresponse[responseIndex] = (\n\t\t\t\tBattleDataResponse(\n\t\t\t\t\tid,\n\t\t\t\t\tdata.creator,\n\t\t\t\t\tdata.opponent,\n\t\t\t\t\tdata.currentRound,\n\t\t\t\t\tdata.nextMove,\n\t\t\t\t\tdata.winner\n\t\t\t\t)\n\t\t\t);\n\t\t\tresponseIndex++;\n\t\t}\n\n\t\treturn response;\n\t}\n\t\n\tfunction areCurrentlyFighting(address creator, address opponent) internal view returns(bool){\n\t\treturn currentlyFighting[creator][opponent];\n\t}\n\n\tfunction getUserBattleCount(address user) external view returns(uint){\n\t\treturn userBattle[user].length();\n\t}\n\n}",
  "sourcePath": "/Users/glenci/EternovaQuickBattles/contracts/EternovaQuickBattles.sol",
  "compiler": {
    "name": "solc",
    "version": "0.8.17+commit.8df45f5f.Emscripten.clang"
  },
  "schemaVersion": "3.4.10",
  "updatedAt": "2023-10-04T15:08:30.194Z",
  "networkType": "ethereum",
  "devdoc": {
    "kind": "dev",
    "methods": {
      "owner()": {
        "details": "Returns the address of the current owner."
      },
      "renounceOwnership()": {
        "details": "Leaves the contract without owner. It will not be possible to call `onlyOwner` functions. Can only be called by the current owner. NOTE: Renouncing ownership will leave the contract without an owner, thereby disabling any functionality that is only available to the owner."
      },
      "transferOwnership(address)": {
        "details": "Transfers ownership of the contract to a new account (`newOwner`). Can only be called by the current owner."
      }
    },
    "version": 1
  },
  "userdoc": {
    "kind": "user",
    "methods": {},
    "version": 1
  }
}