{
  "contractName": "EternovaQuickBattles",
  "abi": [
    {
      "inputs": [],
      "stateMutability": "nonpayable",
      "type": "constructor"
    },
    {
      "anonymous": false,
      "inputs": [
        {
          "indexed": true,
          "internalType": "address",
          "name": "creator",
          "type": "address"
        },
        {
          "indexed": true,
          "internalType": "address",
          "name": "opponent",
          "type": "address"
        },
        {
          "indexed": true,
          "internalType": "address",
          "name": "winner",
          "type": "address"
        },
        {
          "indexed": false,
          "internalType": "uint256",
          "name": "winnerCityLife",
          "type": "uint256"
        },
        {
          "indexed": false,
          "internalType": "uint256",
          "name": "looserCityLife",
          "type": "uint256"
        }
      ],
      "name": "BattleFinished",
      "type": "event"
    },
    {
      "anonymous": false,
      "inputs": [
        {
          "indexed": true,
          "internalType": "address",
          "name": "creator",
          "type": "address"
        },
        {
          "indexed": true,
          "internalType": "address",
          "name": "opponent",
          "type": "address"
        }
      ],
      "name": "BattleStarted",
      "type": "event"
    },
    {
      "anonymous": false,
      "inputs": [
        {
          "indexed": true,
          "internalType": "address",
          "name": "previousOwner",
          "type": "address"
        },
        {
          "indexed": true,
          "internalType": "address",
          "name": "newOwner",
          "type": "address"
        }
      ],
      "name": "OwnershipTransferred",
      "type": "event"
    },
    {
      "anonymous": false,
      "inputs": [
        {
          "indexed": true,
          "internalType": "address",
          "name": "creator",
          "type": "address"
        },
        {
          "indexed": true,
          "internalType": "address",
          "name": "opponent",
          "type": "address"
        },
        {
          "indexed": false,
          "internalType": "uint256",
          "name": "currentRound",
          "type": "uint256"
        }
      ],
      "name": "RoundFinished",
      "type": "event"
    },
    {
      "anonymous": false,
      "inputs": [
        {
          "indexed": true,
          "internalType": "address",
          "name": "creator",
          "type": "address"
        },
        {
          "indexed": true,
          "internalType": "address",
          "name": "opponent",
          "type": "address"
        },
        {
          "indexed": false,
          "internalType": "uint256",
          "name": "currentRound",
          "type": "uint256"
        }
      ],
      "name": "RoundStarted",
      "type": "event"
    },
    {
      "inputs": [],
      "name": "owner",
      "outputs": [
        {
          "internalType": "address",
          "name": "",
          "type": "address"
        }
      ],
      "stateMutability": "view",
      "type": "function"
    },
    {
      "inputs": [],
      "name": "renounceOwnership",
      "outputs": [],
      "stateMutability": "nonpayable",
      "type": "function"
    },
    {
      "inputs": [
        {
          "internalType": "address",
          "name": "newOwner",
          "type": "address"
        }
      ],
      "name": "transferOwnership",
      "outputs": [],
      "stateMutability": "nonpayable",
      "type": "function"
    },
    {
      "inputs": [
        {
          "internalType": "address",
          "name": "creator",
          "type": "address"
        },
        {
          "internalType": "address",
          "name": "opponent",
          "type": "address"
        },
        {
          "internalType": "uint256[3]",
          "name": "troopsAmount",
          "type": "uint256[3]"
        }
      ],
      "name": "requestBattle",
      "outputs": [],
      "stateMutability": "nonpayable",
      "type": "function"
    },
    {
      "inputs": [
        {
          "internalType": "address",
          "name": "creator",
          "type": "address"
        },
        {
          "internalType": "address",
          "name": "opponent",
          "type": "address"
        },
        {
          "internalType": "uint256[3]",
          "name": "troopsAmount",
          "type": "uint256[3]"
        }
      ],
      "name": "respondBattle",
      "outputs": [
        {
          "internalType": "address",
          "name": "",
          "type": "address"
        }
      ],
      "stateMutability": "nonpayable",
      "type": "function"
    },
    {
      "inputs": [
        {
          "internalType": "address",
          "name": "creator",
          "type": "address"
        },
        {
          "internalType": "address",
          "name": "opponent",
          "type": "address"
        }
      ],
      "name": "getBattleData",
      "outputs": [
        {
          "components": [
            {
              "internalType": "uint256",
              "name": "currentRound",
              "type": "uint256"
            },
            {
              "internalType": "address",
              "name": "nextMove",
              "type": "address"
            },
            {
              "internalType": "uint256",
              "name": "predatorAttackingUnits",
              "type": "uint256"
            },
            {
              "internalType": "uint256",
              "name": "proximusAttackingUnits",
              "type": "uint256"
            },
            {
              "internalType": "uint256",
              "name": "bountyAttackingUnits",
              "type": "uint256"
            },
            {
              "internalType": "uint256",
              "name": "predatorDefendingUnits",
              "type": "uint256"
            },
            {
              "internalType": "uint256",
              "name": "proximusDefendingUnits",
              "type": "uint256"
            },
            {
              "internalType": "uint256",
              "name": "bountyDefendingUnits",
              "type": "uint256"
            },
            {
              "internalType": "uint256",
              "name": "creatorCityLife",
              "type": "uint256"
            },
            {
              "internalType": "uint256",
              "name": "opponentCityLife",
              "type": "uint256"
            }
          ],
          "internalType": "struct EternovaQuickBattles.BattleData",
          "name": "",
          "type": "tuple"
        }
      ],
      "stateMutability": "view",
      "type": "function"
    },
    {
      "inputs": [
        {
          "internalType": "address",
          "name": "creator",
          "type": "address"
        },
        {
          "internalType": "address",
          "name": "opponent",
          "type": "address"
        }
      ],
      "name": "getCurrentRound",
      "outputs": [
        {
          "internalType": "uint256",
          "name": "currentRound",
          "type": "uint256"
        }
      ],
      "stateMutability": "view",
      "type": "function"
    }
  ],
  "bytecode": "0x60806040526040518060400160405280602881526020016064815250600160008201518160000155602082015181600101555050604051806040016040528060c8815260200160c8815250600360008201518160000155602082015181600101555050604051806040016040528060968152602001603281525060056000820151816000015560208201518160010155505034801561009d57600080fd5b506100ba6100af6100bf60201b60201c565b6100c760201b60201c565b61018b565b600033905090565b60008060009054906101000a900473ffffffffffffffffffffffffffffffffffffffff169050816000806101000a81548173ffffffffffffffffffffffffffffffffffffffff021916908373ffffffffffffffffffffffffffffffffffffffff1602179055508173ffffffffffffffffffffffffffffffffffffffff168173ffffffffffffffffffffffffffffffffffffffff167f8be0079c531659141344cd1fd0a4f28419497f9722a3daafe3b4186f6b6457e060405160405180910390a35050565b611c238061019a6000396000f3fe608060405234801561001057600080fd5b506004361061007d5760003560e01c80638da5cb5b1161005b5780638da5cb5b146100ec57806391b2d3541461010a578063f2fde38b14610126578063f9e0127c146101425761007d565b806323d572551461008257806347be92da146100b2578063715018a6146100e2575b600080fd5b61009c6004803603810190610097919061150e565b610172565b6040516100a99190611567565b60405180910390f35b6100cc60048036038101906100c791906115a9565b6101fc565b6040516100d9919061160b565b60405180910390f35b6100ea6104f2565b005b6100f4610506565b604051610101919061160b565b60405180910390f35b610124600480360381019061011f91906115a9565b61052f565b005b610140600480360381019061013b9190611626565b610a8e565b005b61015c6004803603810190610157919061150e565b610b11565b604051610169919061173d565b60405180910390f35b6000600760008473ffffffffffffffffffffffffffffffffffffffff1673ffffffffffffffffffffffffffffffffffffffff16815260200190815260200160002060008373ffffffffffffffffffffffffffffffffffffffff1673ffffffffffffffffffffffffffffffffffffffff16815260200190815260200160002060000154905092915050565b6000806102098585610b11565b90506000816000015103610252576040517f08c379a0000000000000000000000000000000000000000000000000000000008152600401610249906117b6565b60405180910390fd5b3373ffffffffffffffffffffffffffffffffffffffff16816020015173ffffffffffffffffffffffffffffffffffffffff16146102c4576040517f08c379a00000000000000000000000000000000000000000000000000000000081526004016102bb90611822565b60405180910390fd5b6005836000600381106102da576102d9611842565b5b60200201351115610320576040517f08c379a0000000000000000000000000000000000000000000000000000000008152600401610317906118bd565b60405180910390fd5b60028360016003811061033657610335611842565b5b6020020135111561037c576040517f08c379a000000000000000000000000000000000000000000000000000000000815260040161037390611929565b60405180910390fd5b60038360026003811061039257610391611842565b5b602002013511156103d8576040517f08c379a00000000000000000000000000000000000000000000000000000000081526004016103cf90611995565b60405180910390fd5b8473ffffffffffffffffffffffffffffffffffffffff163373ffffffffffffffffffffffffffffffffffffffff1603610476578260006003811061041f5761041e611842565b5b60200201358160400181815250508260016003811061044157610440611842565b5b60200201358160600181815250508260026003811061046357610462611842565b5b60200201358160800181815250506104dd565b8260006003811061048a57610489611842565b5b60200201358160a0018181525050826001600381106104ac576104ab611842565b5b60200201358160c0018181525050826002600381106104ce576104cd611842565b5b60200201358160e00181815250505b6104e8858583610c61565b9150509392505050565b6104fa6111b6565b6105046000611234565b565b60008060009054906101000a900473ffffffffffffffffffffffffffffffffffffffff16905090565b60058160006003811061054557610544611842565b5b6020020135111561058b576040517f08c379a0000000000000000000000000000000000000000000000000000000008152600401610582906118bd565b60405180910390fd5b6002816001600381106105a1576105a0611842565b5b602002013511156105e7576040517f08c379a00000000000000000000000000000000000000000000000000000000081526004016105de90611929565b60405180910390fd5b6003816002600381106105fd576105fc611842565b5b60200201351115610643576040517f08c379a000000000000000000000000000000000000000000000000000000000815260040161063a90611995565b60405180910390fd5b60088160026003811061065957610658611842565b5b60200201358260016003811061067257610671611842565b5b60200201358360006003811061068b5761068a611842565b5b602002013561069a91906119e4565b6106a491906119e4565b11156106e5576040517f08c379a00000000000000000000000000000000000000000000000000000000081526004016106dc90611a64565b60405180910390fd5b60006106f18484610b11565b90506000816000015114610772573373ffffffffffffffffffffffffffffffffffffffff16816020015173ffffffffffffffffffffffffffffffffffffffff1614610771576040517f08c379a000000000000000000000000000000000000000000000000000000000815260040161076890611822565b60405180910390fd5b5b6040518061014001604052806001836000015161078f91906119e4565b81526020018573ffffffffffffffffffffffffffffffffffffffff16836020015173ffffffffffffffffffffffffffffffffffffffff16146107d157856107d3565b845b73ffffffffffffffffffffffffffffffffffffffff1681526020018573ffffffffffffffffffffffffffffffffffffffff163373ffffffffffffffffffffffffffffffffffffffff1614610828576000610842565b8360006003811061083c5761083b611842565b5b60200201355b81526020018573ffffffffffffffffffffffffffffffffffffffff163373ffffffffffffffffffffffffffffffffffffffff161461088157600061089b565b8360016003811061089557610894611842565b5b60200201355b81526020018573ffffffffffffffffffffffffffffffffffffffff163373ffffffffffffffffffffffffffffffffffffffff16146108da5760006108f4565b836002600381106108ee576108ed611842565b5b60200201355b81526020018473ffffffffffffffffffffffffffffffffffffffff163373ffffffffffffffffffffffffffffffffffffffff161461093357600061094d565b8360006003811061094757610946611842565b5b60200201355b81526020018473ffffffffffffffffffffffffffffffffffffffff163373ffffffffffffffffffffffffffffffffffffffff161461098c5760006109a6565b836001600381106109a05761099f611842565b5b60200201355b81526020018473ffffffffffffffffffffffffffffffffffffffff163373ffffffffffffffffffffffffffffffffffffffff16146109e55760006109ff565b836002600381106109f9576109f8611842565b5b60200201355b81526020016101f481526020016101f48152509050610a1f8484836112f8565b8273ffffffffffffffffffffffffffffffffffffffff168473ffffffffffffffffffffffffffffffffffffffff167f3ff77df0adae97896c8110186456ef4a8c539443b2e5ff7ea4fb6a4ca069e5c18360000151604051610a809190611567565b60405180910390a350505050565b610a966111b6565b600073ffffffffffffffffffffffffffffffffffffffff168173ffffffffffffffffffffffffffffffffffffffff1603610b05576040517f08c379a0000000000000000000000000000000000000000000000000000000008152600401610afc90611af6565b60405180910390fd5b610b0e81611234565b50565b610b19611442565b610b216111b6565b600760008473ffffffffffffffffffffffffffffffffffffffff1673ffffffffffffffffffffffffffffffffffffffff16815260200190815260200160002060008373ffffffffffffffffffffffffffffffffffffffff1673ffffffffffffffffffffffffffffffffffffffff16815260200190815260200160002060405180610140016040529081600082015481526020016001820160009054906101000a900473ffffffffffffffffffffffffffffffffffffffff1673ffffffffffffffffffffffffffffffffffffffff1673ffffffffffffffffffffffffffffffffffffffff16815260200160028201548152602001600382015481526020016004820154815260200160058201548152602001600682015481526020016007820154815260200160088201548152602001600982015481525050905092915050565b60008082610100015190506000836101200151905060006005600001548560800151610c8d9190611b16565b6003600001548660600151610ca29190611b16565b6001600001548760400151610cb79190611b16565b610cc191906119e4565b610ccb91906119e4565b905060006005600101548660800151610ce49190611b16565b6003600101548760600151610cf99190611b16565b60018001548860400151610d0d9190611b16565b610d1791906119e4565b610d2191906119e4565b905060006005600001548760e00151610d3a9190611b16565b6003600001548860c00151610d4f9190611b16565b6001600001548960a00151610d649190611b16565b610d6e91906119e4565b610d7891906119e4565b905060006005600101548860e00151610d919190611b16565b6003600101548960c00151610da69190611b16565b60018001548a60a00151610dba9190611b16565b610dc491906119e4565b610dce91906119e4565b9050600060405180610140016040528060018b60000151610def91906119e4565b81526020018a6020015173ffffffffffffffffffffffffffffffffffffffff168152602001600081526020016000815260200160008152602001600081526020016000815260200160008152602001610e5189610e4c8789611420565b61142d565b8152602001610e6988610e648987611420565b61142d565b815250905060038960000151036110175760008161012001518261010001511015610e94578a610e96565b8b5b90508a73ffffffffffffffffffffffffffffffffffffffff168c73ffffffffffffffffffffffffffffffffffffffff167f53c609d8c755c88ca9ea676ee491fde2642a3e2985c993405afe6f20af1dbbf08c60000151604051610ef99190611567565b60405180910390a38073ffffffffffffffffffffffffffffffffffffffff168b73ffffffffffffffffffffffffffffffffffffffff168d73ffffffffffffffffffffffffffffffffffffffff167fc62b81a13d0625685bd448aacd23743e8c974efbb963fb0bdf7994a5b7ee31c68f73ffffffffffffffffffffffffffffffffffffffff168573ffffffffffffffffffffffffffffffffffffffff1614610fa557856101200151610fac565b8561010001515b8f73ffffffffffffffffffffffffffffffffffffffff168673ffffffffffffffffffffffffffffffffffffffff1614610fea57866101200151610ff1565b8661010001515b604051610fff929190611b58565b60405180910390a480985050505050505050506111af565b80600760008d73ffffffffffffffffffffffffffffffffffffffff1673ffffffffffffffffffffffffffffffffffffffff16815260200190815260200160002060008c73ffffffffffffffffffffffffffffffffffffffff1673ffffffffffffffffffffffffffffffffffffffff1681526020019081526020016000206000820151816000015560208201518160010160006101000a81548173ffffffffffffffffffffffffffffffffffffffff021916908373ffffffffffffffffffffffffffffffffffffffff16021790555060408201518160020155606082015181600301556080820151816004015560a0820151816005015560c0820151816006015560e08201518160070155610100820151816008015561012082015181600901559050508973ffffffffffffffffffffffffffffffffffffffff168b73ffffffffffffffffffffffffffffffffffffffff167f53c609d8c755c88ca9ea676ee491fde2642a3e2985c993405afe6f20af1dbbf08b6000015160405161119b9190611567565b60405180910390a360009750505050505050505b9392505050565b6111be61143a565b73ffffffffffffffffffffffffffffffffffffffff166111dc610506565b73ffffffffffffffffffffffffffffffffffffffff1614611232576040517f08c379a000000000000000000000000000000000000000000000000000000000815260040161122990611bcd565b60405180910390fd5b565b60008060009054906101000a900473ffffffffffffffffffffffffffffffffffffffff169050816000806101000a81548173ffffffffffffffffffffffffffffffffffffffff021916908373ffffffffffffffffffffffffffffffffffffffff1602179055508173ffffffffffffffffffffffffffffffffffffffff168173ffffffffffffffffffffffffffffffffffffffff167f8be0079c531659141344cd1fd0a4f28419497f9722a3daafe3b4186f6b6457e060405160405180910390a35050565b80600760008573ffffffffffffffffffffffffffffffffffffffff1673ffffffffffffffffffffffffffffffffffffffff16815260200190815260200160002060008473ffffffffffffffffffffffffffffffffffffffff1673ffffffffffffffffffffffffffffffffffffffff1681526020019081526020016000206000820151816000015560208201518160010160006101000a81548173ffffffffffffffffffffffffffffffffffffffff021916908373ffffffffffffffffffffffffffffffffffffffff16021790555060408201518160020155606082015181600301556080820151816004015560a0820151816005015560c0820151816006015560e0820151816007015561010082015181600801556101208201518160090155905050505050565b6000818303905092915050565b6000818303905092915050565b600033905090565b60405180610140016040528060008152602001600073ffffffffffffffffffffffffffffffffffffffff16815260200160008152602001600081526020016000815260200160008152602001600081526020016000815260200160008152602001600081525090565b600080fd5b600073ffffffffffffffffffffffffffffffffffffffff82169050919050565b60006114db826114b0565b9050919050565b6114eb816114d0565b81146114f657600080fd5b50565b600081359050611508816114e2565b92915050565b60008060408385031215611525576115246114ab565b5b6000611533858286016114f9565b9250506020611544858286016114f9565b9150509250929050565b6000819050919050565b6115618161154e565b82525050565b600060208201905061157c6000830184611558565b92915050565b600080fd5b6000819050826020600302820111156115a3576115a2611582565b5b92915050565b600080600060a084860312156115c2576115c16114ab565b5b60006115d0868287016114f9565b93505060206115e1868287016114f9565b92505060406115f286828701611587565b9150509250925092565b611605816114d0565b82525050565b600060208201905061162060008301846115fc565b92915050565b60006020828403121561163c5761163b6114ab565b5b600061164a848285016114f9565b91505092915050565b61165c8161154e565b82525050565b61166b816114d0565b82525050565b610140820160008201516116886000850182611653565b50602082015161169b6020850182611662565b5060408201516116ae6040850182611653565b5060608201516116c16060850182611653565b5060808201516116d46080850182611653565b5060a08201516116e760a0850182611653565b5060c08201516116fa60c0850182611653565b5060e082015161170d60e0850182611653565b50610100820151611722610100850182611653565b50610120820151611737610120850182611653565b50505050565b6000610140820190506117536000830184611671565b92915050565b600082825260208201905092915050565b7f4e6f2063757272656e7420626174746c6520746f20726573706f6e6400000000600082015250565b60006117a0601c83611759565b91506117ab8261176a565b602082019050919050565b600060208201905081810360008301526117cf81611793565b9050919050565b7f4e6f7420796f7572207475726e21000000000000000000000000000000000000600082015250565b600061180c600e83611759565b9150611817826117d6565b602082019050919050565b6000602082019050818103600083015261183b816117ff565b9050919050565b7f4e487b7100000000000000000000000000000000000000000000000000000000600052603260045260246000fd5b7f45786365656473205072656461746f7273206d61780000000000000000000000600082015250565b60006118a7601583611759565b91506118b282611871565b602082019050919050565b600060208201905081810360008301526118d68161189a565b9050919050565b7f457863656564732050726f78696d757320436f627261206d6178000000000000600082015250565b6000611913601a83611759565b915061191e826118dd565b602082019050919050565b6000602082019050818103600083015261194281611906565b9050919050565b7f4578636565647320426f756e74792048756e746572206d617800000000000000600082015250565b600061197f601983611759565b915061198a82611949565b602082019050919050565b600060208201905081810360008301526119ae81611972565b9050919050565b7f4e487b7100000000000000000000000000000000000000000000000000000000600052601160045260246000fd5b60006119ef8261154e565b91506119fa8361154e565b9250828201905080821115611a1257611a116119b5565b5b92915050565b7f546f6f206d75636820756e697473210000000000000000000000000000000000600082015250565b6000611a4e600f83611759565b9150611a5982611a18565b602082019050919050565b60006020820190508181036000830152611a7d81611a41565b9050919050565b7f4f776e61626c653a206e6577206f776e657220697320746865207a65726f206160008201527f6464726573730000000000000000000000000000000000000000000000000000602082015250565b6000611ae0602683611759565b9150611aeb82611a84565b604082019050919050565b60006020820190508181036000830152611b0f81611ad3565b9050919050565b6000611b218261154e565b9150611b2c8361154e565b9250828202611b3a8161154e565b91508282048414831517611b5157611b506119b5565b5b5092915050565b6000604082019050611b6d6000830185611558565b611b7a6020830184611558565b9392505050565b7f4f776e61626c653a2063616c6c6572206973206e6f7420746865206f776e6572600082015250565b6000611bb7602083611759565b9150611bc282611b81565b602082019050919050565b60006020820190508181036000830152611be681611baa565b905091905056fea264697066735822122043b41442eff0b7ca41415467e788dcb15dd13799bca1c78f176c14b3e8f8ef4b64736f6c63430008110033",
  "immutableReferences": {},
  "source": "// SPDX-License-Identifier: MIT\npragma solidity 0.8.17;\n\nimport \"@openzeppelin/contracts/access/Ownable.sol\";\n\ncontract EternovaQuickBattles is Ownable{\n\n\tevent BattleStarted(address indexed creator, address indexed opponent);\n\tevent BattleFinished(address indexed creator, address indexed opponent, address indexed winner, uint winnerCityLife, uint looserCityLife);\n\n\tevent RoundStarted(address indexed creator, address indexed opponent, uint currentRound);\t\n\tevent RoundFinished(address indexed creator, address indexed opponent, uint currentRound);\n\t\n\tstruct Troop {\n\t\tuint attack;\n\t\tuint defense;\t\t\n\t}\n\n\tstruct BattleData {\n\t\tuint currentRound;\n\t\taddress nextMove;\n\t\tuint predatorAttackingUnits;\n\t\tuint proximusAttackingUnits;\n\t\tuint bountyAttackingUnits;\n\t\tuint predatorDefendingUnits;\n\t\tuint proximusDefendingUnits;\n\t\tuint bountyDefendingUnits;\n\t\tuint creatorCityLife;\n\t\tuint opponentCityLife;\n\t}\n\n\tTroop private predator = Troop(40,100);\n\tTroop private proximusCobra = Troop(200,200);\n\tTroop private bounty_hunters = Troop(150,50);\n\n\tuint constant MAX_ROUNDS = 3;\n\n\tuint constant PREDATOR_UNITS = 5;\n\tuint constant PROXIMUS_COBRA_UNITS = 2;\n\tuint constant BOUNTY_HUNTERS_UNITS = 3;\n\tuint constant STARTING_LIFE = 500;\n\n\tuint constant MAX_UNITS_FIRST_ROUND = 8;\n\tuint constant MAX_UNITS_SECOND_ROUND = 9;\n\tuint constant MAX_UNITS_THIRD_ROUND = 10;\n\t\n\tuint constant FIRST_ROUND = 1;\n\tuint constant SECOND_ROUND = 2;\n\tuint constant THIRD_ROUND = 3;\n\n\t//Creator => opponent => Data\n\tmapping (address => mapping (address => BattleData)) private battle;\n\t\t\t\n\tconstructor() {\n\t\t\n\t}\n\n\t//Troops amount for each type [predator, proximusCobra,bounty_hunters]\n\tfunction requestBattle(address creator, address opponent, uint[3] calldata troopsAmount) public{\n\t\trequire(troopsAmount[0] <= PREDATOR_UNITS,\"Exceeds Predators max\");\n\t\trequire(troopsAmount[1] <= PROXIMUS_COBRA_UNITS,\"Exceeds Proximus Cobra max\");\n\t\trequire(troopsAmount[2] <= BOUNTY_HUNTERS_UNITS,\"Exceeds Bounty Hunter max\");\t\t\n\t\trequire(troopsAmount[0] + troopsAmount[1] + troopsAmount[2] <= MAX_UNITS_FIRST_ROUND,\"Too much units!\");\n\t\t\n\t\tBattleData memory data = getBattleData(creator, opponent);\n\t\tif (data.currentRound != 0){\n\t\t\trequire(data.nextMove == msg.sender,\"Not your turn!\");\n\t\t}\n\t\t\n\t\tdata = BattleData(\n\t\t\tdata.currentRound + 1, //currentRound\n\t\t\tdata.nextMove == creator ? opponent : creator, //NextMove\n\t\t\tmsg.sender == creator ? troopsAmount[0] : 0, //predatorAttackingUnits\n\t\t\tmsg.sender == creator ? troopsAmount[1] : 0, //proximusAttackingUnits\n\t\t\tmsg.sender == creator ? troopsAmount[2] : 0, //bountyAttackingUnits\n\t\t\tmsg.sender == opponent ? troopsAmount[0] : 0, //predatorDefendingUnits\n\t\t\tmsg.sender == opponent ? troopsAmount[1] : 0, //proximusDefendingUnits\n\t\t\tmsg.sender == opponent ? troopsAmount[2] : 0, //bountyDefendingUnits\n\t\t\tSTARTING_LIFE, //creatorCityLife\n\t\t\tSTARTING_LIFE //opponentCityLife\n\t\t\t);\n\t\tsetBattle(creator, opponent, data);\n\t\t\t\t\n\t\temit RoundStarted(creator, opponent, data.currentRound);\n\t}\n\n\t//Troops amount for each type [predator,proximusCobra,bounty_hunters]\n\tfunction respondBattle(address creator, address opponent,uint[3] calldata troopsAmount) external returns(address){\n\t\tBattleData memory data = getBattleData(creator, opponent);\n\t\trequire(data.currentRound != 0,\"No current battle to respond\");\n\t\trequire(data.nextMove == msg.sender,\"Not your turn!\");\n\t\trequire(troopsAmount[0] <= PREDATOR_UNITS,\"Exceeds Predators max\");\n\t\trequire(troopsAmount[1] <= PROXIMUS_COBRA_UNITS,\"Exceeds Proximus Cobra max\");\n\t\trequire(troopsAmount[2] <= BOUNTY_HUNTERS_UNITS,\"Exceeds Bounty Hunter max\");\n\n\t\tif (msg.sender == creator){\n\t\t\tdata.predatorAttackingUnits = troopsAmount[0];\n\t\t\tdata.proximusAttackingUnits = troopsAmount[1];\n\t\t\tdata.bountyAttackingUnits = troopsAmount[2];\n\t\t}else{\n\t\t\tdata.predatorDefendingUnits = troopsAmount[0];\n\t\t\tdata.proximusDefendingUnits = troopsAmount[1];\n\t\t\tdata.bountyDefendingUnits = troopsAmount[2];\n\t\t}\n\t\t\n\t\treturn resolveRound(creator, opponent, data);\n\t}\n\n\t//Resolves round\n\t//If last round, returns winner, if not 0x000...\n\tfunction resolveRound (address creator, address opponent, BattleData memory data) internal returns(address) {\t\t\n\t\tuint creatorCurrentCityLife = data.creatorCityLife;\n\t\tuint opponentCurrentCityLife = data.opponentCityLife;\n\t\t//Creator\n\t\tuint creatorTotalAttack = data.predatorAttackingUnits * predator.attack + data.proximusAttackingUnits * proximusCobra.attack + data.bountyAttackingUnits * bounty_hunters.attack;\n\t\tuint creatorTotalDefense = data.predatorAttackingUnits * predator.defense + data.proximusAttackingUnits * proximusCobra.defense + data.bountyAttackingUnits * bounty_hunters.defense;\n\t\t//Opponent\n\t\tuint opponentTotalAttack = data.predatorDefendingUnits * predator.attack + data.proximusDefendingUnits * proximusCobra.attack + data.bountyDefendingUnits * bounty_hunters.attack;\n\t\tuint opponentTotalDefense = data.predatorDefendingUnits * predator.defense + data.proximusDefendingUnits * proximusCobra.defense + data.bountyDefendingUnits * bounty_hunters.defense;\n\n\t\tBattleData memory newData = BattleData(\n\t\t\tdata.currentRound + 1, //currentRound\n\t\t\tdata.nextMove,\n\t\t\t0, //predatorAttackingUnits\n\t\t\t0, //proximusAttackingUnits\n\t\t\t0, //bountyAttackingUnits\n\t\t\t0, //predatorDefendingUnits\n\t\t\t0, //proximusDefendingUnits\n\t\t\t0, //bountyDefendingUnits\n\t\t\tgetRemainingLife(creatorCurrentCityLife, getTotalDamage(opponentTotalAttack, creatorTotalDefense)), //creatorCityLife\n\t\t\tgetRemainingLife(opponentCurrentCityLife, getTotalDamage(creatorTotalAttack, opponentTotalDefense)) //opponentCityLife\n\t\t);\n\t\t\n\t\tif (data.currentRound == THIRD_ROUND){\n\t\t\taddress winner = newData.creatorCityLife >= newData.opponentCityLife ? creator : opponent;\n\t\t\temit RoundFinished(creator, opponent, data.currentRound);\n\t\t\temit BattleFinished(creator, opponent, winner, winner == creator ? newData.creatorCityLife : newData.opponentCityLife, winner == opponent ? newData.creatorCityLife : newData.opponentCityLife);\n\t\t\treturn winner;\n\t\t}\n\n\t\tbattle[creator][opponent] = newData;\t\t\n\t\temit RoundFinished(creator, opponent, data.currentRound);\t\t\t\t\n\t\treturn(address(0));\n\t}\n\t\n\tfunction getTotalDamage(uint attack, uint defense) internal pure returns(uint){\n\t\tunchecked {\n\t\t\treturn attack - defense;\n\t\t}\n\t}\n\t\n\tfunction getRemainingLife(uint currentLife, uint damage) internal pure returns(uint){\n\t\tunchecked {\n\t\t\treturn currentLife - damage;\n\t\t}\n\t}\n\n\tfunction getBattleData(address creator, address opponent) public view onlyOwner returns(BattleData memory){\n\t\treturn battle[creator][opponent];\n\t}\n\n\tfunction getCurrentRound(address creator, address opponent) public view returns(uint currentRound){\n\t\treturn battle[creator][opponent].currentRound;\n\t}\n\n\n\tfunction setBattle(address creator,address opponent, BattleData memory data) internal{\n\t\tbattle[creator][opponent] = data;\n\t}\n}",
  "sourcePath": "/Users/glenci/OasisTest/contracts/EternovaQuickBattles.sol",
  "compiler": {
    "name": "solc",
    "version": "0.8.17+commit.8df45f5f.Emscripten.clang"
  },
  "schemaVersion": "3.4.10",
  "updatedAt": "2023-09-06T15:21:34.184Z",
  "devdoc": {
    "kind": "dev",
    "methods": {
      "owner()": {
        "details": "Returns the address of the current owner."
      },
      "renounceOwnership()": {
        "details": "Leaves the contract without owner. It will not be possible to call `onlyOwner` functions. Can only be called by the current owner. NOTE: Renouncing ownership will leave the contract without an owner, thereby disabling any functionality that is only available to the owner."
      },
      "transferOwnership(address)": {
        "details": "Transfers ownership of the contract to a new account (`newOwner`). Can only be called by the current owner."
      }
    },
    "version": 1
  },
  "userdoc": {
    "kind": "user",
    "methods": {},
    "version": 1
  }
}