{
  "contractName": "EternovaQuickBattles",
  "abi": [
    {
      "inputs": [],
      "stateMutability": "nonpayable",
      "type": "constructor"
    },
    {
      "anonymous": false,
      "inputs": [
        {
          "indexed": false,
          "internalType": "uint256",
          "name": "id",
          "type": "uint256"
        },
        {
          "indexed": true,
          "internalType": "address",
          "name": "winner",
          "type": "address"
        },
        {
          "indexed": false,
          "internalType": "uint256",
          "name": "winnerCityLife",
          "type": "uint256"
        },
        {
          "indexed": false,
          "internalType": "uint256",
          "name": "looserCityLife",
          "type": "uint256"
        }
      ],
      "name": "BattleFinished",
      "type": "event"
    },
    {
      "anonymous": false,
      "inputs": [
        {
          "indexed": true,
          "internalType": "uint256",
          "name": "id",
          "type": "uint256"
        },
        {
          "indexed": true,
          "internalType": "address",
          "name": "creator",
          "type": "address"
        },
        {
          "indexed": true,
          "internalType": "address",
          "name": "opponent",
          "type": "address"
        }
      ],
      "name": "BattleStarted",
      "type": "event"
    },
    {
      "anonymous": false,
      "inputs": [
        {
          "indexed": true,
          "internalType": "address",
          "name": "previousOwner",
          "type": "address"
        },
        {
          "indexed": true,
          "internalType": "address",
          "name": "newOwner",
          "type": "address"
        }
      ],
      "name": "OwnershipTransferred",
      "type": "event"
    },
    {
      "anonymous": false,
      "inputs": [
        {
          "indexed": true,
          "internalType": "uint256",
          "name": "id",
          "type": "uint256"
        },
        {
          "indexed": false,
          "internalType": "uint256",
          "name": "currentRound",
          "type": "uint256"
        }
      ],
      "name": "RoundFinished",
      "type": "event"
    },
    {
      "anonymous": false,
      "inputs": [
        {
          "indexed": true,
          "internalType": "uint256",
          "name": "id",
          "type": "uint256"
        },
        {
          "indexed": false,
          "internalType": "uint256",
          "name": "currentRound",
          "type": "uint256"
        }
      ],
      "name": "RoundStarted",
      "type": "event"
    },
    {
      "inputs": [],
      "name": "owner",
      "outputs": [
        {
          "internalType": "address",
          "name": "",
          "type": "address"
        }
      ],
      "stateMutability": "view",
      "type": "function",
      "constant": true
    },
    {
      "inputs": [],
      "name": "renounceOwnership",
      "outputs": [],
      "stateMutability": "nonpayable",
      "type": "function"
    },
    {
      "inputs": [
        {
          "internalType": "address",
          "name": "newOwner",
          "type": "address"
        }
      ],
      "name": "transferOwnership",
      "outputs": [],
      "stateMutability": "nonpayable",
      "type": "function"
    },
    {
      "inputs": [
        {
          "internalType": "address",
          "name": "opponent",
          "type": "address"
        },
        {
          "internalType": "uint256[3]",
          "name": "troopsAmount",
          "type": "uint256[3]"
        }
      ],
      "name": "startBattle",
      "outputs": [
        {
          "internalType": "uint256",
          "name": "",
          "type": "uint256"
        }
      ],
      "stateMutability": "nonpayable",
      "type": "function"
    },
    {
      "inputs": [
        {
          "internalType": "uint256",
          "name": "id",
          "type": "uint256"
        },
        {
          "internalType": "uint256[3]",
          "name": "troopsAmount",
          "type": "uint256[3]"
        }
      ],
      "name": "requestBattle",
      "outputs": [],
      "stateMutability": "nonpayable",
      "type": "function"
    },
    {
      "inputs": [
        {
          "internalType": "uint256",
          "name": "id",
          "type": "uint256"
        },
        {
          "internalType": "uint256[3]",
          "name": "troopsAmount",
          "type": "uint256[3]"
        }
      ],
      "name": "respondBattle",
      "outputs": [
        {
          "internalType": "address",
          "name": "",
          "type": "address"
        }
      ],
      "stateMutability": "nonpayable",
      "type": "function"
    },
    {
      "inputs": [
        {
          "internalType": "uint256",
          "name": "id",
          "type": "uint256"
        }
      ],
      "name": "getPublicBattleData",
      "outputs": [
        {
          "components": [
            {
              "internalType": "address",
              "name": "creator",
              "type": "address"
            },
            {
              "internalType": "address",
              "name": "opponent",
              "type": "address"
            },
            {
              "internalType": "uint256",
              "name": "currentRound",
              "type": "uint256"
            },
            {
              "internalType": "address",
              "name": "nextMove",
              "type": "address"
            },
            {
              "internalType": "uint256",
              "name": "predatorUnits",
              "type": "uint256"
            },
            {
              "internalType": "uint256",
              "name": "proximusUnits",
              "type": "uint256"
            },
            {
              "internalType": "uint256",
              "name": "bountyUnits",
              "type": "uint256"
            },
            {
              "internalType": "uint256",
              "name": "cityLife",
              "type": "uint256"
            },
            {
              "internalType": "address",
              "name": "winner",
              "type": "address"
            }
          ],
          "internalType": "struct EternovaQuickBattles.PublicBattleData",
          "name": "data",
          "type": "tuple"
        }
      ],
      "stateMutability": "view",
      "type": "function",
      "constant": true
    },
    {
      "inputs": [
        {
          "internalType": "address",
          "name": "user",
          "type": "address"
        },
        {
          "internalType": "uint256",
          "name": "limit",
          "type": "uint256"
        },
        {
          "internalType": "uint256",
          "name": "offset",
          "type": "uint256"
        }
      ],
      "name": "getUserBattleData",
      "outputs": [
        {
          "components": [
            {
              "internalType": "uint256",
              "name": "battleId",
              "type": "uint256"
            },
            {
              "internalType": "address",
              "name": "creator",
              "type": "address"
            },
            {
              "internalType": "address",
              "name": "opponent",
              "type": "address"
            },
            {
              "internalType": "uint256",
              "name": "currentRound",
              "type": "uint256"
            },
            {
              "internalType": "address",
              "name": "nextMove",
              "type": "address"
            },
            {
              "internalType": "address",
              "name": "winner",
              "type": "address"
            }
          ],
          "internalType": "struct EternovaQuickBattles.BattleDataResponse[]",
          "name": "",
          "type": "tuple[]"
        }
      ],
      "stateMutability": "view",
      "type": "function",
      "constant": true
    },
    {
      "inputs": [
        {
          "internalType": "address",
          "name": "user",
          "type": "address"
        }
      ],
      "name": "getUserBattleCount",
      "outputs": [
        {
          "internalType": "uint256",
          "name": "",
          "type": "uint256"
        }
      ],
      "stateMutability": "view",
      "type": "function",
      "constant": true
    }
  ],
  "bytecode": "0x60806040526040518060400160405280602881526020016064815250600260008201518160000155602082015181600101555050604051806040016040528060c8815260200160c881525060046000820151816000015560208201518160010155505060405180604001604052806096815260200160328152506006600082015181600001556020820151816001015550503480156200009e57600080fd5b50620000bf620000b36200011260201b60201c565b6200011a60201b60201c565b600880600060018152602001908152602001600020819055506009600860006002815260200190815260200160002081905550600a600860006003815260200190815260200160002081905550620001de565b600033905090565b60008060009054906101000a900473ffffffffffffffffffffffffffffffffffffffff169050816000806101000a81548173ffffffffffffffffffffffffffffffffffffffff021916908373ffffffffffffffffffffffffffffffffffffffff1602179055508173ffffffffffffffffffffffffffffffffffffffff168173ffffffffffffffffffffffffffffffffffffffff167f8be0079c531659141344cd1fd0a4f28419497f9722a3daafe3b4186f6b6457e060405160405180910390a35050565b6132c880620001ee6000396000f3fe608060405234801561001057600080fd5b50600436106100935760003560e01c80638da5cb5b116100665780638da5cb5b1461013257806394a8142d146101505780639c80043814610180578063a5e94e98146101b0578063f2fde38b146101cc57610093565b8063141dfa79146100985780634f21cd0c146100c8578063553bff08146100f8578063715018a614610128575b600080fd5b6100b260048036038101906100ad91906127b0565b6101e8565b6040516100bf919061294b565b60405180910390f35b6100e260048036038101906100dd9190612994565b610633565b6040516100ef91906129e3565b60405180910390f35b610112600480360381019061010d91906129fe565b61076a565b60405161011f9190612a3a565b60405180910390f35b6101306107ba565b005b61013a6107ce565b60405161014791906129e3565b60405180910390f35b61016a60048036038101906101659190612a55565b6107f7565b6040516101779190612b39565b60405180910390f35b61019a60048036038101906101959190612b55565b610d16565b6040516101a79190612a3a565b60405180910390f35b6101ca60048036038101906101c59190612994565b61119b565b005b6101e660048036038101906101e191906129fe565b61151a565b005b6060606483111561022e576040517f08c379a000000000000000000000000000000000000000000000000000000000815260040161022590612bf2565b60405180910390fd5b6000600a60008673ffffffffffffffffffffffffffffffffffffffff1673ffffffffffffffffffffffffffffffffffffffff16815260200190815260200160002090506000606461027e8361159d565b111561028b576064610295565b6102948261159d565b5b9050600085821180156102a9575060008614155b6102b357816102b5565b855b90506000808267ffffffffffffffff8111156102d4576102d3612c12565b5b60405190808252806020026020018201604052801561030d57816020015b6102fa612525565b8152602001906001900390816102f25790505b50905060008790505b8381101561062357600061037182600a60008e73ffffffffffffffffffffffffffffffffffffffff1673ffffffffffffffffffffffffffffffffffffffff1681526020019081526020016000206115b290919063ffffffff16565b9050600060096000838152602001908152602001600020604051806101a00160405290816000820160009054906101000a900473ffffffffffffffffffffffffffffffffffffffff1673ffffffffffffffffffffffffffffffffffffffff1673ffffffffffffffffffffffffffffffffffffffff1681526020016001820160009054906101000a900473ffffffffffffffffffffffffffffffffffffffff1673ffffffffffffffffffffffffffffffffffffffff1673ffffffffffffffffffffffffffffffffffffffff168152602001600282015481526020016003820160009054906101000a900473ffffffffffffffffffffffffffffffffffffffff1673ffffffffffffffffffffffffffffffffffffffff1673ffffffffffffffffffffffffffffffffffffffff168152602001600482015481526020016005820154815260200160068201548152602001600782015481526020016008820154815260200160098201548152602001600a8201548152602001600b8201548152602001600c820160009054906101000a900473ffffffffffffffffffffffffffffffffffffffff1673ffffffffffffffffffffffffffffffffffffffff1673ffffffffffffffffffffffffffffffffffffffff168152505090506040518060c00160405280838152602001826000015173ffffffffffffffffffffffffffffffffffffffff168152602001826020015173ffffffffffffffffffffffffffffffffffffffff16815260200182604001518152602001826060015173ffffffffffffffffffffffffffffffffffffffff16815260200182610180015173ffffffffffffffffffffffffffffffffffffffff168152508486815181106105f5576105f4612c41565b5b6020026020010181905250848061060b90612c9f565b9550505050808061061b90612c9f565b915050610316565b5080955050505050509392505050565b600061063f83836115cc565b600061064a84611920565b9050806000015173ffffffffffffffffffffffffffffffffffffffff163373ffffffffffffffffffffffffffffffffffffffff16036106ee578260006003811061069757610696612c41565b5b6020020135816080018181525050826001600381106106b9576106b8612c41565b5b60200201358160a0018181525050826002600381106106db576106da612c41565b5b60200201358160c0018181525050610757565b8260006003811061070257610701612c41565b5b60200201358160e00181815250508260016003811061072457610723612c41565b5b6020020135816101000181815250508260026003811061074757610746612c41565b5b6020020135816101200181815250505b6107618482611b00565b91505092915050565b60006107b3600a60008473ffffffffffffffffffffffffffffffffffffffff1673ffffffffffffffffffffffffffffffffffffffff16815260200190815260200160002061159d565b9050919050565b6107c261205a565b6107cc60006120d8565b565b60008060009054906101000a900473ffffffffffffffffffffffffffffffffffffffff16905090565b6107ff6125b3565b610809600161219c565b82111561084b576040517f08c379a000000000000000000000000000000000000000000000000000000000815260040161084290612d33565b60405180910390fd5b600060096000848152602001908152602001600020604051806101a00160405290816000820160009054906101000a900473ffffffffffffffffffffffffffffffffffffffff1673ffffffffffffffffffffffffffffffffffffffff1673ffffffffffffffffffffffffffffffffffffffff1681526020016001820160009054906101000a900473ffffffffffffffffffffffffffffffffffffffff1673ffffffffffffffffffffffffffffffffffffffff1673ffffffffffffffffffffffffffffffffffffffff168152602001600282015481526020016003820160009054906101000a900473ffffffffffffffffffffffffffffffffffffffff1673ffffffffffffffffffffffffffffffffffffffff1673ffffffffffffffffffffffffffffffffffffffff168152602001600482015481526020016005820154815260200160068201548152602001600782015481526020016008820154815260200160098201548152602001600a8201548152602001600b8201548152602001600c820160009054906101000a900473ffffffffffffffffffffffffffffffffffffffff1673ffffffffffffffffffffffffffffffffffffffff1673ffffffffffffffffffffffffffffffffffffffff16815250509050806000015173ffffffffffffffffffffffffffffffffffffffff163373ffffffffffffffffffffffffffffffffffffffff161480610a8d5750806020015173ffffffffffffffffffffffffffffffffffffffff163373ffffffffffffffffffffffffffffffffffffffff16145b610acc576040517f08c379a0000000000000000000000000000000000000000000000000000000008152600401610ac390612d9f565b60405180910390fd5b8060000151826000019073ffffffffffffffffffffffffffffffffffffffff16908173ffffffffffffffffffffffffffffffffffffffff16815250508060200151826020019073ffffffffffffffffffffffffffffffffffffffff16908173ffffffffffffffffffffffffffffffffffffffff168152505080604001518260400181815250508060600151826060019073ffffffffffffffffffffffffffffffffffffffff16908173ffffffffffffffffffffffffffffffffffffffff1681525050816000015173ffffffffffffffffffffffffffffffffffffffff163373ffffffffffffffffffffffffffffffffffffffff1614610bcf578060e00151610bd5565b80608001515b826080018181525050816000015173ffffffffffffffffffffffffffffffffffffffff163373ffffffffffffffffffffffffffffffffffffffff1614610c2057806101000151610c26565b8060a001515b8260a0018181525050816000015173ffffffffffffffffffffffffffffffffffffffff163373ffffffffffffffffffffffffffffffffffffffff1614610c7157806101200151610c77565b8060c001515b8260c0018181525050816000015173ffffffffffffffffffffffffffffffffffffffff163373ffffffffffffffffffffffffffffffffffffffff1614610cc257806101600151610cc9565b8061014001515b8260e001818152505080610180015182610100019073ffffffffffffffffffffffffffffffffffffffff16908173ffffffffffffffffffffffffffffffffffffffff168152505050919050565b6000610d2233846121aa565b15610d62576040517f08c379a0000000000000000000000000000000000000000000000000000000008152600401610d5990612e0b565b60405180910390fd5b600582600060038110610d7857610d77612c41565b5b60200201351115610dbe576040517f08c379a0000000000000000000000000000000000000000000000000000000008152600401610db590612e77565b60405180910390fd5b600282600160038110610dd457610dd3612c41565b5b60200201351115610e1a576040517f08c379a0000000000000000000000000000000000000000000000000000000008152600401610e1190612ee3565b60405180910390fd5b600382600260038110610e3057610e2f612c41565b5b60200201351115610e76576040517f08c379a0000000000000000000000000000000000000000000000000000000008152600401610e6d90612f4f565b60405180910390fd5b600082600260038110610e8c57610e8b612c41565b5b602002013583600160038110610ea557610ea4612c41565b5b602002013584600060038110610ebe57610ebd612c41565b5b6020020135610ecd9190612f6f565b610ed79190612f6f565b9050600860006001815260200190815260200160002054811115610f30576040517f08c379a0000000000000000000000000000000000000000000000000000000008152600401610f2790612fef565b60405180910390fd5b610f3a600161223e565b6000604051806101a001604052803373ffffffffffffffffffffffffffffffffffffffff1681526020018673ffffffffffffffffffffffffffffffffffffffff168152602001600181526020018673ffffffffffffffffffffffffffffffffffffffff16815260200185600060038110610fb757610fb6612c41565b5b6020020135815260200185600160038110610fd557610fd4612c41565b5b6020020135815260200185600260038110610ff357610ff2612c41565b5b602002013581526020016000815260200160008152602001600081526020016101f481526020016101f48152602001600073ffffffffffffffffffffffffffffffffffffffff16815250905061105261104c600161219c565b82612254565b6110ac61105f600161219c565b600a60003373ffffffffffffffffffffffffffffffffffffffff1673ffffffffffffffffffffffffffffffffffffffff1681526020019081526020016000206123ea90919063ffffffff16565b506001600b60003373ffffffffffffffffffffffffffffffffffffffff1673ffffffffffffffffffffffffffffffffffffffff16815260200190815260200160002060008773ffffffffffffffffffffffffffffffffffffffff1673ffffffffffffffffffffffffffffffffffffffff16815260200190815260200160002060006101000a81548160ff02191690831515021790555061114c600161219c565b7f278844837bcf8364a705384bf3a2812901f54155bae86dea81dd52aa5b9ec0e3826040015160405161117f9190612a3a565b60405180910390a2611191600161219c565b9250505092915050565b6111a582826115cc565b60006111b083611920565b9050604051806101a00160405280826000015173ffffffffffffffffffffffffffffffffffffffff168152602001826020015173ffffffffffffffffffffffffffffffffffffffff16815260200182604001518152602001826000015173ffffffffffffffffffffffffffffffffffffffff16836060015173ffffffffffffffffffffffffffffffffffffffff161461124d578260000151611253565b82602001515b73ffffffffffffffffffffffffffffffffffffffff168152602001826000015173ffffffffffffffffffffffffffffffffffffffff163373ffffffffffffffffffffffffffffffffffffffff16146112ac5760006112c6565b836000600381106112c0576112bf612c41565b5b60200201355b8152602001826000015173ffffffffffffffffffffffffffffffffffffffff163373ffffffffffffffffffffffffffffffffffffffff1614611309576000611323565b8360016003811061131d5761131c612c41565b5b60200201355b8152602001826000015173ffffffffffffffffffffffffffffffffffffffff163373ffffffffffffffffffffffffffffffffffffffff1614611366576000611380565b8360026003811061137a57611379612c41565b5b60200201355b8152602001826020015173ffffffffffffffffffffffffffffffffffffffff163373ffffffffffffffffffffffffffffffffffffffff16146113c35760006113dd565b836000600381106113d7576113d6612c41565b5b60200201355b8152602001826020015173ffffffffffffffffffffffffffffffffffffffff163373ffffffffffffffffffffffffffffffffffffffff161461142057600061143a565b8360016003811061143457611433612c41565b5b60200201355b8152602001826020015173ffffffffffffffffffffffffffffffffffffffff163373ffffffffffffffffffffffffffffffffffffffff161461147d576000611497565b8360026003811061149157611490612c41565b5b60200201355b815260200182610140015181526020018261016001518152602001600073ffffffffffffffffffffffffffffffffffffffff1681525090506114d98382612254565b827f278844837bcf8364a705384bf3a2812901f54155bae86dea81dd52aa5b9ec0e3826040015160405161150d9190612a3a565b60405180910390a2505050565b61152261205a565b600073ffffffffffffffffffffffffffffffffffffffff168173ffffffffffffffffffffffffffffffffffffffff1603611591576040517f08c379a000000000000000000000000000000000000000000000000000000000815260040161158890613081565b60405180910390fd5b61159a816120d8565b50565b60006115ab82600001612404565b9050919050565b60006115c18360000183612415565b60001c905092915050565b6115d6600161219c565b821115611618576040517f08c379a000000000000000000000000000000000000000000000000000000000815260040161160f90612d33565b60405180910390fd5b600061162383611920565b9050806000015173ffffffffffffffffffffffffffffffffffffffff163373ffffffffffffffffffffffffffffffffffffffff1614806116925750806020015173ffffffffffffffffffffffffffffffffffffffff163373ffffffffffffffffffffffffffffffffffffffff16145b6116d1576040517f08c379a00000000000000000000000000000000000000000000000000000000081526004016116c8906130ed565b60405180910390fd5b3373ffffffffffffffffffffffffffffffffffffffff16816060015173ffffffffffffffffffffffffffffffffffffffff1614611743576040517f08c379a000000000000000000000000000000000000000000000000000000000815260040161173a90613159565b60405180910390fd5b60058260006003811061175957611758612c41565b5b6020020135111561179f576040517f08c379a000000000000000000000000000000000000000000000000000000000815260040161179690612e77565b60405180910390fd5b6002826001600381106117b5576117b4612c41565b5b602002013511156117fb576040517f08c379a00000000000000000000000000000000000000000000000000000000081526004016117f290612ee3565b60405180910390fd5b60038260026003811061181157611810612c41565b5b60200201351115611857576040517f08c379a000000000000000000000000000000000000000000000000000000000815260040161184e90612f4f565b60405180910390fd5b60008160400151905060008360026003811061187657611875612c41565b5b60200201358460016003811061188f5761188e612c41565b5b6020020135856000600381106118a8576118a7612c41565b5b60200201356118b79190612f6f565b6118c19190612f6f565b90506008600083815260200190815260200160002054811115611919576040517f08c379a000000000000000000000000000000000000000000000000000000000815260040161191090612fef565b60405180910390fd5b5050505050565b611928612657565b60096000838152602001908152602001600020604051806101a00160405290816000820160009054906101000a900473ffffffffffffffffffffffffffffffffffffffff1673ffffffffffffffffffffffffffffffffffffffff1673ffffffffffffffffffffffffffffffffffffffff1681526020016001820160009054906101000a900473ffffffffffffffffffffffffffffffffffffffff1673ffffffffffffffffffffffffffffffffffffffff1673ffffffffffffffffffffffffffffffffffffffff168152602001600282015481526020016003820160009054906101000a900473ffffffffffffffffffffffffffffffffffffffff1673ffffffffffffffffffffffffffffffffffffffff1673ffffffffffffffffffffffffffffffffffffffff168152602001600482015481526020016005820154815260200160068201548152602001600782015481526020016008820154815260200160098201548152602001600a8201548152602001600b8201548152602001600c820160009054906101000a900473ffffffffffffffffffffffffffffffffffffffff1673ffffffffffffffffffffffffffffffffffffffff1673ffffffffffffffffffffffffffffffffffffffff16815250509050919050565b60008082610140015190506000836101600151905060006006600001548560c00151611b2c9190613179565b6004600001548660a00151611b419190613179565b6002600001548760800151611b569190613179565b611b609190612f6f565b611b6a9190612f6f565b905060006006600101548660c00151611b839190613179565b6004600101548760a00151611b989190613179565b6002600101548860800151611bad9190613179565b611bb79190612f6f565b611bc19190612f6f565b90506000600660000154876101200151611bdb9190613179565b600460000154886101000151611bf19190613179565b6002600001548960e00151611c069190613179565b611c109190612f6f565b611c1a9190612f6f565b90506000600660010154886101200151611c349190613179565b600460010154896101000151611c4a9190613179565b6002600101548a60e00151611c5f9190613179565b611c699190612f6f565b611c739190612f6f565b90506000604051806101a001604052808a6000015173ffffffffffffffffffffffffffffffffffffffff1681526020018a6020015173ffffffffffffffffffffffffffffffffffffffff1681526020018a6040015181526020018a6060015173ffffffffffffffffffffffffffffffffffffffff168152602001600081526020016000815260200160008152602001600081526020016000815260200160008152602001611d2a89611d258789612440565b612465565b8152602001611d4288611d3d8987612440565b612465565b8152602001600073ffffffffffffffffffffffffffffffffffffffff1681525090506003896040015103611fe85760008161016001518261014001511015611d8e578960200151611d94565b89600001515b905060008260400181815250506000826060019073ffffffffffffffffffffffffffffffffffffffff16908173ffffffffffffffffffffffffffffffffffffffff16815250508082610180019073ffffffffffffffffffffffffffffffffffffffff16908173ffffffffffffffffffffffffffffffffffffffff16815250506000600b60008c6000015173ffffffffffffffffffffffffffffffffffffffff1673ffffffffffffffffffffffffffffffffffffffff16815260200190815260200160002060008c6020015173ffffffffffffffffffffffffffffffffffffffff1673ffffffffffffffffffffffffffffffffffffffff16815260200190815260200160002060006101000a81548160ff021916908315150217905550611eba8b83612254565b8a7f8aba4bf97c53cd5124a16826906cf29c99e37b45dcaccff77292ab676a81b5278b60400151604051611eee9190612a3a565b60405180910390a28073ffffffffffffffffffffffffffffffffffffffff167f659ab4616759704498ed851deaf5cf2eb0b2869d85580cd68a3371aea737e7008c8c6000015173ffffffffffffffffffffffffffffffffffffffff168473ffffffffffffffffffffffffffffffffffffffff1614611f7157846101600151611f78565b8461014001515b8d6020015173ffffffffffffffffffffffffffffffffffffffff168573ffffffffffffffffffffffffffffffffffffffff1614611fba57856101600151611fc1565b8561014001515b604051611fd0939291906131bb565b60405180910390a28098505050505050505050612054565b60018960400151611ff99190612f6f565b81604001818152505061200c8a82612254565b897f8aba4bf97c53cd5124a16826906cf29c99e37b45dcaccff77292ab676a81b5278a604001516040516120409190612a3a565b60405180910390a260009750505050505050505b92915050565b61206261248a565b73ffffffffffffffffffffffffffffffffffffffff166120806107ce565b73ffffffffffffffffffffffffffffffffffffffff16146120d6576040517f08c379a00000000000000000000000000000000000000000000000000000000081526004016120cd9061323e565b60405180910390fd5b565b60008060009054906101000a900473ffffffffffffffffffffffffffffffffffffffff169050816000806101000a81548173ffffffffffffffffffffffffffffffffffffffff021916908373ffffffffffffffffffffffffffffffffffffffff1602179055508173ffffffffffffffffffffffffffffffffffffffff168173ffffffffffffffffffffffffffffffffffffffff167f8be0079c531659141344cd1fd0a4f28419497f9722a3daafe3b4186f6b6457e060405160405180910390a35050565b600081600001549050919050565b6000600b60008473ffffffffffffffffffffffffffffffffffffffff1673ffffffffffffffffffffffffffffffffffffffff16815260200190815260200160002060008373ffffffffffffffffffffffffffffffffffffffff1673ffffffffffffffffffffffffffffffffffffffff16815260200190815260200160002060009054906101000a900460ff16905092915050565b6001816000016000828254019250508190555050565b806009600084815260200190815260200160002060008201518160000160006101000a81548173ffffffffffffffffffffffffffffffffffffffff021916908373ffffffffffffffffffffffffffffffffffffffff16021790555060208201518160010160006101000a81548173ffffffffffffffffffffffffffffffffffffffff021916908373ffffffffffffffffffffffffffffffffffffffff1602179055506040820151816002015560608201518160030160006101000a81548173ffffffffffffffffffffffffffffffffffffffff021916908373ffffffffffffffffffffffffffffffffffffffff1602179055506080820151816004015560a0820151816005015560c0820151816006015560e082015181600701556101008201518160080155610120820151816009015561014082015181600a015561016082015181600b015561018082015181600c0160006101000a81548173ffffffffffffffffffffffffffffffffffffffff021916908373ffffffffffffffffffffffffffffffffffffffff1602179055509050505050565b60006123fc836000018360001b612492565b905092915050565b600081600001805490509050919050565b600082600001828154811061242d5761242c612c41565b5b9060005260206000200154905092915050565b600081831161245057600061245d565b818361245c919061325e565b5b905092915050565b6000818311612475576000612482565b8183612481919061325e565b5b905092915050565b600033905090565b600061249e8383612502565b6124f75782600001829080600181540180825580915050600190039060005260206000200160009091909190915055826000018054905083600101600084815260200190815260200160002081905550600190506124fc565b600090505b92915050565b600080836001016000848152602001908152602001600020541415905092915050565b6040518060c0016040528060008152602001600073ffffffffffffffffffffffffffffffffffffffff168152602001600073ffffffffffffffffffffffffffffffffffffffff16815260200160008152602001600073ffffffffffffffffffffffffffffffffffffffff168152602001600073ffffffffffffffffffffffffffffffffffffffff1681525090565b604051806101200160405280600073ffffffffffffffffffffffffffffffffffffffff168152602001600073ffffffffffffffffffffffffffffffffffffffff16815260200160008152602001600073ffffffffffffffffffffffffffffffffffffffff16815260200160008152602001600081526020016000815260200160008152602001600073ffffffffffffffffffffffffffffffffffffffff1681525090565b604051806101a00160405280600073ffffffffffffffffffffffffffffffffffffffff168152602001600073ffffffffffffffffffffffffffffffffffffffff16815260200160008152602001600073ffffffffffffffffffffffffffffffffffffffff1681526020016000815260200160008152602001600081526020016000815260200160008152602001600081526020016000815260200160008152602001600073ffffffffffffffffffffffffffffffffffffffff1681525090565b600080fd5b600073ffffffffffffffffffffffffffffffffffffffff82169050919050565b60006127478261271c565b9050919050565b6127578161273c565b811461276257600080fd5b50565b6000813590506127748161274e565b92915050565b6000819050919050565b61278d8161277a565b811461279857600080fd5b50565b6000813590506127aa81612784565b92915050565b6000806000606084860312156127c9576127c8612717565b5b60006127d786828701612765565b93505060206127e88682870161279b565b92505060406127f98682870161279b565b9150509250925092565b600081519050919050565b600082825260208201905092915050565b6000819050602082019050919050565b6128388161277a565b82525050565b6128478161273c565b82525050565b60c082016000820151612863600085018261282f565b506020820151612876602085018261283e565b506040820151612889604085018261283e565b50606082015161289c606085018261282f565b5060808201516128af608085018261283e565b5060a08201516128c260a085018261283e565b50505050565b60006128d4838361284d565b60c08301905092915050565b6000602082019050919050565b60006128f882612803565b612902818561280e565b935061290d8361281f565b8060005b8381101561293e57815161292588826128c8565b9750612930836128e0565b925050600181019050612911565b5085935050505092915050565b6000602082019050818103600083015261296581846128ed565b905092915050565b600080fd5b60008190508260206003028201111561298e5761298d61296d565b5b92915050565b600080608083850312156129ab576129aa612717565b5b60006129b98582860161279b565b92505060206129ca85828601612972565b9150509250929050565b6129dd8161273c565b82525050565b60006020820190506129f860008301846129d4565b92915050565b600060208284031215612a1457612a13612717565b5b6000612a2284828501612765565b91505092915050565b612a348161277a565b82525050565b6000602082019050612a4f6000830184612a2b565b92915050565b600060208284031215612a6b57612a6a612717565b5b6000612a798482850161279b565b91505092915050565b61012082016000820151612a99600085018261283e565b506020820151612aac602085018261283e565b506040820151612abf604085018261282f565b506060820151612ad2606085018261283e565b506080820151612ae5608085018261282f565b5060a0820151612af860a085018261282f565b5060c0820151612b0b60c085018261282f565b5060e0820151612b1e60e085018261282f565b50610100820151612b3361010085018261283e565b50505050565b600061012082019050612b4f6000830184612a82565b92915050565b60008060808385031215612b6c57612b6b612717565b5b6000612b7a85828601612765565b9250506020612b8b85828601612972565b9150509250929050565b600082825260208201905092915050565b7f43616e2774207265717565737420746f6f206d616e79207265636f7264732100600082015250565b6000612bdc601f83612b95565b9150612be782612ba6565b602082019050919050565b60006020820190508181036000830152612c0b81612bcf565b9050919050565b7f4e487b7100000000000000000000000000000000000000000000000000000000600052604160045260246000fd5b7f4e487b7100000000000000000000000000000000000000000000000000000000600052603260045260246000fd5b7f4e487b7100000000000000000000000000000000000000000000000000000000600052601160045260246000fd5b6000612caa8261277a565b91507fffffffffffffffffffffffffffffffffffffffffffffffffffffffffffffffff8203612cdc57612cdb612c70565b5b600182019050919050565b7f426174746c6520696420646f65736e2774206578697374000000000000000000600082015250565b6000612d1d601783612b95565b9150612d2882612ce7565b602082019050919050565b60006020820190508181036000830152612d4c81612d10565b9050919050565b7f556e617574686f72697a65640000000000000000000000000000000000000000600082015250565b6000612d89600c83612b95565b9150612d9482612d53565b602082019050919050565b60006020820190508181036000830152612db881612d7c565b9050919050565b7f5573652072657175657374426174746c65000000000000000000000000000000600082015250565b6000612df5601183612b95565b9150612e0082612dbf565b602082019050919050565b60006020820190508181036000830152612e2481612de8565b9050919050565b7f45786365656473205072656461746f7273206d61780000000000000000000000600082015250565b6000612e61601583612b95565b9150612e6c82612e2b565b602082019050919050565b60006020820190508181036000830152612e9081612e54565b9050919050565b7f457863656564732050726f78696d757320436f627261206d6178000000000000600082015250565b6000612ecd601a83612b95565b9150612ed882612e97565b602082019050919050565b60006020820190508181036000830152612efc81612ec0565b9050919050565b7f4578636565647320426f756e74792048756e746572206d617800000000000000600082015250565b6000612f39601983612b95565b9150612f4482612f03565b602082019050919050565b60006020820190508181036000830152612f6881612f2c565b9050919050565b6000612f7a8261277a565b9150612f858361277a565b9250828201905080821115612f9d57612f9c612c70565b5b92915050565b7f546f6f206d616e792074726f6f70732100000000000000000000000000000000600082015250565b6000612fd9601083612b95565b9150612fe482612fa3565b602082019050919050565b6000602082019050818103600083015261300881612fcc565b9050919050565b7f4f776e61626c653a206e6577206f776e657220697320746865207a65726f206160008201527f6464726573730000000000000000000000000000000000000000000000000000602082015250565b600061306b602683612b95565b91506130768261300f565b604082019050919050565b6000602082019050818103600083015261309a8161305e565b9050919050565b7f43616e27742072657175657374207468697320626174746c6500000000000000600082015250565b60006130d7601983612b95565b91506130e2826130a1565b602082019050919050565b60006020820190508181036000830152613106816130ca565b9050919050565b7f4e6f7420796f7572207475726e21000000000000000000000000000000000000600082015250565b6000613143600e83612b95565b915061314e8261310d565b602082019050919050565b6000602082019050818103600083015261317281613136565b9050919050565b60006131848261277a565b915061318f8361277a565b925082820261319d8161277a565b915082820484148315176131b4576131b3612c70565b5b5092915050565b60006060820190506131d06000830186612a2b565b6131dd6020830185612a2b565b6131ea6040830184612a2b565b949350505050565b7f4f776e61626c653a2063616c6c6572206973206e6f7420746865206f776e6572600082015250565b6000613228602083612b95565b9150613233826131f2565b602082019050919050565b600060208201905081810360008301526132578161321b565b9050919050565b60006132698261277a565b91506132748361277a565b925082820390508181111561328c5761328b612c70565b5b9291505056fea264697066735822122089b2ab4337c52ad0959ece54c07c7365666fee471062feb40688b70efcc76f4964736f6c63430008110033",
  "immutableReferences": {},
  "source": "// SPDX-License-Identifier: MIT\npragma solidity 0.8.17;\n\nimport \"@openzeppelin/contracts/access/Ownable.sol\";\nimport \"@openzeppelin/contracts/utils/Counters.sol\";\nimport \"@openzeppelin/contracts/utils/structs/EnumerableSet.sol\";\n\ncontract EternovaQuickBattles is Ownable{\n\t\n\tusing Counters for Counters.Counter;\n\tusing EnumerableSet for EnumerableSet.UintSet;\n\n    Counters.Counter private _battleIds;\n\n\tevent BattleStarted(uint indexed id, address indexed creator, address indexed opponent);\n\tevent BattleFinished(uint id, address indexed winner, uint winnerCityLife, uint looserCityLife);\n\n\tevent RoundStarted(uint indexed id, uint currentRound);\t\n\tevent RoundFinished(uint indexed id, uint currentRound);\n\t\n\tstruct Troop {\n\t\tuint attack;\n\t\tuint defense;\t\t\n\t}\n\n\tTroop private predator = Troop(40,100);\n\tTroop private proximusCobra = Troop(200,200);\n\tTroop private bounty_hunters = Troop(150,50);\n\n\tuint constant MAX_ROUNDS = 3;\n\n\tuint constant PREDATOR_UNITS = 5;\n\tuint constant PROXIMUS_COBRA_UNITS = 2;\n\tuint constant BOUNTY_HUNTERS_UNITS = 3;\n\t\n\tuint constant STARTING_LIFE = 500;\n\n\tuint constant MAX_UNITS_FIRST_ROUND = 8;\n\tuint constant MAX_UNITS_SECOND_ROUND = 9;\n\tuint constant MAX_UNITS_THIRD_ROUND = 10;\n\n\t//Round N => Max units\n\tmapping(uint => uint) roundMaxUnits;\n\t\n\tuint constant FIRST_ROUND = 1;\n\tuint constant SECOND_ROUND = 2;\n\tuint constant THIRD_ROUND = 3;\n\n\tstruct BattleData {\n\t\taddress creator;\n\t\taddress opponent;\n\t\tuint currentRound;\n\t\taddress nextMove;\n\t\tuint predatorAttackingUnits;\n\t\tuint proximusAttackingUnits;\n\t\tuint bountyAttackingUnits;\n\t\tuint predatorDefendingUnits;\n\t\tuint proximusDefendingUnits;\n\t\tuint bountyDefendingUnits;\n\t\tuint creatorCityLife;\n\t\tuint opponentCityLife;\n\t\taddress winner;\n\t}\n\n\t//BattleId => Data\n\tmapping (uint => BattleData) private battle;\n\n\t//User => [battleId]\n\tmapping(address => EnumerableSet.UintSet) private userBattle;\n\n\tmapping(address => mapping(address => bool)) currentlyFighting;\n\t\t\t\n\tconstructor() {\n\t\troundMaxUnits[1] = MAX_UNITS_FIRST_ROUND;\t\t\n\t\troundMaxUnits[2] = MAX_UNITS_SECOND_ROUND;\t\t\n\t\troundMaxUnits[3] = MAX_UNITS_THIRD_ROUND;\t\t\n\t}\n\n\tfunction startBattle(address opponent, uint[3] calldata troopsAmount) external returns(uint){\n\t\trequire(!areCurrentlyFighting(msg.sender, opponent), \"Use requestBattle\");\n\t\trequire(troopsAmount[0] <= PREDATOR_UNITS,\"Exceeds Predators max\");\n\t\trequire(troopsAmount[1] <= PROXIMUS_COBRA_UNITS,\"Exceeds Proximus Cobra max\");\n\t\trequire(troopsAmount[2] <= BOUNTY_HUNTERS_UNITS,\"Exceeds Bounty Hunter max\");\n\t\n\t\tuint totalTroops = troopsAmount[0] + troopsAmount[1] + troopsAmount[2];\n\t\trequire(totalTroops <= roundMaxUnits[FIRST_ROUND],\"Too many troops!\");\n\n\t\t_battleIds.increment();\n\t\t\n\t\tBattleData memory data = BattleData(\n\t\t\tmsg.sender, //Creator\n\t\t\topponent, //Opponnent\n\t\t\tFIRST_ROUND, //currentRound\n\t\t\topponent, //NextMove\n\t\t\ttroopsAmount[0], //predatorAttackingUnits\n\t\t\ttroopsAmount[1], //proximusAttackingUnits\n\t\t\ttroopsAmount[2], //bountyAttackingUnits\n\t\t\t0, //predatorDefendingUnits\n\t\t\t0, //proximusDefendingUnits\n\t\t\t0, //bountyDefendingUnits\n\t\t\tSTARTING_LIFE, //creatorCityLife\n\t\t\tSTARTING_LIFE, //opponentCityLife\n\t\t\taddress(0) //Winner\n\t\t\t);\n\n\t\tsetBattle(_battleIds.current(), data);\n\t\tuserBattle[msg.sender].add(_battleIds.current());\n\t\tcurrentlyFighting[msg.sender][opponent] = true;\t\t\t\t\n\t\temit RoundStarted(_battleIds.current(), data.currentRound);\n\n\t\treturn _battleIds.current();\n\t}\n\n\t//Troops amount for each type [predator, proximusCobra,bounty_hunters]\t\n\tfunction requestBattle(uint id, uint[3] calldata troopsAmount) external{\n\t\tvalidateBattleData(id, troopsAmount);\n\t\tBattleData memory data = getBattleData(id);\n\t\t\n\t\tdata = BattleData(\n\t\t\tdata.creator,\n\t\t\tdata.opponent,\n\t\t\tdata.currentRound, //currentRound\n\t\t\tdata.nextMove == data.creator ? data.opponent : data.creator, //NextMove\n\t\t\tmsg.sender == data.creator ? troopsAmount[0] : 0, //predatorAttackingUnits\n\t\t\tmsg.sender == data.creator ? troopsAmount[1] : 0, //proximusAttackingUnits\n\t\t\tmsg.sender == data.creator ? troopsAmount[2] : 0, //bountyAttackingUnits\n\t\t\tmsg.sender == data.opponent ? troopsAmount[0] : 0, //predatorDefendingUnits\n\t\t\tmsg.sender == data.opponent ? troopsAmount[1] : 0, //proximusDefendingUnits\n\t\t\tmsg.sender == data.opponent ? troopsAmount[2] : 0, //bountyDefendingUnits\n\t\t\tdata.creatorCityLife, //creatorCityLife\n\t\t\tdata.opponentCityLife, //opponentCityLife\n\t\t\taddress(0) //winner\n\t\t\t);\n\t\tsetBattle(id, data);\n\t\t\t\t\n\t\temit RoundStarted(id, data.currentRound);\n\t}\n\n\t//Troops amount for each type [predator,proximusCobra,bounty_hunters]\n\tfunction respondBattle(uint id,uint[3] calldata troopsAmount) external returns(address){\n\t\tvalidateBattleData(id, troopsAmount);\n\t\tBattleData memory data = getBattleData(id);\n\t\tif (msg.sender == data.creator){\n\t\t\tdata.predatorAttackingUnits = troopsAmount[0];\n\t\t\tdata.proximusAttackingUnits = troopsAmount[1];\n\t\t\tdata.bountyAttackingUnits = troopsAmount[2];\n\t\t}else{\n\t\t\tdata.predatorDefendingUnits = troopsAmount[0];\n\t\t\tdata.proximusDefendingUnits = troopsAmount[1];\n\t\t\tdata.bountyDefendingUnits = troopsAmount[2];\n\t\t}\n\t\t\n\t\treturn resolveRound(id, data);\n\t}\n\n\tfunction validateBattleData(uint id,uint[3] calldata troopsAmount) internal view{\n\t\trequire(id <= _battleIds.current(),\"Battle id doesn't exist\");\n\t\tBattleData memory data = getBattleData(id);\n\t\trequire(msg.sender == data.creator || msg.sender == data.opponent,\"Can't request this battle\");\n\t\trequire(data.nextMove == msg.sender,\"Not your turn!\");\n\t\trequire(troopsAmount[0] <= PREDATOR_UNITS,\"Exceeds Predators max\");\n\t\trequire(troopsAmount[1] <= PROXIMUS_COBRA_UNITS,\"Exceeds Proximus Cobra max\");\n\t\trequire(troopsAmount[2] <= BOUNTY_HUNTERS_UNITS,\"Exceeds Bounty Hunter max\");\n\t\t\n\t\tuint currentRound = data.currentRound;\n\t\tuint totalTroops = troopsAmount[0] + troopsAmount[1] + troopsAmount[2];\n\n\t\trequire(totalTroops <= roundMaxUnits[currentRound],\"Too many troops!\");\n\n\t}\n\n\t//Resolves round\n\t//If last round, returns winner, if not 0x000...\n\tfunction resolveRound (uint id, BattleData memory data) internal returns(address) {\t\t\n\t\tuint creatorCurrentCityLife = data.creatorCityLife;\n\t\tuint opponentCurrentCityLife = data.opponentCityLife;\n\t\t//Creator\n\t\tuint creatorTotalAttack = data.predatorAttackingUnits * predator.attack + data.proximusAttackingUnits * proximusCobra.attack + data.bountyAttackingUnits * bounty_hunters.attack;\n\t\tuint creatorTotalDefense = data.predatorAttackingUnits * predator.defense + data.proximusAttackingUnits * proximusCobra.defense + data.bountyAttackingUnits * bounty_hunters.defense;\n\t\t//Opponent\n\t\tuint opponentTotalAttack = data.predatorDefendingUnits * predator.attack + data.proximusDefendingUnits * proximusCobra.attack + data.bountyDefendingUnits * bounty_hunters.attack;\n\t\tuint opponentTotalDefense = data.predatorDefendingUnits * predator.defense + data.proximusDefendingUnits * proximusCobra.defense + data.bountyDefendingUnits * bounty_hunters.defense;\n\n\t\tBattleData memory newData = BattleData(\n\t\t\tdata.creator,\n\t\t\tdata.opponent,\n\t\t\tdata.currentRound, //currentRound\n\t\t\tdata.nextMove,\n\t\t\t0, //predatorAttackingUnits\n\t\t\t0, //proximusAttackingUnits\n\t\t\t0, //bountyAttackingUnits\n\t\t\t0, //predatorDefendingUnits\n\t\t\t0, //proximusDefendingUnits\n\t\t\t0, //bountyDefendingUnits\n\t\t\tgetRemainingLife(creatorCurrentCityLife, getTotalDamage(opponentTotalAttack, creatorTotalDefense)), //creatorCityLife\n\t\t\tgetRemainingLife(opponentCurrentCityLife, getTotalDamage(creatorTotalAttack, opponentTotalDefense)), //opponentCityLife\n\t\t\taddress(0) //Winner\n\t\t);\n\t\t\n\t\tif (data.currentRound == THIRD_ROUND){\n\t\t\taddress winner = newData.creatorCityLife >= newData.opponentCityLife ? data.creator : data.opponent;\n\t\t\tnewData.currentRound = 0;\n\t\t\tnewData.nextMove = address(0);\n\t\t\tnewData.winner = winner;\n\t\t\tcurrentlyFighting[data.creator][data.opponent] = false;\n\t\t\tsetBattle(id, newData);\n\t\t\temit RoundFinished(id, data.currentRound);\n\t\t\temit BattleFinished(id, winner, winner == data.creator ? newData.creatorCityLife : newData.opponentCityLife, winner == data.opponent ? newData.creatorCityLife : newData.opponentCityLife);\n\t\t\treturn winner;\n\t\t}\n\n\t\tnewData.currentRound = data.currentRound + 1;\n\t\t\n\t\tsetBattle(id, newData);\n\t\temit RoundFinished(id, data.currentRound);\t\t\t\t\n\t\treturn(address(0));\n\t}\n\t\n\tfunction getTotalDamage(uint attack, uint defense) internal pure returns(uint){\n\t\treturn attack > defense ? attack - defense : 0;\n\t}\n\t\n\tfunction getRemainingLife(uint currentLife, uint damage) internal pure returns(uint){\n\t\treturn currentLife > damage ? currentLife - damage : 0;\n\t}\n\n\tfunction getBattleData(uint id) internal view returns(BattleData memory){\n\t\treturn battle[id];\n\t}\n\n\tstruct PublicBattleData {\n\t\taddress creator;\n\t\taddress opponent;\n\t\tuint currentRound;\n\t\taddress nextMove;\n\t\tuint predatorUnits;\n\t\tuint proximusUnits;\n\t\tuint bountyUnits;\n\t\tuint cityLife;\n\t\taddress winner;\n\t}\n\n\tfunction getPublicBattleData(uint id) external view returns(PublicBattleData memory data){\n\t\trequire(id <= _battleIds.current(),\"Battle id doesn't exist\");\n\t\tBattleData memory battleData = battle[id];\n\t\trequire(msg.sender == battleData.creator || msg.sender == battleData.opponent ,\"Unauthorized\");\n\n\t\tdata.creator = battleData.creator;\n\t\tdata.opponent = battleData.opponent;\n\t\tdata.currentRound = battleData.currentRound;\n\t\tdata.nextMove = battleData.nextMove;\n\t\tdata.predatorUnits = msg.sender == data.creator ? battleData.predatorAttackingUnits : battleData.predatorDefendingUnits;\n\t\tdata.proximusUnits = msg.sender == data.creator ? battleData.proximusAttackingUnits : battleData.proximusDefendingUnits;\n\t\tdata.bountyUnits = msg.sender == data.creator ? battleData.bountyAttackingUnits : battleData.bountyDefendingUnits;\n\t\tdata.cityLife = msg.sender == data.creator ? battleData.creatorCityLife : battleData.opponentCityLife;\n\t\tdata.winner = battleData.winner;\n\t}\n\n\tfunction setBattle(uint id,BattleData memory data) internal{\n\t\tbattle[id] = data;\n\t}\n\n\tstruct BattleDataResponse {\n\t\tuint battleId;\n\t\taddress creator;\n\t\taddress opponent;\n\t\tuint currentRound;\n\t\taddress nextMove;\n\t\taddress winner;\n\t}\n\n\tfunction getUserBattleData(address user, uint limit, uint offset) external view returns(BattleDataResponse[] memory){\n\t\trequire(limit <= 100, \"Can't request too many records!\");\n\t\tEnumerableSet.UintSet storage _ids = userBattle[user];\n\t\tuint battleCount = _ids.length() <= 100 ? _ids.length() : 100;\n\t\tuint queryLimit = (battleCount > limit && limit != 0 ? limit : battleCount);\n\t\tuint responseIndex;\n\t\tBattleDataResponse[]memory response = new BattleDataResponse[](queryLimit);\n\t\tfor (uint i = offset; i < queryLimit; i++){\n\t\t\tuint id = userBattle[user].at(i);\n\t\t\tBattleData memory data = battle[id];\n\t\t\tresponse[responseIndex] = (\n\t\t\t\tBattleDataResponse(\n\t\t\t\t\tid,\n\t\t\t\t\tdata.creator,\n\t\t\t\t\tdata.opponent,\n\t\t\t\t\tdata.currentRound,\n\t\t\t\t\tdata.nextMove,\n\t\t\t\t\tdata.winner\n\t\t\t\t)\n\t\t\t);\n\t\t\tresponseIndex++;\n\t\t}\n\n\t\treturn response;\n\t}\n\t\n\tfunction areCurrentlyFighting(address creator, address opponent) internal view returns(bool){\n\t\treturn currentlyFighting[creator][opponent];\n\t}\n\n\tfunction getUserBattleCount(address user) external view returns(uint){\n\t\treturn userBattle[user].length();\n\t}\n\n}",
  "sourcePath": "/Users/glenci/EternovaQuickBattles/contracts/EternovaQuickBattles.sol",
  "compiler": {
    "name": "solc",
    "version": "0.8.17+commit.8df45f5f.Emscripten.clang"
  },
  "schemaVersion": "3.4.10",
  "updatedAt": "2023-09-08T09:38:50.988Z",
  "networkType": "ethereum",
  "devdoc": {
    "kind": "dev",
    "methods": {
      "owner()": {
        "details": "Returns the address of the current owner."
      },
      "renounceOwnership()": {
        "details": "Leaves the contract without owner. It will not be possible to call `onlyOwner` functions. Can only be called by the current owner. NOTE: Renouncing ownership will leave the contract without an owner, thereby disabling any functionality that is only available to the owner."
      },
      "transferOwnership(address)": {
        "details": "Transfers ownership of the contract to a new account (`newOwner`). Can only be called by the current owner."
      }
    },
    "version": 1
  },
  "userdoc": {
    "kind": "user",
    "methods": {},
    "version": 1
  }
}