{
  "contractName": "EternovaQuickBattles",
  "abi": [
    {
      "inputs": [],
      "stateMutability": "nonpayable",
      "type": "constructor"
    },
    {
      "anonymous": false,
      "inputs": [
        {
          "indexed": false,
          "internalType": "uint256",
          "name": "id",
          "type": "uint256"
        },
        {
          "indexed": true,
          "internalType": "address",
          "name": "winner",
          "type": "address"
        },
        {
          "indexed": false,
          "internalType": "uint256",
          "name": "winnerCityLife",
          "type": "uint256"
        },
        {
          "indexed": false,
          "internalType": "uint256",
          "name": "looserCityLife",
          "type": "uint256"
        }
      ],
      "name": "BattleFinished",
      "type": "event"
    },
    {
      "anonymous": false,
      "inputs": [
        {
          "indexed": true,
          "internalType": "uint256",
          "name": "id",
          "type": "uint256"
        },
        {
          "indexed": true,
          "internalType": "address",
          "name": "creator",
          "type": "address"
        },
        {
          "indexed": true,
          "internalType": "address",
          "name": "opponent",
          "type": "address"
        }
      ],
      "name": "BattleStarted",
      "type": "event"
    },
    {
      "anonymous": false,
      "inputs": [
        {
          "indexed": true,
          "internalType": "address",
          "name": "previousOwner",
          "type": "address"
        },
        {
          "indexed": true,
          "internalType": "address",
          "name": "newOwner",
          "type": "address"
        }
      ],
      "name": "OwnershipTransferred",
      "type": "event"
    },
    {
      "anonymous": false,
      "inputs": [
        {
          "indexed": true,
          "internalType": "uint256",
          "name": "id",
          "type": "uint256"
        },
        {
          "indexed": false,
          "internalType": "uint256",
          "name": "currentRound",
          "type": "uint256"
        }
      ],
      "name": "RoundFinished",
      "type": "event"
    },
    {
      "anonymous": false,
      "inputs": [
        {
          "indexed": true,
          "internalType": "uint256",
          "name": "id",
          "type": "uint256"
        },
        {
          "indexed": false,
          "internalType": "uint256",
          "name": "currentRound",
          "type": "uint256"
        }
      ],
      "name": "RoundStarted",
      "type": "event"
    },
    {
      "inputs": [],
      "name": "owner",
      "outputs": [
        {
          "internalType": "address",
          "name": "",
          "type": "address"
        }
      ],
      "stateMutability": "view",
      "type": "function"
    },
    {
      "inputs": [],
      "name": "renounceOwnership",
      "outputs": [],
      "stateMutability": "nonpayable",
      "type": "function"
    },
    {
      "inputs": [
        {
          "internalType": "address",
          "name": "newOwner",
          "type": "address"
        }
      ],
      "name": "transferOwnership",
      "outputs": [],
      "stateMutability": "nonpayable",
      "type": "function"
    },
    {
      "inputs": [
        {
          "internalType": "address",
          "name": "opponent",
          "type": "address"
        },
        {
          "internalType": "uint256[3]",
          "name": "troopsAmount",
          "type": "uint256[3]"
        }
      ],
      "name": "startBattle",
      "outputs": [
        {
          "internalType": "uint256",
          "name": "",
          "type": "uint256"
        }
      ],
      "stateMutability": "nonpayable",
      "type": "function"
    },
    {
      "inputs": [
        {
          "internalType": "uint256",
          "name": "id",
          "type": "uint256"
        },
        {
          "internalType": "uint256[3]",
          "name": "troopsAmount",
          "type": "uint256[3]"
        }
      ],
      "name": "requestBattle",
      "outputs": [],
      "stateMutability": "nonpayable",
      "type": "function"
    },
    {
      "inputs": [
        {
          "internalType": "uint256",
          "name": "id",
          "type": "uint256"
        },
        {
          "internalType": "uint256[3]",
          "name": "troopsAmount",
          "type": "uint256[3]"
        }
      ],
      "name": "respondBattle",
      "outputs": [
        {
          "internalType": "address",
          "name": "",
          "type": "address"
        }
      ],
      "stateMutability": "nonpayable",
      "type": "function"
    },
    {
      "inputs": [
        {
          "internalType": "uint256",
          "name": "id",
          "type": "uint256"
        }
      ],
      "name": "getPublicBattleData",
      "outputs": [
        {
          "components": [
            {
              "internalType": "address",
              "name": "creator",
              "type": "address"
            },
            {
              "internalType": "address",
              "name": "opponent",
              "type": "address"
            },
            {
              "internalType": "uint256",
              "name": "currentRound",
              "type": "uint256"
            },
            {
              "internalType": "address",
              "name": "nextMove",
              "type": "address"
            },
            {
              "internalType": "uint256",
              "name": "predatorUnits",
              "type": "uint256"
            },
            {
              "internalType": "uint256",
              "name": "proximusUnits",
              "type": "uint256"
            },
            {
              "internalType": "uint256",
              "name": "bountyUnits",
              "type": "uint256"
            },
            {
              "internalType": "uint256",
              "name": "cityLife",
              "type": "uint256"
            },
            {
              "internalType": "address",
              "name": "winner",
              "type": "address"
            }
          ],
          "internalType": "struct EternovaQuickBattles.PublicBattleData",
          "name": "data",
          "type": "tuple"
        }
      ],
      "stateMutability": "view",
      "type": "function"
    },
    {
      "inputs": [
        {
          "internalType": "address",
          "name": "user",
          "type": "address"
        },
        {
          "internalType": "uint256",
          "name": "limit",
          "type": "uint256"
        },
        {
          "internalType": "uint256",
          "name": "offset",
          "type": "uint256"
        }
      ],
      "name": "getUserBattleData",
      "outputs": [
        {
          "components": [
            {
              "internalType": "uint256",
              "name": "battleId",
              "type": "uint256"
            },
            {
              "internalType": "address",
              "name": "creator",
              "type": "address"
            },
            {
              "internalType": "address",
              "name": "opponent",
              "type": "address"
            },
            {
              "internalType": "uint256",
              "name": "currentRound",
              "type": "uint256"
            },
            {
              "internalType": "address",
              "name": "nextMove",
              "type": "address"
            },
            {
              "internalType": "address",
              "name": "winner",
              "type": "address"
            }
          ],
          "internalType": "struct EternovaQuickBattles.BattleDataResponse[]",
          "name": "",
          "type": "tuple[]"
        }
      ],
      "stateMutability": "view",
      "type": "function"
    },
    {
      "inputs": [
        {
          "internalType": "address",
          "name": "user",
          "type": "address"
        }
      ],
      "name": "getUserBattleCount",
      "outputs": [
        {
          "internalType": "uint256",
          "name": "",
          "type": "uint256"
        }
      ],
      "stateMutability": "view",
      "type": "function"
    }
  ],
  "bytecode": "0x60806040526040518060400160405280602881526020016064815250600260008201518160000155602082015181600101555050604051806040016040528060c8815260200160c881525060046000820151816000015560208201518160010155505060405180604001604052806096815260200160328152506006600082015181600001556020820151816001015550503480156200009e57600080fd5b50620000bf620000b36200011260201b60201c565b6200011a60201b60201c565b600880600060018152602001908152602001600020819055506009600860006002815260200190815260200160002081905550600a600860006003815260200190815260200160002081905550620001de565b600033905090565b60008060009054906101000a900473ffffffffffffffffffffffffffffffffffffffff169050816000806101000a81548173ffffffffffffffffffffffffffffffffffffffff021916908373ffffffffffffffffffffffffffffffffffffffff1602179055508173ffffffffffffffffffffffffffffffffffffffff168173ffffffffffffffffffffffffffffffffffffffff167f8be0079c531659141344cd1fd0a4f28419497f9722a3daafe3b4186f6b6457e060405160405180910390a35050565b61346580620001ee6000396000f3fe608060405234801561001057600080fd5b50600436106100935760003560e01c80638da5cb5b116100665780638da5cb5b1461013257806394a8142d146101505780639c80043814610180578063a5e94e98146101b0578063f2fde38b146101cc57610093565b8063141dfa79146100985780634f21cd0c146100c8578063553bff08146100f8578063715018a614610128575b600080fd5b6100b260048036038101906100ad919061294d565b6101e8565b6040516100bf9190612ae8565b60405180910390f35b6100e260048036038101906100dd9190612b31565b610633565b6040516100ef9190612b80565b60405180910390f35b610112600480360381019061010d9190612b9b565b6109de565b60405161011f9190612bd7565b60405180910390f35b610130610a2e565b005b61013a610a42565b6040516101479190612b80565b60405180910390f35b61016a60048036038101906101659190612bf2565b610a6b565b6040516101779190612cd6565b60405180910390f35b61019a60048036038101906101959190612cf2565b610f8a565b6040516101a79190612bd7565b60405180910390f35b6101ca60048036038101906101c59190612b31565b611354565b005b6101e660048036038101906101e19190612b9b565b611a0b565b005b6060606483111561022e576040517f08c379a000000000000000000000000000000000000000000000000000000000815260040161022590612d8f565b60405180910390fd5b6000600a60008673ffffffffffffffffffffffffffffffffffffffff1673ffffffffffffffffffffffffffffffffffffffff16815260200190815260200160002090506000606461027e83611a8e565b111561028b576064610295565b61029482611a8e565b5b9050600085821180156102a9575060008614155b6102b357816102b5565b855b90506000808267ffffffffffffffff8111156102d4576102d3612daf565b5b60405190808252806020026020018201604052801561030d57816020015b6102fa6126c2565b8152602001906001900390816102f25790505b50905060008790505b8381101561062357600061037182600a60008e73ffffffffffffffffffffffffffffffffffffffff1673ffffffffffffffffffffffffffffffffffffffff168152602001908152602001600020611aa390919063ffffffff16565b9050600060096000838152602001908152602001600020604051806101a00160405290816000820160009054906101000a900473ffffffffffffffffffffffffffffffffffffffff1673ffffffffffffffffffffffffffffffffffffffff1673ffffffffffffffffffffffffffffffffffffffff1681526020016001820160009054906101000a900473ffffffffffffffffffffffffffffffffffffffff1673ffffffffffffffffffffffffffffffffffffffff1673ffffffffffffffffffffffffffffffffffffffff168152602001600282015481526020016003820160009054906101000a900473ffffffffffffffffffffffffffffffffffffffff1673ffffffffffffffffffffffffffffffffffffffff1673ffffffffffffffffffffffffffffffffffffffff168152602001600482015481526020016005820154815260200160068201548152602001600782015481526020016008820154815260200160098201548152602001600a8201548152602001600b8201548152602001600c820160009054906101000a900473ffffffffffffffffffffffffffffffffffffffff1673ffffffffffffffffffffffffffffffffffffffff1673ffffffffffffffffffffffffffffffffffffffff168152505090506040518060c00160405280838152602001826000015173ffffffffffffffffffffffffffffffffffffffff168152602001826020015173ffffffffffffffffffffffffffffffffffffffff16815260200182604001518152602001826060015173ffffffffffffffffffffffffffffffffffffffff16815260200182610180015173ffffffffffffffffffffffffffffffffffffffff168152508486815181106105f5576105f4612dde565b5b6020026020010181905250848061060b90612e3c565b9550505050808061061b90612e3c565b915050610316565b5080955050505050509392505050565b600061063f6001611abd565b831115610681576040517f08c379a000000000000000000000000000000000000000000000000000000000815260040161067890612ed0565b60405180910390fd5b600061068c84611acb565b9050806000015173ffffffffffffffffffffffffffffffffffffffff163373ffffffffffffffffffffffffffffffffffffffff1614806106fb5750806020015173ffffffffffffffffffffffffffffffffffffffff163373ffffffffffffffffffffffffffffffffffffffff16145b61073a576040517f08c379a000000000000000000000000000000000000000000000000000000000815260040161073190612f3c565b60405180910390fd5b3373ffffffffffffffffffffffffffffffffffffffff16816060015173ffffffffffffffffffffffffffffffffffffffff16146107ac576040517f08c379a00000000000000000000000000000000000000000000000000000000081526004016107a390612fa8565b60405180910390fd5b6005836000600381106107c2576107c1612dde565b5b60200201351115610808576040517f08c379a00000000000000000000000000000000000000000000000000000000081526004016107ff90613014565b60405180910390fd5b60028360016003811061081e5761081d612dde565b5b60200201351115610864576040517f08c379a000000000000000000000000000000000000000000000000000000000815260040161085b90613080565b60405180910390fd5b60038360026003811061087a57610879612dde565b5b602002013511156108c0576040517f08c379a00000000000000000000000000000000000000000000000000000000081526004016108b7906130ec565b60405180910390fd5b806000015173ffffffffffffffffffffffffffffffffffffffff163373ffffffffffffffffffffffffffffffffffffffff1603610962578260006003811061090b5761090a612dde565b5b60200201358160800181815250508260016003811061092d5761092c612dde565b5b60200201358160a00181815250508260026003811061094f5761094e612dde565b5b60200201358160c00181815250506109cb565b8260006003811061097657610975612dde565b5b60200201358160e00181815250508260016003811061099857610997612dde565b5b602002013581610100018181525050826002600381106109bb576109ba612dde565b5b6020020135816101200181815250505b6109d58482611cab565b91505092915050565b6000610a27600a60008473ffffffffffffffffffffffffffffffffffffffff1673ffffffffffffffffffffffffffffffffffffffff168152602001908152602001600020611a8e565b9050919050565b610a36612205565b610a406000612283565b565b60008060009054906101000a900473ffffffffffffffffffffffffffffffffffffffff16905090565b610a73612750565b610a7d6001611abd565b821115610abf576040517f08c379a0000000000000000000000000000000000000000000000000000000008152600401610ab690612ed0565b60405180910390fd5b600060096000848152602001908152602001600020604051806101a00160405290816000820160009054906101000a900473ffffffffffffffffffffffffffffffffffffffff1673ffffffffffffffffffffffffffffffffffffffff1673ffffffffffffffffffffffffffffffffffffffff1681526020016001820160009054906101000a900473ffffffffffffffffffffffffffffffffffffffff1673ffffffffffffffffffffffffffffffffffffffff1673ffffffffffffffffffffffffffffffffffffffff168152602001600282015481526020016003820160009054906101000a900473ffffffffffffffffffffffffffffffffffffffff1673ffffffffffffffffffffffffffffffffffffffff1673ffffffffffffffffffffffffffffffffffffffff168152602001600482015481526020016005820154815260200160068201548152602001600782015481526020016008820154815260200160098201548152602001600a8201548152602001600b8201548152602001600c820160009054906101000a900473ffffffffffffffffffffffffffffffffffffffff1673ffffffffffffffffffffffffffffffffffffffff1673ffffffffffffffffffffffffffffffffffffffff16815250509050806000015173ffffffffffffffffffffffffffffffffffffffff163373ffffffffffffffffffffffffffffffffffffffff161480610d015750806020015173ffffffffffffffffffffffffffffffffffffffff163373ffffffffffffffffffffffffffffffffffffffff16145b610d40576040517f08c379a0000000000000000000000000000000000000000000000000000000008152600401610d3790613158565b60405180910390fd5b8060000151826000019073ffffffffffffffffffffffffffffffffffffffff16908173ffffffffffffffffffffffffffffffffffffffff16815250508060200151826020019073ffffffffffffffffffffffffffffffffffffffff16908173ffffffffffffffffffffffffffffffffffffffff168152505080604001518260400181815250508060600151826060019073ffffffffffffffffffffffffffffffffffffffff16908173ffffffffffffffffffffffffffffffffffffffff1681525050816000015173ffffffffffffffffffffffffffffffffffffffff163373ffffffffffffffffffffffffffffffffffffffff1614610e43578060e00151610e49565b80608001515b826080018181525050816000015173ffffffffffffffffffffffffffffffffffffffff163373ffffffffffffffffffffffffffffffffffffffff1614610e9457806101000151610e9a565b8060a001515b8260a0018181525050816000015173ffffffffffffffffffffffffffffffffffffffff163373ffffffffffffffffffffffffffffffffffffffff1614610ee557806101200151610eeb565b8060c001515b8260c0018181525050816000015173ffffffffffffffffffffffffffffffffffffffff163373ffffffffffffffffffffffffffffffffffffffff1614610f3657806101600151610f3d565b8061014001515b8260e001818152505080610180015182610100019073ffffffffffffffffffffffffffffffffffffffff16908173ffffffffffffffffffffffffffffffffffffffff168152505050919050565b6000610f963384612347565b15610fd6576040517f08c379a0000000000000000000000000000000000000000000000000000000008152600401610fcd906131c4565b60405180910390fd5b600582600060038110610fec57610feb612dde565b5b60200201351115611032576040517f08c379a000000000000000000000000000000000000000000000000000000000815260040161102990613014565b60405180910390fd5b60028260016003811061104857611047612dde565b5b6020020135111561108e576040517f08c379a000000000000000000000000000000000000000000000000000000000815260040161108590613080565b60405180910390fd5b6003826002600381106110a4576110a3612dde565b5b602002013511156110ea576040517f08c379a00000000000000000000000000000000000000000000000000000000081526004016110e1906130ec565b60405180910390fd5b6110f460016123db565b6000604051806101a001604052803373ffffffffffffffffffffffffffffffffffffffff1681526020018573ffffffffffffffffffffffffffffffffffffffff168152602001600181526020018573ffffffffffffffffffffffffffffffffffffffff1681526020018460006003811061117157611170612dde565b5b602002013581526020018460016003811061118f5761118e612dde565b5b60200201358152602001846002600381106111ad576111ac612dde565b5b602002013581526020016000815260200160008152602001600081526020016101f481526020016101f48152602001600073ffffffffffffffffffffffffffffffffffffffff16815250905061120c6112066001611abd565b826123f1565b6112666112196001611abd565b600a60003373ffffffffffffffffffffffffffffffffffffffff1673ffffffffffffffffffffffffffffffffffffffff16815260200190815260200160002061258790919063ffffffff16565b506001600b60003373ffffffffffffffffffffffffffffffffffffffff1673ffffffffffffffffffffffffffffffffffffffff16815260200190815260200160002060008673ffffffffffffffffffffffffffffffffffffffff1673ffffffffffffffffffffffffffffffffffffffff16815260200190815260200160002060006101000a81548160ff0219169083151502179055506113066001611abd565b7f278844837bcf8364a705384bf3a2812901f54155bae86dea81dd52aa5b9ec0e382604001516040516113399190612bd7565b60405180910390a261134b6001611abd565b91505092915050565b61135e6001611abd565b8211156113a0576040517f08c379a000000000000000000000000000000000000000000000000000000000815260040161139790612ed0565b60405180910390fd5b60006113ab83611acb565b9050806000015173ffffffffffffffffffffffffffffffffffffffff163373ffffffffffffffffffffffffffffffffffffffff16148061141a5750806020015173ffffffffffffffffffffffffffffffffffffffff163373ffffffffffffffffffffffffffffffffffffffff16145b611459576040517f08c379a000000000000000000000000000000000000000000000000000000000815260040161145090612f3c565b60405180910390fd5b3373ffffffffffffffffffffffffffffffffffffffff16816060015173ffffffffffffffffffffffffffffffffffffffff16146114cb576040517f08c379a00000000000000000000000000000000000000000000000000000000081526004016114c290612fa8565b60405180910390fd5b6005826000600381106114e1576114e0612dde565b5b60200201351115611527576040517f08c379a000000000000000000000000000000000000000000000000000000000815260040161151e90613014565b60405180910390fd5b60028260016003811061153d5761153c612dde565b5b60200201351115611583576040517f08c379a000000000000000000000000000000000000000000000000000000000815260040161157a90613080565b60405180910390fd5b60038260026003811061159957611598612dde565b5b602002013511156115df576040517f08c379a00000000000000000000000000000000000000000000000000000000081526004016115d6906130ec565b60405180910390fd5b6000816040015190506000836002600381106115fe576115fd612dde565b5b60200201358460016003811061161757611616612dde565b5b6020020135856000600381106116305761162f612dde565b5b602002013561163f91906131e4565b61164991906131e4565b905060086000838152602001908152602001600020548111156116a1576040517f08c379a000000000000000000000000000000000000000000000000000000000815260040161169890613264565b60405180910390fd5b604051806101a00160405280846000015173ffffffffffffffffffffffffffffffffffffffff168152602001846020015173ffffffffffffffffffffffffffffffffffffffff16815260200184604001518152602001846000015173ffffffffffffffffffffffffffffffffffffffff16856060015173ffffffffffffffffffffffffffffffffffffffff161461173c578460000151611742565b84602001515b73ffffffffffffffffffffffffffffffffffffffff168152602001846000015173ffffffffffffffffffffffffffffffffffffffff163373ffffffffffffffffffffffffffffffffffffffff161461179b5760006117b5565b856000600381106117af576117ae612dde565b5b60200201355b8152602001846000015173ffffffffffffffffffffffffffffffffffffffff163373ffffffffffffffffffffffffffffffffffffffff16146117f8576000611812565b8560016003811061180c5761180b612dde565b5b60200201355b8152602001846000015173ffffffffffffffffffffffffffffffffffffffff163373ffffffffffffffffffffffffffffffffffffffff161461185557600061186f565b8560026003811061186957611868612dde565b5b60200201355b8152602001846020015173ffffffffffffffffffffffffffffffffffffffff163373ffffffffffffffffffffffffffffffffffffffff16146118b25760006118cc565b856000600381106118c6576118c5612dde565b5b60200201355b8152602001846020015173ffffffffffffffffffffffffffffffffffffffff163373ffffffffffffffffffffffffffffffffffffffff161461190f576000611929565b8560016003811061192357611922612dde565b5b60200201355b8152602001846020015173ffffffffffffffffffffffffffffffffffffffff163373ffffffffffffffffffffffffffffffffffffffff161461196c576000611986565b856002600381106119805761197f612dde565b5b60200201355b815260200184610140015181526020018461016001518152602001600073ffffffffffffffffffffffffffffffffffffffff1681525092506119c885846123f1565b847f278844837bcf8364a705384bf3a2812901f54155bae86dea81dd52aa5b9ec0e384604001516040516119fc9190612bd7565b60405180910390a25050505050565b611a13612205565b600073ffffffffffffffffffffffffffffffffffffffff168173ffffffffffffffffffffffffffffffffffffffff1603611a82576040517f08c379a0000000000000000000000000000000000000000000000000000000008152600401611a79906132f6565b60405180910390fd5b611a8b81612283565b50565b6000611a9c826000016125a1565b9050919050565b6000611ab283600001836125b2565b60001c905092915050565b600081600001549050919050565b611ad36127f4565b60096000838152602001908152602001600020604051806101a00160405290816000820160009054906101000a900473ffffffffffffffffffffffffffffffffffffffff1673ffffffffffffffffffffffffffffffffffffffff1673ffffffffffffffffffffffffffffffffffffffff1681526020016001820160009054906101000a900473ffffffffffffffffffffffffffffffffffffffff1673ffffffffffffffffffffffffffffffffffffffff1673ffffffffffffffffffffffffffffffffffffffff168152602001600282015481526020016003820160009054906101000a900473ffffffffffffffffffffffffffffffffffffffff1673ffffffffffffffffffffffffffffffffffffffff1673ffffffffffffffffffffffffffffffffffffffff168152602001600482015481526020016005820154815260200160068201548152602001600782015481526020016008820154815260200160098201548152602001600a8201548152602001600b8201548152602001600c820160009054906101000a900473ffffffffffffffffffffffffffffffffffffffff1673ffffffffffffffffffffffffffffffffffffffff1673ffffffffffffffffffffffffffffffffffffffff16815250509050919050565b60008082610140015190506000836101600151905060006006600001548560c00151611cd79190613316565b6004600001548660a00151611cec9190613316565b6002600001548760800151611d019190613316565b611d0b91906131e4565b611d1591906131e4565b905060006006600101548660c00151611d2e9190613316565b6004600101548760a00151611d439190613316565b6002600101548860800151611d589190613316565b611d6291906131e4565b611d6c91906131e4565b90506000600660000154876101200151611d869190613316565b600460000154886101000151611d9c9190613316565b6002600001548960e00151611db19190613316565b611dbb91906131e4565b611dc591906131e4565b90506000600660010154886101200151611ddf9190613316565b600460010154896101000151611df59190613316565b6002600101548a60e00151611e0a9190613316565b611e1491906131e4565b611e1e91906131e4565b90506000604051806101a001604052808a6000015173ffffffffffffffffffffffffffffffffffffffff1681526020018a6020015173ffffffffffffffffffffffffffffffffffffffff1681526020018a6040015181526020018a6060015173ffffffffffffffffffffffffffffffffffffffff168152602001600081526020016000815260200160008152602001600081526020016000815260200160008152602001611ed589611ed087896125dd565b612602565b8152602001611eed88611ee889876125dd565b612602565b8152602001600073ffffffffffffffffffffffffffffffffffffffff16815250905060038960400151036121935760008161016001518261014001511015611f39578960200151611f3f565b89600001515b905060008260400181815250506000826060019073ffffffffffffffffffffffffffffffffffffffff16908173ffffffffffffffffffffffffffffffffffffffff16815250508082610180019073ffffffffffffffffffffffffffffffffffffffff16908173ffffffffffffffffffffffffffffffffffffffff16815250506000600b60008c6000015173ffffffffffffffffffffffffffffffffffffffff1673ffffffffffffffffffffffffffffffffffffffff16815260200190815260200160002060008c6020015173ffffffffffffffffffffffffffffffffffffffff1673ffffffffffffffffffffffffffffffffffffffff16815260200190815260200160002060006101000a81548160ff0219169083151502179055506120658b836123f1565b8a7f8aba4bf97c53cd5124a16826906cf29c99e37b45dcaccff77292ab676a81b5278b604001516040516120999190612bd7565b60405180910390a28073ffffffffffffffffffffffffffffffffffffffff167f659ab4616759704498ed851deaf5cf2eb0b2869d85580cd68a3371aea737e7008c8c6000015173ffffffffffffffffffffffffffffffffffffffff168473ffffffffffffffffffffffffffffffffffffffff161461211c57846101600151612123565b8461014001515b8d6020015173ffffffffffffffffffffffffffffffffffffffff168573ffffffffffffffffffffffffffffffffffffffff16146121655785610160015161216c565b8561014001515b60405161217b93929190613358565b60405180910390a280985050505050505050506121ff565b600189604001516121a491906131e4565b8160400181815250506121b78a826123f1565b897f8aba4bf97c53cd5124a16826906cf29c99e37b45dcaccff77292ab676a81b5278a604001516040516121eb9190612bd7565b60405180910390a260009750505050505050505b92915050565b61220d612627565b73ffffffffffffffffffffffffffffffffffffffff1661222b610a42565b73ffffffffffffffffffffffffffffffffffffffff1614612281576040517f08c379a0000000000000000000000000000000000000000000000000000000008152600401612278906133db565b60405180910390fd5b565b60008060009054906101000a900473ffffffffffffffffffffffffffffffffffffffff169050816000806101000a81548173ffffffffffffffffffffffffffffffffffffffff021916908373ffffffffffffffffffffffffffffffffffffffff1602179055508173ffffffffffffffffffffffffffffffffffffffff168173ffffffffffffffffffffffffffffffffffffffff167f8be0079c531659141344cd1fd0a4f28419497f9722a3daafe3b4186f6b6457e060405160405180910390a35050565b6000600b60008473ffffffffffffffffffffffffffffffffffffffff1673ffffffffffffffffffffffffffffffffffffffff16815260200190815260200160002060008373ffffffffffffffffffffffffffffffffffffffff1673ffffffffffffffffffffffffffffffffffffffff16815260200190815260200160002060009054906101000a900460ff16905092915050565b6001816000016000828254019250508190555050565b806009600084815260200190815260200160002060008201518160000160006101000a81548173ffffffffffffffffffffffffffffffffffffffff021916908373ffffffffffffffffffffffffffffffffffffffff16021790555060208201518160010160006101000a81548173ffffffffffffffffffffffffffffffffffffffff021916908373ffffffffffffffffffffffffffffffffffffffff1602179055506040820151816002015560608201518160030160006101000a81548173ffffffffffffffffffffffffffffffffffffffff021916908373ffffffffffffffffffffffffffffffffffffffff1602179055506080820151816004015560a0820151816005015560c0820151816006015560e082015181600701556101008201518160080155610120820151816009015561014082015181600a015561016082015181600b015561018082015181600c0160006101000a81548173ffffffffffffffffffffffffffffffffffffffff021916908373ffffffffffffffffffffffffffffffffffffffff1602179055509050505050565b6000612599836000018360001b61262f565b905092915050565b600081600001805490509050919050565b60008260000182815481106125ca576125c9612dde565b5b9060005260206000200154905092915050565b60008183116125ed5760006125fa565b81836125f991906133fb565b5b905092915050565b600081831161261257600061261f565b818361261e91906133fb565b5b905092915050565b600033905090565b600061263b838361269f565b612694578260000182908060018154018082558091505060019003906000526020600020016000909190919091505582600001805490508360010160008481526020019081526020016000208190555060019050612699565b600090505b92915050565b600080836001016000848152602001908152602001600020541415905092915050565b6040518060c0016040528060008152602001600073ffffffffffffffffffffffffffffffffffffffff168152602001600073ffffffffffffffffffffffffffffffffffffffff16815260200160008152602001600073ffffffffffffffffffffffffffffffffffffffff168152602001600073ffffffffffffffffffffffffffffffffffffffff1681525090565b604051806101200160405280600073ffffffffffffffffffffffffffffffffffffffff168152602001600073ffffffffffffffffffffffffffffffffffffffff16815260200160008152602001600073ffffffffffffffffffffffffffffffffffffffff16815260200160008152602001600081526020016000815260200160008152602001600073ffffffffffffffffffffffffffffffffffffffff1681525090565b604051806101a00160405280600073ffffffffffffffffffffffffffffffffffffffff168152602001600073ffffffffffffffffffffffffffffffffffffffff16815260200160008152602001600073ffffffffffffffffffffffffffffffffffffffff1681526020016000815260200160008152602001600081526020016000815260200160008152602001600081526020016000815260200160008152602001600073ffffffffffffffffffffffffffffffffffffffff1681525090565b600080fd5b600073ffffffffffffffffffffffffffffffffffffffff82169050919050565b60006128e4826128b9565b9050919050565b6128f4816128d9565b81146128ff57600080fd5b50565b600081359050612911816128eb565b92915050565b6000819050919050565b61292a81612917565b811461293557600080fd5b50565b60008135905061294781612921565b92915050565b600080600060608486031215612966576129656128b4565b5b600061297486828701612902565b935050602061298586828701612938565b925050604061299686828701612938565b9150509250925092565b600081519050919050565b600082825260208201905092915050565b6000819050602082019050919050565b6129d581612917565b82525050565b6129e4816128d9565b82525050565b60c082016000820151612a0060008501826129cc565b506020820151612a1360208501826129db565b506040820151612a2660408501826129db565b506060820151612a3960608501826129cc565b506080820151612a4c60808501826129db565b5060a0820151612a5f60a08501826129db565b50505050565b6000612a7183836129ea565b60c08301905092915050565b6000602082019050919050565b6000612a95826129a0565b612a9f81856129ab565b9350612aaa836129bc565b8060005b83811015612adb578151612ac28882612a65565b9750612acd83612a7d565b925050600181019050612aae565b5085935050505092915050565b60006020820190508181036000830152612b028184612a8a565b905092915050565b600080fd5b600081905082602060030282011115612b2b57612b2a612b0a565b5b92915050565b60008060808385031215612b4857612b476128b4565b5b6000612b5685828601612938565b9250506020612b6785828601612b0f565b9150509250929050565b612b7a816128d9565b82525050565b6000602082019050612b956000830184612b71565b92915050565b600060208284031215612bb157612bb06128b4565b5b6000612bbf84828501612902565b91505092915050565b612bd181612917565b82525050565b6000602082019050612bec6000830184612bc8565b92915050565b600060208284031215612c0857612c076128b4565b5b6000612c1684828501612938565b91505092915050565b61012082016000820151612c3660008501826129db565b506020820151612c4960208501826129db565b506040820151612c5c60408501826129cc565b506060820151612c6f60608501826129db565b506080820151612c8260808501826129cc565b5060a0820151612c9560a08501826129cc565b5060c0820151612ca860c08501826129cc565b5060e0820151612cbb60e08501826129cc565b50610100820151612cd06101008501826129db565b50505050565b600061012082019050612cec6000830184612c1f565b92915050565b60008060808385031215612d0957612d086128b4565b5b6000612d1785828601612902565b9250506020612d2885828601612b0f565b9150509250929050565b600082825260208201905092915050565b7f43616e2774207265717565737420746f6f206d616e79207265636f7264732100600082015250565b6000612d79601f83612d32565b9150612d8482612d43565b602082019050919050565b60006020820190508181036000830152612da881612d6c565b9050919050565b7f4e487b7100000000000000000000000000000000000000000000000000000000600052604160045260246000fd5b7f4e487b7100000000000000000000000000000000000000000000000000000000600052603260045260246000fd5b7f4e487b7100000000000000000000000000000000000000000000000000000000600052601160045260246000fd5b6000612e4782612917565b91507fffffffffffffffffffffffffffffffffffffffffffffffffffffffffffffffff8203612e7957612e78612e0d565b5b600182019050919050565b7f426174746c6520696420646f65736e2774206578697374000000000000000000600082015250565b6000612eba601783612d32565b9150612ec582612e84565b602082019050919050565b60006020820190508181036000830152612ee981612ead565b9050919050565b7f43616e27742072657175657374207468697320626174746c6500000000000000600082015250565b6000612f26601983612d32565b9150612f3182612ef0565b602082019050919050565b60006020820190508181036000830152612f5581612f19565b9050919050565b7f4e6f7420796f7572207475726e21000000000000000000000000000000000000600082015250565b6000612f92600e83612d32565b9150612f9d82612f5c565b602082019050919050565b60006020820190508181036000830152612fc181612f85565b9050919050565b7f45786365656473205072656461746f7273206d61780000000000000000000000600082015250565b6000612ffe601583612d32565b915061300982612fc8565b602082019050919050565b6000602082019050818103600083015261302d81612ff1565b9050919050565b7f457863656564732050726f78696d757320436f627261206d6178000000000000600082015250565b600061306a601a83612d32565b915061307582613034565b602082019050919050565b600060208201905081810360008301526130998161305d565b9050919050565b7f4578636565647320426f756e74792048756e746572206d617800000000000000600082015250565b60006130d6601983612d32565b91506130e1826130a0565b602082019050919050565b60006020820190508181036000830152613105816130c9565b9050919050565b7f556e617574686f72697a65640000000000000000000000000000000000000000600082015250565b6000613142600c83612d32565b915061314d8261310c565b602082019050919050565b6000602082019050818103600083015261317181613135565b9050919050565b7f5573652072657175657374426174746c65000000000000000000000000000000600082015250565b60006131ae601183612d32565b91506131b982613178565b602082019050919050565b600060208201905081810360008301526131dd816131a1565b9050919050565b60006131ef82612917565b91506131fa83612917565b925082820190508082111561321257613211612e0d565b5b92915050565b7f546f6f206d616e792074726f6f70732100000000000000000000000000000000600082015250565b600061324e601083612d32565b915061325982613218565b602082019050919050565b6000602082019050818103600083015261327d81613241565b9050919050565b7f4f776e61626c653a206e6577206f776e657220697320746865207a65726f206160008201527f6464726573730000000000000000000000000000000000000000000000000000602082015250565b60006132e0602683612d32565b91506132eb82613284565b604082019050919050565b6000602082019050818103600083015261330f816132d3565b9050919050565b600061332182612917565b915061332c83612917565b925082820261333a81612917565b9150828204841483151761335157613350612e0d565b5b5092915050565b600060608201905061336d6000830186612bc8565b61337a6020830185612bc8565b6133876040830184612bc8565b949350505050565b7f4f776e61626c653a2063616c6c6572206973206e6f7420746865206f776e6572600082015250565b60006133c5602083612d32565b91506133d08261338f565b602082019050919050565b600060208201905081810360008301526133f4816133b8565b9050919050565b600061340682612917565b915061341183612917565b925082820390508181111561342957613428612e0d565b5b9291505056fea264697066735822122056e1b2ee24448feb1ad7c2fa1327934cebf61ea799526ee33db9d53edca25a2a64736f6c63430008110033",
  "immutableReferences": {},
  "source": "// SPDX-License-Identifier: MIT\npragma solidity 0.8.17;\n\nimport \"@openzeppelin/contracts/access/Ownable.sol\";\nimport \"@openzeppelin/contracts/utils/Counters.sol\";\nimport \"@openzeppelin/contracts/utils/structs/EnumerableSet.sol\";\n\ncontract EternovaQuickBattles is Ownable{\n\t\n\tusing Counters for Counters.Counter;\n\tusing EnumerableSet for EnumerableSet.UintSet;\n\n    Counters.Counter private _battleIds;\n\n\tevent BattleStarted(uint indexed id, address indexed creator, address indexed opponent);\n\tevent BattleFinished(uint id, address indexed winner, uint winnerCityLife, uint looserCityLife);\n\n\tevent RoundStarted(uint indexed id, uint currentRound);\t\n\tevent RoundFinished(uint indexed id, uint currentRound);\n\t\n\tstruct Troop {\n\t\tuint attack;\n\t\tuint defense;\t\t\n\t}\n\n\tTroop private predator = Troop(40,100);\n\tTroop private proximusCobra = Troop(200,200);\n\tTroop private bounty_hunters = Troop(150,50);\n\n\tuint constant MAX_ROUNDS = 3;\n\n\tuint constant PREDATOR_UNITS = 5;\n\tuint constant PROXIMUS_COBRA_UNITS = 2;\n\tuint constant BOUNTY_HUNTERS_UNITS = 3;\n\t\n\tuint constant STARTING_LIFE = 500;\n\n\tuint constant MAX_UNITS_FIRST_ROUND = 8;\n\tuint constant MAX_UNITS_SECOND_ROUND = 9;\n\tuint constant MAX_UNITS_THIRD_ROUND = 10;\n\n\t//Round N => Max units\n\tmapping(uint => uint) roundMaxUnits;\n\t\n\tuint constant FIRST_ROUND = 1;\n\tuint constant SECOND_ROUND = 2;\n\tuint constant THIRD_ROUND = 3;\n\n\tstruct BattleData {\n\t\taddress creator;\n\t\taddress opponent;\n\t\tuint currentRound;\n\t\taddress nextMove;\n\t\tuint predatorAttackingUnits;\n\t\tuint proximusAttackingUnits;\n\t\tuint bountyAttackingUnits;\n\t\tuint predatorDefendingUnits;\n\t\tuint proximusDefendingUnits;\n\t\tuint bountyDefendingUnits;\n\t\tuint creatorCityLife;\n\t\tuint opponentCityLife;\n\t\taddress winner;\n\t}\n\n\t//BattleId => Data\n\tmapping (uint => BattleData) private battle;\n\n\t//User => [battleId]\n\tmapping(address => EnumerableSet.UintSet) private userBattle;\n\n\t//Esto se podra calcular recorriendo todas las batallas del usuario\n\t//Me parece que es ms econmico tenerlo en una variable\n\tmapping(address => mapping(address => bool)) currentlyFighting;\n\t\t\t\n\tconstructor() {\n\t\troundMaxUnits[1] = MAX_UNITS_FIRST_ROUND;\t\t\n\t\troundMaxUnits[2] = MAX_UNITS_SECOND_ROUND;\t\t\n\t\troundMaxUnits[3] = MAX_UNITS_THIRD_ROUND;\t\t\n\t}\n\n\tfunction startBattle(address opponent, uint[3] calldata troopsAmount) public returns(uint){\n\t\trequire(!areCurrentlyFighting(msg.sender, opponent), \"Use requestBattle\");\n\t\trequire(troopsAmount[0] <= PREDATOR_UNITS,\"Exceeds Predators max\");\n\t\trequire(troopsAmount[1] <= PROXIMUS_COBRA_UNITS,\"Exceeds Proximus Cobra max\");\n\t\trequire(troopsAmount[2] <= BOUNTY_HUNTERS_UNITS,\"Exceeds Bounty Hunter max\");\n\n\t\t_battleIds.increment();\n\t\t\n\t\tBattleData memory data = BattleData(\n\t\t\tmsg.sender, //Creator\n\t\t\topponent, //Opponnent\n\t\t\tFIRST_ROUND, //currentRound\n\t\t\topponent, //NextMove\n\t\t\ttroopsAmount[0], //predatorAttackingUnits\n\t\t\ttroopsAmount[1], //proximusAttackingUnits\n\t\t\ttroopsAmount[2], //bountyAttackingUnits\n\t\t\t0, //predatorDefendingUnits\n\t\t\t0, //proximusDefendingUnits\n\t\t\t0, //bountyDefendingUnits\n\t\t\tSTARTING_LIFE, //creatorCityLife\n\t\t\tSTARTING_LIFE, //opponentCityLife\n\t\t\taddress(0) //Winner\n\t\t\t);\n\n\t\tsetBattle(_battleIds.current(), data);\n\t\tuserBattle[msg.sender].add(_battleIds.current());\n\t\tcurrentlyFighting[msg.sender][opponent] = true;\t\t\t\t\n\t\temit RoundStarted(_battleIds.current(), data.currentRound);\n\n\t\treturn _battleIds.current();\n\t}\n\n\t//Troops amount for each type [predator, proximusCobra,bounty_hunters]\t\n\tfunction requestBattle(uint id, uint[3] calldata troopsAmount) public{\n\t\trequire(id <= _battleIds.current(),\"Battle id doesn't exist\");\n\t\tBattleData memory data = getBattleData(id);\n\t\trequire(msg.sender == data.creator || msg.sender == data.opponent,\"Can't request this battle\");\n\t\trequire(data.nextMove == msg.sender,\"Not your turn!\");\n\t\trequire(troopsAmount[0] <= PREDATOR_UNITS,\"Exceeds Predators max\");\n\t\trequire(troopsAmount[1] <= PROXIMUS_COBRA_UNITS,\"Exceeds Proximus Cobra max\");\n\t\trequire(troopsAmount[2] <= BOUNTY_HUNTERS_UNITS,\"Exceeds Bounty Hunter max\");\n\t\t\n\t\tuint currentRound = data.currentRound;\n\t\tuint totalTroops = troopsAmount[0] + troopsAmount[1] + troopsAmount[2];\n\n\t\trequire(totalTroops <= roundMaxUnits[currentRound],\"Too many troops!\");\n\t\t\n\t\t\n\t\tdata = BattleData(\n\t\t\tdata.creator,\n\t\t\tdata.opponent,\n\t\t\tdata.currentRound, //currentRound\n\t\t\tdata.nextMove == data.creator ? data.opponent : data.creator, //NextMove\n\t\t\tmsg.sender == data.creator ? troopsAmount[0] : 0, //predatorAttackingUnits\n\t\t\tmsg.sender == data.creator ? troopsAmount[1] : 0, //proximusAttackingUnits\n\t\t\tmsg.sender == data.creator ? troopsAmount[2] : 0, //bountyAttackingUnits\n\t\t\tmsg.sender == data.opponent ? troopsAmount[0] : 0, //predatorDefendingUnits\n\t\t\tmsg.sender == data.opponent ? troopsAmount[1] : 0, //proximusDefendingUnits\n\t\t\tmsg.sender == data.opponent ? troopsAmount[2] : 0, //bountyDefendingUnits\n\t\t\tdata.creatorCityLife, //creatorCityLife\n\t\t\tdata.opponentCityLife, //opponentCityLife\n\t\t\taddress(0) //winner\n\t\t\t);\n\t\tsetBattle(id, data);\n\t\t\t\t\n\t\temit RoundStarted(id, data.currentRound);\n\t}\n\n\t//Troops amount for each type [predator,proximusCobra,bounty_hunters]\n\tfunction respondBattle(uint id,uint[3] calldata troopsAmount) external returns(address){\n\t\trequire(id <= _battleIds.current(),\"Battle id doesn't exist\");\n\t\tBattleData memory data = getBattleData(id);\n\t\trequire(msg.sender == data.creator || msg.sender == data.opponent,\"Can't request this battle\");\n\t\trequire(data.nextMove == msg.sender,\"Not your turn!\");\n\t\trequire(troopsAmount[0] <= PREDATOR_UNITS,\"Exceeds Predators max\");\n\t\trequire(troopsAmount[1] <= PROXIMUS_COBRA_UNITS,\"Exceeds Proximus Cobra max\");\n\t\trequire(troopsAmount[2] <= BOUNTY_HUNTERS_UNITS,\"Exceeds Bounty Hunter max\");\n\n\t\tif (msg.sender == data.creator){\n\t\t\tdata.predatorAttackingUnits = troopsAmount[0];\n\t\t\tdata.proximusAttackingUnits = troopsAmount[1];\n\t\t\tdata.bountyAttackingUnits = troopsAmount[2];\n\t\t}else{\n\t\t\tdata.predatorDefendingUnits = troopsAmount[0];\n\t\t\tdata.proximusDefendingUnits = troopsAmount[1];\n\t\t\tdata.bountyDefendingUnits = troopsAmount[2];\n\t\t}\n\t\t\n\t\treturn resolveRound(id, data);\n\t}\n\n\t//Resolves round\n\t//If last round, returns winner, if not 0x000...\n\tfunction resolveRound (uint id, BattleData memory data) internal returns(address) {\t\t\n\t\tuint creatorCurrentCityLife = data.creatorCityLife;\n\t\tuint opponentCurrentCityLife = data.opponentCityLife;\n\t\t//Creator\n\t\tuint creatorTotalAttack = data.predatorAttackingUnits * predator.attack + data.proximusAttackingUnits * proximusCobra.attack + data.bountyAttackingUnits * bounty_hunters.attack;\n\t\tuint creatorTotalDefense = data.predatorAttackingUnits * predator.defense + data.proximusAttackingUnits * proximusCobra.defense + data.bountyAttackingUnits * bounty_hunters.defense;\n\t\t//Opponent\n\t\tuint opponentTotalAttack = data.predatorDefendingUnits * predator.attack + data.proximusDefendingUnits * proximusCobra.attack + data.bountyDefendingUnits * bounty_hunters.attack;\n\t\tuint opponentTotalDefense = data.predatorDefendingUnits * predator.defense + data.proximusDefendingUnits * proximusCobra.defense + data.bountyDefendingUnits * bounty_hunters.defense;\n\n\t\tBattleData memory newData = BattleData(\n\t\t\tdata.creator,\n\t\t\tdata.opponent,\n\t\t\tdata.currentRound, //currentRound\n\t\t\tdata.nextMove,\n\t\t\t0, //predatorAttackingUnits\n\t\t\t0, //proximusAttackingUnits\n\t\t\t0, //bountyAttackingUnits\n\t\t\t0, //predatorDefendingUnits\n\t\t\t0, //proximusDefendingUnits\n\t\t\t0, //bountyDefendingUnits\n\t\t\tgetRemainingLife(creatorCurrentCityLife, getTotalDamage(opponentTotalAttack, creatorTotalDefense)), //creatorCityLife\n\t\t\tgetRemainingLife(opponentCurrentCityLife, getTotalDamage(creatorTotalAttack, opponentTotalDefense)), //opponentCityLife\n\t\t\taddress(0) //Winner\n\t\t);\n\t\t\n\t\tif (data.currentRound == THIRD_ROUND){\n\t\t\taddress winner = newData.creatorCityLife >= newData.opponentCityLife ? data.creator : data.opponent;\n\t\t\tnewData.currentRound = 0;\n\t\t\tnewData.nextMove = address(0);\n\t\t\tnewData.winner = winner;\n\t\t\tcurrentlyFighting[data.creator][data.opponent] = false;\n\t\t\tsetBattle(id, newData);\n\t\t\temit RoundFinished(id, data.currentRound);\n\t\t\temit BattleFinished(id, winner, winner == data.creator ? newData.creatorCityLife : newData.opponentCityLife, winner == data.opponent ? newData.creatorCityLife : newData.opponentCityLife);\n\t\t\treturn winner;\n\t\t}\n\n\t\tnewData.currentRound = data.currentRound + 1;\n\t\t\n\t\tsetBattle(id, newData);\n\t\temit RoundFinished(id, data.currentRound);\t\t\t\t\n\t\treturn(address(0));\n\t}\n\t\n\tfunction getTotalDamage(uint attack, uint defense) internal pure returns(uint){\n\t\treturn attack > defense ? attack - defense : 0;\n\t}\n\t\n\tfunction getRemainingLife(uint currentLife, uint damage) internal pure returns(uint){\n\t\treturn currentLife > damage ? currentLife - damage : 0;\n\t}\n\n\tfunction getBattleData(uint id) internal view returns(BattleData memory){\n\t\treturn battle[id];\n\t}\n\n\tstruct PublicBattleData {\n\t\taddress creator;\n\t\taddress opponent;\n\t\tuint currentRound;\n\t\taddress nextMove;\n\t\tuint predatorUnits;\n\t\tuint proximusUnits;\n\t\tuint bountyUnits;\n\t\tuint cityLife;\n\t\taddress winner;\n\t}\n\n\tfunction getPublicBattleData(uint id) public view returns(PublicBattleData memory data){\n\t\trequire(id <= _battleIds.current(),\"Battle id doesn't exist\");\n\t\tBattleData memory battleData = battle[id];\n\t\trequire(msg.sender == battleData.creator || msg.sender == battleData.opponent ,\"Unauthorized\");\n\n\t\tdata.creator = battleData.creator;\n\t\tdata.opponent = battleData.opponent;\n\t\tdata.currentRound = battleData.currentRound;\n\t\tdata.nextMove = battleData.nextMove;\n\t\tdata.predatorUnits = msg.sender == data.creator ? battleData.predatorAttackingUnits : battleData.predatorDefendingUnits;\n\t\tdata.proximusUnits = msg.sender == data.creator ? battleData.proximusAttackingUnits : battleData.proximusDefendingUnits;\n\t\tdata.bountyUnits = msg.sender == data.creator ? battleData.bountyAttackingUnits : battleData.bountyDefendingUnits;\n\t\tdata.cityLife = msg.sender == data.creator ? battleData.creatorCityLife : battleData.opponentCityLife;\n\t\tdata.winner = battleData.winner;\n\t}\n\n\tfunction setBattle(uint id,BattleData memory data) internal{\n\t\tbattle[id] = data;\n\t}\n\n\tstruct BattleDataResponse {\n\t\tuint battleId;\n\t\taddress creator;\n\t\taddress opponent;\n\t\tuint currentRound;\n\t\taddress nextMove;\n\t\taddress winner;\n\t}\n\n\tfunction getUserBattleData(address user, uint limit, uint offset) external view returns(BattleDataResponse[] memory){\n\t\trequire(limit <= 100, \"Can't request too many records!\");\n\t\tEnumerableSet.UintSet storage _ids = userBattle[user];\n\t\tuint battleCount = _ids.length() <= 100 ? _ids.length() : 100;\n\t\tuint queryLimit = (battleCount > limit && limit != 0 ? limit : battleCount);\n\t\tuint responseIndex;\n\t\tBattleDataResponse[]memory response = new BattleDataResponse[](queryLimit);\n\t\tfor (uint i = offset; i < queryLimit; i++){\n\t\t\tuint id = userBattle[user].at(i);\n\t\t\tBattleData memory data = battle[id];\n\t\t\tresponse[responseIndex] = (\n\t\t\t\tBattleDataResponse(\n\t\t\t\t\tid,\n\t\t\t\t\tdata.creator,\n\t\t\t\t\tdata.opponent,\n\t\t\t\t\tdata.currentRound,\n\t\t\t\t\tdata.nextMove,\n\t\t\t\t\tdata.winner\n\t\t\t\t)\n\t\t\t);\n\t\t\tresponseIndex++;\n\t\t}\n\n\t\treturn response;\n\t}\n\t\n\tfunction areCurrentlyFighting(address creator, address opponent) internal view returns(bool){\n\t\treturn currentlyFighting[creator][opponent];\n\t}\n\n\tfunction getUserBattleCount(address user) external view returns(uint){\n\t\treturn userBattle[user].length();\n\t}\n\n}",
  "sourcePath": "/Users/glenci/EternovaQuickBattles/contracts/EternovaQuickBattles.sol",
  "compiler": {
    "name": "solc",
    "version": "0.8.17+commit.8df45f5f.Emscripten.clang"
  },
  "schemaVersion": "3.4.10",
  "updatedAt": "2023-09-08T06:57:52.599Z",
  "devdoc": {
    "kind": "dev",
    "methods": {
      "owner()": {
        "details": "Returns the address of the current owner."
      },
      "renounceOwnership()": {
        "details": "Leaves the contract without owner. It will not be possible to call `onlyOwner` functions. Can only be called by the current owner. NOTE: Renouncing ownership will leave the contract without an owner, thereby disabling any functionality that is only available to the owner."
      },
      "transferOwnership(address)": {
        "details": "Transfers ownership of the contract to a new account (`newOwner`). Can only be called by the current owner."
      }
    },
    "version": 1
  },
  "userdoc": {
    "kind": "user",
    "methods": {},
    "version": 1
  }
}