{
  "contractName": "EternovaQuickBattles",
  "abi": [
    {
      "inputs": [],
      "stateMutability": "nonpayable",
      "type": "constructor"
    },
    {
      "anonymous": false,
      "inputs": [
        {
          "indexed": false,
          "internalType": "uint256",
          "name": "id",
          "type": "uint256"
        },
        {
          "indexed": true,
          "internalType": "address",
          "name": "winner",
          "type": "address"
        },
        {
          "indexed": false,
          "internalType": "uint256",
          "name": "winnerCityLife",
          "type": "uint256"
        },
        {
          "indexed": false,
          "internalType": "uint256",
          "name": "looserCityLife",
          "type": "uint256"
        }
      ],
      "name": "BattleFinished",
      "type": "event"
    },
    {
      "anonymous": false,
      "inputs": [
        {
          "indexed": true,
          "internalType": "uint256",
          "name": "id",
          "type": "uint256"
        },
        {
          "indexed": true,
          "internalType": "address",
          "name": "creator",
          "type": "address"
        },
        {
          "indexed": true,
          "internalType": "address",
          "name": "opponent",
          "type": "address"
        }
      ],
      "name": "BattleStarted",
      "type": "event"
    },
    {
      "anonymous": false,
      "inputs": [
        {
          "indexed": true,
          "internalType": "address",
          "name": "previousOwner",
          "type": "address"
        },
        {
          "indexed": true,
          "internalType": "address",
          "name": "newOwner",
          "type": "address"
        }
      ],
      "name": "OwnershipTransferred",
      "type": "event"
    },
    {
      "anonymous": false,
      "inputs": [
        {
          "indexed": true,
          "internalType": "uint256",
          "name": "id",
          "type": "uint256"
        },
        {
          "indexed": false,
          "internalType": "uint256",
          "name": "currentRound",
          "type": "uint256"
        }
      ],
      "name": "RoundFinished",
      "type": "event"
    },
    {
      "anonymous": false,
      "inputs": [
        {
          "indexed": true,
          "internalType": "uint256",
          "name": "id",
          "type": "uint256"
        },
        {
          "indexed": false,
          "internalType": "uint256",
          "name": "currentRound",
          "type": "uint256"
        }
      ],
      "name": "RoundStarted",
      "type": "event"
    },
    {
      "inputs": [],
      "name": "owner",
      "outputs": [
        {
          "internalType": "address",
          "name": "",
          "type": "address"
        }
      ],
      "stateMutability": "view",
      "type": "function",
      "constant": true
    },
    {
      "inputs": [],
      "name": "renounceOwnership",
      "outputs": [],
      "stateMutability": "nonpayable",
      "type": "function"
    },
    {
      "inputs": [
        {
          "internalType": "address",
          "name": "newOwner",
          "type": "address"
        }
      ],
      "name": "transferOwnership",
      "outputs": [],
      "stateMutability": "nonpayable",
      "type": "function"
    },
    {
      "inputs": [
        {
          "internalType": "address",
          "name": "opponent",
          "type": "address"
        },
        {
          "internalType": "uint256[3]",
          "name": "troopsAmount",
          "type": "uint256[3]"
        }
      ],
      "name": "startBattle",
      "outputs": [
        {
          "internalType": "uint256",
          "name": "",
          "type": "uint256"
        }
      ],
      "stateMutability": "nonpayable",
      "type": "function"
    },
    {
      "inputs": [
        {
          "internalType": "uint256",
          "name": "id",
          "type": "uint256"
        },
        {
          "internalType": "uint256[3]",
          "name": "troopsAmount",
          "type": "uint256[3]"
        }
      ],
      "name": "requestBattle",
      "outputs": [],
      "stateMutability": "nonpayable",
      "type": "function"
    },
    {
      "inputs": [
        {
          "internalType": "uint256",
          "name": "id",
          "type": "uint256"
        }
      ],
      "name": "getPublicBattleData",
      "outputs": [
        {
          "components": [
            {
              "internalType": "address",
              "name": "creator",
              "type": "address"
            },
            {
              "internalType": "address",
              "name": "opponent",
              "type": "address"
            },
            {
              "internalType": "uint256",
              "name": "currentRound",
              "type": "uint256"
            },
            {
              "internalType": "address",
              "name": "nextMove",
              "type": "address"
            },
            {
              "internalType": "uint256",
              "name": "predatorUnits",
              "type": "uint256"
            },
            {
              "internalType": "uint256",
              "name": "proximusUnits",
              "type": "uint256"
            },
            {
              "internalType": "uint256",
              "name": "bountyUnits",
              "type": "uint256"
            },
            {
              "internalType": "uint256",
              "name": "cityLife",
              "type": "uint256"
            },
            {
              "internalType": "address",
              "name": "winner",
              "type": "address"
            }
          ],
          "internalType": "struct EternovaQuickBattles.PublicBattleData",
          "name": "data",
          "type": "tuple"
        }
      ],
      "stateMutability": "view",
      "type": "function",
      "constant": true
    },
    {
      "inputs": [
        {
          "internalType": "uint256",
          "name": "id",
          "type": "uint256"
        }
      ],
      "name": "getPublicHistoricBattleData",
      "outputs": [
        {
          "components": [
            {
              "internalType": "address",
              "name": "creator",
              "type": "address"
            },
            {
              "internalType": "address",
              "name": "opponent",
              "type": "address"
            },
            {
              "components": [
                {
                  "internalType": "uint256",
                  "name": "predatorAttackingUnits",
                  "type": "uint256"
                },
                {
                  "internalType": "uint256",
                  "name": "proximusAttackingUnits",
                  "type": "uint256"
                },
                {
                  "internalType": "uint256",
                  "name": "bountyAttackingUnits",
                  "type": "uint256"
                },
                {
                  "internalType": "uint256",
                  "name": "predatorDefendingUnits",
                  "type": "uint256"
                },
                {
                  "internalType": "uint256",
                  "name": "proximusDefendingUnits",
                  "type": "uint256"
                },
                {
                  "internalType": "uint256",
                  "name": "bountyDefendingUnits",
                  "type": "uint256"
                }
              ],
              "internalType": "struct EternovaQuickBattles.BattleAmount[3]",
              "name": "amounts",
              "type": "tuple[3]"
            },
            {
              "internalType": "address",
              "name": "winner",
              "type": "address"
            }
          ],
          "internalType": "struct EternovaQuickBattles.PublicHistoricBattleData",
          "name": "data",
          "type": "tuple"
        }
      ],
      "stateMutability": "view",
      "type": "function",
      "constant": true
    },
    {
      "inputs": [
        {
          "internalType": "address",
          "name": "user",
          "type": "address"
        },
        {
          "internalType": "uint256",
          "name": "limit",
          "type": "uint256"
        },
        {
          "internalType": "uint256",
          "name": "offset",
          "type": "uint256"
        }
      ],
      "name": "getUserBattleData",
      "outputs": [
        {
          "components": [
            {
              "internalType": "uint256",
              "name": "battleId",
              "type": "uint256"
            },
            {
              "internalType": "address",
              "name": "creator",
              "type": "address"
            },
            {
              "internalType": "address",
              "name": "opponent",
              "type": "address"
            },
            {
              "internalType": "uint256",
              "name": "currentRound",
              "type": "uint256"
            },
            {
              "internalType": "address",
              "name": "nextMove",
              "type": "address"
            },
            {
              "internalType": "address",
              "name": "winner",
              "type": "address"
            }
          ],
          "internalType": "struct EternovaQuickBattles.BattleDataResponse[]",
          "name": "",
          "type": "tuple[]"
        }
      ],
      "stateMutability": "view",
      "type": "function",
      "constant": true
    },
    {
      "inputs": [
        {
          "internalType": "address",
          "name": "user",
          "type": "address"
        }
      ],
      "name": "getUserBattleCount",
      "outputs": [
        {
          "internalType": "uint256",
          "name": "",
          "type": "uint256"
        }
      ],
      "stateMutability": "view",
      "type": "function",
      "constant": true
    }
  ],
  "bytecode": "0x60806040526040518060400160405280602881526020016064815250600260008201518160000155602082015181600101555050604051806040016040528060c8815260200160c881525060046000820151816000015560208201518160010155505060405180604001604052806096815260200160328152506006600082015181600001556020820151816001015550503480156200009e57600080fd5b50620000bf620000b36200011260201b60201c565b6200011a60201b60201c565b600880600060018152602001908152602001600020819055506009600860006002815260200190815260200160002081905550600a600860006003815260200190815260200160002081905550620001de565b600033905090565b60008060009054906101000a900473ffffffffffffffffffffffffffffffffffffffff169050816000806101000a81548173ffffffffffffffffffffffffffffffffffffffff021916908373ffffffffffffffffffffffffffffffffffffffff1602179055508173ffffffffffffffffffffffffffffffffffffffff168173ffffffffffffffffffffffffffffffffffffffff167f8be0079c531659141344cd1fd0a4f28419497f9722a3daafe3b4186f6b6457e060405160405180910390a35050565b613cf780620001ee6000396000f3fe608060405234801561001057600080fd5b50600436106100935760003560e01c806394a8142d1161006657806394a8142d146101205780639c80043814610150578063a5e94e9814610180578063f2fde38b1461019c578063f5169b61146101b857610093565b8063141dfa7914610098578063553bff08146100c8578063715018a6146100f85780638da5cb5b14610102575b600080fd5b6100b260048036038101906100ad9190612f7d565b6101e8565b6040516100bf9190613118565b60405180910390f35b6100e260048036038101906100dd919061313a565b610646565b6040516100ef9190613176565b60405180910390f35b610100610696565b005b61010a6106aa565b60405161011791906131a0565b60405180910390f35b61013a600480360381019061013591906131bb565b6106d3565b604051610147919061329f565b60405180910390f35b61016a600480360381019061016591906132e2565b610c19565b6040516101779190613176565b60405180910390f35b61019a60048036038101906101959190613322565b61117b565b005b6101b660048036038101906101b1919061313a565b611660565b005b6101d260048036038101906101cd91906131bb565b6116e3565b6040516101df91906134d0565b60405180910390f35b6060606483111561022e576040517f08c379a000000000000000000000000000000000000000000000000000000000815260040161022590613549565b60405180910390fd5b6000600b60008673ffffffffffffffffffffffffffffffffffffffff1673ffffffffffffffffffffffffffffffffffffffff16815260200190815260200160002090506000606461027e83611bbd565b111561028b576064610295565b61029482611bbd565b5b9050600085821180156102a9575060008614155b6102b357816102b5565b855b90506000808267ffffffffffffffff8111156102d4576102d3613569565b5b60405190808252806020026020018201604052801561030d57816020015b6102fa612c3c565b8152602001906001900390816102f25790505b50905060008790505b8381101561063657600061037182600b60008e73ffffffffffffffffffffffffffffffffffffffff1673ffffffffffffffffffffffffffffffffffffffff168152602001908152602001600020611bd290919063ffffffff16565b90506000600a6000838152602001908152602001600020604051806101000160405290816000820160009054906101000a900473ffffffffffffffffffffffffffffffffffffffff1673ffffffffffffffffffffffffffffffffffffffff1673ffffffffffffffffffffffffffffffffffffffff1681526020016001820160009054906101000a900473ffffffffffffffffffffffffffffffffffffffff1673ffffffffffffffffffffffffffffffffffffffff1673ffffffffffffffffffffffffffffffffffffffff168152602001600282015481526020016003820160009054906101000a900473ffffffffffffffffffffffffffffffffffffffff1673ffffffffffffffffffffffffffffffffffffffff1673ffffffffffffffffffffffffffffffffffffffff168152602001600482016040518060c001604052908160008201548152602001600182015481526020016002820154815260200160038201548152602001600482015481526020016005820154815250508152602001600a8201548152602001600b8201548152602001600c820160009054906101000a900473ffffffffffffffffffffffffffffffffffffffff1673ffffffffffffffffffffffffffffffffffffffff1673ffffffffffffffffffffffffffffffffffffffff168152505090506040518060c00160405280838152602001826000015173ffffffffffffffffffffffffffffffffffffffff168152602001826020015173ffffffffffffffffffffffffffffffffffffffff16815260200182604001518152602001826060015173ffffffffffffffffffffffffffffffffffffffff1681526020018260e0015173ffffffffffffffffffffffffffffffffffffffff1681525084868151811061060857610607613598565b5b6020026020010181905250848061061e906135f6565b9550505050808061062e906135f6565b915050610316565b5080955050505050509392505050565b600061068f600b60008473ffffffffffffffffffffffffffffffffffffffff1673ffffffffffffffffffffffffffffffffffffffff168152602001908152602001600020611bbd565b9050919050565b61069e611bec565b6106a86000611c6a565b565b60008060009054906101000a900473ffffffffffffffffffffffffffffffffffffffff16905090565b6106db612cca565b6106e56001611d2e565b821115610727576040517f08c379a000000000000000000000000000000000000000000000000000000000815260040161071e9061368a565b60405180910390fd5b6000600a6000848152602001908152602001600020604051806101000160405290816000820160009054906101000a900473ffffffffffffffffffffffffffffffffffffffff1673ffffffffffffffffffffffffffffffffffffffff1673ffffffffffffffffffffffffffffffffffffffff1681526020016001820160009054906101000a900473ffffffffffffffffffffffffffffffffffffffff1673ffffffffffffffffffffffffffffffffffffffff1673ffffffffffffffffffffffffffffffffffffffff168152602001600282015481526020016003820160009054906101000a900473ffffffffffffffffffffffffffffffffffffffff1673ffffffffffffffffffffffffffffffffffffffff1673ffffffffffffffffffffffffffffffffffffffff168152602001600482016040518060c001604052908160008201548152602001600182015481526020016002820154815260200160038201548152602001600482015481526020016005820154815250508152602001600a8201548152602001600b8201548152602001600c820160009054906101000a900473ffffffffffffffffffffffffffffffffffffffff1673ffffffffffffffffffffffffffffffffffffffff1673ffffffffffffffffffffffffffffffffffffffff16815250509050806000015173ffffffffffffffffffffffffffffffffffffffff163373ffffffffffffffffffffffffffffffffffffffff16148061097d5750806020015173ffffffffffffffffffffffffffffffffffffffff163373ffffffffffffffffffffffffffffffffffffffff16145b6109bc576040517f08c379a00000000000000000000000000000000000000000000000000000000081526004016109b3906136f6565b60405180910390fd5b8060000151826000019073ffffffffffffffffffffffffffffffffffffffff16908173ffffffffffffffffffffffffffffffffffffffff16815250508060200151826020019073ffffffffffffffffffffffffffffffffffffffff16908173ffffffffffffffffffffffffffffffffffffffff168152505080604001518260400181815250508060600151826060019073ffffffffffffffffffffffffffffffffffffffff16908173ffffffffffffffffffffffffffffffffffffffff1681525050816000015173ffffffffffffffffffffffffffffffffffffffff163373ffffffffffffffffffffffffffffffffffffffff1614610ac357806080015160600151610acd565b8060800151600001515b826080018181525050816000015173ffffffffffffffffffffffffffffffffffffffff163373ffffffffffffffffffffffffffffffffffffffff1614610b1b57806080015160800151610b25565b8060800151602001515b8260a0018181525050816000015173ffffffffffffffffffffffffffffffffffffffff163373ffffffffffffffffffffffffffffffffffffffff1614610b7357806080015160a00151610b7d565b8060800151604001515b8260c0018181525050816000015173ffffffffffffffffffffffffffffffffffffffff163373ffffffffffffffffffffffffffffffffffffffff1614610bc7578060c00151610bcd565b8060a001515b8260e00181815250508060e0015182610100019073ffffffffffffffffffffffffffffffffffffffff16908173ffffffffffffffffffffffffffffffffffffffff168152505050919050565b6000610c253384611d3c565b15610c65576040517f08c379a0000000000000000000000000000000000000000000000000000000008152600401610c5c90613762565b60405180910390fd5b600582600060038110610c7b57610c7a613598565b5b60200201351115610cc1576040517f08c379a0000000000000000000000000000000000000000000000000000000008152600401610cb8906137ce565b60405180910390fd5b600282600160038110610cd757610cd6613598565b5b60200201351115610d1d576040517f08c379a0000000000000000000000000000000000000000000000000000000008152600401610d149061383a565b60405180910390fd5b600382600260038110610d3357610d32613598565b5b60200201351115610d79576040517f08c379a0000000000000000000000000000000000000000000000000000000008152600401610d70906138a6565b60405180910390fd5b600082600260038110610d8f57610d8e613598565b5b602002013583600160038110610da857610da7613598565b5b602002013584600060038110610dc157610dc0613598565b5b6020020135610dd091906138c6565b610dda91906138c6565b9050600860006001815260200190815260200160002054811115610e33576040517f08c379a0000000000000000000000000000000000000000000000000000000008152600401610e2a90613946565b60405180910390fd5b610e3d6001611dd0565b60006040518060c0016040528085600060038110610e5e57610e5d613598565b5b6020020135815260200185600160038110610e7c57610e7b613598565b5b6020020135815260200185600260038110610e9a57610e99613598565b5b6020020135815260200160008152602001600081526020016000815250905060006040518061010001604052803373ffffffffffffffffffffffffffffffffffffffff1681526020018773ffffffffffffffffffffffffffffffffffffffff168152602001600181526020018773ffffffffffffffffffffffffffffffffffffffff1681526020018381526020016101f481526020016101f48152602001600073ffffffffffffffffffffffffffffffffffffffff1681525090508160096000610f646001611d2e565b8152602001908152602001600020600060018152602001908152602001600020600082015181600001556020820151816001015560408201518160020155606082015181600301556080820151816004015560a08201518160050155905050610fd6610fd06001611d2e565b82611de6565b611030610fe36001611d2e565b600b60003373ffffffffffffffffffffffffffffffffffffffff1673ffffffffffffffffffffffffffffffffffffffff168152602001908152602001600020611f8290919063ffffffff16565b5061108b61103e6001611d2e565b600b60008973ffffffffffffffffffffffffffffffffffffffff1673ffffffffffffffffffffffffffffffffffffffff168152602001908152602001600020611f8290919063ffffffff16565b506001600c60003373ffffffffffffffffffffffffffffffffffffffff1673ffffffffffffffffffffffffffffffffffffffff16815260200190815260200160002060008873ffffffffffffffffffffffffffffffffffffffff1673ffffffffffffffffffffffffffffffffffffffff16815260200190815260200160002060006101000a81548160ff02191690831515021790555061112b6001611d2e565b7f278844837bcf8364a705384bf3a2812901f54155bae86dea81dd52aa5b9ec0e3826040015160405161115e9190613176565b60405180910390a26111706001611d2e565b935050505092915050565b6111858282611f9c565b600061119083612333565b905060006040518060c00160405280836000015173ffffffffffffffffffffffffffffffffffffffff163373ffffffffffffffffffffffffffffffffffffffff16146111e4578360800151600001516111fe565b846000600381106111f8576111f7613598565b5b60200201355b8152602001836000015173ffffffffffffffffffffffffffffffffffffffff163373ffffffffffffffffffffffffffffffffffffffff161461124857836080015160200151611262565b8460016003811061125c5761125b613598565b5b60200201355b8152602001836000015173ffffffffffffffffffffffffffffffffffffffff163373ffffffffffffffffffffffffffffffffffffffff16146112ac578360800151604001516112c6565b846002600381106112c0576112bf613598565b5b60200201355b8152602001836020015173ffffffffffffffffffffffffffffffffffffffff163373ffffffffffffffffffffffffffffffffffffffff16146113105783608001516060015161132a565b8460006003811061132457611323613598565b5b60200201355b8152602001836020015173ffffffffffffffffffffffffffffffffffffffff163373ffffffffffffffffffffffffffffffffffffffff16146113745783608001516080015161138e565b8460016003811061138857611387613598565b5b60200201355b8152602001836020015173ffffffffffffffffffffffffffffffffffffffff163373ffffffffffffffffffffffffffffffffffffffff16146113d857836080015160a001516113f2565b846002600381106113ec576113eb613598565b5b60200201355b8152509050604051806101000160405280836000015173ffffffffffffffffffffffffffffffffffffffff168152602001836020015173ffffffffffffffffffffffffffffffffffffffff16815260200183604001518152602001836060015173ffffffffffffffffffffffffffffffffffffffff1681526020018281526020018360a0015181526020018360c001518152602001600073ffffffffffffffffffffffffffffffffffffffff1681525091506114ad82612527565b15611529578060096000868152602001908152602001600020600084604001518152602001908152602001600020600082015181600001556020820151816001015560408201518160020155606082015181600301556080820151816004015560a08201518160050155905050611524848361259b565b61165a565b816000015173ffffffffffffffffffffffffffffffffffffffff16826060015173ffffffffffffffffffffffffffffffffffffffff161461156e578160000151611574565b81602001515b826060019073ffffffffffffffffffffffffffffffffffffffff16908173ffffffffffffffffffffffffffffffffffffffff16815250508060096000868152602001908152602001600020600084604001518152602001908152602001600020600082015181600001556020820151816001015560408201518160020155606082015181600301556080820151816004015560a0820151816005015590505061161d8483611de6565b837f278844837bcf8364a705384bf3a2812901f54155bae86dea81dd52aa5b9ec0e383604001516040516116519190613176565b60405180910390a25b50505050565b611668611bec565b600073ffffffffffffffffffffffffffffffffffffffff168173ffffffffffffffffffffffffffffffffffffffff16036116d7576040517f08c379a00000000000000000000000000000000000000000000000000000000081526004016116ce906139d8565b60405180910390fd5b6116e081611c6a565b50565b6116eb612d6e565b6116f56001611d2e565b821115611737576040517f08c379a000000000000000000000000000000000000000000000000000000000815260040161172e9061368a565b60405180910390fd5b6000600a6000848152602001908152602001600020604051806101000160405290816000820160009054906101000a900473ffffffffffffffffffffffffffffffffffffffff1673ffffffffffffffffffffffffffffffffffffffff1673ffffffffffffffffffffffffffffffffffffffff1681526020016001820160009054906101000a900473ffffffffffffffffffffffffffffffffffffffff1673ffffffffffffffffffffffffffffffffffffffff1673ffffffffffffffffffffffffffffffffffffffff168152602001600282015481526020016003820160009054906101000a900473ffffffffffffffffffffffffffffffffffffffff1673ffffffffffffffffffffffffffffffffffffffff1673ffffffffffffffffffffffffffffffffffffffff168152602001600482016040518060c001604052908160008201548152602001600182015481526020016002820154815260200160038201548152602001600482015481526020016005820154815250508152602001600a8201548152602001600b8201548152602001600c820160009054906101000a900473ffffffffffffffffffffffffffffffffffffffff1673ffffffffffffffffffffffffffffffffffffffff1673ffffffffffffffffffffffffffffffffffffffff16815250509050806000015173ffffffffffffffffffffffffffffffffffffffff163373ffffffffffffffffffffffffffffffffffffffff16148061198d5750806020015173ffffffffffffffffffffffffffffffffffffffff163373ffffffffffffffffffffffffffffffffffffffff16145b6119cc576040517f08c379a00000000000000000000000000000000000000000000000000000000081526004016119c3906136f6565b60405180910390fd5b600073ffffffffffffffffffffffffffffffffffffffff168160e0015173ffffffffffffffffffffffffffffffffffffffff1603611a3f576040517f08c379a0000000000000000000000000000000000000000000000000000000008152600401611a3690613a44565b60405180910390fd5b611a47612dde565b60005b6003811015611af857600960008681526020019081526020016000206000600183611a7591906138c6565b81526020019081526020016000206040518060c00160405290816000820154815260200160018201548152602001600282015481526020016003820154815260200160048201548152602001600582015481525050828260038110611add57611adc613598565b5b60200201819052508080611af0906135f6565b915050611a4a565b508160000151836000019073ffffffffffffffffffffffffffffffffffffffff16908173ffffffffffffffffffffffffffffffffffffffff16815250508160200151836020019073ffffffffffffffffffffffffffffffffffffffff16908173ffffffffffffffffffffffffffffffffffffffff16815250508083604001819052508160e00151836060019073ffffffffffffffffffffffffffffffffffffffff16908173ffffffffffffffffffffffffffffffffffffffff16815250505050919050565b6000611bcb82600001612b1b565b9050919050565b6000611be18360000183612b2c565b60001c905092915050565b611bf4612b57565b73ffffffffffffffffffffffffffffffffffffffff16611c126106aa565b73ffffffffffffffffffffffffffffffffffffffff1614611c68576040517f08c379a0000000000000000000000000000000000000000000000000000000008152600401611c5f90613ab0565b60405180910390fd5b565b60008060009054906101000a900473ffffffffffffffffffffffffffffffffffffffff169050816000806101000a81548173ffffffffffffffffffffffffffffffffffffffff021916908373ffffffffffffffffffffffffffffffffffffffff1602179055508173ffffffffffffffffffffffffffffffffffffffff168173ffffffffffffffffffffffffffffffffffffffff167f8be0079c531659141344cd1fd0a4f28419497f9722a3daafe3b4186f6b6457e060405160405180910390a35050565b600081600001549050919050565b6000600c60008473ffffffffffffffffffffffffffffffffffffffff1673ffffffffffffffffffffffffffffffffffffffff16815260200190815260200160002060008373ffffffffffffffffffffffffffffffffffffffff1673ffffffffffffffffffffffffffffffffffffffff16815260200190815260200160002060009054906101000a900460ff16905092915050565b6001816000016000828254019250508190555050565b80600a600084815260200190815260200160002060008201518160000160006101000a81548173ffffffffffffffffffffffffffffffffffffffff021916908373ffffffffffffffffffffffffffffffffffffffff16021790555060208201518160010160006101000a81548173ffffffffffffffffffffffffffffffffffffffff021916908373ffffffffffffffffffffffffffffffffffffffff1602179055506040820151816002015560608201518160030160006101000a81548173ffffffffffffffffffffffffffffffffffffffff021916908373ffffffffffffffffffffffffffffffffffffffff160217905550608082015181600401600082015181600001556020820151816001015560408201518160020155606082015181600301556080820151816004015560a08201518160050155505060a082015181600a015560c082015181600b015560e082015181600c0160006101000a81548173ffffffffffffffffffffffffffffffffffffffff021916908373ffffffffffffffffffffffffffffffffffffffff1602179055509050505050565b6000611f94836000018360001b612b5f565b905092915050565b611fa66001611d2e565b821115611fe8576040517f08c379a0000000000000000000000000000000000000000000000000000000008152600401611fdf9061368a565b60405180910390fd5b6000611ff383612333565b9050806000015173ffffffffffffffffffffffffffffffffffffffff163373ffffffffffffffffffffffffffffffffffffffff1614806120625750806020015173ffffffffffffffffffffffffffffffffffffffff163373ffffffffffffffffffffffffffffffffffffffff16145b6120a1576040517f08c379a000000000000000000000000000000000000000000000000000000000815260040161209890613b1c565b60405180910390fd5b3373ffffffffffffffffffffffffffffffffffffffff16816060015173ffffffffffffffffffffffffffffffffffffffff1614612113576040517f08c379a000000000000000000000000000000000000000000000000000000000815260040161210a90613b88565b60405180910390fd5b60058260006003811061212957612128613598565b5b6020020135111561216f576040517f08c379a0000000000000000000000000000000000000000000000000000000008152600401612166906137ce565b60405180910390fd5b60028260016003811061218557612184613598565b5b602002013511156121cb576040517f08c379a00000000000000000000000000000000000000000000000000000000081526004016121c29061383a565b60405180910390fd5b6003826002600381106121e1576121e0613598565b5b60200201351115612227576040517f08c379a000000000000000000000000000000000000000000000000000000000815260040161221e906138a6565b60405180910390fd5b60008160400151905060008360026003811061224657612245613598565b5b60200201358460016003811061225f5761225e613598565b5b60200201358560006003811061227857612277613598565b5b602002013561228791906138c6565b61229191906138c6565b905060086000838152602001908152602001600020548111156122e9576040517f08c379a00000000000000000000000000000000000000000000000000000000081526004016122e090613946565b60405180910390fd5b6000811161232c576040517f08c379a000000000000000000000000000000000000000000000000000000000815260040161232390613bf4565b60405180910390fd5b5050505050565b61233b612e0b565b600a6000838152602001908152602001600020604051806101000160405290816000820160009054906101000a900473ffffffffffffffffffffffffffffffffffffffff1673ffffffffffffffffffffffffffffffffffffffff1673ffffffffffffffffffffffffffffffffffffffff1681526020016001820160009054906101000a900473ffffffffffffffffffffffffffffffffffffffff1673ffffffffffffffffffffffffffffffffffffffff1673ffffffffffffffffffffffffffffffffffffffff168152602001600282015481526020016003820160009054906101000a900473ffffffffffffffffffffffffffffffffffffffff1673ffffffffffffffffffffffffffffffffffffffff1673ffffffffffffffffffffffffffffffffffffffff168152602001600482016040518060c001604052908160008201548152602001600182015481526020016002820154815260200160038201548152602001600482015481526020016005820154815250508152602001600a8201548152602001600b8201548152602001600c820160009054906101000a900473ffffffffffffffffffffffffffffffffffffffff1673ffffffffffffffffffffffffffffffffffffffff1673ffffffffffffffffffffffffffffffffffffffff16815250509050919050565b60008082608001516040015183608001516020015184608001516000015161254f91906138c6565b61255991906138c6565b11801561259457506000826080015160a0015183608001516080015184608001516060015161258891906138c6565b61259291906138c6565b115b9050919050565b60008160a00151905060008260c00151905060006006600001548460800151604001516125c89190613c14565b6004600001548560800151602001516125e19190613c14565b6002600001548660800151600001516125fa9190613c14565b61260491906138c6565b61260e91906138c6565b9050600060066001015485608001516040015161262b9190613c14565b6004600101548660800151602001516126449190613c14565b60026001015487608001516000015161265d9190613c14565b61266791906138c6565b61267191906138c6565b90506000600660000154866080015160a0015161268e9190613c14565b6004600001548760800151608001516126a79190613c14565b6002600001548860800151606001516126c09190613c14565b6126ca91906138c6565b6126d491906138c6565b90506000600660010154876080015160a001516126f19190613c14565b60046001015488608001516080015161270a9190613c14565b6002600101548960800151606001516127239190613c14565b61272d91906138c6565b61273791906138c6565b905060006040518060c0016040528060008152602001600081526020016000815260200160008152602001600081526020016000815250905060006040518061010001604052808a6000015173ffffffffffffffffffffffffffffffffffffffff1681526020018a6020015173ffffffffffffffffffffffffffffffffffffffff1681526020018a6040015181526020018a6060015173ffffffffffffffffffffffffffffffffffffffff1681526020018381526020016128018a6127fc888a612bcf565b612bf4565b8152602001612819896128148a88612bcf565b612bf4565b8152602001600073ffffffffffffffffffffffffffffffffffffffff1681525090506003896040015103612aae5760008160c001518260a001511015612863578960200151612869565b89600001515b905060008260400181815250506000826060019073ffffffffffffffffffffffffffffffffffffffff16908173ffffffffffffffffffffffffffffffffffffffff1681525050808260e0019073ffffffffffffffffffffffffffffffffffffffff16908173ffffffffffffffffffffffffffffffffffffffff16815250506000600c60008c6000015173ffffffffffffffffffffffffffffffffffffffff1673ffffffffffffffffffffffffffffffffffffffff16815260200190815260200160002060008c6020015173ffffffffffffffffffffffffffffffffffffffff1673ffffffffffffffffffffffffffffffffffffffff16815260200190815260200160002060006101000a81548160ff02191690831515021790555061298e8b83611de6565b8a7f8aba4bf97c53cd5124a16826906cf29c99e37b45dcaccff77292ab676a81b5278b604001516040516129c29190613176565b60405180910390a28073ffffffffffffffffffffffffffffffffffffffff167f659ab4616759704498ed851deaf5cf2eb0b2869d85580cd68a3371aea737e7008c8c6000015173ffffffffffffffffffffffffffffffffffffffff168473ffffffffffffffffffffffffffffffffffffffff1614612a44578460c00151612a4a565b8460a001515b8d6020015173ffffffffffffffffffffffffffffffffffffffff168573ffffffffffffffffffffffffffffffffffffffff1614612a8b578560c00151612a91565b8560a001515b604051612aa093929190613c56565b60405180910390a250612b0f565b60018960400151612abf91906138c6565b816040018181525050612ad28a82611de6565b897f8aba4bf97c53cd5124a16826906cf29c99e37b45dcaccff77292ab676a81b5278a60400151604051612b069190613176565b60405180910390a25b50505050505050505050565b600081600001805490509050919050565b6000826000018281548110612b4457612b43613598565b5b9060005260206000200154905092915050565b600033905090565b6000612b6b8383612c19565b612bc4578260000182908060018154018082558091505060019003906000526020600020016000909190919091505582600001805490508360010160008481526020019081526020016000208190555060019050612bc9565b600090505b92915050565b6000818311612bdf576000612bec565b8183612beb9190613c8d565b5b905092915050565b6000818311612c04576000612c11565b8183612c109190613c8d565b5b905092915050565b600080836001016000848152602001908152602001600020541415905092915050565b6040518060c0016040528060008152602001600073ffffffffffffffffffffffffffffffffffffffff168152602001600073ffffffffffffffffffffffffffffffffffffffff16815260200160008152602001600073ffffffffffffffffffffffffffffffffffffffff168152602001600073ffffffffffffffffffffffffffffffffffffffff1681525090565b604051806101200160405280600073ffffffffffffffffffffffffffffffffffffffff168152602001600073ffffffffffffffffffffffffffffffffffffffff16815260200160008152602001600073ffffffffffffffffffffffffffffffffffffffff16815260200160008152602001600081526020016000815260200160008152602001600073ffffffffffffffffffffffffffffffffffffffff1681525090565b6040518060800160405280600073ffffffffffffffffffffffffffffffffffffffff168152602001600073ffffffffffffffffffffffffffffffffffffffff168152602001612dbb612dde565b8152602001600073ffffffffffffffffffffffffffffffffffffffff1681525090565b60405180606001604052806003905b612df5612eae565b815260200190600190039081612ded5790505090565b604051806101000160405280600073ffffffffffffffffffffffffffffffffffffffff168152602001600073ffffffffffffffffffffffffffffffffffffffff16815260200160008152602001600073ffffffffffffffffffffffffffffffffffffffff168152602001612e7d612eae565b81526020016000815260200160008152602001600073ffffffffffffffffffffffffffffffffffffffff1681525090565b6040518060c001604052806000815260200160008152602001600081526020016000815260200160008152602001600081525090565b600080fd5b600073ffffffffffffffffffffffffffffffffffffffff82169050919050565b6000612f1482612ee9565b9050919050565b612f2481612f09565b8114612f2f57600080fd5b50565b600081359050612f4181612f1b565b92915050565b6000819050919050565b612f5a81612f47565b8114612f6557600080fd5b50565b600081359050612f7781612f51565b92915050565b600080600060608486031215612f9657612f95612ee4565b5b6000612fa486828701612f32565b9350506020612fb586828701612f68565b9250506040612fc686828701612f68565b9150509250925092565b600081519050919050565b600082825260208201905092915050565b6000819050602082019050919050565b61300581612f47565b82525050565b61301481612f09565b82525050565b60c0820160008201516130306000850182612ffc565b506020820151613043602085018261300b565b506040820151613056604085018261300b565b5060608201516130696060850182612ffc565b50608082015161307c608085018261300b565b5060a082015161308f60a085018261300b565b50505050565b60006130a1838361301a565b60c08301905092915050565b6000602082019050919050565b60006130c582612fd0565b6130cf8185612fdb565b93506130da83612fec565b8060005b8381101561310b5781516130f28882613095565b97506130fd836130ad565b9250506001810190506130de565b5085935050505092915050565b6000602082019050818103600083015261313281846130ba565b905092915050565b6000602082840312156131505761314f612ee4565b5b600061315e84828501612f32565b91505092915050565b61317081612f47565b82525050565b600060208201905061318b6000830184613167565b92915050565b61319a81612f09565b82525050565b60006020820190506131b56000830184613191565b92915050565b6000602082840312156131d1576131d0612ee4565b5b60006131df84828501612f68565b91505092915050565b610120820160008201516131ff600085018261300b565b506020820151613212602085018261300b565b5060408201516132256040850182612ffc565b506060820151613238606085018261300b565b50608082015161324b6080850182612ffc565b5060a082015161325e60a0850182612ffc565b5060c082015161327160c0850182612ffc565b5060e082015161328460e0850182612ffc565b5061010082015161329961010085018261300b565b50505050565b6000610120820190506132b560008301846131e8565b92915050565b600080fd5b6000819050826020600302820111156132dc576132db6132bb565b5b92915050565b600080608083850312156132f9576132f8612ee4565b5b600061330785828601612f32565b9250506020613318858286016132c0565b9150509250929050565b6000806080838503121561333957613338612ee4565b5b600061334785828601612f68565b9250506020613358858286016132c0565b9150509250929050565b600060039050919050565b600081905092915050565b6000819050919050565b60c0820160008201516133986000850182612ffc565b5060208201516133ab6020850182612ffc565b5060408201516133be6040850182612ffc565b5060608201516133d16060850182612ffc565b5060808201516133e46080850182612ffc565b5060a08201516133f760a0850182612ffc565b50505050565b60006134098383613382565b60c08301905092915050565b6000602082019050919050565b61342b81613362565b613435818461336d565b925061344082613378565b8060005b8381101561347157815161345887826133fd565b965061346383613415565b925050600181019050613444565b505050505050565b6102a082016000820151613490600085018261300b565b5060208201516134a3602085018261300b565b5060408201516134b66040850182613422565b5060608201516134ca61028085018261300b565b50505050565b60006102a0820190506134e66000830184613479565b92915050565b600082825260208201905092915050565b7f43616e2774207265717565737420746f6f206d616e79207265636f7264732100600082015250565b6000613533601f836134ec565b915061353e826134fd565b602082019050919050565b6000602082019050818103600083015261356281613526565b9050919050565b7f4e487b7100000000000000000000000000000000000000000000000000000000600052604160045260246000fd5b7f4e487b7100000000000000000000000000000000000000000000000000000000600052603260045260246000fd5b7f4e487b7100000000000000000000000000000000000000000000000000000000600052601160045260246000fd5b600061360182612f47565b91507fffffffffffffffffffffffffffffffffffffffffffffffffffffffffffffffff8203613633576136326135c7565b5b600182019050919050565b7f426174746c6520696420646f65736e2774206578697374000000000000000000600082015250565b60006136746017836134ec565b915061367f8261363e565b602082019050919050565b600060208201905081810360008301526136a381613667565b9050919050565b7f556e617574686f72697a65640000000000000000000000000000000000000000600082015250565b60006136e0600c836134ec565b91506136eb826136aa565b602082019050919050565b6000602082019050818103600083015261370f816136d3565b9050919050565b7f5573652072657175657374426174746c65000000000000000000000000000000600082015250565b600061374c6011836134ec565b915061375782613716565b602082019050919050565b6000602082019050818103600083015261377b8161373f565b9050919050565b7f45786365656473205072656461746f7273206d61780000000000000000000000600082015250565b60006137b86015836134ec565b91506137c382613782565b602082019050919050565b600060208201905081810360008301526137e7816137ab565b9050919050565b7f457863656564732050726f78696d757320436f627261206d6178000000000000600082015250565b6000613824601a836134ec565b915061382f826137ee565b602082019050919050565b6000602082019050818103600083015261385381613817565b9050919050565b7f4578636565647320426f756e74792048756e746572206d617800000000000000600082015250565b60006138906019836134ec565b915061389b8261385a565b602082019050919050565b600060208201905081810360008301526138bf81613883565b9050919050565b60006138d182612f47565b91506138dc83612f47565b92508282019050808211156138f4576138f36135c7565b5b92915050565b7f546f6f206d616e792074726f6f70732100000000000000000000000000000000600082015250565b60006139306010836134ec565b915061393b826138fa565b602082019050919050565b6000602082019050818103600083015261395f81613923565b9050919050565b7f4f776e61626c653a206e6577206f776e657220697320746865207a65726f206160008201527f6464726573730000000000000000000000000000000000000000000000000000602082015250565b60006139c26026836134ec565b91506139cd82613966565b604082019050919050565b600060208201905081810360008301526139f1816139b5565b9050919050565b7f4f6e6c7920656e646564206d6174636865730000000000000000000000000000600082015250565b6000613a2e6012836134ec565b9150613a39826139f8565b602082019050919050565b60006020820190508181036000830152613a5d81613a21565b9050919050565b7f4f776e61626c653a2063616c6c6572206973206e6f7420746865206f776e6572600082015250565b6000613a9a6020836134ec565b9150613aa582613a64565b602082019050919050565b60006020820190508181036000830152613ac981613a8d565b9050919050565b7f43616e27742072657175657374207468697320626174746c6500000000000000600082015250565b6000613b066019836134ec565b9150613b1182613ad0565b602082019050919050565b60006020820190508181036000830152613b3581613af9565b9050919050565b7f4e6f7420796f7572207475726e21000000000000000000000000000000000000600082015250565b6000613b72600e836134ec565b9150613b7d82613b3c565b602082019050919050565b60006020820190508181036000830152613ba181613b65565b9050919050565b7f4d7573742073656e642074726f6f707321000000000000000000000000000000600082015250565b6000613bde6011836134ec565b9150613be982613ba8565b602082019050919050565b60006020820190508181036000830152613c0d81613bd1565b9050919050565b6000613c1f82612f47565b9150613c2a83612f47565b9250828202613c3881612f47565b91508282048414831517613c4f57613c4e6135c7565b5b5092915050565b6000606082019050613c6b6000830186613167565b613c786020830185613167565b613c856040830184613167565b949350505050565b6000613c9882612f47565b9150613ca383612f47565b9250828203905081811115613cbb57613cba6135c7565b5b9291505056fea264697066735822122005f9c6a4c9b054ea17779d7d05303252757e0d2a641ac34e9d09fce3d774162c64736f6c63430008110033",
  "immutableReferences": {},
  "source": "// SPDX-License-Identifier: MIT\npragma solidity 0.8.17;\n\nimport \"@openzeppelin/contracts/access/Ownable.sol\";\nimport \"@openzeppelin/contracts/utils/Counters.sol\";\nimport \"@openzeppelin/contracts/utils/structs/EnumerableSet.sol\";\n\ncontract EternovaQuickBattles is Ownable{\n\t\n\tusing Counters for Counters.Counter;\n\tusing EnumerableSet for EnumerableSet.UintSet;\n\n    Counters.Counter private _battleIds;\n\n\tevent BattleStarted(uint indexed id, address indexed creator, address indexed opponent);\n\tevent BattleFinished(uint id, address indexed winner, uint winnerCityLife, uint looserCityLife);\n\n\tevent RoundStarted(uint indexed id, uint currentRound);\t\n\tevent RoundFinished(uint indexed id, uint currentRound);\n\t\n\tstruct Troop {\n\t\tuint attack;\n\t\tuint defense;\t\t\n\t}\n\n\tTroop private predator = Troop(40,100);\n\tTroop private proximusCobra = Troop(200,200);\n\tTroop private bounty_hunters = Troop(150,50);\n\n\tuint constant MAX_ROUNDS = 3;\n\n\tuint constant PREDATOR_UNITS = 5;\n\tuint constant PROXIMUS_COBRA_UNITS = 2;\n\tuint constant BOUNTY_HUNTERS_UNITS = 3;\n\t\n\tuint constant STARTING_LIFE = 500;\n\n\tuint constant MAX_UNITS_FIRST_ROUND = 8;\n\tuint constant MAX_UNITS_SECOND_ROUND = 9;\n\tuint constant MAX_UNITS_THIRD_ROUND = 10;\n\n\t//Round N => Max units\n\tmapping(uint => uint) roundMaxUnits;\n\t\n\tuint constant FIRST_ROUND = 1;\n\tuint constant SECOND_ROUND = 2;\n\tuint constant THIRD_ROUND = 3;\n\n\tstruct BattleData {\n\t\taddress creator;\n\t\taddress opponent;\n\t\tuint currentRound;\n\t\taddress nextMove;\n\t\tBattleAmount amounts;\n\t\tuint creatorCityLife;\n\t\tuint opponentCityLife;\n\t\taddress winner;\n\t}\n\n\tstruct BattleAmount {\n\t\tuint predatorAttackingUnits;\n\t\tuint proximusAttackingUnits;\n\t\tuint bountyAttackingUnits;\n\t\tuint predatorDefendingUnits;\n\t\tuint proximusDefendingUnits;\n\t\tuint bountyDefendingUnits;\n\t}\n\n\t//BattleId => Round => Amount\n\tmapping (uint => mapping(uint => BattleAmount)) private roundsAmounts;\n\n\t//BattleId => Data\n\tmapping (uint => BattleData) private battle;\n\n\t//User => [battleId]\n\tmapping(address => EnumerableSet.UintSet) private userBattle;\n\n\tmapping(address => mapping(address => bool)) currentlyFighting;\n\t\t\t\n\tconstructor() {\n\t\troundMaxUnits[1] = MAX_UNITS_FIRST_ROUND;\t\t\n\t\troundMaxUnits[2] = MAX_UNITS_SECOND_ROUND;\t\t\n\t\troundMaxUnits[3] = MAX_UNITS_THIRD_ROUND;\t\t\n\t}\n\n\tfunction startBattle(address opponent, uint[3] calldata troopsAmount) external returns(uint){\n\t\trequire(!areCurrentlyFighting(msg.sender, opponent), \"Use requestBattle\");\n\t\trequire(troopsAmount[0] <= PREDATOR_UNITS,\"Exceeds Predators max\");\n\t\trequire(troopsAmount[1] <= PROXIMUS_COBRA_UNITS,\"Exceeds Proximus Cobra max\");\n\t\trequire(troopsAmount[2] <= BOUNTY_HUNTERS_UNITS,\"Exceeds Bounty Hunter max\");\n\t\n\t\tuint totalTroops = troopsAmount[0] + troopsAmount[1] + troopsAmount[2];\n\t\trequire(totalTroops <= roundMaxUnits[FIRST_ROUND],\"Too many troops!\");\n\n\t\t_battleIds.increment();\n\n\t\tBattleAmount memory amounts = BattleAmount(\n\t\t\t\t\t\t\t\t\t\t\ttroopsAmount[0], //predatorAttackingUnits\n\t\t\t\t\t\t\t\t\t\t\ttroopsAmount[1], //proximusAttackingUnits\n\t\t\t\t\t\t\t\t\t\t\ttroopsAmount[2], //bountyAttackingUnits\n\t\t\t\t\t\t\t\t\t\t\t0, //predatorDefendingUnits\n\t\t\t\t\t\t\t\t\t\t\t0, //proximusDefendingUnits\n\t\t\t\t\t\t\t\t\t\t\t0 //bountyDefendingUnits\n\t\t\t\t\t\t\t\t\t\t);\n\t\t\n\t\tBattleData memory data = BattleData(\n\t\t\tmsg.sender, //Creator\n\t\t\topponent, //Opponnent\n\t\t\tFIRST_ROUND, //currentRound\n\t\t\topponent, //NextMove\n\t\t\tamounts,\n\t\t\tSTARTING_LIFE, //creatorCityLife\n\t\t\tSTARTING_LIFE, //opponentCityLife\n\t\t\taddress(0) //Winner\n\t\t\t);\n\n\t\troundsAmounts[_battleIds.current()][FIRST_ROUND] = amounts;\n\t\tsetBattle(_battleIds.current(), data);\n\t\tuserBattle[msg.sender].add(_battleIds.current());\n\t\tuserBattle[opponent].add(_battleIds.current());\n\t\tcurrentlyFighting[msg.sender][opponent] = true;\n\t\temit RoundStarted(_battleIds.current(), data.currentRound);\n\n\t\treturn _battleIds.current();\n\t}\n\n\t//Troops amount for each type [predator, proximusCobra,bounty_hunters]\t\n\tfunction requestBattle(uint id, uint[3] calldata troopsAmount) external {\n\t\tvalidateBattleData(id, troopsAmount);\n\t\tBattleData memory data = getBattleData(id);\n\n\t\tBattleAmount memory amounts = BattleAmount(\n\t\t\t\t\t\t\t\t\tmsg.sender == data.creator ? troopsAmount[0] : data.amounts.predatorAttackingUnits, //predatorAttackingUnits\n\t\t\t\t\t\t\t\t\tmsg.sender == data.creator ? troopsAmount[1] : data.amounts.proximusAttackingUnits, //proximusAttackingUnits\n\t\t\t\t\t\t\t\t\tmsg.sender == data.creator ? troopsAmount[2] : data.amounts.bountyAttackingUnits, //bountyAttackingUnits\n\t\t\t\t\t\t\t\t\tmsg.sender == data.opponent ? troopsAmount[0] : data.amounts.predatorDefendingUnits, //predatorDefendingUnits\n\t\t\t\t\t\t\t\t\tmsg.sender == data.opponent ? troopsAmount[1] : data.amounts.proximusDefendingUnits, //proximusDefendingUnits\n\t\t\t\t\t\t\t\t\tmsg.sender == data.opponent ? troopsAmount[2] : data.amounts.bountyDefendingUnits //bountyDefendingUnits\n\t\t\t\t\t\t\t\t\t);\n\t\t\n\t\tdata = BattleData(\n\t\t\tdata.creator,\n\t\t\tdata.opponent,\n\t\t\tdata.currentRound, //currentRound\n\t\t\tdata.nextMove, //NextMove\n\t\t\tamounts,\n\t\t\tdata.creatorCityLife, //creatorCityLife\n\t\t\tdata.opponentCityLife, //opponentCityLife\n\t\t\taddress(0) //winner\n\t\t\t);\n\n\t\tif (didBothPlayersMoved(data)){\n\t\t\troundsAmounts[id][data.currentRound] = amounts;\n\t\t\tresolveRound(id, data);\n\t\t}else{\n\t\t\tdata.nextMove = data.nextMove == data.creator ? data.opponent : data.creator;\n\t\t\troundsAmounts[id][data.currentRound] = amounts;\n\t\t\tsetBattle(id, data);\n\t\t\temit RoundStarted(id, data.currentRound);\n\t\t}\n\t}\n\n\tfunction didBothPlayersMoved(BattleData memory data) internal pure returns(bool){\n\t\treturn data.amounts.predatorAttackingUnits + data.amounts.proximusAttackingUnits + data.amounts.bountyAttackingUnits > 0 &&\n\tdata.amounts.predatorDefendingUnits + data.amounts.proximusDefendingUnits + data.amounts.bountyDefendingUnits > 0;\n\t}\n\n\tfunction validateBattleData(uint id,uint[3] calldata troopsAmount) internal view{\n\t\trequire(id <= _battleIds.current(),\"Battle id doesn't exist\");\n\t\tBattleData memory data = getBattleData(id);\n\t\trequire(msg.sender == data.creator || msg.sender == data.opponent,\"Can't request this battle\");\n\t\trequire(data.nextMove == msg.sender,\"Not your turn!\");\n\t\trequire(troopsAmount[0] <= PREDATOR_UNITS,\"Exceeds Predators max\");\n\t\trequire(troopsAmount[1] <= PROXIMUS_COBRA_UNITS,\"Exceeds Proximus Cobra max\");\n\t\trequire(troopsAmount[2] <= BOUNTY_HUNTERS_UNITS,\"Exceeds Bounty Hunter max\");\n\t\t\n\t\tuint currentRound = data.currentRound;\n\t\tuint totalTroops = troopsAmount[0] + troopsAmount[1] + troopsAmount[2];\n\n\t\trequire(totalTroops <= roundMaxUnits[currentRound],\"Too many troops!\");\n\t\trequire(totalTroops > 0,\"Must send troops!\");\n\t}\n\n\tfunction resolveRound (uint id, BattleData memory data) internal {\t\t\n\t\tuint creatorCurrentCityLife = data.creatorCityLife;\n\t\tuint opponentCurrentCityLife = data.opponentCityLife;\n\t\t//Creator\n\t\tuint creatorTotalAttack = data.amounts.predatorAttackingUnits * predator.attack + data.amounts.proximusAttackingUnits * proximusCobra.attack + data.amounts.bountyAttackingUnits * bounty_hunters.attack;\n\t\tuint creatorTotalDefense = data.amounts.predatorAttackingUnits * predator.defense + data.amounts.proximusAttackingUnits * proximusCobra.defense + data.amounts.bountyAttackingUnits * bounty_hunters.defense;\n\t\t//Opponent\n\t\tuint opponentTotalAttack = data.amounts.predatorDefendingUnits * predator.attack + data.amounts.proximusDefendingUnits * proximusCobra.attack + data.amounts.bountyDefendingUnits * bounty_hunters.attack;\n\t\tuint opponentTotalDefense = data.amounts.predatorDefendingUnits * predator.defense + data.amounts.proximusDefendingUnits * proximusCobra.defense + data.amounts.bountyDefendingUnits * bounty_hunters.defense;\n\n\t\tBattleAmount memory amounts = BattleAmount(\n\t\t\t\t\t\t\t\t0, //predatorAttackingUnits\n\t\t\t\t\t\t\t\t0, //proximusAttackingUnits\n\t\t\t\t\t\t\t\t0, //bountyAttackingUnits\n\t\t\t\t\t\t\t\t0, //predatorDefendingUnits\n\t\t\t\t\t\t\t\t0, //proximusDefendingUnits\n\t\t\t\t\t\t\t\t0 //bountyDefendingUnits\n\t\t\t\t\t\t\t);\n\t\tBattleData memory newData = BattleData(\n\t\t\tdata.creator,\n\t\t\tdata.opponent,\n\t\t\tdata.currentRound, //currentRound\n\t\t\tdata.nextMove,\n\t\t\tamounts,\n\t\t\tgetRemainingLife(creatorCurrentCityLife, getTotalDamage(opponentTotalAttack, creatorTotalDefense)), //creatorCityLife\n\t\t\tgetRemainingLife(opponentCurrentCityLife, getTotalDamage(creatorTotalAttack, opponentTotalDefense)), //opponentCityLife\n\t\t\taddress(0) //Winner\n\t\t);\n\t\t\n\t\tif (data.currentRound == THIRD_ROUND){\n\t\t\taddress winner = newData.creatorCityLife >= newData.opponentCityLife ? data.creator : data.opponent;\n\t\t\tnewData.currentRound = 0;\n\t\t\tnewData.nextMove = address(0);\n\t\t\tnewData.winner = winner;\n\t\t\tcurrentlyFighting[data.creator][data.opponent] = false;\n\t\t\tsetBattle(id, newData);\n\t\t\temit RoundFinished(id, data.currentRound);\n\t\t\temit BattleFinished(id, winner, winner == data.creator ? newData.creatorCityLife : newData.opponentCityLife, winner == data.opponent ? newData.creatorCityLife : newData.opponentCityLife);\n\t\t}else{\n\t\t\tnewData.currentRound = data.currentRound + 1;\n\t\t\t\n\t\t\tsetBattle(id, newData);\n\t\t\temit RoundFinished(id, data.currentRound);\t\t\t\t\n\t\t}\n\n\t}\n\t\n\tfunction getTotalDamage(uint attack, uint defense) internal pure returns(uint){\n\t\treturn attack > defense ? attack - defense : 0;\n\t}\n\t\n\tfunction getRemainingLife(uint currentLife, uint damage) internal pure returns(uint){\n\t\treturn currentLife > damage ? currentLife - damage : 0;\n\t}\n\n\tfunction getBattleData(uint id) internal view returns(BattleData memory){\n\t\treturn battle[id];\n\t}\n\n\tstruct PublicBattleData {\n\t\taddress creator;\n\t\taddress opponent;\n\t\tuint currentRound;\n\t\taddress nextMove;\n\t\tuint predatorUnits;\n\t\tuint proximusUnits;\n\t\tuint bountyUnits;\n\t\tuint cityLife;\n\t\taddress winner;\n\t}\n\n\tfunction getPublicBattleData(uint id) external view returns(PublicBattleData memory data){\n\t\trequire(id <= _battleIds.current(),\"Battle id doesn't exist\");\n\t\tBattleData memory battleData = battle[id];\n\t\trequire(msg.sender == battleData.creator || msg.sender == battleData.opponent ,\"Unauthorized\");\n\n\t\tdata.creator = battleData.creator;\n\t\tdata.opponent = battleData.opponent;\n\t\tdata.currentRound = battleData.currentRound;\n\t\tdata.nextMove = battleData.nextMove;\n\t\tdata.predatorUnits = msg.sender == data.creator ? battleData.amounts.predatorAttackingUnits : battleData.amounts.predatorDefendingUnits;\n\t\tdata.proximusUnits = msg.sender == data.creator ? battleData.amounts.proximusAttackingUnits : battleData.amounts.proximusDefendingUnits;\n\t\tdata.bountyUnits = msg.sender == data.creator ? battleData.amounts.bountyAttackingUnits : battleData.amounts.bountyDefendingUnits;\n\t\tdata.cityLife = msg.sender == data.creator ? battleData.creatorCityLife : battleData.opponentCityLife;\n\t\tdata.winner = battleData.winner;\n\n\t\treturn data;\n\t}\n\n\tstruct PublicHistoricBattleData {\n\t\taddress creator;\n\t\taddress opponent;\t\t\n\t\tBattleAmount[3] amounts;\t\t\n\t\taddress winner;\n\t}\n\n\tfunction getPublicHistoricBattleData(uint id) external view returns(PublicHistoricBattleData memory data){\n\t\trequire(id <= _battleIds.current(),\"Battle id doesn't exist\");\n\t\tBattleData memory battleData = battle[id];\n\t\trequire(msg.sender == battleData.creator || msg.sender == battleData.opponent ,\"Unauthorized\");\n\t\trequire(battleData.winner != address(0),\"Only ended matches\");\n\n\t\tBattleAmount[3] memory amounts;\n\n\t\tfor (uint i; i < 3; i++){\n\t\t\tamounts[i] = roundsAmounts[id][i+1];\t\t\n\t\t}\t\t\n\n\t\tdata.creator = battleData.creator;\n\t\tdata.opponent = battleData.opponent;\n\t\tdata.amounts = amounts;\n\t\tdata.winner = battleData.winner;\n\n\t\treturn data;\n\t}\n\n\tfunction setBattle(uint id,BattleData memory data) internal{\n\t\tbattle[id] = data;\n\t}\n\n\tstruct BattleDataResponse {\n\t\tuint battleId;\n\t\taddress creator;\n\t\taddress opponent;\n\t\tuint currentRound;\n\t\taddress nextMove;\n\t\taddress winner;\n\t}\n\n\tfunction getUserBattleData(address user, uint limit, uint offset) external view returns(BattleDataResponse[] memory){\n\t\trequire(limit <= 100, \"Can't request too many records!\");\n\t\tEnumerableSet.UintSet storage _ids = userBattle[user];\n\t\tuint battleCount = _ids.length() <= 100 ? _ids.length() : 100;\n\t\tuint queryLimit = (battleCount > limit && limit != 0 ? limit : battleCount);\n\t\tuint responseIndex;\n\t\tBattleDataResponse[]memory response = new BattleDataResponse[](queryLimit);\n\t\tfor (uint i = offset; i < queryLimit; i++){\n\t\t\tuint id = userBattle[user].at(i);\n\t\t\tBattleData memory data = battle[id];\n\t\t\tresponse[responseIndex] = (\n\t\t\t\tBattleDataResponse(\n\t\t\t\t\tid,\n\t\t\t\t\tdata.creator,\n\t\t\t\t\tdata.opponent,\n\t\t\t\t\tdata.currentRound,\n\t\t\t\t\tdata.nextMove,\n\t\t\t\t\tdata.winner\n\t\t\t\t)\n\t\t\t);\n\t\t\tresponseIndex++;\n\t\t}\n\n\t\treturn response;\n\t}\n\t\n\tfunction areCurrentlyFighting(address creator, address opponent) internal view returns(bool){\n\t\treturn currentlyFighting[creator][opponent];\n\t}\n\n\tfunction getUserBattleCount(address user) external view returns(uint){\n\t\treturn userBattle[user].length();\n\t}\n\n}",
  "sourcePath": "/Users/glenci/EternovaQuickBattles/contracts/EternovaQuickBattles.sol",
  "compiler": {
    "name": "solc",
    "version": "0.8.17+commit.8df45f5f.Emscripten.clang"
  },
  "schemaVersion": "3.4.10",
  "updatedAt": "2023-09-19T07:33:04.230Z",
  "networkType": "ethereum",
  "devdoc": {
    "kind": "dev",
    "methods": {
      "owner()": {
        "details": "Returns the address of the current owner."
      },
      "renounceOwnership()": {
        "details": "Leaves the contract without owner. It will not be possible to call `onlyOwner` functions. Can only be called by the current owner. NOTE: Renouncing ownership will leave the contract without an owner, thereby disabling any functionality that is only available to the owner."
      },
      "transferOwnership(address)": {
        "details": "Transfers ownership of the contract to a new account (`newOwner`). Can only be called by the current owner."
      }
    },
    "version": 1
  },
  "userdoc": {
    "kind": "user",
    "methods": {},
    "version": 1
  }
}