{
  "contractName": "EternovaQuickBattles",
  "abi": [
    {
      "inputs": [],
      "stateMutability": "nonpayable",
      "type": "constructor"
    },
    {
      "anonymous": false,
      "inputs": [
        {
          "indexed": false,
          "internalType": "uint256",
          "name": "id",
          "type": "uint256"
        },
        {
          "indexed": true,
          "internalType": "address",
          "name": "winner",
          "type": "address"
        },
        {
          "indexed": false,
          "internalType": "uint256",
          "name": "winnerCityLife",
          "type": "uint256"
        },
        {
          "indexed": false,
          "internalType": "uint256",
          "name": "looserCityLife",
          "type": "uint256"
        }
      ],
      "name": "BattleFinished",
      "type": "event"
    },
    {
      "anonymous": false,
      "inputs": [
        {
          "indexed": true,
          "internalType": "uint256",
          "name": "id",
          "type": "uint256"
        },
        {
          "indexed": true,
          "internalType": "address",
          "name": "creator",
          "type": "address"
        },
        {
          "indexed": true,
          "internalType": "address",
          "name": "opponent",
          "type": "address"
        }
      ],
      "name": "BattleStarted",
      "type": "event"
    },
    {
      "anonymous": false,
      "inputs": [
        {
          "indexed": true,
          "internalType": "address",
          "name": "previousOwner",
          "type": "address"
        },
        {
          "indexed": true,
          "internalType": "address",
          "name": "newOwner",
          "type": "address"
        }
      ],
      "name": "OwnershipTransferred",
      "type": "event"
    },
    {
      "anonymous": false,
      "inputs": [
        {
          "indexed": true,
          "internalType": "uint256",
          "name": "id",
          "type": "uint256"
        },
        {
          "indexed": false,
          "internalType": "uint256",
          "name": "currentRound",
          "type": "uint256"
        }
      ],
      "name": "RoundFinished",
      "type": "event"
    },
    {
      "anonymous": false,
      "inputs": [
        {
          "indexed": true,
          "internalType": "uint256",
          "name": "id",
          "type": "uint256"
        },
        {
          "indexed": false,
          "internalType": "uint256",
          "name": "currentRound",
          "type": "uint256"
        }
      ],
      "name": "RoundStarted",
      "type": "event"
    },
    {
      "inputs": [],
      "name": "owner",
      "outputs": [
        {
          "internalType": "address",
          "name": "",
          "type": "address"
        }
      ],
      "stateMutability": "view",
      "type": "function",
      "constant": true
    },
    {
      "inputs": [],
      "name": "renounceOwnership",
      "outputs": [],
      "stateMutability": "nonpayable",
      "type": "function"
    },
    {
      "inputs": [
        {
          "internalType": "address",
          "name": "newOwner",
          "type": "address"
        }
      ],
      "name": "transferOwnership",
      "outputs": [],
      "stateMutability": "nonpayable",
      "type": "function"
    },
    {
      "inputs": [
        {
          "internalType": "address",
          "name": "opponent",
          "type": "address"
        },
        {
          "internalType": "uint256[3]",
          "name": "troopsAmount",
          "type": "uint256[3]"
        }
      ],
      "name": "startBattle",
      "outputs": [
        {
          "internalType": "uint256",
          "name": "",
          "type": "uint256"
        }
      ],
      "stateMutability": "nonpayable",
      "type": "function"
    },
    {
      "inputs": [
        {
          "internalType": "uint256",
          "name": "id",
          "type": "uint256"
        },
        {
          "internalType": "uint256[3]",
          "name": "troopsAmount",
          "type": "uint256[3]"
        }
      ],
      "name": "requestBattle",
      "outputs": [],
      "stateMutability": "nonpayable",
      "type": "function"
    },
    {
      "inputs": [
        {
          "internalType": "uint256",
          "name": "id",
          "type": "uint256"
        }
      ],
      "name": "getPublicBattleData",
      "outputs": [
        {
          "components": [
            {
              "internalType": "address",
              "name": "creator",
              "type": "address"
            },
            {
              "internalType": "address",
              "name": "opponent",
              "type": "address"
            },
            {
              "internalType": "uint256",
              "name": "currentRound",
              "type": "uint256"
            },
            {
              "internalType": "address",
              "name": "nextMove",
              "type": "address"
            },
            {
              "internalType": "uint256",
              "name": "predatorUnits",
              "type": "uint256"
            },
            {
              "internalType": "uint256",
              "name": "proximusUnits",
              "type": "uint256"
            },
            {
              "internalType": "uint256",
              "name": "bountyUnits",
              "type": "uint256"
            },
            {
              "internalType": "uint256",
              "name": "cityLife",
              "type": "uint256"
            },
            {
              "internalType": "address",
              "name": "winner",
              "type": "address"
            }
          ],
          "internalType": "struct EternovaQuickBattles.PublicBattleData",
          "name": "data",
          "type": "tuple"
        }
      ],
      "stateMutability": "view",
      "type": "function",
      "constant": true
    },
    {
      "inputs": [
        {
          "internalType": "address",
          "name": "user",
          "type": "address"
        },
        {
          "internalType": "uint256",
          "name": "limit",
          "type": "uint256"
        },
        {
          "internalType": "uint256",
          "name": "offset",
          "type": "uint256"
        }
      ],
      "name": "getUserBattleData",
      "outputs": [
        {
          "components": [
            {
              "internalType": "uint256",
              "name": "battleId",
              "type": "uint256"
            },
            {
              "internalType": "address",
              "name": "creator",
              "type": "address"
            },
            {
              "internalType": "address",
              "name": "opponent",
              "type": "address"
            },
            {
              "internalType": "uint256",
              "name": "currentRound",
              "type": "uint256"
            },
            {
              "internalType": "address",
              "name": "nextMove",
              "type": "address"
            },
            {
              "internalType": "address",
              "name": "winner",
              "type": "address"
            }
          ],
          "internalType": "struct EternovaQuickBattles.BattleDataResponse[]",
          "name": "",
          "type": "tuple[]"
        }
      ],
      "stateMutability": "view",
      "type": "function",
      "constant": true
    },
    {
      "inputs": [
        {
          "internalType": "address",
          "name": "user",
          "type": "address"
        }
      ],
      "name": "getUserBattleCount",
      "outputs": [
        {
          "internalType": "uint256",
          "name": "",
          "type": "uint256"
        }
      ],
      "stateMutability": "view",
      "type": "function",
      "constant": true
    }
  ],
  "bytecode": "0x60806040526040518060400160405280602881526020016064815250600260008201518160000155602082015181600101555050604051806040016040528060c8815260200160c881525060046000820151816000015560208201518160010155505060405180604001604052806096815260200160328152506006600082015181600001556020820151816001015550503480156200009e57600080fd5b50620000bf620000b36200011260201b60201c565b6200011a60201b60201c565b600880600060018152602001908152602001600020819055506009600860006002815260200190815260200160002081905550600a600860006003815260200190815260200160002081905550620001de565b600033905090565b60008060009054906101000a900473ffffffffffffffffffffffffffffffffffffffff169050816000806101000a81548173ffffffffffffffffffffffffffffffffffffffff021916908373ffffffffffffffffffffffffffffffffffffffff1602179055508173ffffffffffffffffffffffffffffffffffffffff168173ffffffffffffffffffffffffffffffffffffffff167f8be0079c531659141344cd1fd0a4f28419497f9722a3daafe3b4186f6b6457e060405160405180910390a35050565b6132c080620001ee6000396000f3fe608060405234801561001057600080fd5b50600436106100885760003560e01c806394a8142d1161005b57806394a8142d146101155780639c80043814610145578063a5e94e9814610175578063f2fde38b1461019157610088565b8063141dfa791461008d578063553bff08146100bd578063715018a6146100ed5780638da5cb5b146100f7575b600080fd5b6100a760048036038101906100a2919061273c565b6101ad565b6040516100b491906128d7565b60405180910390f35b6100d760048036038101906100d291906128f9565b6105f8565b6040516100e49190612935565b60405180910390f35b6100f5610648565b005b6100ff61065c565b60405161010c919061295f565b60405180910390f35b61012f600480360381019061012a919061297a565b610685565b60405161013c9190612a5e565b60405180910390f35b61015f600480360381019061015a9190612aa1565b610ba4565b60405161016c9190612935565b60405180910390f35b61018f600480360381019061018a9190612ae1565b611029565b005b6101ab60048036038101906101a691906128f9565b611416565b005b606060648311156101f3576040517f08c379a00000000000000000000000000000000000000000000000000000000081526004016101ea90612b7e565b60405180910390fd5b6000600a60008673ffffffffffffffffffffffffffffffffffffffff1673ffffffffffffffffffffffffffffffffffffffff16815260200190815260200160002090506000606461024383611499565b111561025057606461025a565b61025982611499565b5b90506000858211801561026e575060008614155b610278578161027a565b855b90506000808267ffffffffffffffff81111561029957610298612b9e565b5b6040519080825280602002602001820160405280156102d257816020015b6102bf6124b1565b8152602001906001900390816102b75790505b50905060008790505b838110156105e857600061033682600a60008e73ffffffffffffffffffffffffffffffffffffffff1673ffffffffffffffffffffffffffffffffffffffff1681526020019081526020016000206114ae90919063ffffffff16565b9050600060096000838152602001908152602001600020604051806101a00160405290816000820160009054906101000a900473ffffffffffffffffffffffffffffffffffffffff1673ffffffffffffffffffffffffffffffffffffffff1673ffffffffffffffffffffffffffffffffffffffff1681526020016001820160009054906101000a900473ffffffffffffffffffffffffffffffffffffffff1673ffffffffffffffffffffffffffffffffffffffff1673ffffffffffffffffffffffffffffffffffffffff168152602001600282015481526020016003820160009054906101000a900473ffffffffffffffffffffffffffffffffffffffff1673ffffffffffffffffffffffffffffffffffffffff1673ffffffffffffffffffffffffffffffffffffffff168152602001600482015481526020016005820154815260200160068201548152602001600782015481526020016008820154815260200160098201548152602001600a8201548152602001600b8201548152602001600c820160009054906101000a900473ffffffffffffffffffffffffffffffffffffffff1673ffffffffffffffffffffffffffffffffffffffff1673ffffffffffffffffffffffffffffffffffffffff168152505090506040518060c00160405280838152602001826000015173ffffffffffffffffffffffffffffffffffffffff168152602001826020015173ffffffffffffffffffffffffffffffffffffffff16815260200182604001518152602001826060015173ffffffffffffffffffffffffffffffffffffffff16815260200182610180015173ffffffffffffffffffffffffffffffffffffffff168152508486815181106105ba576105b9612bcd565b5b602002602001018190525084806105d090612c2b565b955050505080806105e090612c2b565b9150506102db565b5080955050505050509392505050565b6000610641600a60008473ffffffffffffffffffffffffffffffffffffffff1673ffffffffffffffffffffffffffffffffffffffff168152602001908152602001600020611499565b9050919050565b6106506114c8565b61065a6000611546565b565b60008060009054906101000a900473ffffffffffffffffffffffffffffffffffffffff16905090565b61068d61253f565b610697600161160a565b8211156106d9576040517f08c379a00000000000000000000000000000000000000000000000000000000081526004016106d090612cbf565b60405180910390fd5b600060096000848152602001908152602001600020604051806101a00160405290816000820160009054906101000a900473ffffffffffffffffffffffffffffffffffffffff1673ffffffffffffffffffffffffffffffffffffffff1673ffffffffffffffffffffffffffffffffffffffff1681526020016001820160009054906101000a900473ffffffffffffffffffffffffffffffffffffffff1673ffffffffffffffffffffffffffffffffffffffff1673ffffffffffffffffffffffffffffffffffffffff168152602001600282015481526020016003820160009054906101000a900473ffffffffffffffffffffffffffffffffffffffff1673ffffffffffffffffffffffffffffffffffffffff1673ffffffffffffffffffffffffffffffffffffffff168152602001600482015481526020016005820154815260200160068201548152602001600782015481526020016008820154815260200160098201548152602001600a8201548152602001600b8201548152602001600c820160009054906101000a900473ffffffffffffffffffffffffffffffffffffffff1673ffffffffffffffffffffffffffffffffffffffff1673ffffffffffffffffffffffffffffffffffffffff16815250509050806000015173ffffffffffffffffffffffffffffffffffffffff163373ffffffffffffffffffffffffffffffffffffffff16148061091b5750806020015173ffffffffffffffffffffffffffffffffffffffff163373ffffffffffffffffffffffffffffffffffffffff16145b61095a576040517f08c379a000000000000000000000000000000000000000000000000000000000815260040161095190612d2b565b60405180910390fd5b8060000151826000019073ffffffffffffffffffffffffffffffffffffffff16908173ffffffffffffffffffffffffffffffffffffffff16815250508060200151826020019073ffffffffffffffffffffffffffffffffffffffff16908173ffffffffffffffffffffffffffffffffffffffff168152505080604001518260400181815250508060600151826060019073ffffffffffffffffffffffffffffffffffffffff16908173ffffffffffffffffffffffffffffffffffffffff1681525050816000015173ffffffffffffffffffffffffffffffffffffffff163373ffffffffffffffffffffffffffffffffffffffff1614610a5d578060e00151610a63565b80608001515b826080018181525050816000015173ffffffffffffffffffffffffffffffffffffffff163373ffffffffffffffffffffffffffffffffffffffff1614610aae57806101000151610ab4565b8060a001515b8260a0018181525050816000015173ffffffffffffffffffffffffffffffffffffffff163373ffffffffffffffffffffffffffffffffffffffff1614610aff57806101200151610b05565b8060c001515b8260c0018181525050816000015173ffffffffffffffffffffffffffffffffffffffff163373ffffffffffffffffffffffffffffffffffffffff1614610b5057806101600151610b57565b8061014001515b8260e001818152505080610180015182610100019073ffffffffffffffffffffffffffffffffffffffff16908173ffffffffffffffffffffffffffffffffffffffff168152505050919050565b6000610bb03384611618565b15610bf0576040517f08c379a0000000000000000000000000000000000000000000000000000000008152600401610be790612d97565b60405180910390fd5b600582600060038110610c0657610c05612bcd565b5b60200201351115610c4c576040517f08c379a0000000000000000000000000000000000000000000000000000000008152600401610c4390612e03565b60405180910390fd5b600282600160038110610c6257610c61612bcd565b5b60200201351115610ca8576040517f08c379a0000000000000000000000000000000000000000000000000000000008152600401610c9f90612e6f565b60405180910390fd5b600382600260038110610cbe57610cbd612bcd565b5b60200201351115610d04576040517f08c379a0000000000000000000000000000000000000000000000000000000008152600401610cfb90612edb565b60405180910390fd5b600082600260038110610d1a57610d19612bcd565b5b602002013583600160038110610d3357610d32612bcd565b5b602002013584600060038110610d4c57610d4b612bcd565b5b6020020135610d5b9190612efb565b610d659190612efb565b9050600860006001815260200190815260200160002054811115610dbe576040517f08c379a0000000000000000000000000000000000000000000000000000000008152600401610db590612f7b565b60405180910390fd5b610dc860016116ac565b6000604051806101a001604052803373ffffffffffffffffffffffffffffffffffffffff1681526020018673ffffffffffffffffffffffffffffffffffffffff168152602001600181526020018673ffffffffffffffffffffffffffffffffffffffff16815260200185600060038110610e4557610e44612bcd565b5b6020020135815260200185600160038110610e6357610e62612bcd565b5b6020020135815260200185600260038110610e8157610e80612bcd565b5b602002013581526020016000815260200160008152602001600081526020016101f481526020016101f48152602001600073ffffffffffffffffffffffffffffffffffffffff168152509050610ee0610eda600161160a565b826116c2565b610f3a610eed600161160a565b600a60003373ffffffffffffffffffffffffffffffffffffffff1673ffffffffffffffffffffffffffffffffffffffff16815260200190815260200160002061185890919063ffffffff16565b506001600b60003373ffffffffffffffffffffffffffffffffffffffff1673ffffffffffffffffffffffffffffffffffffffff16815260200190815260200160002060008773ffffffffffffffffffffffffffffffffffffffff1673ffffffffffffffffffffffffffffffffffffffff16815260200190815260200160002060006101000a81548160ff021916908315150217905550610fda600161160a565b7f278844837bcf8364a705384bf3a2812901f54155bae86dea81dd52aa5b9ec0e3826040015160405161100d9190612935565b60405180910390a261101f600161160a565b9250505092915050565b6110338282611872565b600061103e83611c09565b9050604051806101a00160405280826000015173ffffffffffffffffffffffffffffffffffffffff168152602001826020015173ffffffffffffffffffffffffffffffffffffffff16815260200182604001518152602001826060015173ffffffffffffffffffffffffffffffffffffffff168152602001826000015173ffffffffffffffffffffffffffffffffffffffff163373ffffffffffffffffffffffffffffffffffffffff16146110f7578260800151611111565b8360006003811061110b5761110a612bcd565b5b60200201355b8152602001826000015173ffffffffffffffffffffffffffffffffffffffff163373ffffffffffffffffffffffffffffffffffffffff1614611157578260a00151611171565b8360016003811061116b5761116a612bcd565b5b60200201355b8152602001826000015173ffffffffffffffffffffffffffffffffffffffff163373ffffffffffffffffffffffffffffffffffffffff16146111b7578260c001516111d1565b836002600381106111cb576111ca612bcd565b5b60200201355b8152602001826020015173ffffffffffffffffffffffffffffffffffffffff163373ffffffffffffffffffffffffffffffffffffffff1614611217578260e00151611231565b8360006003811061122b5761122a612bcd565b5b60200201355b8152602001826020015173ffffffffffffffffffffffffffffffffffffffff163373ffffffffffffffffffffffffffffffffffffffff161461127857826101000151611292565b8360016003811061128c5761128b612bcd565b5b60200201355b8152602001826020015173ffffffffffffffffffffffffffffffffffffffff163373ffffffffffffffffffffffffffffffffffffffff16146112d9578261012001516112f3565b836002600381106112ed576112ec612bcd565b5b60200201355b815260200182610140015181526020018261016001518152602001600073ffffffffffffffffffffffffffffffffffffffff16815250905061133481611de9565b15611348576113438382611e47565b611411565b806000015173ffffffffffffffffffffffffffffffffffffffff16816060015173ffffffffffffffffffffffffffffffffffffffff161461138d578060000151611393565b80602001515b816060019073ffffffffffffffffffffffffffffffffffffffff16908173ffffffffffffffffffffffffffffffffffffffff16815250506113d483826116c2565b827f278844837bcf8364a705384bf3a2812901f54155bae86dea81dd52aa5b9ec0e382604001516040516114089190612935565b60405180910390a25b505050565b61141e6114c8565b600073ffffffffffffffffffffffffffffffffffffffff168173ffffffffffffffffffffffffffffffffffffffff160361148d576040517f08c379a00000000000000000000000000000000000000000000000000000000081526004016114849061300d565b60405180910390fd5b61149681611546565b50565b60006114a782600001612390565b9050919050565b60006114bd83600001836123a1565b60001c905092915050565b6114d06123cc565b73ffffffffffffffffffffffffffffffffffffffff166114ee61065c565b73ffffffffffffffffffffffffffffffffffffffff1614611544576040517f08c379a000000000000000000000000000000000000000000000000000000000815260040161153b90613079565b60405180910390fd5b565b60008060009054906101000a900473ffffffffffffffffffffffffffffffffffffffff169050816000806101000a81548173ffffffffffffffffffffffffffffffffffffffff021916908373ffffffffffffffffffffffffffffffffffffffff1602179055508173ffffffffffffffffffffffffffffffffffffffff168173ffffffffffffffffffffffffffffffffffffffff167f8be0079c531659141344cd1fd0a4f28419497f9722a3daafe3b4186f6b6457e060405160405180910390a35050565b600081600001549050919050565b6000600b60008473ffffffffffffffffffffffffffffffffffffffff1673ffffffffffffffffffffffffffffffffffffffff16815260200190815260200160002060008373ffffffffffffffffffffffffffffffffffffffff1673ffffffffffffffffffffffffffffffffffffffff16815260200190815260200160002060009054906101000a900460ff16905092915050565b6001816000016000828254019250508190555050565b806009600084815260200190815260200160002060008201518160000160006101000a81548173ffffffffffffffffffffffffffffffffffffffff021916908373ffffffffffffffffffffffffffffffffffffffff16021790555060208201518160010160006101000a81548173ffffffffffffffffffffffffffffffffffffffff021916908373ffffffffffffffffffffffffffffffffffffffff1602179055506040820151816002015560608201518160030160006101000a81548173ffffffffffffffffffffffffffffffffffffffff021916908373ffffffffffffffffffffffffffffffffffffffff1602179055506080820151816004015560a0820151816005015560c0820151816006015560e082015181600701556101008201518160080155610120820151816009015561014082015181600a015561016082015181600b015561018082015181600c0160006101000a81548173ffffffffffffffffffffffffffffffffffffffff021916908373ffffffffffffffffffffffffffffffffffffffff1602179055509050505050565b600061186a836000018360001b6123d4565b905092915050565b61187c600161160a565b8211156118be576040517f08c379a00000000000000000000000000000000000000000000000000000000081526004016118b590612cbf565b60405180910390fd5b60006118c983611c09565b9050806000015173ffffffffffffffffffffffffffffffffffffffff163373ffffffffffffffffffffffffffffffffffffffff1614806119385750806020015173ffffffffffffffffffffffffffffffffffffffff163373ffffffffffffffffffffffffffffffffffffffff16145b611977576040517f08c379a000000000000000000000000000000000000000000000000000000000815260040161196e906130e5565b60405180910390fd5b3373ffffffffffffffffffffffffffffffffffffffff16816060015173ffffffffffffffffffffffffffffffffffffffff16146119e9576040517f08c379a00000000000000000000000000000000000000000000000000000000081526004016119e090613151565b60405180910390fd5b6005826000600381106119ff576119fe612bcd565b5b60200201351115611a45576040517f08c379a0000000000000000000000000000000000000000000000000000000008152600401611a3c90612e03565b60405180910390fd5b600282600160038110611a5b57611a5a612bcd565b5b60200201351115611aa1576040517f08c379a0000000000000000000000000000000000000000000000000000000008152600401611a9890612e6f565b60405180910390fd5b600382600260038110611ab757611ab6612bcd565b5b60200201351115611afd576040517f08c379a0000000000000000000000000000000000000000000000000000000008152600401611af490612edb565b60405180910390fd5b600081604001519050600083600260038110611b1c57611b1b612bcd565b5b602002013584600160038110611b3557611b34612bcd565b5b602002013585600060038110611b4e57611b4d612bcd565b5b6020020135611b5d9190612efb565b611b679190612efb565b90506008600083815260200190815260200160002054811115611bbf576040517f08c379a0000000000000000000000000000000000000000000000000000000008152600401611bb690612f7b565b60405180910390fd5b60008111611c02576040517f08c379a0000000000000000000000000000000000000000000000000000000008152600401611bf9906131bd565b60405180910390fd5b5050505050565b611c116125e3565b60096000838152602001908152602001600020604051806101a00160405290816000820160009054906101000a900473ffffffffffffffffffffffffffffffffffffffff1673ffffffffffffffffffffffffffffffffffffffff1673ffffffffffffffffffffffffffffffffffffffff1681526020016001820160009054906101000a900473ffffffffffffffffffffffffffffffffffffffff1673ffffffffffffffffffffffffffffffffffffffff1673ffffffffffffffffffffffffffffffffffffffff168152602001600282015481526020016003820160009054906101000a900473ffffffffffffffffffffffffffffffffffffffff1673ffffffffffffffffffffffffffffffffffffffff1673ffffffffffffffffffffffffffffffffffffffff168152602001600482015481526020016005820154815260200160068201548152602001600782015481526020016008820154815260200160098201548152602001600a8201548152602001600b8201548152602001600c820160009054906101000a900473ffffffffffffffffffffffffffffffffffffffff1673ffffffffffffffffffffffffffffffffffffffff1673ffffffffffffffffffffffffffffffffffffffff16815250509050919050565b6000808260c001518360a001518460800151611e059190612efb565b611e0f9190612efb565b118015611e40575060008261012001518361010001518460e00151611e349190612efb565b611e3e9190612efb565b115b9050919050565b600081610140015190506000826101600151905060006006600001548460c00151611e7291906131dd565b6004600001548560a00151611e8791906131dd565b6002600001548660800151611e9c91906131dd565b611ea69190612efb565b611eb09190612efb565b905060006006600101548560c00151611ec991906131dd565b6004600101548660a00151611ede91906131dd565b6002600101548760800151611ef391906131dd565b611efd9190612efb565b611f079190612efb565b90506000600660000154866101200151611f2191906131dd565b600460000154876101000151611f3791906131dd565b6002600001548860e00151611f4c91906131dd565b611f569190612efb565b611f609190612efb565b90506000600660010154876101200151611f7a91906131dd565b600460010154886101000151611f9091906131dd565b6002600101548960e00151611fa591906131dd565b611faf9190612efb565b611fb99190612efb565b90506000604051806101a00160405280896000015173ffffffffffffffffffffffffffffffffffffffff168152602001896020015173ffffffffffffffffffffffffffffffffffffffff16815260200189604001518152602001896060015173ffffffffffffffffffffffffffffffffffffffff1681526020016000815260200160008152602001600081526020016000815260200160008152602001600081526020016120708961206b8789612444565b612469565b8152602001612088886120838987612444565b612469565b8152602001600073ffffffffffffffffffffffffffffffffffffffff168152509050600388604001510361232457600081610160015182610140015110156120d45788602001516120da565b88600001515b905060008260400181815250506000826060019073ffffffffffffffffffffffffffffffffffffffff16908173ffffffffffffffffffffffffffffffffffffffff16815250508082610180019073ffffffffffffffffffffffffffffffffffffffff16908173ffffffffffffffffffffffffffffffffffffffff16815250506000600b60008b6000015173ffffffffffffffffffffffffffffffffffffffff1673ffffffffffffffffffffffffffffffffffffffff16815260200190815260200160002060008b6020015173ffffffffffffffffffffffffffffffffffffffff1673ffffffffffffffffffffffffffffffffffffffff16815260200190815260200160002060006101000a81548160ff0219169083151502179055506122008a836116c2565b897f8aba4bf97c53cd5124a16826906cf29c99e37b45dcaccff77292ab676a81b5278a604001516040516122349190612935565b60405180910390a28073ffffffffffffffffffffffffffffffffffffffff167f659ab4616759704498ed851deaf5cf2eb0b2869d85580cd68a3371aea737e7008b8b6000015173ffffffffffffffffffffffffffffffffffffffff168473ffffffffffffffffffffffffffffffffffffffff16146122b7578461016001516122be565b8461014001515b8c6020015173ffffffffffffffffffffffffffffffffffffffff168573ffffffffffffffffffffffffffffffffffffffff161461230057856101600151612307565b8561014001515b6040516123169392919061321f565b60405180910390a250612385565b600188604001516123359190612efb565b81604001818152505061234889826116c2565b887f8aba4bf97c53cd5124a16826906cf29c99e37b45dcaccff77292ab676a81b527896040015160405161237c9190612935565b60405180910390a25b505050505050505050565b600081600001805490509050919050565b60008260000182815481106123b9576123b8612bcd565b5b9060005260206000200154905092915050565b600033905090565b60006123e0838361248e565b61243957826000018290806001815401808255809150506001900390600052602060002001600090919091909150558260000180549050836001016000848152602001908152602001600020819055506001905061243e565b600090505b92915050565b6000818311612454576000612461565b81836124609190613256565b5b905092915050565b6000818311612479576000612486565b81836124859190613256565b5b905092915050565b600080836001016000848152602001908152602001600020541415905092915050565b6040518060c0016040528060008152602001600073ffffffffffffffffffffffffffffffffffffffff168152602001600073ffffffffffffffffffffffffffffffffffffffff16815260200160008152602001600073ffffffffffffffffffffffffffffffffffffffff168152602001600073ffffffffffffffffffffffffffffffffffffffff1681525090565b604051806101200160405280600073ffffffffffffffffffffffffffffffffffffffff168152602001600073ffffffffffffffffffffffffffffffffffffffff16815260200160008152602001600073ffffffffffffffffffffffffffffffffffffffff16815260200160008152602001600081526020016000815260200160008152602001600073ffffffffffffffffffffffffffffffffffffffff1681525090565b604051806101a00160405280600073ffffffffffffffffffffffffffffffffffffffff168152602001600073ffffffffffffffffffffffffffffffffffffffff16815260200160008152602001600073ffffffffffffffffffffffffffffffffffffffff1681526020016000815260200160008152602001600081526020016000815260200160008152602001600081526020016000815260200160008152602001600073ffffffffffffffffffffffffffffffffffffffff1681525090565b600080fd5b600073ffffffffffffffffffffffffffffffffffffffff82169050919050565b60006126d3826126a8565b9050919050565b6126e3816126c8565b81146126ee57600080fd5b50565b600081359050612700816126da565b92915050565b6000819050919050565b61271981612706565b811461272457600080fd5b50565b60008135905061273681612710565b92915050565b600080600060608486031215612755576127546126a3565b5b6000612763868287016126f1565b935050602061277486828701612727565b925050604061278586828701612727565b9150509250925092565b600081519050919050565b600082825260208201905092915050565b6000819050602082019050919050565b6127c481612706565b82525050565b6127d3816126c8565b82525050565b60c0820160008201516127ef60008501826127bb565b50602082015161280260208501826127ca565b50604082015161281560408501826127ca565b50606082015161282860608501826127bb565b50608082015161283b60808501826127ca565b5060a082015161284e60a08501826127ca565b50505050565b600061286083836127d9565b60c08301905092915050565b6000602082019050919050565b60006128848261278f565b61288e818561279a565b9350612899836127ab565b8060005b838110156128ca5781516128b18882612854565b97506128bc8361286c565b92505060018101905061289d565b5085935050505092915050565b600060208201905081810360008301526128f18184612879565b905092915050565b60006020828403121561290f5761290e6126a3565b5b600061291d848285016126f1565b91505092915050565b61292f81612706565b82525050565b600060208201905061294a6000830184612926565b92915050565b612959816126c8565b82525050565b60006020820190506129746000830184612950565b92915050565b6000602082840312156129905761298f6126a3565b5b600061299e84828501612727565b91505092915050565b610120820160008201516129be60008501826127ca565b5060208201516129d160208501826127ca565b5060408201516129e460408501826127bb565b5060608201516129f760608501826127ca565b506080820151612a0a60808501826127bb565b5060a0820151612a1d60a08501826127bb565b5060c0820151612a3060c08501826127bb565b5060e0820151612a4360e08501826127bb565b50610100820151612a586101008501826127ca565b50505050565b600061012082019050612a7460008301846129a7565b92915050565b600080fd5b600081905082602060030282011115612a9b57612a9a612a7a565b5b92915050565b60008060808385031215612ab857612ab76126a3565b5b6000612ac6858286016126f1565b9250506020612ad785828601612a7f565b9150509250929050565b60008060808385031215612af857612af76126a3565b5b6000612b0685828601612727565b9250506020612b1785828601612a7f565b9150509250929050565b600082825260208201905092915050565b7f43616e2774207265717565737420746f6f206d616e79207265636f7264732100600082015250565b6000612b68601f83612b21565b9150612b7382612b32565b602082019050919050565b60006020820190508181036000830152612b9781612b5b565b9050919050565b7f4e487b7100000000000000000000000000000000000000000000000000000000600052604160045260246000fd5b7f4e487b7100000000000000000000000000000000000000000000000000000000600052603260045260246000fd5b7f4e487b7100000000000000000000000000000000000000000000000000000000600052601160045260246000fd5b6000612c3682612706565b91507fffffffffffffffffffffffffffffffffffffffffffffffffffffffffffffffff8203612c6857612c67612bfc565b5b600182019050919050565b7f426174746c6520696420646f65736e2774206578697374000000000000000000600082015250565b6000612ca9601783612b21565b9150612cb482612c73565b602082019050919050565b60006020820190508181036000830152612cd881612c9c565b9050919050565b7f556e617574686f72697a65640000000000000000000000000000000000000000600082015250565b6000612d15600c83612b21565b9150612d2082612cdf565b602082019050919050565b60006020820190508181036000830152612d4481612d08565b9050919050565b7f5573652072657175657374426174746c65000000000000000000000000000000600082015250565b6000612d81601183612b21565b9150612d8c82612d4b565b602082019050919050565b60006020820190508181036000830152612db081612d74565b9050919050565b7f45786365656473205072656461746f7273206d61780000000000000000000000600082015250565b6000612ded601583612b21565b9150612df882612db7565b602082019050919050565b60006020820190508181036000830152612e1c81612de0565b9050919050565b7f457863656564732050726f78696d757320436f627261206d6178000000000000600082015250565b6000612e59601a83612b21565b9150612e6482612e23565b602082019050919050565b60006020820190508181036000830152612e8881612e4c565b9050919050565b7f4578636565647320426f756e74792048756e746572206d617800000000000000600082015250565b6000612ec5601983612b21565b9150612ed082612e8f565b602082019050919050565b60006020820190508181036000830152612ef481612eb8565b9050919050565b6000612f0682612706565b9150612f1183612706565b9250828201905080821115612f2957612f28612bfc565b5b92915050565b7f546f6f206d616e792074726f6f70732100000000000000000000000000000000600082015250565b6000612f65601083612b21565b9150612f7082612f2f565b602082019050919050565b60006020820190508181036000830152612f9481612f58565b9050919050565b7f4f776e61626c653a206e6577206f776e657220697320746865207a65726f206160008201527f6464726573730000000000000000000000000000000000000000000000000000602082015250565b6000612ff7602683612b21565b915061300282612f9b565b604082019050919050565b6000602082019050818103600083015261302681612fea565b9050919050565b7f4f776e61626c653a2063616c6c6572206973206e6f7420746865206f776e6572600082015250565b6000613063602083612b21565b915061306e8261302d565b602082019050919050565b6000602082019050818103600083015261309281613056565b9050919050565b7f43616e27742072657175657374207468697320626174746c6500000000000000600082015250565b60006130cf601983612b21565b91506130da82613099565b602082019050919050565b600060208201905081810360008301526130fe816130c2565b9050919050565b7f4e6f7420796f7572207475726e21000000000000000000000000000000000000600082015250565b600061313b600e83612b21565b915061314682613105565b602082019050919050565b6000602082019050818103600083015261316a8161312e565b9050919050565b7f4d7573742073656e642074726f6f707321000000000000000000000000000000600082015250565b60006131a7601183612b21565b91506131b282613171565b602082019050919050565b600060208201905081810360008301526131d68161319a565b9050919050565b60006131e882612706565b91506131f383612706565b925082820261320181612706565b9150828204841483151761321857613217612bfc565b5b5092915050565b60006060820190506132346000830186612926565b6132416020830185612926565b61324e6040830184612926565b949350505050565b600061326182612706565b915061326c83612706565b925082820390508181111561328457613283612bfc565b5b9291505056fea2646970667358221220b9f187aa001b5f79b4fdae982de012654707bb3937954d13197aebb18553590b64736f6c63430008110033",
  "immutableReferences": {},
  "source": "// SPDX-License-Identifier: MIT\npragma solidity 0.8.17;\n\nimport \"@openzeppelin/contracts/access/Ownable.sol\";\nimport \"@openzeppelin/contracts/utils/Counters.sol\";\nimport \"@openzeppelin/contracts/utils/structs/EnumerableSet.sol\";\n\ncontract EternovaQuickBattles is Ownable{\n\t\n\tusing Counters for Counters.Counter;\n\tusing EnumerableSet for EnumerableSet.UintSet;\n\n    Counters.Counter private _battleIds;\n\n\tevent BattleStarted(uint indexed id, address indexed creator, address indexed opponent);\n\tevent BattleFinished(uint id, address indexed winner, uint winnerCityLife, uint looserCityLife);\n\n\tevent RoundStarted(uint indexed id, uint currentRound);\t\n\tevent RoundFinished(uint indexed id, uint currentRound);\n\t\n\tstruct Troop {\n\t\tuint attack;\n\t\tuint defense;\t\t\n\t}\n\n\tTroop private predator = Troop(40,100);\n\tTroop private proximusCobra = Troop(200,200);\n\tTroop private bounty_hunters = Troop(150,50);\n\n\tuint constant MAX_ROUNDS = 3;\n\n\tuint constant PREDATOR_UNITS = 5;\n\tuint constant PROXIMUS_COBRA_UNITS = 2;\n\tuint constant BOUNTY_HUNTERS_UNITS = 3;\n\t\n\tuint constant STARTING_LIFE = 500;\n\n\tuint constant MAX_UNITS_FIRST_ROUND = 8;\n\tuint constant MAX_UNITS_SECOND_ROUND = 9;\n\tuint constant MAX_UNITS_THIRD_ROUND = 10;\n\n\t//Round N => Max units\n\tmapping(uint => uint) roundMaxUnits;\n\t\n\tuint constant FIRST_ROUND = 1;\n\tuint constant SECOND_ROUND = 2;\n\tuint constant THIRD_ROUND = 3;\n\n\tstruct BattleData {\n\t\taddress creator;\n\t\taddress opponent;\n\t\tuint currentRound;\n\t\taddress nextMove;\n\t\tuint predatorAttackingUnits;\n\t\tuint proximusAttackingUnits;\n\t\tuint bountyAttackingUnits;\n\t\tuint predatorDefendingUnits;\n\t\tuint proximusDefendingUnits;\n\t\tuint bountyDefendingUnits;\n\t\tuint creatorCityLife;\n\t\tuint opponentCityLife;\n\t\taddress winner;\n\t}\n\n\t//BattleId => Data\n\tmapping (uint => BattleData) private battle;\n\n\t//User => [battleId]\n\tmapping(address => EnumerableSet.UintSet) private userBattle;\n\n\tmapping(address => mapping(address => bool)) currentlyFighting;\n\t\t\t\n\tconstructor() {\n\t\troundMaxUnits[1] = MAX_UNITS_FIRST_ROUND;\t\t\n\t\troundMaxUnits[2] = MAX_UNITS_SECOND_ROUND;\t\t\n\t\troundMaxUnits[3] = MAX_UNITS_THIRD_ROUND;\t\t\n\t}\n\n\tfunction startBattle(address opponent, uint[3] calldata troopsAmount) external returns(uint){\n\t\trequire(!areCurrentlyFighting(msg.sender, opponent), \"Use requestBattle\");\n\t\trequire(troopsAmount[0] <= PREDATOR_UNITS,\"Exceeds Predators max\");\n\t\trequire(troopsAmount[1] <= PROXIMUS_COBRA_UNITS,\"Exceeds Proximus Cobra max\");\n\t\trequire(troopsAmount[2] <= BOUNTY_HUNTERS_UNITS,\"Exceeds Bounty Hunter max\");\n\t\n\t\tuint totalTroops = troopsAmount[0] + troopsAmount[1] + troopsAmount[2];\n\t\trequire(totalTroops <= roundMaxUnits[FIRST_ROUND],\"Too many troops!\");\n\n\t\t_battleIds.increment();\n\t\t\n\t\tBattleData memory data = BattleData(\n\t\t\tmsg.sender, //Creator\n\t\t\topponent, //Opponnent\n\t\t\tFIRST_ROUND, //currentRound\n\t\t\topponent, //NextMove\n\t\t\ttroopsAmount[0], //predatorAttackingUnits\n\t\t\ttroopsAmount[1], //proximusAttackingUnits\n\t\t\ttroopsAmount[2], //bountyAttackingUnits\n\t\t\t0, //predatorDefendingUnits\n\t\t\t0, //proximusDefendingUnits\n\t\t\t0, //bountyDefendingUnits\n\t\t\tSTARTING_LIFE, //creatorCityLife\n\t\t\tSTARTING_LIFE, //opponentCityLife\n\t\t\taddress(0) //Winner\n\t\t\t);\n\n\t\tsetBattle(_battleIds.current(), data);\n\t\tuserBattle[msg.sender].add(_battleIds.current());\n\t\tcurrentlyFighting[msg.sender][opponent] = true;\t\t\t\t\n\t\temit RoundStarted(_battleIds.current(), data.currentRound);\n\n\t\treturn _battleIds.current();\n\t}\n\n\t//Troops amount for each type [predator, proximusCobra,bounty_hunters]\t\n\tfunction requestBattle(uint id, uint[3] calldata troopsAmount) external {\n\t\tvalidateBattleData(id, troopsAmount);\n\t\tBattleData memory data = getBattleData(id);\n\t\t\n\t\tdata = BattleData(\n\t\t\tdata.creator,\n\t\t\tdata.opponent,\n\t\t\tdata.currentRound, //currentRound\n\t\t\tdata.nextMove, //NextMove\n\t\t\tmsg.sender == data.creator ? troopsAmount[0] : data.predatorAttackingUnits, //predatorAttackingUnits\n\t\t\tmsg.sender == data.creator ? troopsAmount[1] : data.proximusAttackingUnits, //proximusAttackingUnits\n\t\t\tmsg.sender == data.creator ? troopsAmount[2] : data.bountyAttackingUnits, //bountyAttackingUnits\n\t\t\tmsg.sender == data.opponent ? troopsAmount[0] : data.predatorDefendingUnits, //predatorDefendingUnits\n\t\t\tmsg.sender == data.opponent ? troopsAmount[1] : data.proximusDefendingUnits, //proximusDefendingUnits\n\t\t\tmsg.sender == data.opponent ? troopsAmount[2] : data.bountyDefendingUnits, //bountyDefendingUnits\n\t\t\tdata.creatorCityLife, //creatorCityLife\n\t\t\tdata.opponentCityLife, //opponentCityLife\n\t\t\taddress(0) //winner\n\t\t\t);\n\n\t\tif (didBothPlayersMoved(data)){\n\t\t\tresolveRound(id, data);\n\t\t}else{\n\t\t\tdata.nextMove = data.nextMove == data.creator ? data.opponent : data.creator;\n\t\t\tsetBattle(id, data);\n\t\t\temit RoundStarted(id, data.currentRound);\n\t\t}\n\t}\n\n\tfunction didBothPlayersMoved(BattleData memory data) internal pure returns(bool){\n\t\treturn data.predatorAttackingUnits + data.proximusAttackingUnits + data.bountyAttackingUnits > 0 &&\n\tdata.predatorDefendingUnits + data.proximusDefendingUnits + data.bountyDefendingUnits > 0;\n\t}\n\n\tfunction validateBattleData(uint id,uint[3] calldata troopsAmount) internal view{\n\t\trequire(id <= _battleIds.current(),\"Battle id doesn't exist\");\n\t\tBattleData memory data = getBattleData(id);\n\t\trequire(msg.sender == data.creator || msg.sender == data.opponent,\"Can't request this battle\");\n\t\trequire(data.nextMove == msg.sender,\"Not your turn!\");\n\t\trequire(troopsAmount[0] <= PREDATOR_UNITS,\"Exceeds Predators max\");\n\t\trequire(troopsAmount[1] <= PROXIMUS_COBRA_UNITS,\"Exceeds Proximus Cobra max\");\n\t\trequire(troopsAmount[2] <= BOUNTY_HUNTERS_UNITS,\"Exceeds Bounty Hunter max\");\n\t\t\n\t\tuint currentRound = data.currentRound;\n\t\tuint totalTroops = troopsAmount[0] + troopsAmount[1] + troopsAmount[2];\n\n\t\trequire(totalTroops <= roundMaxUnits[currentRound],\"Too many troops!\");\n\t\trequire(totalTroops > 0,\"Must send troops!\");\n\t}\n\n\tfunction resolveRound (uint id, BattleData memory data) internal {\t\t\n\t\tuint creatorCurrentCityLife = data.creatorCityLife;\n\t\tuint opponentCurrentCityLife = data.opponentCityLife;\n\t\t//Creator\n\t\tuint creatorTotalAttack = data.predatorAttackingUnits * predator.attack + data.proximusAttackingUnits * proximusCobra.attack + data.bountyAttackingUnits * bounty_hunters.attack;\n\t\tuint creatorTotalDefense = data.predatorAttackingUnits * predator.defense + data.proximusAttackingUnits * proximusCobra.defense + data.bountyAttackingUnits * bounty_hunters.defense;\n\t\t//Opponent\n\t\tuint opponentTotalAttack = data.predatorDefendingUnits * predator.attack + data.proximusDefendingUnits * proximusCobra.attack + data.bountyDefendingUnits * bounty_hunters.attack;\n\t\tuint opponentTotalDefense = data.predatorDefendingUnits * predator.defense + data.proximusDefendingUnits * proximusCobra.defense + data.bountyDefendingUnits * bounty_hunters.defense;\n\n\t\tBattleData memory newData = BattleData(\n\t\t\tdata.creator,\n\t\t\tdata.opponent,\n\t\t\tdata.currentRound, //currentRound\n\t\t\tdata.nextMove,\n\t\t\t0, //predatorAttackingUnits\n\t\t\t0, //proximusAttackingUnits\n\t\t\t0, //bountyAttackingUnits\n\t\t\t0, //predatorDefendingUnits\n\t\t\t0, //proximusDefendingUnits\n\t\t\t0, //bountyDefendingUnits\n\t\t\tgetRemainingLife(creatorCurrentCityLife, getTotalDamage(opponentTotalAttack, creatorTotalDefense)), //creatorCityLife\n\t\t\tgetRemainingLife(opponentCurrentCityLife, getTotalDamage(creatorTotalAttack, opponentTotalDefense)), //opponentCityLife\n\t\t\taddress(0) //Winner\n\t\t);\n\t\t\n\t\tif (data.currentRound == THIRD_ROUND){\n\t\t\taddress winner = newData.creatorCityLife >= newData.opponentCityLife ? data.creator : data.opponent;\n\t\t\tnewData.currentRound = 0;\n\t\t\tnewData.nextMove = address(0);\n\t\t\tnewData.winner = winner;\n\t\t\tcurrentlyFighting[data.creator][data.opponent] = false;\n\t\t\tsetBattle(id, newData);\n\t\t\temit RoundFinished(id, data.currentRound);\n\t\t\temit BattleFinished(id, winner, winner == data.creator ? newData.creatorCityLife : newData.opponentCityLife, winner == data.opponent ? newData.creatorCityLife : newData.opponentCityLife);\n\t\t}else{\n\t\t\tnewData.currentRound = data.currentRound + 1;\n\t\t\t\n\t\t\tsetBattle(id, newData);\n\t\t\temit RoundFinished(id, data.currentRound);\t\t\t\t\n\t\t}\n\n\t}\n\t\n\tfunction getTotalDamage(uint attack, uint defense) internal pure returns(uint){\n\t\treturn attack > defense ? attack - defense : 0;\n\t}\n\t\n\tfunction getRemainingLife(uint currentLife, uint damage) internal pure returns(uint){\n\t\treturn currentLife > damage ? currentLife - damage : 0;\n\t}\n\n\tfunction getBattleData(uint id) internal view returns(BattleData memory){\n\t\treturn battle[id];\n\t}\n\n\tstruct PublicBattleData {\n\t\taddress creator;\n\t\taddress opponent;\n\t\tuint currentRound;\n\t\taddress nextMove;\n\t\tuint predatorUnits;\n\t\tuint proximusUnits;\n\t\tuint bountyUnits;\n\t\tuint cityLife;\n\t\taddress winner;\n\t}\n\n\tfunction getPublicBattleData(uint id) external view returns(PublicBattleData memory data){\n\t\trequire(id <= _battleIds.current(),\"Battle id doesn't exist\");\n\t\tBattleData memory battleData = battle[id];\n\t\trequire(msg.sender == battleData.creator || msg.sender == battleData.opponent ,\"Unauthorized\");\n\n\t\tdata.creator = battleData.creator;\n\t\tdata.opponent = battleData.opponent;\n\t\tdata.currentRound = battleData.currentRound;\n\t\tdata.nextMove = battleData.nextMove;\n\t\tdata.predatorUnits = msg.sender == data.creator ? battleData.predatorAttackingUnits : battleData.predatorDefendingUnits;\n\t\tdata.proximusUnits = msg.sender == data.creator ? battleData.proximusAttackingUnits : battleData.proximusDefendingUnits;\n\t\tdata.bountyUnits = msg.sender == data.creator ? battleData.bountyAttackingUnits : battleData.bountyDefendingUnits;\n\t\tdata.cityLife = msg.sender == data.creator ? battleData.creatorCityLife : battleData.opponentCityLife;\n\t\tdata.winner = battleData.winner;\n\t}\n\n\tfunction setBattle(uint id,BattleData memory data) internal{\n\t\tbattle[id] = data;\n\t}\n\n\tstruct BattleDataResponse {\n\t\tuint battleId;\n\t\taddress creator;\n\t\taddress opponent;\n\t\tuint currentRound;\n\t\taddress nextMove;\n\t\taddress winner;\n\t}\n\n\tfunction getUserBattleData(address user, uint limit, uint offset) external view returns(BattleDataResponse[] memory){\n\t\trequire(limit <= 100, \"Can't request too many records!\");\n\t\tEnumerableSet.UintSet storage _ids = userBattle[user];\n\t\tuint battleCount = _ids.length() <= 100 ? _ids.length() : 100;\n\t\tuint queryLimit = (battleCount > limit && limit != 0 ? limit : battleCount);\n\t\tuint responseIndex;\n\t\tBattleDataResponse[]memory response = new BattleDataResponse[](queryLimit);\n\t\tfor (uint i = offset; i < queryLimit; i++){\n\t\t\tuint id = userBattle[user].at(i);\n\t\t\tBattleData memory data = battle[id];\n\t\t\tresponse[responseIndex] = (\n\t\t\t\tBattleDataResponse(\n\t\t\t\t\tid,\n\t\t\t\t\tdata.creator,\n\t\t\t\t\tdata.opponent,\n\t\t\t\t\tdata.currentRound,\n\t\t\t\t\tdata.nextMove,\n\t\t\t\t\tdata.winner\n\t\t\t\t)\n\t\t\t);\n\t\t\tresponseIndex++;\n\t\t}\n\n\t\treturn response;\n\t}\n\t\n\tfunction areCurrentlyFighting(address creator, address opponent) internal view returns(bool){\n\t\treturn currentlyFighting[creator][opponent];\n\t}\n\n\tfunction getUserBattleCount(address user) external view returns(uint){\n\t\treturn userBattle[user].length();\n\t}\n\n}",
  "sourcePath": "/Users/glenci/EternovaQuickBattles/contracts/EternovaQuickBattles.sol",
  "compiler": {
    "name": "solc",
    "version": "0.8.17+commit.8df45f5f.Emscripten.clang"
  },
  "schemaVersion": "3.4.10",
  "updatedAt": "2023-09-08T13:17:58.642Z",
  "networkType": "ethereum",
  "devdoc": {
    "kind": "dev",
    "methods": {
      "owner()": {
        "details": "Returns the address of the current owner."
      },
      "renounceOwnership()": {
        "details": "Leaves the contract without owner. It will not be possible to call `onlyOwner` functions. Can only be called by the current owner. NOTE: Renouncing ownership will leave the contract without an owner, thereby disabling any functionality that is only available to the owner."
      },
      "transferOwnership(address)": {
        "details": "Transfers ownership of the contract to a new account (`newOwner`). Can only be called by the current owner."
      }
    },
    "version": 1
  },
  "userdoc": {
    "kind": "user",
    "methods": {},
    "version": 1
  }
}