{
  "contractName": "EternovaQuickBattles",
  "abi": [
    {
      "inputs": [],
      "stateMutability": "nonpayable",
      "type": "constructor"
    },
    {
      "anonymous": false,
      "inputs": [
        {
          "indexed": false,
          "internalType": "uint256",
          "name": "id",
          "type": "uint256"
        },
        {
          "indexed": true,
          "internalType": "address",
          "name": "winner",
          "type": "address"
        },
        {
          "indexed": false,
          "internalType": "uint256",
          "name": "winnerCityLife",
          "type": "uint256"
        },
        {
          "indexed": false,
          "internalType": "uint256",
          "name": "looserCityLife",
          "type": "uint256"
        }
      ],
      "name": "BattleFinished",
      "type": "event"
    },
    {
      "anonymous": false,
      "inputs": [
        {
          "indexed": true,
          "internalType": "uint256",
          "name": "id",
          "type": "uint256"
        },
        {
          "indexed": true,
          "internalType": "address",
          "name": "creator",
          "type": "address"
        },
        {
          "indexed": true,
          "internalType": "address",
          "name": "opponent",
          "type": "address"
        }
      ],
      "name": "BattleStarted",
      "type": "event"
    },
    {
      "anonymous": false,
      "inputs": [
        {
          "indexed": true,
          "internalType": "address",
          "name": "previousOwner",
          "type": "address"
        },
        {
          "indexed": true,
          "internalType": "address",
          "name": "newOwner",
          "type": "address"
        }
      ],
      "name": "OwnershipTransferred",
      "type": "event"
    },
    {
      "anonymous": false,
      "inputs": [
        {
          "indexed": true,
          "internalType": "uint256",
          "name": "id",
          "type": "uint256"
        },
        {
          "indexed": false,
          "internalType": "uint256",
          "name": "currentRound",
          "type": "uint256"
        }
      ],
      "name": "RoundFinished",
      "type": "event"
    },
    {
      "anonymous": false,
      "inputs": [
        {
          "indexed": true,
          "internalType": "uint256",
          "name": "id",
          "type": "uint256"
        },
        {
          "indexed": false,
          "internalType": "uint256",
          "name": "currentRound",
          "type": "uint256"
        }
      ],
      "name": "RoundStarted",
      "type": "event"
    },
    {
      "inputs": [],
      "name": "owner",
      "outputs": [
        {
          "internalType": "address",
          "name": "",
          "type": "address"
        }
      ],
      "stateMutability": "view",
      "type": "function",
      "constant": true
    },
    {
      "inputs": [],
      "name": "renounceOwnership",
      "outputs": [],
      "stateMutability": "nonpayable",
      "type": "function"
    },
    {
      "inputs": [
        {
          "internalType": "address",
          "name": "newOwner",
          "type": "address"
        }
      ],
      "name": "transferOwnership",
      "outputs": [],
      "stateMutability": "nonpayable",
      "type": "function"
    },
    {
      "inputs": [
        {
          "internalType": "address",
          "name": "opponent",
          "type": "address"
        },
        {
          "internalType": "uint256[3]",
          "name": "troopsAmount",
          "type": "uint256[3]"
        }
      ],
      "name": "startBattle",
      "outputs": [
        {
          "internalType": "uint256",
          "name": "",
          "type": "uint256"
        }
      ],
      "stateMutability": "nonpayable",
      "type": "function"
    },
    {
      "inputs": [
        {
          "internalType": "uint256",
          "name": "id",
          "type": "uint256"
        },
        {
          "internalType": "uint256[3]",
          "name": "troopsAmount",
          "type": "uint256[3]"
        }
      ],
      "name": "requestBattle",
      "outputs": [],
      "stateMutability": "nonpayable",
      "type": "function"
    },
    {
      "inputs": [
        {
          "internalType": "uint256",
          "name": "id",
          "type": "uint256"
        }
      ],
      "name": "getPublicBattleData",
      "outputs": [
        {
          "components": [
            {
              "internalType": "address",
              "name": "creator",
              "type": "address"
            },
            {
              "internalType": "address",
              "name": "opponent",
              "type": "address"
            },
            {
              "internalType": "uint256",
              "name": "currentRound",
              "type": "uint256"
            },
            {
              "internalType": "address",
              "name": "nextMove",
              "type": "address"
            },
            {
              "components": [
                {
                  "internalType": "uint256",
                  "name": "predatorAttackingUnits",
                  "type": "uint256"
                },
                {
                  "internalType": "uint256",
                  "name": "proximusAttackingUnits",
                  "type": "uint256"
                },
                {
                  "internalType": "uint256",
                  "name": "bountyAttackingUnits",
                  "type": "uint256"
                },
                {
                  "internalType": "uint256",
                  "name": "predatorDefendingUnits",
                  "type": "uint256"
                },
                {
                  "internalType": "uint256",
                  "name": "proximusDefendingUnits",
                  "type": "uint256"
                },
                {
                  "internalType": "uint256",
                  "name": "bountyDefendingUnits",
                  "type": "uint256"
                }
              ],
              "internalType": "struct EternovaQuickBattles.BattleAmount[3]",
              "name": "amounts",
              "type": "tuple[3]"
            },
            {
              "internalType": "uint256",
              "name": "cityLife",
              "type": "uint256"
            },
            {
              "internalType": "address",
              "name": "winner",
              "type": "address"
            }
          ],
          "internalType": "struct EternovaQuickBattles.PublicBattleData",
          "name": "data",
          "type": "tuple"
        }
      ],
      "stateMutability": "view",
      "type": "function",
      "constant": true
    },
    {
      "inputs": [
        {
          "internalType": "address",
          "name": "user",
          "type": "address"
        },
        {
          "internalType": "uint256",
          "name": "limit",
          "type": "uint256"
        },
        {
          "internalType": "uint256",
          "name": "offset",
          "type": "uint256"
        }
      ],
      "name": "getUserBattleData",
      "outputs": [
        {
          "components": [
            {
              "internalType": "uint256",
              "name": "battleId",
              "type": "uint256"
            },
            {
              "internalType": "address",
              "name": "creator",
              "type": "address"
            },
            {
              "internalType": "address",
              "name": "opponent",
              "type": "address"
            },
            {
              "internalType": "uint256",
              "name": "currentRound",
              "type": "uint256"
            },
            {
              "internalType": "address",
              "name": "nextMove",
              "type": "address"
            },
            {
              "internalType": "address",
              "name": "winner",
              "type": "address"
            }
          ],
          "internalType": "struct EternovaQuickBattles.BattleDataResponse[]",
          "name": "",
          "type": "tuple[]"
        }
      ],
      "stateMutability": "view",
      "type": "function",
      "constant": true
    },
    {
      "inputs": [
        {
          "internalType": "address",
          "name": "user",
          "type": "address"
        }
      ],
      "name": "getUserBattleCount",
      "outputs": [
        {
          "internalType": "uint256",
          "name": "",
          "type": "uint256"
        }
      ],
      "stateMutability": "view",
      "type": "function",
      "constant": true
    }
  ],
  "bytecode": "0x60806040526040518060400160405280602881526020016064815250600260008201518160000155602082015181600101555050604051806040016040528060c8815260200160c881525060046000820151816000015560208201518160010155505060405180604001604052806096815260200160328152506006600082015181600001556020820151816001015550503480156200009e57600080fd5b50620000bf620000b36200011260201b60201c565b6200011a60201b60201c565b600880600060018152602001908152602001600020819055506009600860006002815260200190815260200160002081905550600a600860006003815260200190815260200160002081905550620001de565b600033905090565b60008060009054906101000a900473ffffffffffffffffffffffffffffffffffffffff169050816000806101000a81548173ffffffffffffffffffffffffffffffffffffffff021916908373ffffffffffffffffffffffffffffffffffffffff1602179055508173ffffffffffffffffffffffffffffffffffffffff168173ffffffffffffffffffffffffffffffffffffffff167f8be0079c531659141344cd1fd0a4f28419497f9722a3daafe3b4186f6b6457e060405160405180910390a35050565b61393d80620001ee6000396000f3fe608060405234801561001057600080fd5b50600436106100885760003560e01c806394a8142d1161005b57806394a8142d146101155780639c80043814610145578063a5e94e9814610175578063f2fde38b1461019157610088565b8063141dfa791461008d578063553bff08146100bd578063715018a6146100ed5780638da5cb5b146100f7575b600080fd5b6100a760048036038101906100a29190612cc8565b6101ad565b6040516100b49190612e63565b60405180910390f35b6100d760048036038101906100d29190612e85565b61060b565b6040516100e49190612ec1565b60405180910390f35b6100f561065b565b005b6100ff61066f565b60405161010c9190612eeb565b60405180910390f35b61012f600480360381019061012a9190612f06565b610698565b60405161013c91906130db565b60405180910390f35b61015f600480360381019061015a919061311e565b610cdb565b60405161016c9190612ec1565b60405180910390f35b61018f600480360381019061018a919061315e565b6111e2565b005b6101ab60048036038101906101a69190612e85565b6116c7565b005b606060648311156101f3576040517f08c379a00000000000000000000000000000000000000000000000000000000081526004016101ea906131fb565b60405180910390fd5b6000600b60008673ffffffffffffffffffffffffffffffffffffffff1673ffffffffffffffffffffffffffffffffffffffff1681526020019081526020016000209050600060646102438361174a565b111561025057606461025a565b6102598261174a565b5b90506000858211801561026e575060008614155b610278578161027a565b855b90506000808267ffffffffffffffff8111156102995761029861321b565b5b6040519080825280602002602001820160405280156102d257816020015b6102bf612a00565b8152602001906001900390816102b75790505b50905060008790505b838110156105fb57600061033682600b60008e73ffffffffffffffffffffffffffffffffffffffff1673ffffffffffffffffffffffffffffffffffffffff16815260200190815260200160002061175f90919063ffffffff16565b90506000600a6000838152602001908152602001600020604051806101000160405290816000820160009054906101000a900473ffffffffffffffffffffffffffffffffffffffff1673ffffffffffffffffffffffffffffffffffffffff1673ffffffffffffffffffffffffffffffffffffffff1681526020016001820160009054906101000a900473ffffffffffffffffffffffffffffffffffffffff1673ffffffffffffffffffffffffffffffffffffffff1673ffffffffffffffffffffffffffffffffffffffff168152602001600282015481526020016003820160009054906101000a900473ffffffffffffffffffffffffffffffffffffffff1673ffffffffffffffffffffffffffffffffffffffff1673ffffffffffffffffffffffffffffffffffffffff168152602001600482016040518060c001604052908160008201548152602001600182015481526020016002820154815260200160038201548152602001600482015481526020016005820154815250508152602001600a8201548152602001600b8201548152602001600c820160009054906101000a900473ffffffffffffffffffffffffffffffffffffffff1673ffffffffffffffffffffffffffffffffffffffff1673ffffffffffffffffffffffffffffffffffffffff168152505090506040518060c00160405280838152602001826000015173ffffffffffffffffffffffffffffffffffffffff168152602001826020015173ffffffffffffffffffffffffffffffffffffffff16815260200182604001518152602001826060015173ffffffffffffffffffffffffffffffffffffffff1681526020018260e0015173ffffffffffffffffffffffffffffffffffffffff168152508486815181106105cd576105cc61324a565b5b602002602001018190525084806105e3906132a8565b955050505080806105f3906132a8565b9150506102db565b5080955050505050509392505050565b6000610654600b60008473ffffffffffffffffffffffffffffffffffffffff1673ffffffffffffffffffffffffffffffffffffffff16815260200190815260200160002061174a565b9050919050565b610663611779565b61066d60006117f7565b565b60008060009054906101000a900473ffffffffffffffffffffffffffffffffffffffff16905090565b6106a0612a8e565b6106aa60016118bb565b8211156106ec576040517f08c379a00000000000000000000000000000000000000000000000000000000081526004016106e39061333c565b60405180910390fd5b6000600a6000848152602001908152602001600020604051806101000160405290816000820160009054906101000a900473ffffffffffffffffffffffffffffffffffffffff1673ffffffffffffffffffffffffffffffffffffffff1673ffffffffffffffffffffffffffffffffffffffff1681526020016001820160009054906101000a900473ffffffffffffffffffffffffffffffffffffffff1673ffffffffffffffffffffffffffffffffffffffff1673ffffffffffffffffffffffffffffffffffffffff168152602001600282015481526020016003820160009054906101000a900473ffffffffffffffffffffffffffffffffffffffff1673ffffffffffffffffffffffffffffffffffffffff1673ffffffffffffffffffffffffffffffffffffffff168152602001600482016040518060c001604052908160008201548152602001600182015481526020016002820154815260200160038201548152602001600482015481526020016005820154815250508152602001600a8201548152602001600b8201548152602001600c820160009054906101000a900473ffffffffffffffffffffffffffffffffffffffff1673ffffffffffffffffffffffffffffffffffffffff1673ffffffffffffffffffffffffffffffffffffffff16815250509050806000015173ffffffffffffffffffffffffffffffffffffffff163373ffffffffffffffffffffffffffffffffffffffff1614806109425750806020015173ffffffffffffffffffffffffffffffffffffffff163373ffffffffffffffffffffffffffffffffffffffff16145b610981576040517f08c379a0000000000000000000000000000000000000000000000000000000008152600401610978906133a8565b60405180910390fd5b610989612b29565b8160000151836000019073ffffffffffffffffffffffffffffffffffffffff16908173ffffffffffffffffffffffffffffffffffffffff16815250508160200151836020019073ffffffffffffffffffffffffffffffffffffffff16908173ffffffffffffffffffffffffffffffffffffffff168152505081604001518360400181815250508160600151836060019073ffffffffffffffffffffffffffffffffffffffff16908173ffffffffffffffffffffffffffffffffffffffff168152505060005b6003811015610c3e57600960008681526020019081526020016000206000600183610a7991906133c8565b81526020019081526020016000206040518060c00160405290816000820154815260200160018201548152602001600282015481526020016003820154815260200160048201548152602001600582015481525050828260038110610ae157610ae061324a565b5b6020020181905250600073ffffffffffffffffffffffffffffffffffffffff168360e0015173ffffffffffffffffffffffffffffffffffffffff1603610c2b57836000015173ffffffffffffffffffffffffffffffffffffffff163373ffffffffffffffffffffffffffffffffffffffff1603610bc3576000828260038110610b6d57610b6c61324a565b5b602002015160600181815250506000828260038110610b8f57610b8e61324a565b5b602002015160800181815250506000828260038110610bb157610bb061324a565b5b602002015160a0018181525050610c2a565b6000828260038110610bd857610bd761324a565b5b602002015160000181815250506000828260038110610bfa57610bf961324a565b5b602002015160200181815250506000828260038110610c1c57610c1b61324a565b5b602002015160400181815250505b5b8080610c36906132a8565b915050610a4e565b50808360800181905250826000015173ffffffffffffffffffffffffffffffffffffffff163373ffffffffffffffffffffffffffffffffffffffff1614610c89578160c00151610c8f565b8160a001515b8360a00181815250508160e001518360c0019073ffffffffffffffffffffffffffffffffffffffff16908173ffffffffffffffffffffffffffffffffffffffff16815250505050919050565b6000610ce733846118c9565b15610d27576040517f08c379a0000000000000000000000000000000000000000000000000000000008152600401610d1e90613448565b60405180910390fd5b600582600060038110610d3d57610d3c61324a565b5b60200201351115610d83576040517f08c379a0000000000000000000000000000000000000000000000000000000008152600401610d7a906134b4565b60405180910390fd5b600282600160038110610d9957610d9861324a565b5b60200201351115610ddf576040517f08c379a0000000000000000000000000000000000000000000000000000000008152600401610dd690613520565b60405180910390fd5b600382600260038110610df557610df461324a565b5b60200201351115610e3b576040517f08c379a0000000000000000000000000000000000000000000000000000000008152600401610e329061358c565b60405180910390fd5b600082600260038110610e5157610e5061324a565b5b602002013583600160038110610e6a57610e6961324a565b5b602002013584600060038110610e8357610e8261324a565b5b6020020135610e9291906133c8565b610e9c91906133c8565b9050600860006001815260200190815260200160002054811115610ef5576040517f08c379a0000000000000000000000000000000000000000000000000000000008152600401610eec906135f8565b60405180910390fd5b610eff600161195d565b60006040518060c0016040528085600060038110610f2057610f1f61324a565b5b6020020135815260200185600160038110610f3e57610f3d61324a565b5b6020020135815260200185600260038110610f5c57610f5b61324a565b5b6020020135815260200160008152602001600081526020016000815250905060006040518061010001604052803373ffffffffffffffffffffffffffffffffffffffff1681526020018773ffffffffffffffffffffffffffffffffffffffff168152602001600181526020018773ffffffffffffffffffffffffffffffffffffffff1681526020018381526020016101f481526020016101f48152602001600073ffffffffffffffffffffffffffffffffffffffff168152509050816009600061102660016118bb565b8152602001908152602001600020600060018152602001908152602001600020600082015181600001556020820151816001015560408201518160020155606082015181600301556080820151816004015560a0820151816005015590505061109861109260016118bb565b82611973565b6110f26110a560016118bb565b600b60003373ffffffffffffffffffffffffffffffffffffffff1673ffffffffffffffffffffffffffffffffffffffff168152602001908152602001600020611b0f90919063ffffffff16565b506001600c60003373ffffffffffffffffffffffffffffffffffffffff1673ffffffffffffffffffffffffffffffffffffffff16815260200190815260200160002060008873ffffffffffffffffffffffffffffffffffffffff1673ffffffffffffffffffffffffffffffffffffffff16815260200190815260200160002060006101000a81548160ff02191690831515021790555061119260016118bb565b7f278844837bcf8364a705384bf3a2812901f54155bae86dea81dd52aa5b9ec0e382604001516040516111c59190612ec1565b60405180910390a26111d760016118bb565b935050505092915050565b6111ec8282611b29565b60006111f7836120f7565b905060006040518060c00160405280836000015173ffffffffffffffffffffffffffffffffffffffff163373ffffffffffffffffffffffffffffffffffffffff161461124b57836080015160000151611265565b8460006003811061125f5761125e61324a565b5b60200201355b8152602001836000015173ffffffffffffffffffffffffffffffffffffffff163373ffffffffffffffffffffffffffffffffffffffff16146112af578360800151602001516112c9565b846001600381106112c3576112c261324a565b5b60200201355b8152602001836000015173ffffffffffffffffffffffffffffffffffffffff163373ffffffffffffffffffffffffffffffffffffffff16146113135783608001516040015161132d565b846002600381106113275761132661324a565b5b60200201355b8152602001836020015173ffffffffffffffffffffffffffffffffffffffff163373ffffffffffffffffffffffffffffffffffffffff161461137757836080015160600151611391565b8460006003811061138b5761138a61324a565b5b60200201355b8152602001836020015173ffffffffffffffffffffffffffffffffffffffff163373ffffffffffffffffffffffffffffffffffffffff16146113db578360800151608001516113f5565b846001600381106113ef576113ee61324a565b5b60200201355b8152602001836020015173ffffffffffffffffffffffffffffffffffffffff163373ffffffffffffffffffffffffffffffffffffffff161461143f57836080015160a00151611459565b846002600381106114535761145261324a565b5b60200201355b8152509050604051806101000160405280836000015173ffffffffffffffffffffffffffffffffffffffff168152602001836020015173ffffffffffffffffffffffffffffffffffffffff16815260200183604001518152602001836060015173ffffffffffffffffffffffffffffffffffffffff1681526020018281526020018360a0015181526020018360c001518152602001600073ffffffffffffffffffffffffffffffffffffffff168152509150611514826122eb565b15611590578060096000868152602001908152602001600020600084604001518152602001908152602001600020600082015181600001556020820151816001015560408201518160020155606082015181600301556080820151816004015560a0820151816005015590505061158b848361235f565b6116c1565b816000015173ffffffffffffffffffffffffffffffffffffffff16826060015173ffffffffffffffffffffffffffffffffffffffff16146115d55781600001516115db565b81602001515b826060019073ffffffffffffffffffffffffffffffffffffffff16908173ffffffffffffffffffffffffffffffffffffffff16815250508060096000868152602001908152602001600020600084604001518152602001908152602001600020600082015181600001556020820151816001015560408201518160020155606082015181600301556080820151816004015560a082015181600501559050506116848483611973565b837f278844837bcf8364a705384bf3a2812901f54155bae86dea81dd52aa5b9ec0e383604001516040516116b89190612ec1565b60405180910390a25b50505050565b6116cf611779565b600073ffffffffffffffffffffffffffffffffffffffff168173ffffffffffffffffffffffffffffffffffffffff160361173e576040517f08c379a00000000000000000000000000000000000000000000000000000000081526004016117359061368a565b60405180910390fd5b611747816117f7565b50565b6000611758826000016128df565b9050919050565b600061176e83600001836128f0565b60001c905092915050565b61178161291b565b73ffffffffffffffffffffffffffffffffffffffff1661179f61066f565b73ffffffffffffffffffffffffffffffffffffffff16146117f5576040517f08c379a00000000000000000000000000000000000000000000000000000000081526004016117ec906136f6565b60405180910390fd5b565b60008060009054906101000a900473ffffffffffffffffffffffffffffffffffffffff169050816000806101000a81548173ffffffffffffffffffffffffffffffffffffffff021916908373ffffffffffffffffffffffffffffffffffffffff1602179055508173ffffffffffffffffffffffffffffffffffffffff168173ffffffffffffffffffffffffffffffffffffffff167f8be0079c531659141344cd1fd0a4f28419497f9722a3daafe3b4186f6b6457e060405160405180910390a35050565b600081600001549050919050565b6000600c60008473ffffffffffffffffffffffffffffffffffffffff1673ffffffffffffffffffffffffffffffffffffffff16815260200190815260200160002060008373ffffffffffffffffffffffffffffffffffffffff1673ffffffffffffffffffffffffffffffffffffffff16815260200190815260200160002060009054906101000a900460ff16905092915050565b6001816000016000828254019250508190555050565b80600a600084815260200190815260200160002060008201518160000160006101000a81548173ffffffffffffffffffffffffffffffffffffffff021916908373ffffffffffffffffffffffffffffffffffffffff16021790555060208201518160010160006101000a81548173ffffffffffffffffffffffffffffffffffffffff021916908373ffffffffffffffffffffffffffffffffffffffff1602179055506040820151816002015560608201518160030160006101000a81548173ffffffffffffffffffffffffffffffffffffffff021916908373ffffffffffffffffffffffffffffffffffffffff160217905550608082015181600401600082015181600001556020820151816001015560408201518160020155606082015181600301556080820151816004015560a08201518160050155505060a082015181600a015560c082015181600b015560e082015181600c0160006101000a81548173ffffffffffffffffffffffffffffffffffffffff021916908373ffffffffffffffffffffffffffffffffffffffff1602179055509050505050565b6000611b21836000018360001b612923565b905092915050565b611b3360016118bb565b821115611b75576040517f08c379a0000000000000000000000000000000000000000000000000000000008152600401611b6c9061333c565b60405180910390fd5b6000611b80836120f7565b9050806000015173ffffffffffffffffffffffffffffffffffffffff163373ffffffffffffffffffffffffffffffffffffffff161480611bef5750806020015173ffffffffffffffffffffffffffffffffffffffff163373ffffffffffffffffffffffffffffffffffffffff16145b611c2e576040517f08c379a0000000000000000000000000000000000000000000000000000000008152600401611c2590613762565b60405180910390fd5b3373ffffffffffffffffffffffffffffffffffffffff16816060015173ffffffffffffffffffffffffffffffffffffffff1614611ca0576040517f08c379a0000000000000000000000000000000000000000000000000000000008152600401611c97906137ce565b60405180910390fd5b60008060008060005b6003811015611e8857856000015173ffffffffffffffffffffffffffffffffffffffff163373ffffffffffffffffffffffffffffffffffffffff1603611db157600960008981526020019081526020016000206000600183611d0b91906133c8565b81526020019081526020016000206000015485611d2891906133c8565b9450600960008981526020019081526020016000206000600183611d4c91906133c8565b81526020019081526020016000206001015484611d6991906133c8565b9350600960008981526020019081526020016000206000600183611d8d91906133c8565b81526020019081526020016000206002015483611daa91906133c8565b9250611e75565b600960008981526020019081526020016000206000600183611dd391906133c8565b81526020019081526020016000206003015485611df091906133c8565b9450600960008981526020019081526020016000206000600183611e1491906133c8565b81526020019081526020016000206004015484611e3191906133c8565b9350600960008981526020019081526020016000206000600183611e5591906133c8565b81526020019081526020016000206005015483611e7291906133c8565b92505b8080611e80906132a8565b915050611ca9565b50818385611e9691906133c8565b611ea091906133c8565b81611eab91906133c8565b905060058487600060038110611ec457611ec361324a565b5b6020020135611ed391906133c8565b1115611f14576040517f08c379a0000000000000000000000000000000000000000000000000000000008152600401611f0b906134b4565b60405180910390fd5b60028387600160038110611f2b57611f2a61324a565b5b6020020135611f3a91906133c8565b1115611f7b576040517f08c379a0000000000000000000000000000000000000000000000000000000008152600401611f7290613520565b60405180910390fd5b60038287600260038110611f9257611f9161324a565b5b6020020135611fa191906133c8565b1115611fe2576040517f08c379a0000000000000000000000000000000000000000000000000000000008152600401611fd99061358c565b60405180910390fd5b600086600260038110611ff857611ff761324a565b5b6020020135876001600381106120115761201061324a565b5b60200201358860006003811061202a5761202961324a565b5b602002013561203991906133c8565b61204391906133c8565b905060008111612088576040517f08c379a000000000000000000000000000000000000000000000000000000000815260040161207f9061383a565b60405180910390fd5b60086000876040015181526020019081526020016000205482826120ac91906133c8565b11156120ed576040517f08c379a00000000000000000000000000000000000000000000000000000000081526004016120e4906135f8565b60405180910390fd5b5050505050505050565b6120ff612b56565b600a6000838152602001908152602001600020604051806101000160405290816000820160009054906101000a900473ffffffffffffffffffffffffffffffffffffffff1673ffffffffffffffffffffffffffffffffffffffff1673ffffffffffffffffffffffffffffffffffffffff1681526020016001820160009054906101000a900473ffffffffffffffffffffffffffffffffffffffff1673ffffffffffffffffffffffffffffffffffffffff1673ffffffffffffffffffffffffffffffffffffffff168152602001600282015481526020016003820160009054906101000a900473ffffffffffffffffffffffffffffffffffffffff1673ffffffffffffffffffffffffffffffffffffffff1673ffffffffffffffffffffffffffffffffffffffff168152602001600482016040518060c001604052908160008201548152602001600182015481526020016002820154815260200160038201548152602001600482015481526020016005820154815250508152602001600a8201548152602001600b8201548152602001600c820160009054906101000a900473ffffffffffffffffffffffffffffffffffffffff1673ffffffffffffffffffffffffffffffffffffffff1673ffffffffffffffffffffffffffffffffffffffff16815250509050919050565b60008082608001516040015183608001516020015184608001516000015161231391906133c8565b61231d91906133c8565b11801561235857506000826080015160a0015183608001516080015184608001516060015161234c91906133c8565b61235691906133c8565b115b9050919050565b60008160a00151905060008260c001519050600060066000015484608001516040015161238c919061385a565b6004600001548560800151602001516123a5919061385a565b6002600001548660800151600001516123be919061385a565b6123c891906133c8565b6123d291906133c8565b905060006006600101548560800151604001516123ef919061385a565b600460010154866080015160200151612408919061385a565b600260010154876080015160000151612421919061385a565b61242b91906133c8565b61243591906133c8565b90506000600660000154866080015160a00151612452919061385a565b60046000015487608001516080015161246b919061385a565b600260000154886080015160600151612484919061385a565b61248e91906133c8565b61249891906133c8565b90506000600660010154876080015160a001516124b5919061385a565b6004600101548860800151608001516124ce919061385a565b6002600101548960800151606001516124e7919061385a565b6124f191906133c8565b6124fb91906133c8565b905060006040518060c0016040528060008152602001600081526020016000815260200160008152602001600081526020016000815250905060006040518061010001604052808a6000015173ffffffffffffffffffffffffffffffffffffffff1681526020018a6020015173ffffffffffffffffffffffffffffffffffffffff1681526020018a6040015181526020018a6060015173ffffffffffffffffffffffffffffffffffffffff1681526020018381526020016125c58a6125c0888a612993565b6129b8565b81526020016125dd896125d88a88612993565b6129b8565b8152602001600073ffffffffffffffffffffffffffffffffffffffff16815250905060038960400151036128725760008160c001518260a00151101561262757896020015161262d565b89600001515b905060008260400181815250506000826060019073ffffffffffffffffffffffffffffffffffffffff16908173ffffffffffffffffffffffffffffffffffffffff1681525050808260e0019073ffffffffffffffffffffffffffffffffffffffff16908173ffffffffffffffffffffffffffffffffffffffff16815250506000600c60008c6000015173ffffffffffffffffffffffffffffffffffffffff1673ffffffffffffffffffffffffffffffffffffffff16815260200190815260200160002060008c6020015173ffffffffffffffffffffffffffffffffffffffff1673ffffffffffffffffffffffffffffffffffffffff16815260200190815260200160002060006101000a81548160ff0219169083151502179055506127528b83611973565b8a7f8aba4bf97c53cd5124a16826906cf29c99e37b45dcaccff77292ab676a81b5278b604001516040516127869190612ec1565b60405180910390a28073ffffffffffffffffffffffffffffffffffffffff167f659ab4616759704498ed851deaf5cf2eb0b2869d85580cd68a3371aea737e7008c8c6000015173ffffffffffffffffffffffffffffffffffffffff168473ffffffffffffffffffffffffffffffffffffffff1614612808578460c0015161280e565b8460a001515b8d6020015173ffffffffffffffffffffffffffffffffffffffff168573ffffffffffffffffffffffffffffffffffffffff161461284f578560c00151612855565b8560a001515b6040516128649392919061389c565b60405180910390a2506128d3565b6001896040015161288391906133c8565b8160400181815250506128968a82611973565b897f8aba4bf97c53cd5124a16826906cf29c99e37b45dcaccff77292ab676a81b5278a604001516040516128ca9190612ec1565b60405180910390a25b50505050505050505050565b600081600001805490509050919050565b60008260000182815481106129085761290761324a565b5b9060005260206000200154905092915050565b600033905090565b600061292f83836129dd565b61298857826000018290806001815401808255809150506001900390600052602060002001600090919091909150558260000180549050836001016000848152602001908152602001600020819055506001905061298d565b600090505b92915050565b60008183116129a35760006129b0565b81836129af91906138d3565b5b905092915050565b60008183116129c85760006129d5565b81836129d491906138d3565b5b905092915050565b600080836001016000848152602001908152602001600020541415905092915050565b6040518060c0016040528060008152602001600073ffffffffffffffffffffffffffffffffffffffff168152602001600073ffffffffffffffffffffffffffffffffffffffff16815260200160008152602001600073ffffffffffffffffffffffffffffffffffffffff168152602001600073ffffffffffffffffffffffffffffffffffffffff1681525090565b6040518060e00160405280600073ffffffffffffffffffffffffffffffffffffffff168152602001600073ffffffffffffffffffffffffffffffffffffffff16815260200160008152602001600073ffffffffffffffffffffffffffffffffffffffff168152602001612aff612b29565b815260200160008152602001600073ffffffffffffffffffffffffffffffffffffffff1681525090565b60405180606001604052806003905b612b40612bf9565b815260200190600190039081612b385790505090565b604051806101000160405280600073ffffffffffffffffffffffffffffffffffffffff168152602001600073ffffffffffffffffffffffffffffffffffffffff16815260200160008152602001600073ffffffffffffffffffffffffffffffffffffffff168152602001612bc8612bf9565b81526020016000815260200160008152602001600073ffffffffffffffffffffffffffffffffffffffff1681525090565b6040518060c001604052806000815260200160008152602001600081526020016000815260200160008152602001600081525090565b600080fd5b600073ffffffffffffffffffffffffffffffffffffffff82169050919050565b6000612c5f82612c34565b9050919050565b612c6f81612c54565b8114612c7a57600080fd5b50565b600081359050612c8c81612c66565b92915050565b6000819050919050565b612ca581612c92565b8114612cb057600080fd5b50565b600081359050612cc281612c9c565b92915050565b600080600060608486031215612ce157612ce0612c2f565b5b6000612cef86828701612c7d565b9350506020612d0086828701612cb3565b9250506040612d1186828701612cb3565b9150509250925092565b600081519050919050565b600082825260208201905092915050565b6000819050602082019050919050565b612d5081612c92565b82525050565b612d5f81612c54565b82525050565b60c082016000820151612d7b6000850182612d47565b506020820151612d8e6020850182612d56565b506040820151612da16040850182612d56565b506060820151612db46060850182612d47565b506080820151612dc76080850182612d56565b5060a0820151612dda60a0850182612d56565b50505050565b6000612dec8383612d65565b60c08301905092915050565b6000602082019050919050565b6000612e1082612d1b565b612e1a8185612d26565b9350612e2583612d37565b8060005b83811015612e56578151612e3d8882612de0565b9750612e4883612df8565b925050600181019050612e29565b5085935050505092915050565b60006020820190508181036000830152612e7d8184612e05565b905092915050565b600060208284031215612e9b57612e9a612c2f565b5b6000612ea984828501612c7d565b91505092915050565b612ebb81612c92565b82525050565b6000602082019050612ed66000830184612eb2565b92915050565b612ee581612c54565b82525050565b6000602082019050612f006000830184612edc565b92915050565b600060208284031215612f1c57612f1b612c2f565b5b6000612f2a84828501612cb3565b91505092915050565b600060039050919050565b600081905092915050565b6000819050919050565b60c082016000820151612f696000850182612d47565b506020820151612f7c6020850182612d47565b506040820151612f8f6040850182612d47565b506060820151612fa26060850182612d47565b506080820151612fb56080850182612d47565b5060a0820151612fc860a0850182612d47565b50505050565b6000612fda8383612f53565b60c08301905092915050565b6000602082019050919050565b612ffc81612f33565b6130068184612f3e565b925061301182612f49565b8060005b838110156130425781516130298782612fce565b965061303483612fe6565b925050600181019050613015565b505050505050565b610300820160008201516130616000850182612d56565b5060208201516130746020850182612d56565b5060408201516130876040850182612d47565b50606082015161309a6060850182612d56565b5060808201516130ad6080850182612ff3565b5060a08201516130c16102c0850182612d47565b5060c08201516130d56102e0850182612d56565b50505050565b6000610300820190506130f1600083018461304a565b92915050565b600080fd5b600081905082602060030282011115613118576131176130f7565b5b92915050565b6000806080838503121561313557613134612c2f565b5b600061314385828601612c7d565b9250506020613154858286016130fc565b9150509250929050565b6000806080838503121561317557613174612c2f565b5b600061318385828601612cb3565b9250506020613194858286016130fc565b9150509250929050565b600082825260208201905092915050565b7f43616e2774207265717565737420746f6f206d616e79207265636f7264732100600082015250565b60006131e5601f8361319e565b91506131f0826131af565b602082019050919050565b60006020820190508181036000830152613214816131d8565b9050919050565b7f4e487b7100000000000000000000000000000000000000000000000000000000600052604160045260246000fd5b7f4e487b7100000000000000000000000000000000000000000000000000000000600052603260045260246000fd5b7f4e487b7100000000000000000000000000000000000000000000000000000000600052601160045260246000fd5b60006132b382612c92565b91507fffffffffffffffffffffffffffffffffffffffffffffffffffffffffffffffff82036132e5576132e4613279565b5b600182019050919050565b7f426174746c6520696420646f65736e2774206578697374000000000000000000600082015250565b600061332660178361319e565b9150613331826132f0565b602082019050919050565b6000602082019050818103600083015261335581613319565b9050919050565b7f556e617574686f72697a65640000000000000000000000000000000000000000600082015250565b6000613392600c8361319e565b915061339d8261335c565b602082019050919050565b600060208201905081810360008301526133c181613385565b9050919050565b60006133d382612c92565b91506133de83612c92565b92508282019050808211156133f6576133f5613279565b5b92915050565b7f5573652072657175657374426174746c65000000000000000000000000000000600082015250565b600061343260118361319e565b915061343d826133fc565b602082019050919050565b6000602082019050818103600083015261346181613425565b9050919050565b7f45786365656473205072656461746f7273206d61780000000000000000000000600082015250565b600061349e60158361319e565b91506134a982613468565b602082019050919050565b600060208201905081810360008301526134cd81613491565b9050919050565b7f457863656564732050726f78696d757320436f627261206d6178000000000000600082015250565b600061350a601a8361319e565b9150613515826134d4565b602082019050919050565b60006020820190508181036000830152613539816134fd565b9050919050565b7f4578636565647320426f756e74792048756e746572206d617800000000000000600082015250565b600061357660198361319e565b915061358182613540565b602082019050919050565b600060208201905081810360008301526135a581613569565b9050919050565b7f546f6f206d616e792074726f6f70732100000000000000000000000000000000600082015250565b60006135e260108361319e565b91506135ed826135ac565b602082019050919050565b60006020820190508181036000830152613611816135d5565b9050919050565b7f4f776e61626c653a206e6577206f776e657220697320746865207a65726f206160008201527f6464726573730000000000000000000000000000000000000000000000000000602082015250565b600061367460268361319e565b915061367f82613618565b604082019050919050565b600060208201905081810360008301526136a381613667565b9050919050565b7f4f776e61626c653a2063616c6c6572206973206e6f7420746865206f776e6572600082015250565b60006136e060208361319e565b91506136eb826136aa565b602082019050919050565b6000602082019050818103600083015261370f816136d3565b9050919050565b7f43616e27742072657175657374207468697320626174746c6500000000000000600082015250565b600061374c60198361319e565b915061375782613716565b602082019050919050565b6000602082019050818103600083015261377b8161373f565b9050919050565b7f4e6f7420796f7572207475726e21000000000000000000000000000000000000600082015250565b60006137b8600e8361319e565b91506137c382613782565b602082019050919050565b600060208201905081810360008301526137e7816137ab565b9050919050565b7f4d7573742073656e642074726f6f707321000000000000000000000000000000600082015250565b600061382460118361319e565b915061382f826137ee565b602082019050919050565b6000602082019050818103600083015261385381613817565b9050919050565b600061386582612c92565b915061387083612c92565b925082820261387e81612c92565b9150828204841483151761389557613894613279565b5b5092915050565b60006060820190506138b16000830186612eb2565b6138be6020830185612eb2565b6138cb6040830184612eb2565b949350505050565b60006138de82612c92565b91506138e983612c92565b925082820390508181111561390157613900613279565b5b9291505056fea2646970667358221220c00b8ccb2d490ad44fff7e3feacf58d210b629659b012d9ac26182b9bd2af94164736f6c63430008110033",
  "immutableReferences": {},
  "source": "// SPDX-License-Identifier: MIT\npragma solidity 0.8.17;\n\nimport \"@openzeppelin/contracts/access/Ownable.sol\";\nimport \"@openzeppelin/contracts/utils/Counters.sol\";\nimport \"@openzeppelin/contracts/utils/structs/EnumerableSet.sol\";\n\ncontract EternovaQuickBattles is Ownable{\n\t\n\tusing Counters for Counters.Counter;\n\tusing EnumerableSet for EnumerableSet.UintSet;\n\n    Counters.Counter private _battleIds;\n\n\tevent BattleStarted(uint indexed id, address indexed creator, address indexed opponent);\n\tevent BattleFinished(uint id, address indexed winner, uint winnerCityLife, uint looserCityLife);\n\n\tevent RoundStarted(uint indexed id, uint currentRound);\t\n\tevent RoundFinished(uint indexed id, uint currentRound);\n\t\n\tstruct Troop {\n\t\tuint attack;\n\t\tuint defense;\t\t\n\t}\n\n\tTroop private predator = Troop(40,100);\n\tTroop private proximusCobra = Troop(200,200);\n\tTroop private bounty_hunters = Troop(150,50);\n\n\tuint constant MAX_ROUNDS = 3;\n\n\tuint constant PREDATOR_UNITS = 5;\n\tuint constant PROXIMUS_COBRA_UNITS = 2;\n\tuint constant BOUNTY_HUNTERS_UNITS = 3;\n\t\n\tuint constant STARTING_LIFE = 500;\n\n\tuint constant MAX_UNITS_FIRST_ROUND = 8;\n\tuint constant MAX_UNITS_SECOND_ROUND = 9;\n\tuint constant MAX_UNITS_THIRD_ROUND = 10;\n\n\t//Round N => Max units\n\tmapping(uint => uint) roundMaxUnits;\n\t\n\tuint constant FIRST_ROUND = 1;\n\tuint constant SECOND_ROUND = 2;\n\tuint constant THIRD_ROUND = 3;\n\n\tstruct BattleData {\n\t\taddress creator;\n\t\taddress opponent;\n\t\tuint currentRound;\n\t\taddress nextMove;\n\t\tBattleAmount amounts;\n\t\tuint creatorCityLife;\n\t\tuint opponentCityLife;\n\t\taddress winner;\n\t}\n\n\tstruct BattleAmount {\n\t\tuint predatorAttackingUnits;\n\t\tuint proximusAttackingUnits;\n\t\tuint bountyAttackingUnits;\n\t\tuint predatorDefendingUnits;\n\t\tuint proximusDefendingUnits;\n\t\tuint bountyDefendingUnits;\n\t}\n\n\t//BattleId => Round => Amount\n\tmapping (uint => mapping(uint => BattleAmount)) private roundsAmounts;\n\n\t//BattleId => Data\n\tmapping (uint => BattleData) private battle;\n\n\t//User => [battleId]\n\tmapping(address => EnumerableSet.UintSet) private userBattle;\n\n\tmapping(address => mapping(address => bool)) currentlyFighting;\n\t\t\t\n\tconstructor() {\n\t\troundMaxUnits[1] = MAX_UNITS_FIRST_ROUND;\t\t\n\t\troundMaxUnits[2] = MAX_UNITS_SECOND_ROUND;\t\t\n\t\troundMaxUnits[3] = MAX_UNITS_THIRD_ROUND;\t\t\n\t}\n\n\tfunction startBattle(address opponent, uint[3] calldata troopsAmount) external returns(uint){\n\t\trequire(!areCurrentlyFighting(msg.sender, opponent), \"Use requestBattle\");\n\t\trequire(troopsAmount[0] <= PREDATOR_UNITS,\"Exceeds Predators max\");\n\t\trequire(troopsAmount[1] <= PROXIMUS_COBRA_UNITS,\"Exceeds Proximus Cobra max\");\n\t\trequire(troopsAmount[2] <= BOUNTY_HUNTERS_UNITS,\"Exceeds Bounty Hunter max\");\n\t\n\t\tuint totalTroops = troopsAmount[0] + troopsAmount[1] + troopsAmount[2];\n\t\trequire(totalTroops <= roundMaxUnits[FIRST_ROUND],\"Too many troops!\");\n\n\t\t_battleIds.increment();\n\n\t\tBattleAmount memory amounts = BattleAmount(\n\t\t\t\t\t\t\t\t\t\t\ttroopsAmount[0], //predatorAttackingUnits\n\t\t\t\t\t\t\t\t\t\t\ttroopsAmount[1], //proximusAttackingUnits\n\t\t\t\t\t\t\t\t\t\t\ttroopsAmount[2], //bountyAttackingUnits\n\t\t\t\t\t\t\t\t\t\t\t0, //predatorDefendingUnits\n\t\t\t\t\t\t\t\t\t\t\t0, //proximusDefendingUnits\n\t\t\t\t\t\t\t\t\t\t\t0 //bountyDefendingUnits\n\t\t\t\t\t\t\t\t\t\t);\n\t\t\n\t\tBattleData memory data = BattleData(\n\t\t\tmsg.sender, //Creator\n\t\t\topponent, //Opponnent\n\t\t\tFIRST_ROUND, //currentRound\n\t\t\topponent, //NextMove\n\t\t\tamounts,\n\t\t\tSTARTING_LIFE, //creatorCityLife\n\t\t\tSTARTING_LIFE, //opponentCityLife\n\t\t\taddress(0) //Winner\n\t\t\t);\n\n\t\troundsAmounts[_battleIds.current()][FIRST_ROUND] = amounts;\n\t\tsetBattle(_battleIds.current(), data);\n\t\tuserBattle[msg.sender].add(_battleIds.current());\n\t\tcurrentlyFighting[msg.sender][opponent] = true;\n\t\temit RoundStarted(_battleIds.current(), data.currentRound);\n\n\t\treturn _battleIds.current();\n\t}\n\n\t//Troops amount for each type [predator, proximusCobra,bounty_hunters]\t\n\tfunction requestBattle(uint id, uint[3] calldata troopsAmount) external {\n\t\tvalidateBattleData(id, troopsAmount);\n\t\tBattleData memory data = getBattleData(id);\n\n\t\tBattleAmount memory amounts = BattleAmount(\n\t\t\t\t\t\t\t\t\tmsg.sender == data.creator ? troopsAmount[0] : data.amounts.predatorAttackingUnits, //predatorAttackingUnits\n\t\t\t\t\t\t\t\t\tmsg.sender == data.creator ? troopsAmount[1] : data.amounts.proximusAttackingUnits, //proximusAttackingUnits\n\t\t\t\t\t\t\t\t\tmsg.sender == data.creator ? troopsAmount[2] : data.amounts.bountyAttackingUnits, //bountyAttackingUnits\n\t\t\t\t\t\t\t\t\tmsg.sender == data.opponent ? troopsAmount[0] : data.amounts.predatorDefendingUnits, //predatorDefendingUnits\n\t\t\t\t\t\t\t\t\tmsg.sender == data.opponent ? troopsAmount[1] : data.amounts.proximusDefendingUnits, //proximusDefendingUnits\n\t\t\t\t\t\t\t\t\tmsg.sender == data.opponent ? troopsAmount[2] : data.amounts.bountyDefendingUnits //bountyDefendingUnits\n\t\t\t\t\t\t\t\t\t);\n\t\t\n\t\tdata = BattleData(\n\t\t\tdata.creator,\n\t\t\tdata.opponent,\n\t\t\tdata.currentRound, //currentRound\n\t\t\tdata.nextMove, //NextMove\n\t\t\tamounts,\n\t\t\tdata.creatorCityLife, //creatorCityLife\n\t\t\tdata.opponentCityLife, //opponentCityLife\n\t\t\taddress(0) //winner\n\t\t\t);\n\n\t\tif (didBothPlayersMoved(data)){\n\t\t\troundsAmounts[id][data.currentRound] = amounts;\n\t\t\tresolveRound(id, data);\n\t\t}else{\n\t\t\tdata.nextMove = data.nextMove == data.creator ? data.opponent : data.creator;\n\t\t\troundsAmounts[id][data.currentRound] = amounts;\n\t\t\tsetBattle(id, data);\n\t\t\temit RoundStarted(id, data.currentRound);\n\t\t}\n\t}\n\n\tfunction didBothPlayersMoved(BattleData memory data) internal pure returns(bool){\n\t\treturn data.amounts.predatorAttackingUnits + data.amounts.proximusAttackingUnits + data.amounts.bountyAttackingUnits > 0 &&\n\tdata.amounts.predatorDefendingUnits + data.amounts.proximusDefendingUnits + data.amounts.bountyDefendingUnits > 0;\n\t}\n\n\tfunction validateBattleData(uint id,uint[3] calldata troopsAmount) internal view{\n\t\trequire(id <= _battleIds.current(),\"Battle id doesn't exist\");\n\t\tBattleData memory data = getBattleData(id);\n\t\trequire(msg.sender == data.creator || msg.sender == data.opponent,\"Can't request this battle\");\n\t\trequire(data.nextMove == msg.sender,\"Not your turn!\");\n\t\t\n\t\tuint predatorUsed;\n\t\tuint proximusUsed;\n\t\tuint bountyUsed;\n\t\tuint totalUsed;\n\n\t\tfor (uint i; i < 3; i++){\t\t\t\n\t\t\tif (msg.sender == data.creator){\n\t\t\t\tpredatorUsed += roundsAmounts[id][i+1].predatorAttackingUnits;\n\t\t\t\tproximusUsed += roundsAmounts[id][i+1].proximusAttackingUnits;\n\t\t\t\tbountyUsed += roundsAmounts[id][i+1].bountyAttackingUnits;\t\t\t\t\n\t\t\t}else{\n\t\t\t\tpredatorUsed += roundsAmounts[id][i+1].predatorDefendingUnits;\n\t\t\t\tproximusUsed += roundsAmounts[id][i+1].proximusDefendingUnits;\n\t\t\t\tbountyUsed += roundsAmounts[id][i+1].bountyDefendingUnits;\n\t\t\t}\n\t\t}\n\t\ttotalUsed += predatorUsed + proximusUsed + bountyUsed;\n\n\t\trequire(troopsAmount[0] + predatorUsed <= PREDATOR_UNITS,\"Exceeds Predators max\");\n\t\trequire(troopsAmount[1] + proximusUsed <= PROXIMUS_COBRA_UNITS,\"Exceeds Proximus Cobra max\");\n\t\trequire(troopsAmount[2] + bountyUsed <= BOUNTY_HUNTERS_UNITS,\"Exceeds Bounty Hunter max\");\n\t\t\t\t\n\t\tuint troopsSent = troopsAmount[0] + troopsAmount[1] + troopsAmount[2];\n\n\t\trequire(troopsSent > 0,\"Must send troops!\");\n\t\trequire((troopsSent + totalUsed) <= roundMaxUnits[data.currentRound],\"Too many troops!\");\n\t}\n\n\tfunction resolveRound (uint id, BattleData memory data) internal {\t\t\n\t\tuint creatorCurrentCityLife = data.creatorCityLife;\n\t\tuint opponentCurrentCityLife = data.opponentCityLife;\n\t\t//Creator\n\t\tuint creatorTotalAttack = data.amounts.predatorAttackingUnits * predator.attack + data.amounts.proximusAttackingUnits * proximusCobra.attack + data.amounts.bountyAttackingUnits * bounty_hunters.attack;\n\t\tuint creatorTotalDefense = data.amounts.predatorAttackingUnits * predator.defense + data.amounts.proximusAttackingUnits * proximusCobra.defense + data.amounts.bountyAttackingUnits * bounty_hunters.defense;\n\t\t//Opponent\n\t\tuint opponentTotalAttack = data.amounts.predatorDefendingUnits * predator.attack + data.amounts.proximusDefendingUnits * proximusCobra.attack + data.amounts.bountyDefendingUnits * bounty_hunters.attack;\n\t\tuint opponentTotalDefense = data.amounts.predatorDefendingUnits * predator.defense + data.amounts.proximusDefendingUnits * proximusCobra.defense + data.amounts.bountyDefendingUnits * bounty_hunters.defense;\n\n\t\tBattleAmount memory amounts = BattleAmount(\n\t\t\t\t\t\t\t\t0, //predatorAttackingUnits\n\t\t\t\t\t\t\t\t0, //proximusAttackingUnits\n\t\t\t\t\t\t\t\t0, //bountyAttackingUnits\n\t\t\t\t\t\t\t\t0, //predatorDefendingUnits\n\t\t\t\t\t\t\t\t0, //proximusDefendingUnits\n\t\t\t\t\t\t\t\t0 //bountyDefendingUnits\n\t\t\t\t\t\t\t);\n\t\tBattleData memory newData = BattleData(\n\t\t\tdata.creator,\n\t\t\tdata.opponent,\n\t\t\tdata.currentRound, //currentRound\n\t\t\tdata.nextMove,\n\t\t\tamounts,\n\t\t\tgetRemainingLife(creatorCurrentCityLife, getTotalDamage(opponentTotalAttack, creatorTotalDefense)), //creatorCityLife\n\t\t\tgetRemainingLife(opponentCurrentCityLife, getTotalDamage(creatorTotalAttack, opponentTotalDefense)), //opponentCityLife\n\t\t\taddress(0) //Winner\n\t\t);\n\t\t\n\t\tif (data.currentRound == THIRD_ROUND){\n\t\t\taddress winner = newData.creatorCityLife >= newData.opponentCityLife ? data.creator : data.opponent;\n\t\t\tnewData.currentRound = 0;\n\t\t\tnewData.nextMove = address(0);\n\t\t\tnewData.winner = winner;\n\t\t\tcurrentlyFighting[data.creator][data.opponent] = false;\n\t\t\tsetBattle(id, newData);\n\t\t\temit RoundFinished(id, data.currentRound);\n\t\t\temit BattleFinished(id, winner, winner == data.creator ? newData.creatorCityLife : newData.opponentCityLife, winner == data.opponent ? newData.creatorCityLife : newData.opponentCityLife);\n\t\t}else{\n\t\t\tnewData.currentRound = data.currentRound + 1;\n\t\t\t\n\t\t\tsetBattle(id, newData);\n\t\t\temit RoundFinished(id, data.currentRound);\t\t\t\t\n\t\t}\n\n\t}\n\t\n\tfunction getTotalDamage(uint attack, uint defense) internal pure returns(uint){\n\t\treturn attack > defense ? attack - defense : 0;\n\t}\n\t\n\tfunction getRemainingLife(uint currentLife, uint damage) internal pure returns(uint){\n\t\treturn currentLife > damage ? currentLife - damage : 0;\n\t}\n\n\tfunction getBattleData(uint id) internal view returns(BattleData memory){\n\t\treturn battle[id];\n\t}\n\n\tstruct PublicBattleData {\n\t\taddress creator;\n\t\taddress opponent;\n\t\tuint currentRound;\n\t\taddress nextMove;\n\t\tBattleAmount[3] amounts;\n\t\tuint cityLife;\n\t\taddress winner;\n\t}\n\n\tfunction getPublicBattleData(uint id) external view returns(PublicBattleData memory data){\n\t\trequire(id <= _battleIds.current(),\"Battle id doesn't exist\");\n\t\tBattleData memory battleData = battle[id];\n\t\trequire(msg.sender == battleData.creator || msg.sender == battleData.opponent ,\"Unauthorized\");\n\n\t\tBattleAmount[3] memory amount;\n\n\t\tdata.creator = battleData.creator;\n\t\tdata.opponent = battleData.opponent;\n\t\tdata.currentRound = battleData.currentRound;\n\t\tdata.nextMove = battleData.nextMove;\n\t\t\n\t\tfor (uint i; i < 3; i++){\n\t\t\tamount[i] = roundsAmounts[id][i+1];\n\t\t\tif (battleData.winner == address(0)){\n\t\t\t\tif (msg.sender == data.creator){\n\t\t\t\t\tamount[i].predatorDefendingUnits = 0;\n\t\t\t\t\tamount[i].proximusDefendingUnits = 0;\n\t\t\t\t\tamount[i].bountyDefendingUnits = 0;\n\t\t\t\t}else{\n\t\t\t\t\tamount[i].predatorAttackingUnits = 0;\n\t\t\t\t\tamount[i].proximusAttackingUnits = 0;\n\t\t\t\t\tamount[i].bountyAttackingUnits = 0;\n\t\t\t\t}\n\t\t\t}\n\t\t}\n\t\t\t\t\t\n\t\tdata.amounts = amount;\n\t\tdata.cityLife = msg.sender == data.creator ? battleData.creatorCityLife : battleData.opponentCityLife;\n\t\tdata.winner = battleData.winner;\n\n\t\treturn data;\n\t}\n\n\tfunction setBattle(uint id,BattleData memory data) internal{\n\t\tbattle[id] = data;\n\t}\n\n\tstruct BattleDataResponse {\n\t\tuint battleId;\n\t\taddress creator;\n\t\taddress opponent;\n\t\tuint currentRound;\n\t\taddress nextMove;\n\t\taddress winner;\n\t}\n\n\tfunction getUserBattleData(address user, uint limit, uint offset) external view returns(BattleDataResponse[] memory){\n\t\trequire(limit <= 100, \"Can't request too many records!\");\n\t\tEnumerableSet.UintSet storage _ids = userBattle[user];\n\t\tuint battleCount = _ids.length() <= 100 ? _ids.length() : 100;\n\t\tuint queryLimit = (battleCount > limit && limit != 0 ? limit : battleCount);\n\t\tuint responseIndex;\n\t\tBattleDataResponse[]memory response = new BattleDataResponse[](queryLimit);\n\t\tfor (uint i = offset; i < queryLimit; i++){\n\t\t\tuint id = userBattle[user].at(i);\n\t\t\tBattleData memory data = battle[id];\n\t\t\tresponse[responseIndex] = (\n\t\t\t\tBattleDataResponse(\n\t\t\t\t\tid,\n\t\t\t\t\tdata.creator,\n\t\t\t\t\tdata.opponent,\n\t\t\t\t\tdata.currentRound,\n\t\t\t\t\tdata.nextMove,\n\t\t\t\t\tdata.winner\n\t\t\t\t)\n\t\t\t);\n\t\t\tresponseIndex++;\n\t\t}\n\n\t\treturn response;\n\t}\n\t\n\tfunction areCurrentlyFighting(address creator, address opponent) internal view returns(bool){\n\t\treturn currentlyFighting[creator][opponent];\n\t}\n\n\tfunction getUserBattleCount(address user) external view returns(uint){\n\t\treturn userBattle[user].length();\n\t}\n\n}",
  "sourcePath": "/Users/glenci/EternovaQuickBattles/contracts/EternovaQuickBattles.sol",
  "compiler": {
    "name": "solc",
    "version": "0.8.17+commit.8df45f5f.Emscripten.clang"
  },
  "schemaVersion": "3.4.10",
  "updatedAt": "2023-09-19T12:51:59.283Z",
  "networkType": "ethereum",
  "devdoc": {
    "kind": "dev",
    "methods": {
      "owner()": {
        "details": "Returns the address of the current owner."
      },
      "renounceOwnership()": {
        "details": "Leaves the contract without owner. It will not be possible to call `onlyOwner` functions. Can only be called by the current owner. NOTE: Renouncing ownership will leave the contract without an owner, thereby disabling any functionality that is only available to the owner."
      },
      "transferOwnership(address)": {
        "details": "Transfers ownership of the contract to a new account (`newOwner`). Can only be called by the current owner."
      }
    },
    "version": 1
  },
  "userdoc": {
    "kind": "user",
    "methods": {},
    "version": 1
  }
}