{
  "contractName": "EternovaQuickBattles",
  "abi": [
    {
      "inputs": [],
      "stateMutability": "nonpayable",
      "type": "constructor"
    },
    {
      "anonymous": false,
      "inputs": [
        {
          "indexed": false,
          "internalType": "uint256",
          "name": "id",
          "type": "uint256"
        },
        {
          "indexed": true,
          "internalType": "address",
          "name": "winner",
          "type": "address"
        },
        {
          "indexed": false,
          "internalType": "uint256",
          "name": "winnerCityLife",
          "type": "uint256"
        },
        {
          "indexed": false,
          "internalType": "uint256",
          "name": "looserCityLife",
          "type": "uint256"
        }
      ],
      "name": "BattleFinished",
      "type": "event"
    },
    {
      "anonymous": false,
      "inputs": [
        {
          "indexed": true,
          "internalType": "uint256",
          "name": "id",
          "type": "uint256"
        },
        {
          "indexed": true,
          "internalType": "address",
          "name": "creator",
          "type": "address"
        },
        {
          "indexed": true,
          "internalType": "address",
          "name": "opponent",
          "type": "address"
        }
      ],
      "name": "BattleStarted",
      "type": "event"
    },
    {
      "anonymous": false,
      "inputs": [
        {
          "indexed": true,
          "internalType": "address",
          "name": "previousOwner",
          "type": "address"
        },
        {
          "indexed": true,
          "internalType": "address",
          "name": "newOwner",
          "type": "address"
        }
      ],
      "name": "OwnershipTransferred",
      "type": "event"
    },
    {
      "anonymous": false,
      "inputs": [
        {
          "indexed": true,
          "internalType": "uint256",
          "name": "id",
          "type": "uint256"
        },
        {
          "indexed": false,
          "internalType": "uint256",
          "name": "currentRound",
          "type": "uint256"
        }
      ],
      "name": "RoundFinished",
      "type": "event"
    },
    {
      "anonymous": false,
      "inputs": [
        {
          "indexed": true,
          "internalType": "uint256",
          "name": "id",
          "type": "uint256"
        },
        {
          "indexed": false,
          "internalType": "uint256",
          "name": "currentRound",
          "type": "uint256"
        }
      ],
      "name": "RoundStarted",
      "type": "event"
    },
    {
      "inputs": [],
      "name": "owner",
      "outputs": [
        {
          "internalType": "address",
          "name": "",
          "type": "address"
        }
      ],
      "stateMutability": "view",
      "type": "function",
      "constant": true
    },
    {
      "inputs": [],
      "name": "renounceOwnership",
      "outputs": [],
      "stateMutability": "nonpayable",
      "type": "function"
    },
    {
      "inputs": [
        {
          "internalType": "address",
          "name": "newOwner",
          "type": "address"
        }
      ],
      "name": "transferOwnership",
      "outputs": [],
      "stateMutability": "nonpayable",
      "type": "function"
    },
    {
      "inputs": [
        {
          "internalType": "address",
          "name": "opponent",
          "type": "address"
        },
        {
          "internalType": "uint256[3]",
          "name": "troopsAmount",
          "type": "uint256[3]"
        }
      ],
      "name": "startBattle",
      "outputs": [
        {
          "internalType": "uint256",
          "name": "",
          "type": "uint256"
        }
      ],
      "stateMutability": "nonpayable",
      "type": "function"
    },
    {
      "inputs": [
        {
          "internalType": "uint256",
          "name": "id",
          "type": "uint256"
        },
        {
          "internalType": "uint256[3]",
          "name": "troopsAmount",
          "type": "uint256[3]"
        }
      ],
      "name": "requestBattle",
      "outputs": [],
      "stateMutability": "nonpayable",
      "type": "function"
    },
    {
      "inputs": [
        {
          "internalType": "uint256",
          "name": "id",
          "type": "uint256"
        }
      ],
      "name": "getPublicBattleData",
      "outputs": [
        {
          "components": [
            {
              "internalType": "address",
              "name": "creator",
              "type": "address"
            },
            {
              "internalType": "address",
              "name": "opponent",
              "type": "address"
            },
            {
              "internalType": "uint256",
              "name": "currentRound",
              "type": "uint256"
            },
            {
              "internalType": "address",
              "name": "nextMove",
              "type": "address"
            },
            {
              "internalType": "uint256",
              "name": "predatorUnits",
              "type": "uint256"
            },
            {
              "internalType": "uint256",
              "name": "proximusUnits",
              "type": "uint256"
            },
            {
              "internalType": "uint256",
              "name": "bountyUnits",
              "type": "uint256"
            },
            {
              "internalType": "uint256",
              "name": "cityLife",
              "type": "uint256"
            },
            {
              "internalType": "address",
              "name": "winner",
              "type": "address"
            }
          ],
          "internalType": "struct EternovaQuickBattles.PublicBattleData",
          "name": "data",
          "type": "tuple"
        }
      ],
      "stateMutability": "view",
      "type": "function",
      "constant": true
    },
    {
      "inputs": [
        {
          "internalType": "uint256",
          "name": "id",
          "type": "uint256"
        }
      ],
      "name": "getPublicHistoricBattleData",
      "outputs": [
        {
          "components": [
            {
              "internalType": "address",
              "name": "creator",
              "type": "address"
            },
            {
              "internalType": "address",
              "name": "opponent",
              "type": "address"
            },
            {
              "components": [
                {
                  "internalType": "uint256",
                  "name": "predatorAttackingUnits",
                  "type": "uint256"
                },
                {
                  "internalType": "uint256",
                  "name": "proximusAttackingUnits",
                  "type": "uint256"
                },
                {
                  "internalType": "uint256",
                  "name": "bountyAttackingUnits",
                  "type": "uint256"
                },
                {
                  "internalType": "uint256",
                  "name": "predatorDefendingUnits",
                  "type": "uint256"
                },
                {
                  "internalType": "uint256",
                  "name": "proximusDefendingUnits",
                  "type": "uint256"
                },
                {
                  "internalType": "uint256",
                  "name": "bountyDefendingUnits",
                  "type": "uint256"
                }
              ],
              "internalType": "struct EternovaQuickBattles.BattleAmount[3]",
              "name": "amounts",
              "type": "tuple[3]"
            },
            {
              "internalType": "address",
              "name": "winner",
              "type": "address"
            }
          ],
          "internalType": "struct EternovaQuickBattles.PublicHistoricBattleData",
          "name": "data",
          "type": "tuple"
        }
      ],
      "stateMutability": "view",
      "type": "function",
      "constant": true
    },
    {
      "inputs": [
        {
          "internalType": "address",
          "name": "user",
          "type": "address"
        },
        {
          "internalType": "uint256",
          "name": "limit",
          "type": "uint256"
        },
        {
          "internalType": "uint256",
          "name": "offset",
          "type": "uint256"
        }
      ],
      "name": "getUserBattleData",
      "outputs": [
        {
          "components": [
            {
              "internalType": "uint256",
              "name": "battleId",
              "type": "uint256"
            },
            {
              "internalType": "address",
              "name": "creator",
              "type": "address"
            },
            {
              "internalType": "address",
              "name": "opponent",
              "type": "address"
            },
            {
              "internalType": "uint256",
              "name": "currentRound",
              "type": "uint256"
            },
            {
              "internalType": "address",
              "name": "nextMove",
              "type": "address"
            },
            {
              "internalType": "address",
              "name": "winner",
              "type": "address"
            }
          ],
          "internalType": "struct EternovaQuickBattles.BattleDataResponse[]",
          "name": "",
          "type": "tuple[]"
        }
      ],
      "stateMutability": "view",
      "type": "function",
      "constant": true
    },
    {
      "inputs": [
        {
          "internalType": "address",
          "name": "user",
          "type": "address"
        }
      ],
      "name": "getUserBattleCount",
      "outputs": [
        {
          "internalType": "uint256",
          "name": "",
          "type": "uint256"
        }
      ],
      "stateMutability": "view",
      "type": "function",
      "constant": true
    }
  ],
  "bytecode": "0x60806040526040518060400160405280602881526020016064815250600260008201518160000155602082015181600101555050604051806040016040528060c8815260200160c881525060046000820151816000015560208201518160010155505060405180604001604052806096815260200160328152506006600082015181600001556020820151816001015550503480156200009e57600080fd5b50620000bf620000b36200011260201b60201c565b6200011a60201b60201c565b600880600060018152602001908152602001600020819055506009600860006002815260200190815260200160002081905550600a600860006003815260200190815260200160002081905550620001de565b600033905090565b60008060009054906101000a900473ffffffffffffffffffffffffffffffffffffffff169050816000806101000a81548173ffffffffffffffffffffffffffffffffffffffff021916908373ffffffffffffffffffffffffffffffffffffffff1602179055508173ffffffffffffffffffffffffffffffffffffffff168173ffffffffffffffffffffffffffffffffffffffff167f8be0079c531659141344cd1fd0a4f28419497f9722a3daafe3b4186f6b6457e060405160405180910390a35050565b613c9c80620001ee6000396000f3fe608060405234801561001057600080fd5b50600436106100935760003560e01c806394a8142d1161006657806394a8142d146101205780639c80043814610150578063a5e94e9814610180578063f2fde38b1461019c578063f5169b61146101b857610093565b8063141dfa7914610098578063553bff08146100c8578063715018a6146100f85780638da5cb5b14610102575b600080fd5b6100b260048036038101906100ad9190612f22565b6101e8565b6040516100bf91906130bd565b60405180910390f35b6100e260048036038101906100dd91906130df565b610646565b6040516100ef919061311b565b60405180910390f35b610100610696565b005b61010a6106aa565b6040516101179190613145565b60405180910390f35b61013a60048036038101906101359190613160565b6106d3565b6040516101479190613244565b60405180910390f35b61016a60048036038101906101659190613287565b610c19565b604051610177919061311b565b60405180910390f35b61019a600480360381019061019591906132c7565b611120565b005b6101b660048036038101906101b191906130df565b611605565b005b6101d260048036038101906101cd9190613160565b611688565b6040516101df9190613475565b60405180910390f35b6060606483111561022e576040517f08c379a0000000000000000000000000000000000000000000000000000000008152600401610225906134ee565b60405180910390fd5b6000600b60008673ffffffffffffffffffffffffffffffffffffffff1673ffffffffffffffffffffffffffffffffffffffff16815260200190815260200160002090506000606461027e83611b62565b111561028b576064610295565b61029482611b62565b5b9050600085821180156102a9575060008614155b6102b357816102b5565b855b90506000808267ffffffffffffffff8111156102d4576102d361350e565b5b60405190808252806020026020018201604052801561030d57816020015b6102fa612be1565b8152602001906001900390816102f25790505b50905060008790505b8381101561063657600061037182600b60008e73ffffffffffffffffffffffffffffffffffffffff1673ffffffffffffffffffffffffffffffffffffffff168152602001908152602001600020611b7790919063ffffffff16565b90506000600a6000838152602001908152602001600020604051806101000160405290816000820160009054906101000a900473ffffffffffffffffffffffffffffffffffffffff1673ffffffffffffffffffffffffffffffffffffffff1673ffffffffffffffffffffffffffffffffffffffff1681526020016001820160009054906101000a900473ffffffffffffffffffffffffffffffffffffffff1673ffffffffffffffffffffffffffffffffffffffff1673ffffffffffffffffffffffffffffffffffffffff168152602001600282015481526020016003820160009054906101000a900473ffffffffffffffffffffffffffffffffffffffff1673ffffffffffffffffffffffffffffffffffffffff1673ffffffffffffffffffffffffffffffffffffffff168152602001600482016040518060c001604052908160008201548152602001600182015481526020016002820154815260200160038201548152602001600482015481526020016005820154815250508152602001600a8201548152602001600b8201548152602001600c820160009054906101000a900473ffffffffffffffffffffffffffffffffffffffff1673ffffffffffffffffffffffffffffffffffffffff1673ffffffffffffffffffffffffffffffffffffffff168152505090506040518060c00160405280838152602001826000015173ffffffffffffffffffffffffffffffffffffffff168152602001826020015173ffffffffffffffffffffffffffffffffffffffff16815260200182604001518152602001826060015173ffffffffffffffffffffffffffffffffffffffff1681526020018260e0015173ffffffffffffffffffffffffffffffffffffffff168152508486815181106106085761060761353d565b5b6020026020010181905250848061061e9061359b565b9550505050808061062e9061359b565b915050610316565b5080955050505050509392505050565b600061068f600b60008473ffffffffffffffffffffffffffffffffffffffff1673ffffffffffffffffffffffffffffffffffffffff168152602001908152602001600020611b62565b9050919050565b61069e611b91565b6106a86000611c0f565b565b60008060009054906101000a900473ffffffffffffffffffffffffffffffffffffffff16905090565b6106db612c6f565b6106e56001611cd3565b821115610727576040517f08c379a000000000000000000000000000000000000000000000000000000000815260040161071e9061362f565b60405180910390fd5b6000600a6000848152602001908152602001600020604051806101000160405290816000820160009054906101000a900473ffffffffffffffffffffffffffffffffffffffff1673ffffffffffffffffffffffffffffffffffffffff1673ffffffffffffffffffffffffffffffffffffffff1681526020016001820160009054906101000a900473ffffffffffffffffffffffffffffffffffffffff1673ffffffffffffffffffffffffffffffffffffffff1673ffffffffffffffffffffffffffffffffffffffff168152602001600282015481526020016003820160009054906101000a900473ffffffffffffffffffffffffffffffffffffffff1673ffffffffffffffffffffffffffffffffffffffff1673ffffffffffffffffffffffffffffffffffffffff168152602001600482016040518060c001604052908160008201548152602001600182015481526020016002820154815260200160038201548152602001600482015481526020016005820154815250508152602001600a8201548152602001600b8201548152602001600c820160009054906101000a900473ffffffffffffffffffffffffffffffffffffffff1673ffffffffffffffffffffffffffffffffffffffff1673ffffffffffffffffffffffffffffffffffffffff16815250509050806000015173ffffffffffffffffffffffffffffffffffffffff163373ffffffffffffffffffffffffffffffffffffffff16148061097d5750806020015173ffffffffffffffffffffffffffffffffffffffff163373ffffffffffffffffffffffffffffffffffffffff16145b6109bc576040517f08c379a00000000000000000000000000000000000000000000000000000000081526004016109b39061369b565b60405180910390fd5b8060000151826000019073ffffffffffffffffffffffffffffffffffffffff16908173ffffffffffffffffffffffffffffffffffffffff16815250508060200151826020019073ffffffffffffffffffffffffffffffffffffffff16908173ffffffffffffffffffffffffffffffffffffffff168152505080604001518260400181815250508060600151826060019073ffffffffffffffffffffffffffffffffffffffff16908173ffffffffffffffffffffffffffffffffffffffff1681525050816000015173ffffffffffffffffffffffffffffffffffffffff163373ffffffffffffffffffffffffffffffffffffffff1614610ac357806080015160600151610acd565b8060800151600001515b826080018181525050816000015173ffffffffffffffffffffffffffffffffffffffff163373ffffffffffffffffffffffffffffffffffffffff1614610b1b57806080015160800151610b25565b8060800151602001515b8260a0018181525050816000015173ffffffffffffffffffffffffffffffffffffffff163373ffffffffffffffffffffffffffffffffffffffff1614610b7357806080015160a00151610b7d565b8060800151604001515b8260c0018181525050816000015173ffffffffffffffffffffffffffffffffffffffff163373ffffffffffffffffffffffffffffffffffffffff1614610bc7578060c00151610bcd565b8060a001515b8260e00181815250508060e0015182610100019073ffffffffffffffffffffffffffffffffffffffff16908173ffffffffffffffffffffffffffffffffffffffff168152505050919050565b6000610c253384611ce1565b15610c65576040517f08c379a0000000000000000000000000000000000000000000000000000000008152600401610c5c90613707565b60405180910390fd5b600582600060038110610c7b57610c7a61353d565b5b60200201351115610cc1576040517f08c379a0000000000000000000000000000000000000000000000000000000008152600401610cb890613773565b60405180910390fd5b600282600160038110610cd757610cd661353d565b5b60200201351115610d1d576040517f08c379a0000000000000000000000000000000000000000000000000000000008152600401610d14906137df565b60405180910390fd5b600382600260038110610d3357610d3261353d565b5b60200201351115610d79576040517f08c379a0000000000000000000000000000000000000000000000000000000008152600401610d709061384b565b60405180910390fd5b600082600260038110610d8f57610d8e61353d565b5b602002013583600160038110610da857610da761353d565b5b602002013584600060038110610dc157610dc061353d565b5b6020020135610dd0919061386b565b610dda919061386b565b9050600860006001815260200190815260200160002054811115610e33576040517f08c379a0000000000000000000000000000000000000000000000000000000008152600401610e2a906138eb565b60405180910390fd5b610e3d6001611d75565b60006040518060c0016040528085600060038110610e5e57610e5d61353d565b5b6020020135815260200185600160038110610e7c57610e7b61353d565b5b6020020135815260200185600260038110610e9a57610e9961353d565b5b6020020135815260200160008152602001600081526020016000815250905060006040518061010001604052803373ffffffffffffffffffffffffffffffffffffffff1681526020018773ffffffffffffffffffffffffffffffffffffffff168152602001600181526020018773ffffffffffffffffffffffffffffffffffffffff1681526020018381526020016101f481526020016101f48152602001600073ffffffffffffffffffffffffffffffffffffffff1681525090508160096000610f646001611cd3565b8152602001908152602001600020600060018152602001908152602001600020600082015181600001556020820151816001015560408201518160020155606082015181600301556080820151816004015560a08201518160050155905050610fd6610fd06001611cd3565b82611d8b565b611030610fe36001611cd3565b600b60003373ffffffffffffffffffffffffffffffffffffffff1673ffffffffffffffffffffffffffffffffffffffff168152602001908152602001600020611f2790919063ffffffff16565b506001600c60003373ffffffffffffffffffffffffffffffffffffffff1673ffffffffffffffffffffffffffffffffffffffff16815260200190815260200160002060008873ffffffffffffffffffffffffffffffffffffffff1673ffffffffffffffffffffffffffffffffffffffff16815260200190815260200160002060006101000a81548160ff0219169083151502179055506110d06001611cd3565b7f278844837bcf8364a705384bf3a2812901f54155bae86dea81dd52aa5b9ec0e38260400151604051611103919061311b565b60405180910390a26111156001611cd3565b935050505092915050565b61112a8282611f41565b6000611135836122d8565b905060006040518060c00160405280836000015173ffffffffffffffffffffffffffffffffffffffff163373ffffffffffffffffffffffffffffffffffffffff1614611189578360800151600001516111a3565b8460006003811061119d5761119c61353d565b5b60200201355b8152602001836000015173ffffffffffffffffffffffffffffffffffffffff163373ffffffffffffffffffffffffffffffffffffffff16146111ed57836080015160200151611207565b846001600381106112015761120061353d565b5b60200201355b8152602001836000015173ffffffffffffffffffffffffffffffffffffffff163373ffffffffffffffffffffffffffffffffffffffff16146112515783608001516040015161126b565b846002600381106112655761126461353d565b5b60200201355b8152602001836020015173ffffffffffffffffffffffffffffffffffffffff163373ffffffffffffffffffffffffffffffffffffffff16146112b5578360800151606001516112cf565b846000600381106112c9576112c861353d565b5b60200201355b8152602001836020015173ffffffffffffffffffffffffffffffffffffffff163373ffffffffffffffffffffffffffffffffffffffff161461131957836080015160800151611333565b8460016003811061132d5761132c61353d565b5b60200201355b8152602001836020015173ffffffffffffffffffffffffffffffffffffffff163373ffffffffffffffffffffffffffffffffffffffff161461137d57836080015160a00151611397565b846002600381106113915761139061353d565b5b60200201355b8152509050604051806101000160405280836000015173ffffffffffffffffffffffffffffffffffffffff168152602001836020015173ffffffffffffffffffffffffffffffffffffffff16815260200183604001518152602001836060015173ffffffffffffffffffffffffffffffffffffffff1681526020018281526020018360a0015181526020018360c001518152602001600073ffffffffffffffffffffffffffffffffffffffff168152509150611452826124cc565b156114ce578060096000868152602001908152602001600020600084604001518152602001908152602001600020600082015181600001556020820151816001015560408201518160020155606082015181600301556080820151816004015560a082015181600501559050506114c98483612540565b6115ff565b816000015173ffffffffffffffffffffffffffffffffffffffff16826060015173ffffffffffffffffffffffffffffffffffffffff1614611513578160000151611519565b81602001515b826060019073ffffffffffffffffffffffffffffffffffffffff16908173ffffffffffffffffffffffffffffffffffffffff16815250508060096000868152602001908152602001600020600084604001518152602001908152602001600020600082015181600001556020820151816001015560408201518160020155606082015181600301556080820151816004015560a082015181600501559050506115c28483611d8b565b837f278844837bcf8364a705384bf3a2812901f54155bae86dea81dd52aa5b9ec0e383604001516040516115f6919061311b565b60405180910390a25b50505050565b61160d611b91565b600073ffffffffffffffffffffffffffffffffffffffff168173ffffffffffffffffffffffffffffffffffffffff160361167c576040517f08c379a00000000000000000000000000000000000000000000000000000000081526004016116739061397d565b60405180910390fd5b61168581611c0f565b50565b611690612d13565b61169a6001611cd3565b8211156116dc576040517f08c379a00000000000000000000000000000000000000000000000000000000081526004016116d39061362f565b60405180910390fd5b6000600a6000848152602001908152602001600020604051806101000160405290816000820160009054906101000a900473ffffffffffffffffffffffffffffffffffffffff1673ffffffffffffffffffffffffffffffffffffffff1673ffffffffffffffffffffffffffffffffffffffff1681526020016001820160009054906101000a900473ffffffffffffffffffffffffffffffffffffffff1673ffffffffffffffffffffffffffffffffffffffff1673ffffffffffffffffffffffffffffffffffffffff168152602001600282015481526020016003820160009054906101000a900473ffffffffffffffffffffffffffffffffffffffff1673ffffffffffffffffffffffffffffffffffffffff1673ffffffffffffffffffffffffffffffffffffffff168152602001600482016040518060c001604052908160008201548152602001600182015481526020016002820154815260200160038201548152602001600482015481526020016005820154815250508152602001600a8201548152602001600b8201548152602001600c820160009054906101000a900473ffffffffffffffffffffffffffffffffffffffff1673ffffffffffffffffffffffffffffffffffffffff1673ffffffffffffffffffffffffffffffffffffffff16815250509050806000015173ffffffffffffffffffffffffffffffffffffffff163373ffffffffffffffffffffffffffffffffffffffff1614806119325750806020015173ffffffffffffffffffffffffffffffffffffffff163373ffffffffffffffffffffffffffffffffffffffff16145b611971576040517f08c379a00000000000000000000000000000000000000000000000000000000081526004016119689061369b565b60405180910390fd5b600073ffffffffffffffffffffffffffffffffffffffff168160e0015173ffffffffffffffffffffffffffffffffffffffff16036119e4576040517f08c379a00000000000000000000000000000000000000000000000000000000081526004016119db906139e9565b60405180910390fd5b6119ec612d83565b60005b6003811015611a9d57600960008681526020019081526020016000206000600183611a1a919061386b565b81526020019081526020016000206040518060c00160405290816000820154815260200160018201548152602001600282015481526020016003820154815260200160048201548152602001600582015481525050828260038110611a8257611a8161353d565b5b60200201819052508080611a959061359b565b9150506119ef565b508160000151836000019073ffffffffffffffffffffffffffffffffffffffff16908173ffffffffffffffffffffffffffffffffffffffff16815250508160200151836020019073ffffffffffffffffffffffffffffffffffffffff16908173ffffffffffffffffffffffffffffffffffffffff16815250508083604001819052508160e00151836060019073ffffffffffffffffffffffffffffffffffffffff16908173ffffffffffffffffffffffffffffffffffffffff16815250505050919050565b6000611b7082600001612ac0565b9050919050565b6000611b868360000183612ad1565b60001c905092915050565b611b99612afc565b73ffffffffffffffffffffffffffffffffffffffff16611bb76106aa565b73ffffffffffffffffffffffffffffffffffffffff1614611c0d576040517f08c379a0000000000000000000000000000000000000000000000000000000008152600401611c0490613a55565b60405180910390fd5b565b60008060009054906101000a900473ffffffffffffffffffffffffffffffffffffffff169050816000806101000a81548173ffffffffffffffffffffffffffffffffffffffff021916908373ffffffffffffffffffffffffffffffffffffffff1602179055508173ffffffffffffffffffffffffffffffffffffffff168173ffffffffffffffffffffffffffffffffffffffff167f8be0079c531659141344cd1fd0a4f28419497f9722a3daafe3b4186f6b6457e060405160405180910390a35050565b600081600001549050919050565b6000600c60008473ffffffffffffffffffffffffffffffffffffffff1673ffffffffffffffffffffffffffffffffffffffff16815260200190815260200160002060008373ffffffffffffffffffffffffffffffffffffffff1673ffffffffffffffffffffffffffffffffffffffff16815260200190815260200160002060009054906101000a900460ff16905092915050565b6001816000016000828254019250508190555050565b80600a600084815260200190815260200160002060008201518160000160006101000a81548173ffffffffffffffffffffffffffffffffffffffff021916908373ffffffffffffffffffffffffffffffffffffffff16021790555060208201518160010160006101000a81548173ffffffffffffffffffffffffffffffffffffffff021916908373ffffffffffffffffffffffffffffffffffffffff1602179055506040820151816002015560608201518160030160006101000a81548173ffffffffffffffffffffffffffffffffffffffff021916908373ffffffffffffffffffffffffffffffffffffffff160217905550608082015181600401600082015181600001556020820151816001015560408201518160020155606082015181600301556080820151816004015560a08201518160050155505060a082015181600a015560c082015181600b015560e082015181600c0160006101000a81548173ffffffffffffffffffffffffffffffffffffffff021916908373ffffffffffffffffffffffffffffffffffffffff1602179055509050505050565b6000611f39836000018360001b612b04565b905092915050565b611f4b6001611cd3565b821115611f8d576040517f08c379a0000000000000000000000000000000000000000000000000000000008152600401611f849061362f565b60405180910390fd5b6000611f98836122d8565b9050806000015173ffffffffffffffffffffffffffffffffffffffff163373ffffffffffffffffffffffffffffffffffffffff1614806120075750806020015173ffffffffffffffffffffffffffffffffffffffff163373ffffffffffffffffffffffffffffffffffffffff16145b612046576040517f08c379a000000000000000000000000000000000000000000000000000000000815260040161203d90613ac1565b60405180910390fd5b3373ffffffffffffffffffffffffffffffffffffffff16816060015173ffffffffffffffffffffffffffffffffffffffff16146120b8576040517f08c379a00000000000000000000000000000000000000000000000000000000081526004016120af90613b2d565b60405180910390fd5b6005826000600381106120ce576120cd61353d565b5b60200201351115612114576040517f08c379a000000000000000000000000000000000000000000000000000000000815260040161210b90613773565b60405180910390fd5b60028260016003811061212a5761212961353d565b5b60200201351115612170576040517f08c379a0000000000000000000000000000000000000000000000000000000008152600401612167906137df565b60405180910390fd5b6003826002600381106121865761218561353d565b5b602002013511156121cc576040517f08c379a00000000000000000000000000000000000000000000000000000000081526004016121c39061384b565b60405180910390fd5b6000816040015190506000836002600381106121eb576121ea61353d565b5b6020020135846001600381106122045761220361353d565b5b60200201358560006003811061221d5761221c61353d565b5b602002013561222c919061386b565b612236919061386b565b9050600860008381526020019081526020016000205481111561228e576040517f08c379a0000000000000000000000000000000000000000000000000000000008152600401612285906138eb565b60405180910390fd5b600081116122d1576040517f08c379a00000000000000000000000000000000000000000000000000000000081526004016122c890613b99565b60405180910390fd5b5050505050565b6122e0612db0565b600a6000838152602001908152602001600020604051806101000160405290816000820160009054906101000a900473ffffffffffffffffffffffffffffffffffffffff1673ffffffffffffffffffffffffffffffffffffffff1673ffffffffffffffffffffffffffffffffffffffff1681526020016001820160009054906101000a900473ffffffffffffffffffffffffffffffffffffffff1673ffffffffffffffffffffffffffffffffffffffff1673ffffffffffffffffffffffffffffffffffffffff168152602001600282015481526020016003820160009054906101000a900473ffffffffffffffffffffffffffffffffffffffff1673ffffffffffffffffffffffffffffffffffffffff1673ffffffffffffffffffffffffffffffffffffffff168152602001600482016040518060c001604052908160008201548152602001600182015481526020016002820154815260200160038201548152602001600482015481526020016005820154815250508152602001600a8201548152602001600b8201548152602001600c820160009054906101000a900473ffffffffffffffffffffffffffffffffffffffff1673ffffffffffffffffffffffffffffffffffffffff1673ffffffffffffffffffffffffffffffffffffffff16815250509050919050565b6000808260800151604001518360800151602001518460800151600001516124f4919061386b565b6124fe919061386b565b11801561253957506000826080015160a0015183608001516080015184608001516060015161252d919061386b565b612537919061386b565b115b9050919050565b60008160a00151905060008260c001519050600060066000015484608001516040015161256d9190613bb9565b6004600001548560800151602001516125869190613bb9565b60026000015486608001516000015161259f9190613bb9565b6125a9919061386b565b6125b3919061386b565b905060006006600101548560800151604001516125d09190613bb9565b6004600101548660800151602001516125e99190613bb9565b6002600101548760800151600001516126029190613bb9565b61260c919061386b565b612616919061386b565b90506000600660000154866080015160a001516126339190613bb9565b60046000015487608001516080015161264c9190613bb9565b6002600001548860800151606001516126659190613bb9565b61266f919061386b565b612679919061386b565b90506000600660010154876080015160a001516126969190613bb9565b6004600101548860800151608001516126af9190613bb9565b6002600101548960800151606001516126c89190613bb9565b6126d2919061386b565b6126dc919061386b565b905060006040518060c0016040528060008152602001600081526020016000815260200160008152602001600081526020016000815250905060006040518061010001604052808a6000015173ffffffffffffffffffffffffffffffffffffffff1681526020018a6020015173ffffffffffffffffffffffffffffffffffffffff1681526020018a6040015181526020018a6060015173ffffffffffffffffffffffffffffffffffffffff1681526020018381526020016127a68a6127a1888a612b74565b612b99565b81526020016127be896127b98a88612b74565b612b99565b8152602001600073ffffffffffffffffffffffffffffffffffffffff1681525090506003896040015103612a535760008160c001518260a00151101561280857896020015161280e565b89600001515b905060008260400181815250506000826060019073ffffffffffffffffffffffffffffffffffffffff16908173ffffffffffffffffffffffffffffffffffffffff1681525050808260e0019073ffffffffffffffffffffffffffffffffffffffff16908173ffffffffffffffffffffffffffffffffffffffff16815250506000600c60008c6000015173ffffffffffffffffffffffffffffffffffffffff1673ffffffffffffffffffffffffffffffffffffffff16815260200190815260200160002060008c6020015173ffffffffffffffffffffffffffffffffffffffff1673ffffffffffffffffffffffffffffffffffffffff16815260200190815260200160002060006101000a81548160ff0219169083151502179055506129338b83611d8b565b8a7f8aba4bf97c53cd5124a16826906cf29c99e37b45dcaccff77292ab676a81b5278b60400151604051612967919061311b565b60405180910390a28073ffffffffffffffffffffffffffffffffffffffff167f659ab4616759704498ed851deaf5cf2eb0b2869d85580cd68a3371aea737e7008c8c6000015173ffffffffffffffffffffffffffffffffffffffff168473ffffffffffffffffffffffffffffffffffffffff16146129e9578460c001516129ef565b8460a001515b8d6020015173ffffffffffffffffffffffffffffffffffffffff168573ffffffffffffffffffffffffffffffffffffffff1614612a30578560c00151612a36565b8560a001515b604051612a4593929190613bfb565b60405180910390a250612ab4565b60018960400151612a64919061386b565b816040018181525050612a778a82611d8b565b897f8aba4bf97c53cd5124a16826906cf29c99e37b45dcaccff77292ab676a81b5278a60400151604051612aab919061311b565b60405180910390a25b50505050505050505050565b600081600001805490509050919050565b6000826000018281548110612ae957612ae861353d565b5b9060005260206000200154905092915050565b600033905090565b6000612b108383612bbe565b612b69578260000182908060018154018082558091505060019003906000526020600020016000909190919091505582600001805490508360010160008481526020019081526020016000208190555060019050612b6e565b600090505b92915050565b6000818311612b84576000612b91565b8183612b909190613c32565b5b905092915050565b6000818311612ba9576000612bb6565b8183612bb59190613c32565b5b905092915050565b600080836001016000848152602001908152602001600020541415905092915050565b6040518060c0016040528060008152602001600073ffffffffffffffffffffffffffffffffffffffff168152602001600073ffffffffffffffffffffffffffffffffffffffff16815260200160008152602001600073ffffffffffffffffffffffffffffffffffffffff168152602001600073ffffffffffffffffffffffffffffffffffffffff1681525090565b604051806101200160405280600073ffffffffffffffffffffffffffffffffffffffff168152602001600073ffffffffffffffffffffffffffffffffffffffff16815260200160008152602001600073ffffffffffffffffffffffffffffffffffffffff16815260200160008152602001600081526020016000815260200160008152602001600073ffffffffffffffffffffffffffffffffffffffff1681525090565b6040518060800160405280600073ffffffffffffffffffffffffffffffffffffffff168152602001600073ffffffffffffffffffffffffffffffffffffffff168152602001612d60612d83565b8152602001600073ffffffffffffffffffffffffffffffffffffffff1681525090565b60405180606001604052806003905b612d9a612e53565b815260200190600190039081612d925790505090565b604051806101000160405280600073ffffffffffffffffffffffffffffffffffffffff168152602001600073ffffffffffffffffffffffffffffffffffffffff16815260200160008152602001600073ffffffffffffffffffffffffffffffffffffffff168152602001612e22612e53565b81526020016000815260200160008152602001600073ffffffffffffffffffffffffffffffffffffffff1681525090565b6040518060c001604052806000815260200160008152602001600081526020016000815260200160008152602001600081525090565b600080fd5b600073ffffffffffffffffffffffffffffffffffffffff82169050919050565b6000612eb982612e8e565b9050919050565b612ec981612eae565b8114612ed457600080fd5b50565b600081359050612ee681612ec0565b92915050565b6000819050919050565b612eff81612eec565b8114612f0a57600080fd5b50565b600081359050612f1c81612ef6565b92915050565b600080600060608486031215612f3b57612f3a612e89565b5b6000612f4986828701612ed7565b9350506020612f5a86828701612f0d565b9250506040612f6b86828701612f0d565b9150509250925092565b600081519050919050565b600082825260208201905092915050565b6000819050602082019050919050565b612faa81612eec565b82525050565b612fb981612eae565b82525050565b60c082016000820151612fd56000850182612fa1565b506020820151612fe86020850182612fb0565b506040820151612ffb6040850182612fb0565b50606082015161300e6060850182612fa1565b5060808201516130216080850182612fb0565b5060a082015161303460a0850182612fb0565b50505050565b60006130468383612fbf565b60c08301905092915050565b6000602082019050919050565b600061306a82612f75565b6130748185612f80565b935061307f83612f91565b8060005b838110156130b0578151613097888261303a565b97506130a283613052565b925050600181019050613083565b5085935050505092915050565b600060208201905081810360008301526130d7818461305f565b905092915050565b6000602082840312156130f5576130f4612e89565b5b600061310384828501612ed7565b91505092915050565b61311581612eec565b82525050565b6000602082019050613130600083018461310c565b92915050565b61313f81612eae565b82525050565b600060208201905061315a6000830184613136565b92915050565b60006020828403121561317657613175612e89565b5b600061318484828501612f0d565b91505092915050565b610120820160008201516131a46000850182612fb0565b5060208201516131b76020850182612fb0565b5060408201516131ca6040850182612fa1565b5060608201516131dd6060850182612fb0565b5060808201516131f06080850182612fa1565b5060a082015161320360a0850182612fa1565b5060c082015161321660c0850182612fa1565b5060e082015161322960e0850182612fa1565b5061010082015161323e610100850182612fb0565b50505050565b60006101208201905061325a600083018461318d565b92915050565b600080fd5b60008190508260206003028201111561328157613280613260565b5b92915050565b6000806080838503121561329e5761329d612e89565b5b60006132ac85828601612ed7565b92505060206132bd85828601613265565b9150509250929050565b600080608083850312156132de576132dd612e89565b5b60006132ec85828601612f0d565b92505060206132fd85828601613265565b9150509250929050565b600060039050919050565b600081905092915050565b6000819050919050565b60c08201600082015161333d6000850182612fa1565b5060208201516133506020850182612fa1565b5060408201516133636040850182612fa1565b5060608201516133766060850182612fa1565b5060808201516133896080850182612fa1565b5060a082015161339c60a0850182612fa1565b50505050565b60006133ae8383613327565b60c08301905092915050565b6000602082019050919050565b6133d081613307565b6133da8184613312565b92506133e58261331d565b8060005b838110156134165781516133fd87826133a2565b9650613408836133ba565b9250506001810190506133e9565b505050505050565b6102a0820160008201516134356000850182612fb0565b5060208201516134486020850182612fb0565b50604082015161345b60408501826133c7565b50606082015161346f610280850182612fb0565b50505050565b60006102a08201905061348b600083018461341e565b92915050565b600082825260208201905092915050565b7f43616e2774207265717565737420746f6f206d616e79207265636f7264732100600082015250565b60006134d8601f83613491565b91506134e3826134a2565b602082019050919050565b60006020820190508181036000830152613507816134cb565b9050919050565b7f4e487b7100000000000000000000000000000000000000000000000000000000600052604160045260246000fd5b7f4e487b7100000000000000000000000000000000000000000000000000000000600052603260045260246000fd5b7f4e487b7100000000000000000000000000000000000000000000000000000000600052601160045260246000fd5b60006135a682612eec565b91507fffffffffffffffffffffffffffffffffffffffffffffffffffffffffffffffff82036135d8576135d761356c565b5b600182019050919050565b7f426174746c6520696420646f65736e2774206578697374000000000000000000600082015250565b6000613619601783613491565b9150613624826135e3565b602082019050919050565b600060208201905081810360008301526136488161360c565b9050919050565b7f556e617574686f72697a65640000000000000000000000000000000000000000600082015250565b6000613685600c83613491565b91506136908261364f565b602082019050919050565b600060208201905081810360008301526136b481613678565b9050919050565b7f5573652072657175657374426174746c65000000000000000000000000000000600082015250565b60006136f1601183613491565b91506136fc826136bb565b602082019050919050565b60006020820190508181036000830152613720816136e4565b9050919050565b7f45786365656473205072656461746f7273206d61780000000000000000000000600082015250565b600061375d601583613491565b915061376882613727565b602082019050919050565b6000602082019050818103600083015261378c81613750565b9050919050565b7f457863656564732050726f78696d757320436f627261206d6178000000000000600082015250565b60006137c9601a83613491565b91506137d482613793565b602082019050919050565b600060208201905081810360008301526137f8816137bc565b9050919050565b7f4578636565647320426f756e74792048756e746572206d617800000000000000600082015250565b6000613835601983613491565b9150613840826137ff565b602082019050919050565b6000602082019050818103600083015261386481613828565b9050919050565b600061387682612eec565b915061388183612eec565b92508282019050808211156138995761389861356c565b5b92915050565b7f546f6f206d616e792074726f6f70732100000000000000000000000000000000600082015250565b60006138d5601083613491565b91506138e08261389f565b602082019050919050565b60006020820190508181036000830152613904816138c8565b9050919050565b7f4f776e61626c653a206e6577206f776e657220697320746865207a65726f206160008201527f6464726573730000000000000000000000000000000000000000000000000000602082015250565b6000613967602683613491565b91506139728261390b565b604082019050919050565b600060208201905081810360008301526139968161395a565b9050919050565b7f4f6e6c7920656e646564206d6174636865730000000000000000000000000000600082015250565b60006139d3601283613491565b91506139de8261399d565b602082019050919050565b60006020820190508181036000830152613a02816139c6565b9050919050565b7f4f776e61626c653a2063616c6c6572206973206e6f7420746865206f776e6572600082015250565b6000613a3f602083613491565b9150613a4a82613a09565b602082019050919050565b60006020820190508181036000830152613a6e81613a32565b9050919050565b7f43616e27742072657175657374207468697320626174746c6500000000000000600082015250565b6000613aab601983613491565b9150613ab682613a75565b602082019050919050565b60006020820190508181036000830152613ada81613a9e565b9050919050565b7f4e6f7420796f7572207475726e21000000000000000000000000000000000000600082015250565b6000613b17600e83613491565b9150613b2282613ae1565b602082019050919050565b60006020820190508181036000830152613b4681613b0a565b9050919050565b7f4d7573742073656e642074726f6f707321000000000000000000000000000000600082015250565b6000613b83601183613491565b9150613b8e82613b4d565b602082019050919050565b60006020820190508181036000830152613bb281613b76565b9050919050565b6000613bc482612eec565b9150613bcf83612eec565b9250828202613bdd81612eec565b91508282048414831517613bf457613bf361356c565b5b5092915050565b6000606082019050613c10600083018661310c565b613c1d602083018561310c565b613c2a604083018461310c565b949350505050565b6000613c3d82612eec565b9150613c4883612eec565b9250828203905081811115613c6057613c5f61356c565b5b9291505056fea26469706673582212200ab2b096a65c211accc7c58fb8b2d7bd452584e8ea88da70fc9bcb3cc0f8711564736f6c63430008110033",
  "immutableReferences": {},
  "source": "// SPDX-License-Identifier: MIT\npragma solidity 0.8.17;\n\nimport \"@openzeppelin/contracts/access/Ownable.sol\";\nimport \"@openzeppelin/contracts/utils/Counters.sol\";\nimport \"@openzeppelin/contracts/utils/structs/EnumerableSet.sol\";\n\ncontract EternovaQuickBattles is Ownable{\n\t\n\tusing Counters for Counters.Counter;\n\tusing EnumerableSet for EnumerableSet.UintSet;\n\n    Counters.Counter private _battleIds;\n\n\tevent BattleStarted(uint indexed id, address indexed creator, address indexed opponent);\n\tevent BattleFinished(uint id, address indexed winner, uint winnerCityLife, uint looserCityLife);\n\n\tevent RoundStarted(uint indexed id, uint currentRound);\t\n\tevent RoundFinished(uint indexed id, uint currentRound);\n\t\n\tstruct Troop {\n\t\tuint attack;\n\t\tuint defense;\t\t\n\t}\n\n\tTroop private predator = Troop(40,100);\n\tTroop private proximusCobra = Troop(200,200);\n\tTroop private bounty_hunters = Troop(150,50);\n\n\tuint constant MAX_ROUNDS = 3;\n\n\tuint constant PREDATOR_UNITS = 5;\n\tuint constant PROXIMUS_COBRA_UNITS = 2;\n\tuint constant BOUNTY_HUNTERS_UNITS = 3;\n\t\n\tuint constant STARTING_LIFE = 500;\n\n\tuint constant MAX_UNITS_FIRST_ROUND = 8;\n\tuint constant MAX_UNITS_SECOND_ROUND = 9;\n\tuint constant MAX_UNITS_THIRD_ROUND = 10;\n\n\t//Round N => Max units\n\tmapping(uint => uint) roundMaxUnits;\n\t\n\tuint constant FIRST_ROUND = 1;\n\tuint constant SECOND_ROUND = 2;\n\tuint constant THIRD_ROUND = 3;\n\n\tstruct BattleData {\n\t\taddress creator;\n\t\taddress opponent;\n\t\tuint currentRound;\n\t\taddress nextMove;\n\t\tBattleAmount amounts;\n\t\tuint creatorCityLife;\n\t\tuint opponentCityLife;\n\t\taddress winner;\n\t}\n\n\tstruct BattleAmount {\n\t\tuint predatorAttackingUnits;\n\t\tuint proximusAttackingUnits;\n\t\tuint bountyAttackingUnits;\n\t\tuint predatorDefendingUnits;\n\t\tuint proximusDefendingUnits;\n\t\tuint bountyDefendingUnits;\n\t}\n\n\t//BattleId => Round => Amount\n\tmapping (uint => mapping(uint => BattleAmount)) private roundsAmounts;\n\n\t//BattleId => Data\n\tmapping (uint => BattleData) private battle;\n\n\t//User => [battleId]\n\tmapping(address => EnumerableSet.UintSet) private userBattle;\n\n\tmapping(address => mapping(address => bool)) currentlyFighting;\n\t\t\t\n\tconstructor() {\n\t\troundMaxUnits[1] = MAX_UNITS_FIRST_ROUND;\t\t\n\t\troundMaxUnits[2] = MAX_UNITS_SECOND_ROUND;\t\t\n\t\troundMaxUnits[3] = MAX_UNITS_THIRD_ROUND;\t\t\n\t}\n\n\tfunction startBattle(address opponent, uint[3] calldata troopsAmount) external returns(uint){\n\t\trequire(!areCurrentlyFighting(msg.sender, opponent), \"Use requestBattle\");\n\t\trequire(troopsAmount[0] <= PREDATOR_UNITS,\"Exceeds Predators max\");\n\t\trequire(troopsAmount[1] <= PROXIMUS_COBRA_UNITS,\"Exceeds Proximus Cobra max\");\n\t\trequire(troopsAmount[2] <= BOUNTY_HUNTERS_UNITS,\"Exceeds Bounty Hunter max\");\n\t\n\t\tuint totalTroops = troopsAmount[0] + troopsAmount[1] + troopsAmount[2];\n\t\trequire(totalTroops <= roundMaxUnits[FIRST_ROUND],\"Too many troops!\");\n\n\t\t_battleIds.increment();\n\n\t\tBattleAmount memory amounts = BattleAmount(\n\t\t\t\t\t\t\t\t\t\t\ttroopsAmount[0], //predatorAttackingUnits\n\t\t\t\t\t\t\t\t\t\t\ttroopsAmount[1], //proximusAttackingUnits\n\t\t\t\t\t\t\t\t\t\t\ttroopsAmount[2], //bountyAttackingUnits\n\t\t\t\t\t\t\t\t\t\t\t0, //predatorDefendingUnits\n\t\t\t\t\t\t\t\t\t\t\t0, //proximusDefendingUnits\n\t\t\t\t\t\t\t\t\t\t\t0 //bountyDefendingUnits\n\t\t\t\t\t\t\t\t\t\t);\n\t\t\n\t\tBattleData memory data = BattleData(\n\t\t\tmsg.sender, //Creator\n\t\t\topponent, //Opponnent\n\t\t\tFIRST_ROUND, //currentRound\n\t\t\topponent, //NextMove\n\t\t\tamounts,\n\t\t\tSTARTING_LIFE, //creatorCityLife\n\t\t\tSTARTING_LIFE, //opponentCityLife\n\t\t\taddress(0) //Winner\n\t\t\t);\n\n\t\troundsAmounts[_battleIds.current()][FIRST_ROUND] = amounts;\n\t\tsetBattle(_battleIds.current(), data);\n\t\tuserBattle[msg.sender].add(_battleIds.current());\n\t\tcurrentlyFighting[msg.sender][opponent] = true;\n\t\temit RoundStarted(_battleIds.current(), data.currentRound);\n\n\t\treturn _battleIds.current();\n\t}\n\n\t//Troops amount for each type [predator, proximusCobra,bounty_hunters]\t\n\tfunction requestBattle(uint id, uint[3] calldata troopsAmount) external {\n\t\tvalidateBattleData(id, troopsAmount);\n\t\tBattleData memory data = getBattleData(id);\n\n\t\tBattleAmount memory amounts = BattleAmount(\n\t\t\t\t\t\t\t\t\tmsg.sender == data.creator ? troopsAmount[0] : data.amounts.predatorAttackingUnits, //predatorAttackingUnits\n\t\t\t\t\t\t\t\t\tmsg.sender == data.creator ? troopsAmount[1] : data.amounts.proximusAttackingUnits, //proximusAttackingUnits\n\t\t\t\t\t\t\t\t\tmsg.sender == data.creator ? troopsAmount[2] : data.amounts.bountyAttackingUnits, //bountyAttackingUnits\n\t\t\t\t\t\t\t\t\tmsg.sender == data.opponent ? troopsAmount[0] : data.amounts.predatorDefendingUnits, //predatorDefendingUnits\n\t\t\t\t\t\t\t\t\tmsg.sender == data.opponent ? troopsAmount[1] : data.amounts.proximusDefendingUnits, //proximusDefendingUnits\n\t\t\t\t\t\t\t\t\tmsg.sender == data.opponent ? troopsAmount[2] : data.amounts.bountyDefendingUnits //bountyDefendingUnits\n\t\t\t\t\t\t\t\t\t);\n\t\t\n\t\tdata = BattleData(\n\t\t\tdata.creator,\n\t\t\tdata.opponent,\n\t\t\tdata.currentRound, //currentRound\n\t\t\tdata.nextMove, //NextMove\n\t\t\tamounts,\n\t\t\tdata.creatorCityLife, //creatorCityLife\n\t\t\tdata.opponentCityLife, //opponentCityLife\n\t\t\taddress(0) //winner\n\t\t\t);\n\n\t\tif (didBothPlayersMoved(data)){\n\t\t\troundsAmounts[id][data.currentRound] = amounts;\n\t\t\tresolveRound(id, data);\n\t\t}else{\n\t\t\tdata.nextMove = data.nextMove == data.creator ? data.opponent : data.creator;\n\t\t\troundsAmounts[id][data.currentRound] = amounts;\n\t\t\tsetBattle(id, data);\n\t\t\temit RoundStarted(id, data.currentRound);\n\t\t}\n\t}\n\n\tfunction didBothPlayersMoved(BattleData memory data) internal pure returns(bool){\n\t\treturn data.amounts.predatorAttackingUnits + data.amounts.proximusAttackingUnits + data.amounts.bountyAttackingUnits > 0 &&\n\tdata.amounts.predatorDefendingUnits + data.amounts.proximusDefendingUnits + data.amounts.bountyDefendingUnits > 0;\n\t}\n\n\tfunction validateBattleData(uint id,uint[3] calldata troopsAmount) internal view{\n\t\trequire(id <= _battleIds.current(),\"Battle id doesn't exist\");\n\t\tBattleData memory data = getBattleData(id);\n\t\trequire(msg.sender == data.creator || msg.sender == data.opponent,\"Can't request this battle\");\n\t\trequire(data.nextMove == msg.sender,\"Not your turn!\");\n\t\trequire(troopsAmount[0] <= PREDATOR_UNITS,\"Exceeds Predators max\");\n\t\trequire(troopsAmount[1] <= PROXIMUS_COBRA_UNITS,\"Exceeds Proximus Cobra max\");\n\t\trequire(troopsAmount[2] <= BOUNTY_HUNTERS_UNITS,\"Exceeds Bounty Hunter max\");\n\t\t\n\t\tuint currentRound = data.currentRound;\n\t\tuint totalTroops = troopsAmount[0] + troopsAmount[1] + troopsAmount[2];\n\n\t\trequire(totalTroops <= roundMaxUnits[currentRound],\"Too many troops!\");\n\t\trequire(totalTroops > 0,\"Must send troops!\");\n\t}\n\n\tfunction resolveRound (uint id, BattleData memory data) internal {\t\t\n\t\tuint creatorCurrentCityLife = data.creatorCityLife;\n\t\tuint opponentCurrentCityLife = data.opponentCityLife;\n\t\t//Creator\n\t\tuint creatorTotalAttack = data.amounts.predatorAttackingUnits * predator.attack + data.amounts.proximusAttackingUnits * proximusCobra.attack + data.amounts.bountyAttackingUnits * bounty_hunters.attack;\n\t\tuint creatorTotalDefense = data.amounts.predatorAttackingUnits * predator.defense + data.amounts.proximusAttackingUnits * proximusCobra.defense + data.amounts.bountyAttackingUnits * bounty_hunters.defense;\n\t\t//Opponent\n\t\tuint opponentTotalAttack = data.amounts.predatorDefendingUnits * predator.attack + data.amounts.proximusDefendingUnits * proximusCobra.attack + data.amounts.bountyDefendingUnits * bounty_hunters.attack;\n\t\tuint opponentTotalDefense = data.amounts.predatorDefendingUnits * predator.defense + data.amounts.proximusDefendingUnits * proximusCobra.defense + data.amounts.bountyDefendingUnits * bounty_hunters.defense;\n\n\t\tBattleAmount memory amounts = BattleAmount(\n\t\t\t\t\t\t\t\t0, //predatorAttackingUnits\n\t\t\t\t\t\t\t\t0, //proximusAttackingUnits\n\t\t\t\t\t\t\t\t0, //bountyAttackingUnits\n\t\t\t\t\t\t\t\t0, //predatorDefendingUnits\n\t\t\t\t\t\t\t\t0, //proximusDefendingUnits\n\t\t\t\t\t\t\t\t0 //bountyDefendingUnits\n\t\t\t\t\t\t\t);\n\t\tBattleData memory newData = BattleData(\n\t\t\tdata.creator,\n\t\t\tdata.opponent,\n\t\t\tdata.currentRound, //currentRound\n\t\t\tdata.nextMove,\n\t\t\tamounts,\n\t\t\tgetRemainingLife(creatorCurrentCityLife, getTotalDamage(opponentTotalAttack, creatorTotalDefense)), //creatorCityLife\n\t\t\tgetRemainingLife(opponentCurrentCityLife, getTotalDamage(creatorTotalAttack, opponentTotalDefense)), //opponentCityLife\n\t\t\taddress(0) //Winner\n\t\t);\n\t\t\n\t\tif (data.currentRound == THIRD_ROUND){\n\t\t\taddress winner = newData.creatorCityLife >= newData.opponentCityLife ? data.creator : data.opponent;\n\t\t\tnewData.currentRound = 0;\n\t\t\tnewData.nextMove = address(0);\n\t\t\tnewData.winner = winner;\n\t\t\tcurrentlyFighting[data.creator][data.opponent] = false;\n\t\t\tsetBattle(id, newData);\n\t\t\temit RoundFinished(id, data.currentRound);\n\t\t\temit BattleFinished(id, winner, winner == data.creator ? newData.creatorCityLife : newData.opponentCityLife, winner == data.opponent ? newData.creatorCityLife : newData.opponentCityLife);\n\t\t}else{\n\t\t\tnewData.currentRound = data.currentRound + 1;\n\t\t\t\n\t\t\tsetBattle(id, newData);\n\t\t\temit RoundFinished(id, data.currentRound);\t\t\t\t\n\t\t}\n\n\t}\n\t\n\tfunction getTotalDamage(uint attack, uint defense) internal pure returns(uint){\n\t\treturn attack > defense ? attack - defense : 0;\n\t}\n\t\n\tfunction getRemainingLife(uint currentLife, uint damage) internal pure returns(uint){\n\t\treturn currentLife > damage ? currentLife - damage : 0;\n\t}\n\n\tfunction getBattleData(uint id) internal view returns(BattleData memory){\n\t\treturn battle[id];\n\t}\n\n\tstruct PublicBattleData {\n\t\taddress creator;\n\t\taddress opponent;\n\t\tuint currentRound;\n\t\taddress nextMove;\n\t\tuint predatorUnits;\n\t\tuint proximusUnits;\n\t\tuint bountyUnits;\n\t\tuint cityLife;\n\t\taddress winner;\n\t}\n\n\tfunction getPublicBattleData(uint id) external view returns(PublicBattleData memory data){\n\t\trequire(id <= _battleIds.current(),\"Battle id doesn't exist\");\n\t\tBattleData memory battleData = battle[id];\n\t\trequire(msg.sender == battleData.creator || msg.sender == battleData.opponent ,\"Unauthorized\");\n\n\t\tdata.creator = battleData.creator;\n\t\tdata.opponent = battleData.opponent;\n\t\tdata.currentRound = battleData.currentRound;\n\t\tdata.nextMove = battleData.nextMove;\n\t\tdata.predatorUnits = msg.sender == data.creator ? battleData.amounts.predatorAttackingUnits : battleData.amounts.predatorDefendingUnits;\n\t\tdata.proximusUnits = msg.sender == data.creator ? battleData.amounts.proximusAttackingUnits : battleData.amounts.proximusDefendingUnits;\n\t\tdata.bountyUnits = msg.sender == data.creator ? battleData.amounts.bountyAttackingUnits : battleData.amounts.bountyDefendingUnits;\n\t\tdata.cityLife = msg.sender == data.creator ? battleData.creatorCityLife : battleData.opponentCityLife;\n\t\tdata.winner = battleData.winner;\n\n\t\treturn data;\n\t}\n\n\tstruct PublicHistoricBattleData {\n\t\taddress creator;\n\t\taddress opponent;\t\t\n\t\tBattleAmount[3] amounts;\t\t\n\t\taddress winner;\n\t}\n\n\tfunction getPublicHistoricBattleData(uint id) external view returns(PublicHistoricBattleData memory data){\n\t\trequire(id <= _battleIds.current(),\"Battle id doesn't exist\");\n\t\tBattleData memory battleData = battle[id];\n\t\trequire(msg.sender == battleData.creator || msg.sender == battleData.opponent ,\"Unauthorized\");\n\t\trequire(battleData.winner != address(0),\"Only ended matches\");\n\n\t\tBattleAmount[3] memory amounts;\n\n\t\tfor (uint i; i < 3; i++){\n\t\t\tamounts[i] = roundsAmounts[id][i+1];\t\t\n\t\t}\t\t\n\n\t\tdata.creator = battleData.creator;\n\t\tdata.opponent = battleData.opponent;\n\t\tdata.amounts = amounts;\n\t\tdata.winner = battleData.winner;\n\n\t\treturn data;\n\t}\n\n\tfunction setBattle(uint id,BattleData memory data) internal{\n\t\tbattle[id] = data;\n\t}\n\n\tstruct BattleDataResponse {\n\t\tuint battleId;\n\t\taddress creator;\n\t\taddress opponent;\n\t\tuint currentRound;\n\t\taddress nextMove;\n\t\taddress winner;\n\t}\n\n\tfunction getUserBattleData(address user, uint limit, uint offset) external view returns(BattleDataResponse[] memory){\n\t\trequire(limit <= 100, \"Can't request too many records!\");\n\t\tEnumerableSet.UintSet storage _ids = userBattle[user];\n\t\tuint battleCount = _ids.length() <= 100 ? _ids.length() : 100;\n\t\tuint queryLimit = (battleCount > limit && limit != 0 ? limit : battleCount);\n\t\tuint responseIndex;\n\t\tBattleDataResponse[]memory response = new BattleDataResponse[](queryLimit);\n\t\tfor (uint i = offset; i < queryLimit; i++){\n\t\t\tuint id = userBattle[user].at(i);\n\t\t\tBattleData memory data = battle[id];\n\t\t\tresponse[responseIndex] = (\n\t\t\t\tBattleDataResponse(\n\t\t\t\t\tid,\n\t\t\t\t\tdata.creator,\n\t\t\t\t\tdata.opponent,\n\t\t\t\t\tdata.currentRound,\n\t\t\t\t\tdata.nextMove,\n\t\t\t\t\tdata.winner\n\t\t\t\t)\n\t\t\t);\n\t\t\tresponseIndex++;\n\t\t}\n\n\t\treturn response;\n\t}\n\t\n\tfunction areCurrentlyFighting(address creator, address opponent) internal view returns(bool){\n\t\treturn currentlyFighting[creator][opponent];\n\t}\n\n\tfunction getUserBattleCount(address user) external view returns(uint){\n\t\treturn userBattle[user].length();\n\t}\n\n}",
  "sourcePath": "/Users/glenci/EternovaQuickBattles/contracts/EternovaQuickBattles.sol",
  "compiler": {
    "name": "solc",
    "version": "0.8.17+commit.8df45f5f.Emscripten.clang"
  },
  "schemaVersion": "3.4.10",
  "updatedAt": "2023-09-18T15:23:34.189Z",
  "networkType": "ethereum",
  "devdoc": {
    "kind": "dev",
    "methods": {
      "owner()": {
        "details": "Returns the address of the current owner."
      },
      "renounceOwnership()": {
        "details": "Leaves the contract without owner. It will not be possible to call `onlyOwner` functions. Can only be called by the current owner. NOTE: Renouncing ownership will leave the contract without an owner, thereby disabling any functionality that is only available to the owner."
      },
      "transferOwnership(address)": {
        "details": "Transfers ownership of the contract to a new account (`newOwner`). Can only be called by the current owner."
      }
    },
    "version": 1
  },
  "userdoc": {
    "kind": "user",
    "methods": {},
    "version": 1
  }
}